{
  "contractName": "ActivationRequest",
  "abi": [
    {
      "inputs": [
        {
          "internalType": "address payable",
          "name": "_owner",
          "type": "address"
        },
        {
          "internalType": "address",
          "name": "_productID",
          "type": "address"
        },
        {
          "internalType": "uint256",
          "name": "_quantity",
          "type": "uint256"
        },
        {
          "internalType": "string",
          "name": "_localization",
          "type": "string"
        },
        {
          "internalType": "uint256",
          "name": "_startOfDelivery",
          "type": "uint256"
        },
        {
          "internalType": "uint256",
          "name": "_createdAt",
          "type": "uint256"
        }
      ],
      "stateMutability": "payable",
      "type": "constructor"
    },
    {
      "inputs": [],
      "name": "getActivationRequestDetails",
      "outputs": [
        {
          "internalType": "address payable",
          "name": "",
          "type": "address"
        },
        {
          "internalType": "address",
          "name": "",
          "type": "address"
        },
        {
          "internalType": "uint256",
          "name": "",
          "type": "uint256"
        },
        {
          "internalType": "string",
          "name": "",
          "type": "string"
        },
        {
          "internalType": "uint256",
          "name": "",
          "type": "uint256"
        },
        {
          "internalType": "uint256",
          "name": "",
          "type": "uint256"
        }
      ],
      "stateMutability": "view",
      "type": "function"
    },
    {
      "inputs": [
        {
          "internalType": "uint256",
          "name": "_status",
          "type": "uint256"
        }
      ],
      "name": "setStatus",
      "outputs": [
        {
          "internalType": "bool",
          "name": "",
          "type": "bool"
        }
      ],
      "stateMutability": "nonpayable",
      "type": "function"
    },
    {
      "inputs": [],
      "name": "getStatus",
      "outputs": [
        {
          "internalType": "string",
          "name": "",
          "type": "string"
        }
      ],
      "stateMutability": "view",
      "type": "function"
    },
    {
      "inputs": [],
      "name": "getLocalization",
      "outputs": [
        {
          "internalType": "string",
          "name": "",
          "type": "string"
        }
      ],
      "stateMutability": "view",
      "type": "function"
    },
    {
      "inputs": [],
      "name": "getQuantity",
      "outputs": [
        {
          "internalType": "uint256",
          "name": "",
          "type": "uint256"
        }
      ],
      "stateMutability": "view",
      "type": "function"
    },
    {
      "inputs": [
        {
          "internalType": "uint256",
          "name": "_qte",
          "type": "uint256"
        }
      ],
      "name": "setQuantity",
      "outputs": [
        {
          "internalType": "bool",
          "name": "",
          "type": "bool"
        }
      ],
      "stateMutability": "nonpayable",
      "type": "function"
    },
    {
      "inputs": [],
      "name": "getCreatedAt",
      "outputs": [
        {
          "internalType": "uint256",
          "name": "",
          "type": "uint256"
        }
      ],
      "stateMutability": "view",
      "type": "function"
    }
  ],
  "bytecode": "0x60806040526040516108cf3803806108cf833981016040819052610022916100af565b600080546001600160a01b038089166001600160a01b031992831617909255600180549288169290911691909117905560028490556003610063848261024d565b5060049190915560055550506006805460ff191690555061030c9050565b6001600160a01b038116811461009657600080fd5b50565b634e487b7160e01b600052604160045260246000fd5b60008060008060008060c087890312156100c857600080fd5b86516100d381610081565b809650506020808801516100e681610081565b604089015160608a015191975095506001600160401b038082111561010a57600080fd5b818a0191508a601f83011261011e57600080fd5b81518181111561013057610130610099565b604051601f8201601f19908116603f0116810190838211818310171561015857610158610099565b816040528281528d8684870101111561017057600080fd5b600093505b828410156101925784840186015181850187015292850192610175565b828411156101a35760008684830101525b8098505050505050506080870151915060a087015190509295509295509295565b600181811c908216806101d857607f821691505b6020821081036101f857634e487b7160e01b600052602260045260246000fd5b50919050565b601f82111561024857600081815260208120601f850160051c810160208610156102255750805b601f850160051c820191505b8181101561024457828155600101610231565b5050505b505050565b81516001600160401b0381111561026657610266610099565b61027a8161027484546101c4565b846101fe565b602080601f8311600181146102af57600084156102975750858301515b600019600386901b1c1916600185901b178555610244565b600085815260208120601f198616915b828110156102de578886015182559484019460019091019084016102bf565b50858210156102fc5787850151600019600388901b60f8161c191681555b5050505050600190811b01905550565b6105b48061031b6000396000f3fe608060405234801561001057600080fd5b506004361061007d5760003560e01c80634e69d5601161005b5780634e69d560146100d957806369ba1a75146100ee5780637debdde9146101015780637e05f5a81461010957600080fd5b80630115949c146100825780630bf153261461009957806311cdd1dd146100bf575b600080fd5b6002545b6040519081526020015b60405180910390f35b6100af6100a7366004610445565b600255600190565b6040519015158152602001610090565b6100c7610111565b604051610090969594939291906104ab565b6100e16101f0565b60405161009091906104f3565b6100af6100fc366004610445565b610342565b6100e16103b3565b600554610086565b6000806000606060008060008054906101000a90046001600160a01b0316600160009054906101000a90046001600160a01b0316600254600360045460055482805461015c9061050d565b80601f01602080910402602001604051908101604052809291908181526020018280546101889061050d565b80156101d55780601f106101aa576101008083540402835291602001916101d5565b820191906000526020600020905b8154815290600101906020018083116101b857829003601f168201915b50505050509250955095509550955095509550909192939495565b60065460609060ff16600481111561020a5761020a610547565b600003610233575060408051808201909152600781526650656e64696e6760c81b602082015290565b60065460ff16600481111561024a5761024a610547565b60010361027e5750604080518082019091526012815271139bc8189a591cc81bdb881d1a19481353d360721b602082015290565b60065460ff16600481111561029557610295610547565b6002036102cb575060408051808201909152601481527304e6f20666565646261636b2066726f6d204653560641b602082015290565b60065460ff1660048111156102e2576102e2610547565b6003036103075760405180606001604052806021815260200161055e60219139905090565b6040518060400160405280602081526020017f41637469766174696f6e206f726465722072656a656374656420627920465350815250905090565b60008160010361036557600680546001919060ff191682805b02179055506103ab565b8160020361038157600680546002919060ff191660018361035b565b8160030361039d57600680546003919060ff191660018361035b565b6006805460ff191660041790555b506001919050565b6060600380546103c29061050d565b80601f01602080910402602001604051908101604052809291908181526020018280546103ee9061050d565b801561043b5780601f106104105761010080835404028352916020019161043b565b820191906000526020600020905b81548152906001019060200180831161041e57829003601f168201915b5050505050905090565b60006020828403121561045757600080fd5b5035919050565b6000815180845260005b8181101561048457602081850181015186830182015201610468565b81811115610496576000602083870101525b50601f01601f19169290920160200192915050565b6001600160a01b038781168252861660208201526040810185905260c0606082018190526000906104de9083018661045e565b60808301949094525060a00152949350505050565b602081526000610506602083018461045e565b9392505050565b600181811c9082168061052157607f821691505b60208210810361054157634e487b7160e01b600052602260045260246000fd5b50919050565b634e487b7160e01b600052602160045260246000fdfe41637469766174696f6e206f7264657220636f6e6669726d656420627920465350a264697066735822122064d8c27df2b2264e199f0a58a062800067c9a03d0834f244b18a6e979118c2d464736f6c634300080f0033",
  "immutableReferences": {},
  "source": "// SPDX-License-Identifier: MIT\r\npragma solidity ^0.8.0;\r\n\r\ncontract ActivationRequest{\r\n    //status = \r\n    //[\"No bids on the MOL\", \r\n    //\"No feedback from FSP\", \r\n    //\"Activation order confirmed by FSP\", \r\n    //\"Activation order rejected by FSP\"]\r\n    address payable owner;\r\n    address productID;\r\n    uint256 quantity;\r\n    string localization;\r\n    uint256 startOfDelivery;\r\n    uint256 createdAt;\r\n    ARSTATUS status;\r\n\r\n    enum ARSTATUS {Pending, NoBids, NoFeedback, AOConfirmed, AORejected}\r\n\r\n    constructor(address payable _owner, address _productID, uint256 _quantity, string memory _localization, uint256 _startOfDelivery, uint256 _createdAt) public payable{\r\n        owner = _owner;\r\n        productID = _productID;\r\n        quantity = _quantity;\r\n        localization = _localization;\r\n        startOfDelivery = _startOfDelivery;\r\n        createdAt = _createdAt;\r\n        status = ARSTATUS.Pending;\r\n    }\r\n\r\n    function getActivationRequestDetails() external view returns(address payable, address, uint256, string memory, uint256, uint256){\r\n        return(owner, productID, quantity, localization, startOfDelivery, createdAt);\r\n    }\r\n\r\n    function setStatus(uint _status) external returns(bool){\r\n        if (_status == 1)\r\n            status = ARSTATUS.NoBids;\r\n        else if (_status == 2)\r\n            status = ARSTATUS.NoFeedback;\r\n        else if (_status == 3)\r\n            status = ARSTATUS.AOConfirmed;\r\n        else\r\n            status = ARSTATUS.AORejected;\r\n\r\n        return true;\r\n    }\r\n\r\n    function getStatus() external view returns(string memory){\r\n        if (uint(status) == 0)\r\n            return (\"Pending\");\r\n        else if(uint(status) == 1)\r\n            return(\"No bids on the MOL\");\r\n        else if(uint(status) == 2)\r\n            return (\"No feedback from FSP\");\r\n        else if(uint(status) == 3)\r\n            return(\"Activation order confirmed by FSP\");\r\n        else\r\n            return(\"Activation order rejected by FSP\");\r\n    }\r\n\r\n    function getLocalization() external view returns(string memory){\r\n\r\n        return(localization);\r\n    }\r\n\r\n    function getQuantity() external view returns(uint256){\r\n\r\n        return(quantity);\r\n    }\r\n\r\n    function setQuantity(uint256 _qte) external returns(bool){\r\n        \r\n        quantity = _qte;\r\n\r\n        return true;\r\n    }\r\n\r\n    function getCreatedAt() external view returns(uint256){\r\n        \r\n        return createdAt;\r\n    }\r\n\r\n}",
  "sourcePath": "D:\\webdev projects\\flexibility\\fp-backend\\contracts\\ActivationRequest.sol",
  "compiler": {
    "name": "solc",
    "version": "0.8.15+commit.e14f2714.Emscripten.clang"
  },
  "schemaVersion": "3.4.4",
  "updatedAt": "2022-07-20T12:14:25.766Z",
  "devdoc": {
    "kind": "dev",
    "methods": {},
    "version": 1
  },
  "userdoc": {
    "kind": "user",
    "methods": {},
    "version": 1
  }
}