{
  "contractName": "ActivationOrder",
  "abi": [
    {
      "inputs": [
        {
          "internalType": "contract Bid",
          "name": "_bid",
          "type": "address"
        },
        {
          "internalType": "contract ActivationRequest",
          "name": "_AR",
          "type": "address"
        },
        {
          "internalType": "uint256",
          "name": "_qte",
          "type": "uint256"
        }
      ],
      "stateMutability": "nonpayable",
      "type": "constructor"
    },
    {
      "inputs": [],
      "name": "getAllAODetails",
      "outputs": [
        {
          "internalType": "contract Bid",
          "name": "",
          "type": "address"
        },
        {
          "internalType": "contract ActivationRequest",
          "name": "",
          "type": "address"
        },
        {
          "internalType": "uint256",
          "name": "",
          "type": "uint256"
        }
      ],
      "stateMutability": "view",
      "type": "function"
    },
    {
      "inputs": [],
      "name": "acceptOrder",
      "outputs": [
        {
          "internalType": "bool",
          "name": "",
          "type": "bool"
        }
      ],
      "stateMutability": "nonpayable",
      "type": "function"
    },
    {
      "inputs": [],
      "name": "rejectOrder",
      "outputs": [
        {
          "internalType": "bool",
          "name": "",
          "type": "bool"
        }
      ],
      "stateMutability": "nonpayable",
      "type": "function"
    }
  ],
  "bytecode": "0x608060405234801561001057600080fd5b5060405161027438038061027483398101604081905261002f9161007f565b600080546001600160a01b039485166001600160a01b03199182161790915560018054939094169216919091179091556002556100c2565b6001600160a01b038116811461007c57600080fd5b50565b60008060006060848603121561009457600080fd5b835161009f81610067565b60208501519093506100b081610067565b80925050604084015190509250925092565b6101a3806100d16000396000f3fe608060405234801561001057600080fd5b50600436106100415760003560e01c806313fc80d3146100465780635f29a5ee14610063578063cb7b1c441461006b575b600080fd5b61004e61009a565b60405190151581526020015b60405180910390f35b61004e610113565b600054600154600254604080516001600160a01b0394851681529390921660208401529082015260600161005a565b6001546040516369ba1a7560e01b8152600360048201526000916001600160a01b0316906369ba1a75906024015b6020604051808303816000875af11580156100e7573d6000803e3d6000fd5b505050506040513d601f19601f8201168201806040525081019061010b9190610144565b506001905090565b6001546040516369ba1a7560e01b81526004808201526000916001600160a01b0316906369ba1a75906024016100c8565b60006020828403121561015657600080fd5b8151801515811461016657600080fd5b939250505056fea26469706673582212208d28818698035210b335b265a0691a06ad444e0f2786f966ca65fc90865168cd64736f6c634300080f0033",
  "immutableReferences": {},
  "source": "// SPDX-License-Identifier: MIT\npragma solidity ^0.8.0;\n\nimport \"./Bid.sol\";\nimport \"./ActivationRequest.sol\";\n\ncontract ActivationOrder{\n    \n    Bid bid;\n    ActivationRequest AR;\n    uint256 qte;\n    \n    constructor(Bid _bid, ActivationRequest _AR, uint256 _qte){\n        bid = _bid;\n        AR = _AR;\n        qte = _qte;\n    }\n\n    /*modifiers-------------*/\n    \n    modifier onlyOwner() {\n        require(msg.sender == ActivationRequest(AR).getOwner(), \"not valid\");\n        _;\n    }\n    /*----------------------*/\n\n    function getAllAODetails() public view returns(Bid, ActivationRequest, uint256){\n        return(bid, AR, qte);\n    }\n\n    function acceptOrder() public returns(bool) {        \n        ActivationRequest(AR).setStatus(3);\n        //transfer NFT\n        return true;\n    }\n\n    function rejectOrder() public returns(bool){\n        ActivationRequest(AR).setStatus(4);\n        return true;\n    }\n}",
  "sourcePath": "/home/linna/Desktop/Flexibility/Flexibility-backend/contracts/ActivationOrder.sol",
  "compiler": {
    "name": "solc",
    "version": "0.8.15+commit.e14f2714.Emscripten.clang"
  },
  "schemaVersion": "3.4.8",
  "updatedAt": "2022-07-25T12:21:37.966Z",
  "devdoc": {
    "kind": "dev",
    "methods": {},
    "version": 1
  },
  "userdoc": {
    "kind": "user",
    "methods": {},
    "version": 1
  }
}