{
  "contractName": "ActivationOrder",
  "abi": [
    {
      "inputs": [
        {
          "internalType": "address",
          "name": "_AR_Owner",
          "type": "address"
        },
        {
          "internalType": "address",
          "name": "_bid_owner",
          "type": "address"
        },
        {
          "internalType": "uint256",
          "name": "_qte",
          "type": "uint256"
        }
      ],
      "stateMutability": "nonpayable",
      "type": "constructor"
    },
    {
      "inputs": [],
      "name": "getAllAODetails",
      "outputs": [
        {
          "internalType": "address",
          "name": "",
          "type": "address"
        },
        {
          "internalType": "address",
          "name": "",
          "type": "address"
        },
        {
          "internalType": "uint256",
          "name": "",
          "type": "uint256"
        }
      ],
      "stateMutability": "view",
      "type": "function"
    },
    {
      "inputs": [
        {
          "internalType": "uint256",
          "name": "_status",
          "type": "uint256"
        }
      ],
      "name": "setStatus",
      "outputs": [
        {
          "internalType": "bool",
          "name": "",
          "type": "bool"
        }
      ],
      "stateMutability": "nonpayable",
      "type": "function"
    },
    {
      "inputs": [],
      "name": "getStatus",
      "outputs": [
        {
          "internalType": "string",
          "name": "",
          "type": "string"
        }
      ],
      "stateMutability": "view",
      "type": "function"
    }
  ],
  "bytecode": "0x608060405234801561001057600080fd5b5060405161039738038061039783398101604081905261002f91610083565b600080546001600160a01b039485166001600160a01b03199182161790915560018054939094169216919091179091556002556100bf565b80516001600160a01b038116811461007e57600080fd5b919050565b60008060006060848603121561009857600080fd5b6100a184610067565b92506100af60208501610067565b9150604084015190509250925092565b6102c9806100ce6000396000f3fe608060405234801561001057600080fd5b50600436106100415760003560e01c80634e69d5601461004657806369ba1a7514610064578063cb7b1c4414610087575b600080fd5b61004e6100b6565b60405161005b91906101ee565b60405180910390f35b610077610072366004610243565b610191565b604051901515815260200161005b565b600054600154600254604080516001600160a01b0394851681529390921660208401529082015260600161005b565b60035460609060ff1660028111156100d0576100d061025c565b6000036100f9575060408051808201909152600781526650656e64696e6760c81b602082015290565b60035460ff1660028111156101105761011061025c565b6001036101355760405180606001604052806021815260200161027360219139905090565b60035460ff16600281111561014c5761014c61025c565b60020361018e576040518060400160405280602081526020017f41637469766174696f6e206f726465722072656a656374656420627920465350815250905090565b90565b6000816000036101b557600380546000919060ff19166001835b02179055506101e6565b816001036101d057600380546001919060ff191682806101ab565b816002036101e6576003805460ff191660021790555b506001919050565b600060208083528351808285015260005b8181101561021b578581018301518582016040015282016101ff565b8181111561022d576000604083870101525b50601f01601f1916929092016040019392505050565b60006020828403121561025557600080fd5b5035919050565b634e487b7160e01b600052602160045260246000fdfe41637469766174696f6e206f7264657220636f6e6669726d656420627920465350a2646970667358221220373b6d4ceaf65c81413218847411a649327e2fe2d08a18efb5fc527ec525217c64736f6c634300080f0033",
  "immutableReferences": {},
  "source": "// SPDX-License-Identifier: MIT\npragma solidity ^0.8.0;\n\nimport \"./Bid.sol\";\nimport \"./ActivationRequest.sol\";\n\ncontract ActivationOrder{\n    enum AOSTATUS { NoFeedback, AOConfirmed, AORejected}\n\n    address AR_Owner;\n    address bid_owner;\n    uint256 qte;\n    AOSTATUS status;\n    \n    constructor(address _AR_Owner, address _bid_owner, uint256 _qte){\n        AR_Owner = _AR_Owner;\n        bid_owner = _bid_owner;\n        qte = _qte;\n    }\n    /*----------------------*/\n\n    function getAllAODetails() public view returns(address, address, uint256){\n        return(AR_Owner, bid_owner, qte);\n    }\n\n    function setStatus(uint _status) external returns(bool){\n        if (_status == 0)\n            status = AOSTATUS.NoFeedback;\n        else if (_status == 1)\n            status = AOSTATUS.AOConfirmed;\n        else if (_status == 2)\n            status = AOSTATUS.AORejected;\n\n        return true;\n    }\n\n    function getStatus() external view returns(string memory){\n        if (uint(status) == 0)\n            return (\"Pending\");\n        else if(uint(status) == 1)\n            return(\"Activation order confirmed by FSP\");\n        else if(uint(status) == 2)\n            return (\"Activation order rejected by FSP\");\n    }\n\n}",
  "sourcePath": "/home/linna/Desktop/Flexibility/Flexibility-backend/contracts/ActivationOrder.sol",
  "compiler": {
    "name": "solc",
    "version": "0.8.15+commit.e14f2714.Emscripten.clang"
  },
  "schemaVersion": "3.4.8",
  "updatedAt": "2022-08-01T14:23:58.443Z",
  "devdoc": {
    "kind": "dev",
    "methods": {},
    "version": 1
  },
  "userdoc": {
    "kind": "user",
    "methods": {},
    "version": 1
  }
}