{
  "contractName": "ActivationRequest",
  "abi": [
    {
      "inputs": [
        {
          "internalType": "address payable",
          "name": "_owner",
          "type": "address"
        },
        {
          "internalType": "address",
          "name": "_productID",
          "type": "address"
        },
        {
          "internalType": "uint256",
          "name": "_quantity",
          "type": "uint256"
        },
        {
          "internalType": "string",
          "name": "_localization",
          "type": "string"
        },
        {
          "internalType": "uint256",
          "name": "_startOfDelivery",
          "type": "uint256"
        },
        {
          "internalType": "uint256",
          "name": "_createdAt",
          "type": "uint256"
        }
      ],
      "stateMutability": "payable",
      "type": "constructor"
    },
    {
      "inputs": [],
      "name": "getActivationRequestDetails",
      "outputs": [
        {
          "internalType": "address payable",
          "name": "",
          "type": "address"
        },
        {
          "internalType": "address",
          "name": "",
          "type": "address"
        },
        {
          "internalType": "uint256",
          "name": "",
          "type": "uint256"
        },
        {
          "internalType": "string",
          "name": "",
          "type": "string"
        },
        {
          "internalType": "uint256",
          "name": "",
          "type": "uint256"
        },
        {
          "internalType": "uint256",
          "name": "",
          "type": "uint256"
        }
      ],
      "stateMutability": "view",
      "type": "function"
    },
    {
      "inputs": [],
      "name": "getLocalization",
      "outputs": [
        {
          "internalType": "string",
          "name": "",
          "type": "string"
        }
      ],
      "stateMutability": "view",
      "type": "function"
    },
    {
      "inputs": [],
      "name": "getQuantity",
      "outputs": [
        {
          "internalType": "uint256",
          "name": "",
          "type": "uint256"
        }
      ],
      "stateMutability": "view",
      "type": "function"
    },
    {
      "inputs": [
        {
          "internalType": "uint256",
          "name": "_qte",
          "type": "uint256"
        }
      ],
      "name": "setQuantity",
      "outputs": [
        {
          "internalType": "bool",
          "name": "",
          "type": "bool"
        }
      ],
      "stateMutability": "nonpayable",
      "type": "function"
    },
    {
      "inputs": [],
      "name": "getCreatedAt",
      "outputs": [
        {
          "internalType": "uint256",
          "name": "",
          "type": "uint256"
        }
      ],
      "stateMutability": "view",
      "type": "function"
    },
    {
      "inputs": [],
      "name": "getStartOfDelivery",
      "outputs": [
        {
          "internalType": "uint256",
          "name": "",
          "type": "uint256"
        }
      ],
      "stateMutability": "view",
      "type": "function"
    },
    {
      "inputs": [],
      "name": "getOwner",
      "outputs": [
        {
          "internalType": "address payable",
          "name": "",
          "type": "address"
        }
      ],
      "stateMutability": "view",
      "type": "function"
    },
    {
      "inputs": [],
      "name": "setStatus",
      "outputs": [
        {
          "internalType": "bool",
          "name": "",
          "type": "bool"
        }
      ],
      "stateMutability": "nonpayable",
      "type": "function"
    },
    {
      "inputs": [],
      "name": "getStatus",
      "outputs": [
        {
          "internalType": "enum ActivationRequest.ARSTATUS",
          "name": "",
          "type": "uint8"
        }
      ],
      "stateMutability": "view",
      "type": "function"
    }
  ],
  "bytecode": "0x6080604052604051610734380380610734833981016040819052610022916100af565b600080546001600160a01b038089166001600160a01b0319928316179092556001805492881692909116919091179055600284905560036100638482610244565b5060049190915560055550506006805460ff19169055506103039050565b6001600160a01b038116811461009657600080fd5b50565b634e487b7160e01b600052604160045260246000fd5b60008060008060008060c087890312156100c857600080fd5b86516100d381610081565b809650506020808801516100e681610081565b604089015160608a015191975095506001600160401b038082111561010a57600080fd5b818a0191508a601f83011261011e57600080fd5b81518181111561013057610130610099565b604051601f8201601f19908116603f0116810190838211818310171561015857610158610099565b816040528281528d8684870101111561017057600080fd5b600093505b828410156101925784840186015181850187015292850192610175565b60008684830101528098505050505050506080870151915060a087015190509295509295509295565b600181811c908216806101cf57607f821691505b6020821081036101ef57634e487b7160e01b600052602260045260246000fd5b50919050565b601f82111561023f57600081815260208120601f850160051c8101602086101561021c5750805b601f850160051c820191505b8181101561023b57828155600101610228565b5050505b505050565b81516001600160401b0381111561025d5761025d610099565b6102718161026b84546101bb565b846101f5565b602080601f8311600181146102a6576000841561028e5750858301515b600019600386901b1c1916600185901b17855561023b565b600085815260208120601f198616915b828110156102d5578886015182559484019460019091019084016102b6565b50858210156102f35787850151600019600388901b60f8161c191681555b5050505050600190811b01905550565b610422806103126000396000f3fe608060405234801561001057600080fd5b50600436106100935760003560e01c80634e69d560116100665780634e69d560146100f75780637debdde91461010a5780637e05f5a81461011f578063893d20e814610127578063c03366291461014257600080fd5b80630115949c146100985780630bf15326146100af57806311cdd1dd146100d55780632b3e7a68146100ef575b600080fd5b6002545b6040519081526020015b60405180910390f35b6100c56100bd3660046102c9565b600255600190565b60405190151581526020016100a6565b6100dd610158565b6040516100a696959493929190610328565b60045461009c565b60065460ff166040516100a69190610370565b610112610237565b6040516100a69190610398565b60055461009c565b6000546040516001600160a01b0390911681526020016100a6565b6100c56006805460ff1916600190811790915590565b6000806000606060008060008054906101000a90046001600160a01b0316600160009054906101000a90046001600160a01b031660025460036004546005548280546101a3906103b2565b80601f01602080910402602001604051908101604052809291908181526020018280546101cf906103b2565b801561021c5780601f106101f15761010080835404028352916020019161021c565b820191906000526020600020905b8154815290600101906020018083116101ff57829003601f168201915b50505050509250955095509550955095509550909192939495565b606060038054610246906103b2565b80601f0160208091040260200160405190810160405280929190818152602001828054610272906103b2565b80156102bf5780601f10610294576101008083540402835291602001916102bf565b820191906000526020600020905b8154815290600101906020018083116102a257829003601f168201915b5050505050905090565b6000602082840312156102db57600080fd5b5035919050565b6000815180845260005b81811015610308576020818501810151868301820152016102ec565b506000602082860101526020601f19601f83011685010191505092915050565b6001600160a01b038781168252861660208201526040810185905260c06060820181905260009061035b908301866102e2565b60808301949094525060a00152949350505050565b602081016002831061039257634e487b7160e01b600052602160045260246000fd5b91905290565b6020815260006103ab60208301846102e2565b9392505050565b600181811c908216806103c657607f821691505b6020821081036103e657634e487b7160e01b600052602260045260246000fd5b5091905056fea2646970667358221220825e443fd6f8d916a143994f036e54938966556fba734f01bcca2ca10a1917d864736f6c63430008100033",
  "immutableReferences": {},
  "source": "// SPDX-License-Identifier: MIT\npragma solidity ^0.8.0;\n\ncontract ActivationRequest{\n    enum ARSTATUS{Pending, NoBids}\n\n    address payable owner;\n    address productID;\n    uint256 quantity;\n    string localization;\n    uint256 startOfDelivery;\n    uint256 createdAt;\n    ARSTATUS status;\n\n\n    constructor(address payable _owner, address _productID, uint256 _quantity, string memory _localization, uint256 _startOfDelivery, uint256 _createdAt) payable{\n        owner = _owner;\n        productID = _productID;\n        quantity = _quantity;\n        localization = _localization;\n        startOfDelivery = _startOfDelivery;\n        createdAt = _createdAt;\n        status = ARSTATUS.Pending;\n    }\n\n    function getActivationRequestDetails() external view returns(address payable, address, uint256, string memory, uint256, uint256){\n        return(owner, productID, quantity, localization, startOfDelivery, createdAt);\n    }\n\n    function getLocalization() external view returns(string memory){\n\n        return(localization);\n    }\n\n    function getQuantity() external view returns(uint256){\n\n        return(quantity);\n    }\n\n    function setQuantity(uint256 _qte) external returns(bool){\n        \n        quantity = _qte;\n\n        return true;\n    }\n\n    function getCreatedAt() external view returns(uint256){\n        \n        return createdAt;\n    }\n\n    function getStartOfDelivery() external view returns(uint256){\n        \n        return startOfDelivery;\n    }\n\n    function getOwner() external view returns(address payable){\n        return owner;\n    }\n\n    function setStatus() external returns(bool){\n\n            status = ARSTATUS.NoBids;\n            return true;\n    }\n\n    function getStatus() external view returns(ARSTATUS){\n        \n        return status;\n\n    }\n\n}",
  "sourcePath": "/home/linna/Desktop/Flexibility/Flexibility-backend/contracts/ActivationRequest.sol",
  "compiler": {
    "name": "solc",
    "version": "0.8.16+commit.07a7930e.Emscripten.clang"
  },
  "schemaVersion": "3.4.8",
  "updatedAt": "2022-08-16T15:07:18.168Z",
  "devdoc": {
    "kind": "dev",
    "methods": {},
    "version": 1
  },
  "userdoc": {
    "kind": "user",
    "methods": {},
    "version": 1
  }
}