{
  "contractName": "ActivationRequest",
  "abi": [
    {
      "inputs": [
        {
          "internalType": "address payable",
          "name": "_owner",
          "type": "address"
        },
        {
          "internalType": "address",
          "name": "_productID",
          "type": "address"
        },
        {
          "internalType": "uint256",
          "name": "_quantity",
          "type": "uint256"
        },
        {
          "internalType": "string",
          "name": "_localization",
          "type": "string"
        },
        {
          "internalType": "uint256",
          "name": "_startOfDelivery",
          "type": "uint256"
        },
        {
          "internalType": "uint256",
          "name": "_createdAt",
          "type": "uint256"
        }
      ],
      "stateMutability": "payable",
      "type": "constructor"
    },
    {
      "inputs": [],
      "name": "getActivationRequestDetails",
      "outputs": [
        {
          "internalType": "address payable",
          "name": "",
          "type": "address"
        },
        {
          "internalType": "address",
          "name": "",
          "type": "address"
        },
        {
          "internalType": "uint256",
          "name": "",
          "type": "uint256"
        },
        {
          "internalType": "string",
          "name": "",
          "type": "string"
        },
        {
          "internalType": "uint256",
          "name": "",
          "type": "uint256"
        },
        {
          "internalType": "uint256",
          "name": "",
          "type": "uint256"
        }
      ],
      "stateMutability": "view",
      "type": "function"
    },
    {
      "inputs": [
        {
          "internalType": "uint256",
          "name": "_status",
          "type": "uint256"
        }
      ],
      "name": "setStatus",
      "outputs": [
        {
          "internalType": "bool",
          "name": "",
          "type": "bool"
        }
      ],
      "stateMutability": "nonpayable",
      "type": "function"
    },
    {
      "inputs": [],
      "name": "getStatus",
      "outputs": [
        {
          "internalType": "string",
          "name": "",
          "type": "string"
        }
      ],
      "stateMutability": "view",
      "type": "function"
    },
    {
      "inputs": [],
      "name": "getLocalization",
      "outputs": [
        {
          "internalType": "string",
          "name": "",
          "type": "string"
        }
      ],
      "stateMutability": "view",
      "type": "function"
    },
    {
      "inputs": [],
      "name": "getQuantity",
      "outputs": [
        {
          "internalType": "uint256",
          "name": "",
          "type": "uint256"
        }
      ],
      "stateMutability": "view",
      "type": "function"
    },
    {
      "inputs": [
        {
          "internalType": "uint256",
          "name": "_qte",
          "type": "uint256"
        }
      ],
      "name": "setQuantity",
      "outputs": [
        {
          "internalType": "bool",
          "name": "",
          "type": "bool"
        }
      ],
      "stateMutability": "nonpayable",
      "type": "function"
    },
    {
      "inputs": [],
      "name": "getCreatedAt",
      "outputs": [
        {
          "internalType": "uint256",
          "name": "",
          "type": "uint256"
        }
      ],
      "stateMutability": "view",
      "type": "function"
    },
    {
      "inputs": [],
      "name": "getOwner",
      "outputs": [
        {
          "internalType": "address payable",
          "name": "",
          "type": "address"
        }
      ],
      "stateMutability": "view",
      "type": "function"
    }
  ],
  "bytecode": "0x60806040526040516108f53803806108f5833981016040819052610022916100af565b600080546001600160a01b038089166001600160a01b031992831617909255600180549288169290911691909117905560028490556003610063848261024d565b5060049190915560055550506006805460ff191690555061030c9050565b6001600160a01b038116811461009657600080fd5b50565b634e487b7160e01b600052604160045260246000fd5b60008060008060008060c087890312156100c857600080fd5b86516100d381610081565b809650506020808801516100e681610081565b604089015160608a015191975095506001600160401b038082111561010a57600080fd5b818a0191508a601f83011261011e57600080fd5b81518181111561013057610130610099565b604051601f8201601f19908116603f0116810190838211818310171561015857610158610099565b816040528281528d8684870101111561017057600080fd5b600093505b828410156101925784840186015181850187015292850192610175565b828411156101a35760008684830101525b8098505050505050506080870151915060a087015190509295509295509295565b600181811c908216806101d857607f821691505b6020821081036101f857634e487b7160e01b600052602260045260246000fd5b50919050565b601f82111561024857600081815260208120601f850160051c810160208610156102255750805b601f850160051c820191505b8181101561024457828155600101610231565b5050505b505050565b81516001600160401b0381111561026657610266610099565b61027a8161027484546101c4565b846101fe565b602080601f8311600181146102af57600084156102975750858301515b600019600386901b1c1916600185901b178555610244565b600085815260208120601f198616915b828110156102de578886015182559484019460019091019084016102bf565b50858210156102fc5787850151600019600388901b60f8161c191681555b5050505050600190811b01905550565b6105da8061031b6000396000f3fe608060405234801561001057600080fd5b50600436106100885760003560e01c806369ba1a751161005b57806369ba1a75146100f95780637debdde91461010c5780637e05f5a814610114578063893d20e81461011c57600080fd5b80630115949c1461008d5780630bf15326146100a457806311cdd1dd146100ca5780634e69d560146100e4575b600080fd5b6002545b6040519081526020015b60405180910390f35b6100ba6100b236600461046b565b600255600190565b604051901515815260200161009b565b6100d2610137565b60405161009b969594939291906104d1565b6100ec610216565b60405161009b9190610519565b6100ba61010736600461046b565b610368565b6100ec6103d9565b600554610091565b6000546040516001600160a01b03909116815260200161009b565b6000806000606060008060008054906101000a90046001600160a01b0316600160009054906101000a90046001600160a01b0316600254600360045460055482805461018290610533565b80601f01602080910402602001604051908101604052809291908181526020018280546101ae90610533565b80156101fb5780601f106101d0576101008083540402835291602001916101fb565b820191906000526020600020905b8154815290600101906020018083116101de57829003601f168201915b50505050509250955095509550955095509550909192939495565b60065460609060ff1660048111156102305761023061056d565b600003610259575060408051808201909152600781526650656e64696e6760c81b602082015290565b60065460ff1660048111156102705761027061056d565b6001036102a45750604080518082019091526012815271139bc8189a591cc81bdb881d1a19481353d360721b602082015290565b60065460ff1660048111156102bb576102bb61056d565b6002036102f1575060408051808201909152601481527304e6f20666565646261636b2066726f6d204653560641b602082015290565b60065460ff1660048111156103085761030861056d565b60030361032d5760405180606001604052806021815260200161058460219139905090565b6040518060400160405280602081526020017f41637469766174696f6e206f726465722072656a656374656420627920465350815250905090565b60008160010361038b57600680546001919060ff191682805b02179055506103d1565b816002036103a757600680546002919060ff1916600183610381565b816003036103c357600680546003919060ff1916600183610381565b6006805460ff191660041790555b506001919050565b6060600380546103e890610533565b80601f016020809104026020016040519081016040528092919081815260200182805461041490610533565b80156104615780601f1061043657610100808354040283529160200191610461565b820191906000526020600020905b81548152906001019060200180831161044457829003601f168201915b5050505050905090565b60006020828403121561047d57600080fd5b5035919050565b6000815180845260005b818110156104aa5760208185018101518683018201520161048e565b818111156104bc576000602083870101525b50601f01601f19169290920160200192915050565b6001600160a01b038781168252861660208201526040810185905260c06060820181905260009061050490830186610484565b60808301949094525060a00152949350505050565b60208152600061052c6020830184610484565b9392505050565b600181811c9082168061054757607f821691505b60208210810361056757634e487b7160e01b600052602260045260246000fd5b50919050565b634e487b7160e01b600052602160045260246000fdfe41637469766174696f6e206f7264657220636f6e6669726d656420627920465350a264697066735822122072a6ad83e7a287c675123e99f4a2fc844369f42c2156e5e772020ee826c05e6b64736f6c634300080f0033",
  "immutableReferences": {},
  "source": "// SPDX-License-Identifier: MIT\npragma solidity ^0.8.0;\n\ncontract ActivationRequest{\n    //status = \n    //[\"No bids on the MOL\", \n    //\"No feedback from FSP\", \n    //\"Activation order confirmed by FSP\", \n    //\"Activation order rejected by FSP\"]\n    address payable owner;\n    address productID;\n    uint256 quantity;\n    string localization;\n    uint256 startOfDelivery;\n    uint256 createdAt;\n    ARSTATUS status;\n\n    enum ARSTATUS {Pending, NoBids, NoFeedback, AOConfirmed, AORejected}\n\n    constructor(address payable _owner, address _productID, uint256 _quantity, string memory _localization, uint256 _startOfDelivery, uint256 _createdAt) payable{\n        owner = _owner;\n        productID = _productID;\n        quantity = _quantity;\n        localization = _localization;\n        startOfDelivery = _startOfDelivery;\n        createdAt = _createdAt;\n        status = ARSTATUS.Pending;\n    }\n\n    function getActivationRequestDetails() external view returns(address payable, address, uint256, string memory, uint256, uint256){\n        return(owner, productID, quantity, localization, startOfDelivery, createdAt);\n    }\n\n    function setStatus(uint _status) external returns(bool){\n        if (_status == 1)\n            status = ARSTATUS.NoBids;\n        else if (_status == 2)\n            status = ARSTATUS.NoFeedback;\n        else if (_status == 3)\n            status = ARSTATUS.AOConfirmed;\n        else\n            status = ARSTATUS.AORejected;\n\n        return true;\n    }\n\n    function getStatus() external view returns(string memory){\n        if (uint(status) == 0)\n            return (\"Pending\");\n        else if(uint(status) == 1)\n            return(\"No bids on the MOL\");\n        else if(uint(status) == 2)\n            return (\"No feedback from FSP\");\n        else if(uint(status) == 3)\n            return(\"Activation order confirmed by FSP\");\n        else\n            return(\"Activation order rejected by FSP\");\n    }\n\n    function getLocalization() external view returns(string memory){\n\n        return(localization);\n    }\n\n    function getQuantity() external view returns(uint256){\n\n        return(quantity);\n    }\n\n    function setQuantity(uint256 _qte) external returns(bool){\n        \n        quantity = _qte;\n\n        return true;\n    }\n\n    function getCreatedAt() external view returns(uint256){\n        \n        return createdAt;\n    }\n\n    function getOwner() external view returns(address payable){\n        return owner;\n    }\n\n}",
  "sourcePath": "/home/linna/Desktop/Flexibility/Flexibility-backend/contracts/ActivationRequest.sol",
  "compiler": {
    "name": "solc",
    "version": "0.8.15+commit.e14f2714.Emscripten.clang"
  },
  "schemaVersion": "3.4.8",
  "updatedAt": "2022-07-25T12:21:37.970Z",
  "devdoc": {
    "kind": "dev",
    "methods": {},
    "version": 1
  },
  "userdoc": {
    "kind": "user",
    "methods": {},
    "version": 1
  }
}