{
  "contractName": "ActivationRequest",
  "abi": [
    {
      "inputs": [
        {
          "internalType": "address payable",
          "name": "_owner",
          "type": "address"
        },
        {
          "internalType": "address",
          "name": "_productID",
          "type": "address"
        },
        {
          "internalType": "uint256",
          "name": "_quantity",
          "type": "uint256"
        },
        {
          "internalType": "string",
          "name": "_localization",
          "type": "string"
        },
        {
          "internalType": "uint256",
          "name": "_startOfDelivery",
          "type": "uint256"
        },
        {
          "internalType": "uint256",
          "name": "_createdAt",
          "type": "uint256"
        }
      ],
      "stateMutability": "payable",
      "type": "constructor"
    },
    {
      "inputs": [],
      "name": "getActivationRequestDetails",
      "outputs": [
        {
          "internalType": "address payable",
          "name": "",
          "type": "address"
        },
        {
          "internalType": "address",
          "name": "",
          "type": "address"
        },
        {
          "internalType": "uint256",
          "name": "",
          "type": "uint256"
        },
        {
          "internalType": "string",
          "name": "",
          "type": "string"
        },
        {
          "internalType": "uint256",
          "name": "",
          "type": "uint256"
        },
        {
          "internalType": "uint256",
          "name": "",
          "type": "uint256"
        }
      ],
      "stateMutability": "view",
      "type": "function"
    },
    {
      "inputs": [],
      "name": "getLocalization",
      "outputs": [
        {
          "internalType": "string",
          "name": "",
          "type": "string"
        }
      ],
      "stateMutability": "view",
      "type": "function"
    },
    {
      "inputs": [],
      "name": "getQuantity",
      "outputs": [
        {
          "internalType": "uint256",
          "name": "",
          "type": "uint256"
        }
      ],
      "stateMutability": "view",
      "type": "function"
    },
    {
      "inputs": [
        {
          "internalType": "uint256",
          "name": "_qte",
          "type": "uint256"
        }
      ],
      "name": "setQuantity",
      "outputs": [
        {
          "internalType": "bool",
          "name": "",
          "type": "bool"
        }
      ],
      "stateMutability": "nonpayable",
      "type": "function"
    },
    {
      "inputs": [],
      "name": "getCreatedAt",
      "outputs": [
        {
          "internalType": "uint256",
          "name": "",
          "type": "uint256"
        }
      ],
      "stateMutability": "view",
      "type": "function"
    },
    {
      "inputs": [],
      "name": "getStartOfDelivery",
      "outputs": [
        {
          "internalType": "uint256",
          "name": "",
          "type": "uint256"
        }
      ],
      "stateMutability": "view",
      "type": "function"
    },
    {
      "inputs": [],
      "name": "getOwner",
      "outputs": [
        {
          "internalType": "address payable",
          "name": "",
          "type": "address"
        }
      ],
      "stateMutability": "view",
      "type": "function"
    },
    {
      "inputs": [],
      "name": "setStatus",
      "outputs": [
        {
          "internalType": "bool",
          "name": "",
          "type": "bool"
        }
      ],
      "stateMutability": "nonpayable",
      "type": "function"
    },
    {
      "inputs": [],
      "name": "getStatus",
      "outputs": [
        {
          "internalType": "string",
          "name": "",
          "type": "string"
        }
      ],
      "stateMutability": "view",
      "type": "function"
    }
  ],
  "bytecode": "0x60806040526040516107ae3803806107ae833981016040819052610022916100af565b600080546001600160a01b038089166001600160a01b031992831617909255600180549288169290911691909117905560028490556003610063848261024d565b5060049190915560055550506006805460ff191690555061030c9050565b6001600160a01b038116811461009657600080fd5b50565b634e487b7160e01b600052604160045260246000fd5b60008060008060008060c087890312156100c857600080fd5b86516100d381610081565b809650506020808801516100e681610081565b604089015160608a015191975095506001600160401b038082111561010a57600080fd5b818a0191508a601f83011261011e57600080fd5b81518181111561013057610130610099565b604051601f8201601f19908116603f0116810190838211818310171561015857610158610099565b816040528281528d8684870101111561017057600080fd5b600093505b828410156101925784840186015181850187015292850192610175565b828411156101a35760008684830101525b8098505050505050506080870151915060a087015190509295509295509295565b600181811c908216806101d857607f821691505b6020821081036101f857634e487b7160e01b600052602260045260246000fd5b50919050565b601f82111561024857600081815260208120601f850160051c810160208610156102255750805b601f850160051c820191505b8181101561024457828155600101610231565b5050505b505050565b81516001600160401b0381111561026657610266610099565b61027a8161027484546101c4565b846101fe565b602080601f8311600181146102af57600084156102975750858301515b600019600386901b1c1916600185901b178555610244565b600085815260208120601f198616915b828110156102de578886015182559484019460019091019084016102bf565b50858210156102fc5787850151600019600388901b60f8161c191681555b5050505050600190811b01905550565b6104938061031b6000396000f3fe608060405234801561001057600080fd5b50600436106100935760003560e01c80634e69d560116100665780634e69d560146100f75780637debdde91461010c5780637e05f5a814610114578063893d20e81461011c578063c03366291461013757600080fd5b80630115949c146100985780630bf15326146100af57806311cdd1dd146100d55780632b3e7a68146100ef575b600080fd5b6002545b6040519081526020015b60405180910390f35b6100c56100bd366004610345565b600255600190565b60405190151581526020016100a6565b6100dd61014d565b6040516100a6969594939291906103ab565b60045461009c565b6100ff61022c565b6040516100a691906103f3565b6100ff6102b3565b60055461009c565b6000546040516001600160a01b0390911681526020016100a6565b6100c56006805460ff1916600190811790915590565b6000806000606060008060008054906101000a90046001600160a01b0316600160009054906101000a90046001600160a01b031660025460036004546005548280546101989061040d565b80601f01602080910402602001604051908101604052809291908181526020018280546101c49061040d565b80156102115780601f106101e657610100808354040283529160200191610211565b820191906000526020600020905b8154815290600101906020018083116101f457829003601f168201915b50505050509250955095509550955095509550909192939495565b60065460609060ff16600181111561024657610246610447565b60000361026f575060408051808201909152600781526650656e64696e6760c81b602082015290565b60065460ff16600181111561028657610286610447565b6001036102b0575060408051808201909152600881526714995a9958dd195960c21b602082015290565b90565b6060600380546102c29061040d565b80601f01602080910402602001604051908101604052809291908181526020018280546102ee9061040d565b801561033b5780601f106103105761010080835404028352916020019161033b565b820191906000526020600020905b81548152906001019060200180831161031e57829003601f168201915b5050505050905090565b60006020828403121561035757600080fd5b5035919050565b6000815180845260005b8181101561038457602081850181015186830182015201610368565b81811115610396576000602083870101525b50601f01601f19169290920160200192915050565b6001600160a01b038781168252861660208201526040810185905260c0606082018190526000906103de9083018661035e565b60808301949094525060a00152949350505050565b602081526000610406602083018461035e565b9392505050565b600181811c9082168061042157607f821691505b60208210810361044157634e487b7160e01b600052602260045260246000fd5b50919050565b634e487b7160e01b600052602160045260246000fdfea26469706673582212200e1a95c57374ef8446294d7d06f2b183ecd4edb41fd06a95f5889c05625a397864736f6c634300080f0033",
  "immutableReferences": {},
  "source": "// SPDX-License-Identifier: MIT\npragma solidity ^0.8.0;\n\ncontract ActivationRequest{\n    enum ARSTATUS{Pending, NoBids}\n\n    address payable owner;\n    address productID;\n    uint256 quantity;\n    string localization;\n    uint256 startOfDelivery;\n    uint256 createdAt;\n    ARSTATUS status;\n\n\n    constructor(address payable _owner, address _productID, uint256 _quantity, string memory _localization, uint256 _startOfDelivery, uint256 _createdAt) payable{\n        owner = _owner;\n        productID = _productID;\n        quantity = _quantity;\n        localization = _localization;\n        startOfDelivery = _startOfDelivery;\n        createdAt = _createdAt;\n        status = ARSTATUS.Pending;\n    }\n\n    function getActivationRequestDetails() external view returns(address payable, address, uint256, string memory, uint256, uint256){\n        return(owner, productID, quantity, localization, startOfDelivery, createdAt);\n    }\n\n    function getLocalization() external view returns(string memory){\n\n        return(localization);\n    }\n\n    function getQuantity() external view returns(uint256){\n\n        return(quantity);\n    }\n\n    function setQuantity(uint256 _qte) external returns(bool){\n        \n        quantity = _qte;\n\n        return true;\n    }\n\n    function getCreatedAt() external view returns(uint256){\n        \n        return createdAt;\n    }\n\n    function getStartOfDelivery() external view returns(uint256){\n        \n        return startOfDelivery;\n    }\n\n    function getOwner() external view returns(address payable){\n        return owner;\n    }\n\n    function setStatus() external returns(bool){\n\n            status = ARSTATUS.NoBids;\n            return true;\n    }\n\n    function getStatus() external view returns(string memory){\n\n        if (uint(status) == 0){\n            return \"Pending\";\n        }\n        else if (uint(status) == 1 ){\n            return \"Rejected\";\n        }\n    }\n\n}",
  "sourcePath": "/home/linna/Desktop/Flexibility/Flexibility-backend/contracts/ActivationRequest.sol",
  "compiler": {
    "name": "solc",
    "version": "0.8.15+commit.e14f2714.Emscripten.clang"
  },
  "schemaVersion": "3.4.8",
  "updatedAt": "2022-08-01T12:13:54.378Z",
  "devdoc": {
    "kind": "dev",
    "methods": {},
    "version": 1
  },
  "userdoc": {
    "kind": "user",
    "methods": {},
    "version": 1
  }
}