{
  "contractName": "ActivationOrder",
  "abi": [
    {
      "inputs": [
        {
          "internalType": "contract Bid",
          "name": "_bid",
          "type": "address"
        },
        {
          "internalType": "contract ActivationRequest",
          "name": "_AR",
          "type": "address"
        },
        {
          "internalType": "uint256",
          "name": "_qte",
          "type": "uint256"
        }
      ],
      "stateMutability": "nonpayable",
      "type": "constructor"
    },
    {
      "inputs": [],
      "name": "getAllAODetails",
      "outputs": [
        {
          "internalType": "contract Bid",
          "name": "",
          "type": "address"
        },
        {
          "internalType": "contract ActivationRequest",
          "name": "",
          "type": "address"
        },
        {
          "internalType": "uint256",
          "name": "",
          "type": "uint256"
        }
      ],
      "stateMutability": "view",
      "type": "function"
    }
  ],
  "bytecode": "0x608060405234801561001057600080fd5b5060405161016538038061016583398101604081905261002f9161007f565b600080546001600160a01b039485166001600160a01b03199182161790915560018054939094169216919091179091556002556100c2565b6001600160a01b038116811461007c57600080fd5b50565b60008060006060848603121561009457600080fd5b835161009f81610067565b60208501519093506100b081610067565b80925050604084015190509250925092565b6095806100d06000396000f3fe6080604052348015600f57600080fd5b506004361060285760003560e01c8063cb7b1c4414602d575b600080fd5b600054600154600254604080516001600160a01b03948516815293909216602084015282820152519081900360600190f3fea26469706673582212208fd9cb9892769548b74cc1019a871476ce23df08b40c75a05fef7340af5a2c6e64736f6c634300080f0033",
  "immutableReferences": {},
  "source": "// SPDX-License-Identifier: MIT\r\npragma solidity ^0.8.0;\r\n\r\nimport \"./Bid.sol\";\r\nimport \"./ActivationRequest.sol\";\r\n\r\ncontract ActivationOrder{\r\n    \r\n    Bid bid;\r\n    ActivationRequest AR;\r\n    uint256 qte;\r\n    \r\n    constructor(Bid _bid, ActivationRequest _AR, uint256 _qte) public{\r\n        bid = _bid;\r\n        AR = _AR;\r\n        qte = _qte;\r\n    }\r\n\r\n    function getAllAODetails() public view returns(Bid, ActivationRequest, uint256){\r\n        return(bid, AR, qte);\r\n    }\r\n}",
  "sourcePath": "D:\\webdev projects\\flexibility\\fp-backend\\contracts\\ActivationOrder.sol",
  "compiler": {
    "name": "solc",
    "version": "0.8.15+commit.e14f2714.Emscripten.clang"
  },
  "schemaVersion": "3.4.4",
  "updatedAt": "2022-07-20T12:14:25.763Z",
  "devdoc": {
    "kind": "dev",
    "methods": {},
    "version": 1
  },
  "userdoc": {
    "kind": "user",
    "methods": {},
    "version": 1
  }
}