{
  "contractName": "Bid",
  "abi": [
    {
      "inputs": [
        {
          "internalType": "address payable",
          "name": "_owner",
          "type": "address"
        },
        {
          "internalType": "string",
          "name": "_serviceProvider",
          "type": "string"
        },
        {
          "internalType": "uint256",
          "name": "_price",
          "type": "uint256"
        },
        {
          "internalType": "address",
          "name": "_productID",
          "type": "address"
        },
        {
          "internalType": "uint256",
          "name": "_quantity",
          "type": "uint256"
        },
        {
          "internalType": "string",
          "name": "_localization",
          "type": "string"
        },
        {
          "internalType": "uint256",
          "name": "_startOfDelivery",
          "type": "uint256"
        },
        {
          "internalType": "uint256",
          "name": "_createdAt",
          "type": "uint256"
        }
      ],
      "stateMutability": "payable",
      "type": "constructor"
    },
    {
      "inputs": [],
      "name": "getBidDetails",
      "outputs": [
        {
          "internalType": "address payable",
          "name": "",
          "type": "address"
        },
        {
          "internalType": "string",
          "name": "",
          "type": "string"
        },
        {
          "internalType": "uint256",
          "name": "",
          "type": "uint256"
        },
        {
          "internalType": "address",
          "name": "",
          "type": "address"
        },
        {
          "internalType": "uint256",
          "name": "",
          "type": "uint256"
        },
        {
          "internalType": "string",
          "name": "",
          "type": "string"
        },
        {
          "internalType": "uint256",
          "name": "",
          "type": "uint256"
        },
        {
          "internalType": "uint256",
          "name": "",
          "type": "uint256"
        }
      ],
      "stateMutability": "view",
      "type": "function"
    },
    {
      "inputs": [],
      "name": "getPrice",
      "outputs": [
        {
          "internalType": "uint256",
          "name": "",
          "type": "uint256"
        }
      ],
      "stateMutability": "view",
      "type": "function"
    },
    {
      "inputs": [],
      "name": "getLocalization",
      "outputs": [
        {
          "internalType": "string",
          "name": "",
          "type": "string"
        }
      ],
      "stateMutability": "view",
      "type": "function"
    },
    {
      "inputs": [],
      "name": "getQuantity",
      "outputs": [
        {
          "internalType": "uint256",
          "name": "",
          "type": "uint256"
        }
      ],
      "stateMutability": "view",
      "type": "function"
    },
    {
      "inputs": [
        {
          "internalType": "uint256",
          "name": "_qte",
          "type": "uint256"
        }
      ],
      "name": "setQuantity",
      "outputs": [
        {
          "internalType": "bool",
          "name": "",
          "type": "bool"
        }
      ],
      "stateMutability": "nonpayable",
      "type": "function"
    },
    {
      "inputs": [],
      "name": "getCreatedAt",
      "outputs": [
        {
          "internalType": "uint256",
          "name": "",
          "type": "uint256"
        }
      ],
      "stateMutability": "view",
      "type": "function"
    },
    {
      "inputs": [],
      "name": "getStartOfDelivery",
      "outputs": [
        {
          "internalType": "uint256",
          "name": "",
          "type": "uint256"
        }
      ],
      "stateMutability": "view",
      "type": "function"
    },
    {
      "inputs": [],
      "name": "getOwner",
      "outputs": [
        {
          "internalType": "address payable",
          "name": "",
          "type": "address"
        }
      ],
      "stateMutability": "view",
      "type": "function"
    }
  ],
  "bytecode": "0x60806040526040516108033803806108038339810160408190526100229161016b565b600080546001600160a01b0319166001600160a01b038a16179055600161004988826102a4565b506002869055600380546001600160a01b0319166001600160a01b0387161790556004849055600561007b84826102a4565b5060069190915560075550610363945050505050565b6001600160a01b03811681146100a657600080fd5b50565b634e487b7160e01b600052604160045260246000fd5b600082601f8301126100d057600080fd5b81516001600160401b03808211156100ea576100ea6100a9565b604051601f8301601f19908116603f01168101908282118183101715610112576101126100a9565b8160405283815260209250868385880101111561012e57600080fd5b600091505b838210156101505785820183015181830184015290820190610133565b838211156101615760008385830101525b9695505050505050565b600080600080600080600080610100898b03121561018857600080fd5b885161019381610091565b60208a01519098506001600160401b03808211156101b057600080fd5b6101bc8c838d016100bf565b985060408b0151975060608b015191506101d582610091565b60808b015160a08c01519297509550808211156101f157600080fd5b506101fe8b828c016100bf565b60c08b015160e0909b0151999c989b509699959894979350505050565b600181811c9082168061022f57607f821691505b60208210810361024f57634e487b7160e01b600052602260045260246000fd5b50919050565b601f82111561029f57600081815260208120601f850160051c8101602086101561027c5750805b601f850160051c820191505b8181101561029b57828155600101610288565b5050505b505050565b81516001600160401b038111156102bd576102bd6100a9565b6102d1816102cb845461021b565b84610255565b602080601f83116001811461030657600084156102ee5750858301515b600019600386901b1c1916600185901b17855561029b565b600085815260208120601f198616915b8281101561033557888601518255948401946001909101908401610316565b50858210156103535787850151600019600388901b60f8161c191681555b5050505050600190811b01905550565b610491806103726000396000f3fe608060405234801561001057600080fd5b50600436106100885760003560e01c80637e05f5a81161005b5780637e05f5a8146100e7578063861d7799146100ef578063893d20e81461010b57806398d5fdca1461012657600080fd5b80630115949c1461008d5780630bf15326146100a45780632b3e7a68146100ca5780637debdde9146100d2575b600080fd5b6004545b6040519081526020015b60405180910390f35b6100ba6100b236600461033a565b600455600190565b604051901515815260200161009b565b600654610091565b6100da61012e565b60405161009b91906103a0565b600754610091565b6100f76101c0565b60405161009b9897969594939291906103ba565b6000546040516001600160a01b03909116815260200161009b565b600254610091565b60606005805461013d90610421565b80601f016020809104026020016040519081016040528092919081815260200182805461016990610421565b80156101b65780601f1061018b576101008083540402835291602001916101b6565b820191906000526020600020905b81548152906001019060200180831161019957829003601f168201915b5050505050905090565b600060606000806000606060008060008054906101000a90046001600160a01b03166001600254600360009054906101000a90046001600160a01b0316600454600560065460075486805461021490610421565b80601f016020809104026020016040519081016040528092919081815260200182805461024090610421565b801561028d5780601f106102625761010080835404028352916020019161028d565b820191906000526020600020905b81548152906001019060200180831161027057829003601f168201915b505050505096508280546102a090610421565b80601f01602080910402602001604051908101604052809291908181526020018280546102cc90610421565b80156103195780601f106102ee57610100808354040283529160200191610319565b820191906000526020600020905b8154815290600101906020018083116102fc57829003601f168201915b50505050509250975097509750975097509750975097509091929394959697565b60006020828403121561034c57600080fd5b5035919050565b6000815180845260005b818110156103795760208185018101518683018201520161035d565b8181111561038b576000602083870101525b50601f01601f19169290920160200192915050565b6020815260006103b36020830184610353565b9392505050565b6001600160a01b038981168252610100602083018190526000916103e08483018c610353565b915089604085015280891660608501525086608084015282810360a08401526104098187610353565b60c0840195909552505060e001529695505050505050565b600181811c9082168061043557607f821691505b60208210810361045557634e487b7160e01b600052602260045260246000fd5b5091905056fea26469706673582212205bee0819214516128631090dd97bfbe569af0b5180260474a0c7a5d21a49ca3a64736f6c634300080f0033",
  "immutableReferences": {},
  "source": "// SPDX-License-Identifier: MIT\npragma solidity ^0.8.0;\n\ncontract Bid{\n\n    address payable owner;\n    string serviceProvider;\n    uint256 price;\n    address productID;\n    uint256 quantity;\n    string localization;\n    uint256 startOfDelivery;\n    uint256 createdAt;\n    \n    constructor(address payable _owner, string memory _serviceProvider, uint256 _price, address _productID, uint256 _quantity, string memory _localization, uint256 _startOfDelivery, uint256 _createdAt) payable{\n        owner = _owner;\n        serviceProvider = _serviceProvider;\n        price = _price;\n        productID = _productID;\n        quantity = _quantity;\n        localization = _localization;\n        startOfDelivery = _startOfDelivery;\n        createdAt = _createdAt;\n    }\n\n    function getBidDetails() public view returns(address payable, string memory, uint256, address, uint256, string memory, uint256, uint256){\n        \n        return(owner, serviceProvider, price, productID, quantity, localization,  startOfDelivery, createdAt);\n    }\n\n    function getPrice() external view returns(uint256){\n        \n        return (price);\n    }\n\n    function getLocalization() external view returns(string memory){\n\n        return(localization);\n    }\n\n    function getQuantity() external view returns(uint){\n        \n        return(quantity);\n    }\n\n    function setQuantity(uint256 _qte) external returns(bool){\n        \n        quantity = _qte;\n\n        return true;\n    }\n\n    function getCreatedAt() external view returns(uint256){\n        \n        return createdAt;\n    }\n\n    function getStartOfDelivery() external view returns(uint256){\n        \n        return startOfDelivery;\n    }\n\n    function getOwner() external view returns(address payable){\n        return owner;\n    }\n\n}",
  "sourcePath": "/home/linna/Desktop/Flexibility/Flexibility-backend/contracts/Bid.sol",
  "compiler": {
    "name": "solc",
    "version": "0.8.15+commit.e14f2714.Emscripten.clang"
  },
  "schemaVersion": "3.4.8",
  "updatedAt": "2022-08-01T14:23:58.447Z",
  "devdoc": {
    "kind": "dev",
    "methods": {},
    "version": 1
  },
  "userdoc": {
    "kind": "user",
    "methods": {},
    "version": 1
  }
}