{
  "contractName": "Bid",
  "abi": [
    {
      "inputs": [
        {
          "internalType": "address payable",
          "name": "_owner",
          "type": "address"
        },
        {
          "internalType": "string",
          "name": "_serviceProvider",
          "type": "string"
        },
        {
          "internalType": "uint256",
          "name": "_price",
          "type": "uint256"
        },
        {
          "internalType": "address",
          "name": "_productID",
          "type": "address"
        },
        {
          "internalType": "uint256",
          "name": "_quantity",
          "type": "uint256"
        },
        {
          "internalType": "string",
          "name": "_localization",
          "type": "string"
        },
        {
          "internalType": "uint256",
          "name": "_startOfDelivery",
          "type": "uint256"
        },
        {
          "internalType": "uint256",
          "name": "_createdAt",
          "type": "uint256"
        }
      ],
      "stateMutability": "payable",
      "type": "constructor"
    },
    {
      "inputs": [],
      "name": "getBidDetails",
      "outputs": [
        {
          "internalType": "address payable",
          "name": "",
          "type": "address"
        },
        {
          "internalType": "string",
          "name": "",
          "type": "string"
        },
        {
          "internalType": "uint256",
          "name": "",
          "type": "uint256"
        },
        {
          "internalType": "address",
          "name": "",
          "type": "address"
        },
        {
          "internalType": "uint256",
          "name": "",
          "type": "uint256"
        },
        {
          "internalType": "string",
          "name": "",
          "type": "string"
        },
        {
          "internalType": "uint256",
          "name": "",
          "type": "uint256"
        },
        {
          "internalType": "uint256",
          "name": "",
          "type": "uint256"
        }
      ],
      "stateMutability": "view",
      "type": "function"
    },
    {
      "inputs": [],
      "name": "getPrice",
      "outputs": [
        {
          "internalType": "uint256",
          "name": "",
          "type": "uint256"
        }
      ],
      "stateMutability": "view",
      "type": "function"
    },
    {
      "inputs": [],
      "name": "getLocalization",
      "outputs": [
        {
          "internalType": "string",
          "name": "",
          "type": "string"
        }
      ],
      "stateMutability": "view",
      "type": "function"
    },
    {
      "inputs": [],
      "name": "getQuantity",
      "outputs": [
        {
          "internalType": "uint256",
          "name": "",
          "type": "uint256"
        }
      ],
      "stateMutability": "view",
      "type": "function"
    },
    {
      "inputs": [
        {
          "internalType": "uint256",
          "name": "_qte",
          "type": "uint256"
        }
      ],
      "name": "setQuantity",
      "outputs": [
        {
          "internalType": "bool",
          "name": "",
          "type": "bool"
        }
      ],
      "stateMutability": "nonpayable",
      "type": "function"
    },
    {
      "inputs": [],
      "name": "getCreatedAt",
      "outputs": [
        {
          "internalType": "uint256",
          "name": "",
          "type": "uint256"
        }
      ],
      "stateMutability": "view",
      "type": "function"
    },
    {
      "inputs": [],
      "name": "getStartOfDelivery",
      "outputs": [
        {
          "internalType": "uint256",
          "name": "",
          "type": "uint256"
        }
      ],
      "stateMutability": "view",
      "type": "function"
    }
  ],
  "bytecode": "0x60806040526040516107dd3803806107dd8339810160408190526100229161016b565b600080546001600160a01b0319166001600160a01b038a16179055600161004988826102a4565b506002869055600380546001600160a01b0319166001600160a01b0387161790556004849055600561007b84826102a4565b5060069190915560075550610363945050505050565b6001600160a01b03811681146100a657600080fd5b50565b634e487b7160e01b600052604160045260246000fd5b600082601f8301126100d057600080fd5b81516001600160401b03808211156100ea576100ea6100a9565b604051601f8301601f19908116603f01168101908282118183101715610112576101126100a9565b8160405283815260209250868385880101111561012e57600080fd5b600091505b838210156101505785820183015181830184015290820190610133565b838211156101615760008385830101525b9695505050505050565b600080600080600080600080610100898b03121561018857600080fd5b885161019381610091565b60208a01519098506001600160401b03808211156101b057600080fd5b6101bc8c838d016100bf565b985060408b0151975060608b015191506101d582610091565b60808b015160a08c01519297509550808211156101f157600080fd5b506101fe8b828c016100bf565b60c08b015160e0909b0151999c989b509699959894979350505050565b600181811c9082168061022f57607f821691505b60208210810361024f57634e487b7160e01b600052602260045260246000fd5b50919050565b601f82111561029f57600081815260208120601f850160051c8101602086101561027c5750805b601f850160051c820191505b8181101561029b57828155600101610288565b5050505b505050565b81516001600160401b038111156102bd576102bd6100a9565b6102d1816102cb845461021b565b84610255565b602080601f83116001811461030657600084156102ee5750858301515b600019600386901b1c1916600185901b17855561029b565b600085815260208120601f198616915b8281101561033557888601518255948401946001909101908401610316565b50858210156103535787850151600019600388901b60f8161c191681555b5050505050600190811b01905550565b61046b806103726000396000f3fe608060405234801561001057600080fd5b506004361061007d5760003560e01c80637debdde91161005b5780637debdde9146100c75780637e05f5a8146100dc578063861d7799146100e457806398d5fdca1461010057600080fd5b80630115949c146100825780630bf15326146100995780632b3e7a68146100bf575b600080fd5b6004545b6040519081526020015b60405180910390f35b6100af6100a7366004610314565b600455600190565b6040519015158152602001610090565b600654610086565b6100cf610108565b604051610090919061037a565b600754610086565b6100ec61019a565b604051610090989796959493929190610394565b600254610086565b606060058054610117906103fb565b80601f0160208091040260200160405190810160405280929190818152602001828054610143906103fb565b80156101905780601f1061016557610100808354040283529160200191610190565b820191906000526020600020905b81548152906001019060200180831161017357829003601f168201915b5050505050905090565b600060606000806000606060008060008054906101000a90046001600160a01b03166001600254600360009054906101000a90046001600160a01b031660045460056006546007548680546101ee906103fb565b80601f016020809104026020016040519081016040528092919081815260200182805461021a906103fb565b80156102675780601f1061023c57610100808354040283529160200191610267565b820191906000526020600020905b81548152906001019060200180831161024a57829003601f168201915b5050505050965082805461027a906103fb565b80601f01602080910402602001604051908101604052809291908181526020018280546102a6906103fb565b80156102f35780601f106102c8576101008083540402835291602001916102f3565b820191906000526020600020905b8154815290600101906020018083116102d657829003601f168201915b50505050509250975097509750975097509750975097509091929394959697565b60006020828403121561032657600080fd5b5035919050565b6000815180845260005b8181101561035357602081850181015186830182015201610337565b81811115610365576000602083870101525b50601f01601f19169290920160200192915050565b60208152600061038d602083018461032d565b9392505050565b6001600160a01b038981168252610100602083018190526000916103ba8483018c61032d565b915089604085015280891660608501525086608084015282810360a08401526103e3818761032d565b60c0840195909552505060e001529695505050505050565b600181811c9082168061040f57607f821691505b60208210810361042f57634e487b7160e01b600052602260045260246000fd5b5091905056fea264697066735822122068234dc646a271b6397aaae7adc3de9ada8e8d9496390a745b989e38f708314964736f6c634300080f0033",
  "immutableReferences": {},
  "source": "// SPDX-License-Identifier: MIT\r\npragma solidity ^0.8.0;\r\n\r\ncontract Bid{\r\n\r\n    address payable owner;\r\n    string serviceProvider;\r\n    uint256 price;\r\n    address productID;\r\n    uint256 quantity;\r\n    string localization;\r\n    uint256 startOfDelivery;\r\n    uint256 createdAt;\r\n    \r\n    constructor(address payable _owner, string memory _serviceProvider, uint256 _price, address _productID, uint256 _quantity, string memory _localization, uint256 _startOfDelivery, uint256 _createdAt) public payable{\r\n        owner = _owner;\r\n        serviceProvider = _serviceProvider;\r\n        price = _price;\r\n        productID = _productID;\r\n        quantity = _quantity;\r\n        localization = _localization;\r\n        startOfDelivery = _startOfDelivery;\r\n        createdAt = _createdAt;\r\n    }\r\n\r\n    function getBidDetails() public view returns(address payable, string memory, uint256, address, uint256, string memory, uint256, uint256){\r\n        \r\n        return(owner, serviceProvider, price, productID, quantity, localization,  startOfDelivery, createdAt);\r\n    }\r\n\r\n    function getPrice() external view returns(uint256){\r\n        \r\n        return (price);\r\n    }\r\n\r\n    function getLocalization() external view returns(string memory){\r\n\r\n        return(localization);\r\n    }\r\n\r\n    function getQuantity() external view returns(uint){\r\n        \r\n        return(quantity);\r\n    }\r\n\r\n    function setQuantity(uint256 _qte) external returns(bool){\r\n        \r\n        quantity = _qte;\r\n\r\n        return true;\r\n    }\r\n\r\n    function getCreatedAt() external view returns(uint256){\r\n        \r\n        return createdAt;\r\n    }\r\n\r\n    function getStartOfDelivery() external view returns(uint256){\r\n        \r\n        return startOfDelivery;\r\n    }\r\n\r\n}",
  "sourcePath": "D:\\webdev projects\\flexibility\\fp-backend\\contracts\\Bid.sol",
  "compiler": {
    "name": "solc",
    "version": "0.8.15+commit.e14f2714.Emscripten.clang"
  },
  "schemaVersion": "3.4.4",
  "updatedAt": "2022-07-20T12:14:25.777Z",
  "devdoc": {
    "kind": "dev",
    "methods": {},
    "version": 1
  },
  "userdoc": {
    "kind": "user",
    "methods": {},
    "version": 1
  }
}