{
  "contractName": "Bid",
  "abi": [
    {
      "inputs": [
        {
          "internalType": "address payable",
          "name": "_owner",
          "type": "address"
        },
        {
          "internalType": "string",
          "name": "_serviceProvider",
          "type": "string"
        },
        {
          "internalType": "uint256",
          "name": "_price",
          "type": "uint256"
        },
        {
          "internalType": "address",
          "name": "_productID",
          "type": "address"
        },
        {
          "internalType": "uint256",
          "name": "_quantity",
          "type": "uint256"
        },
        {
          "internalType": "string",
          "name": "_localization",
          "type": "string"
        },
        {
          "internalType": "uint256",
          "name": "_startOfDelivery",
          "type": "uint256"
        },
        {
          "internalType": "uint256",
          "name": "_createdAt",
          "type": "uint256"
        }
      ],
      "stateMutability": "payable",
      "type": "constructor"
    },
    {
      "inputs": [],
      "name": "getBidDetails",
      "outputs": [
        {
          "internalType": "address payable",
          "name": "",
          "type": "address"
        },
        {
          "internalType": "string",
          "name": "",
          "type": "string"
        },
        {
          "internalType": "uint256",
          "name": "",
          "type": "uint256"
        },
        {
          "internalType": "address",
          "name": "",
          "type": "address"
        },
        {
          "internalType": "uint256",
          "name": "",
          "type": "uint256"
        },
        {
          "internalType": "string",
          "name": "",
          "type": "string"
        },
        {
          "internalType": "uint256",
          "name": "",
          "type": "uint256"
        },
        {
          "internalType": "uint256",
          "name": "",
          "type": "uint256"
        }
      ],
      "stateMutability": "view",
      "type": "function"
    },
    {
      "inputs": [],
      "name": "getPrice",
      "outputs": [
        {
          "internalType": "uint256",
          "name": "",
          "type": "uint256"
        }
      ],
      "stateMutability": "view",
      "type": "function"
    },
    {
      "inputs": [],
      "name": "getLocalization",
      "outputs": [
        {
          "internalType": "string",
          "name": "",
          "type": "string"
        }
      ],
      "stateMutability": "view",
      "type": "function"
    },
    {
      "inputs": [],
      "name": "getQuantity",
      "outputs": [
        {
          "internalType": "uint256",
          "name": "",
          "type": "uint256"
        }
      ],
      "stateMutability": "view",
      "type": "function"
    },
    {
      "inputs": [
        {
          "internalType": "uint256",
          "name": "_qte",
          "type": "uint256"
        }
      ],
      "name": "setQuantity",
      "outputs": [
        {
          "internalType": "bool",
          "name": "",
          "type": "bool"
        }
      ],
      "stateMutability": "nonpayable",
      "type": "function"
    },
    {
      "inputs": [],
      "name": "getCreatedAt",
      "outputs": [
        {
          "internalType": "uint256",
          "name": "",
          "type": "uint256"
        }
      ],
      "stateMutability": "view",
      "type": "function"
    },
    {
      "inputs": [],
      "name": "getStartOfDelivery",
      "outputs": [
        {
          "internalType": "uint256",
          "name": "",
          "type": "uint256"
        }
      ],
      "stateMutability": "view",
      "type": "function"
    },
    {
      "inputs": [],
      "name": "getOwner",
      "outputs": [
        {
          "internalType": "address payable",
          "name": "",
          "type": "address"
        }
      ],
      "stateMutability": "view",
      "type": "function"
    }
  ],
  "bytecode": "0x60806040526040516107f53803806107f583398101604081905261002291610164565b600080546001600160a01b0319166001600160a01b038a161790556001610049888261029d565b506002869055600380546001600160a01b0319166001600160a01b0387161790556004849055600561007b848261029d565b506006919091556007555061035c945050505050565b6001600160a01b03811681146100a657600080fd5b50565b634e487b7160e01b600052604160045260246000fd5b600082601f8301126100d057600080fd5b81516001600160401b03808211156100ea576100ea6100a9565b604051601f8301601f19908116603f01168101908282118183101715610112576101126100a9565b8160405283815260209250868385880101111561012e57600080fd5b600091505b838210156101505785820183015181830184015290820190610133565b600093810190920192909252949350505050565b600080600080600080600080610100898b03121561018157600080fd5b885161018c81610091565b60208a01519098506001600160401b03808211156101a957600080fd5b6101b58c838d016100bf565b985060408b0151975060608b015191506101ce82610091565b60808b015160a08c01519297509550808211156101ea57600080fd5b506101f78b828c016100bf565b60c08b015160e0909b0151999c989b509699959894979350505050565b600181811c9082168061022857607f821691505b60208210810361024857634e487b7160e01b600052602260045260246000fd5b50919050565b601f82111561029857600081815260208120601f850160051c810160208610156102755750805b601f850160051c820191505b8181101561029457828155600101610281565b5050505b505050565b81516001600160401b038111156102b6576102b66100a9565b6102ca816102c48454610214565b8461024e565b602080601f8311600181146102ff57600084156102e75750858301515b600019600386901b1c1916600185901b178555610294565b600085815260208120601f198616915b8281101561032e5788860151825594840194600190910190840161030f565b508582101561034c5787850151600019600388901b60f8161c191681555b5050505050600190811b01905550565b61048a8061036b6000396000f3fe608060405234801561001057600080fd5b50600436106100885760003560e01c80637e05f5a81161005b5780637e05f5a8146100e7578063861d7799146100ef578063893d20e81461010b57806398d5fdca1461012657600080fd5b80630115949c1461008d5780630bf15326146100a45780632b3e7a68146100ca5780637debdde9146100d2575b600080fd5b6004545b6040519081526020015b60405180910390f35b6100ba6100b236600461033a565b600455600190565b604051901515815260200161009b565b600654610091565b6100da61012e565b60405161009b9190610399565b600754610091565b6100f76101c0565b60405161009b9897969594939291906103b3565b6000546040516001600160a01b03909116815260200161009b565b600254610091565b60606005805461013d9061041a565b80601f01602080910402602001604051908101604052809291908181526020018280546101699061041a565b80156101b65780601f1061018b576101008083540402835291602001916101b6565b820191906000526020600020905b81548152906001019060200180831161019957829003601f168201915b5050505050905090565b600060606000806000606060008060008054906101000a90046001600160a01b03166001600254600360009054906101000a90046001600160a01b031660045460056006546007548680546102149061041a565b80601f01602080910402602001604051908101604052809291908181526020018280546102409061041a565b801561028d5780601f106102625761010080835404028352916020019161028d565b820191906000526020600020905b81548152906001019060200180831161027057829003601f168201915b505050505096508280546102a09061041a565b80601f01602080910402602001604051908101604052809291908181526020018280546102cc9061041a565b80156103195780601f106102ee57610100808354040283529160200191610319565b820191906000526020600020905b8154815290600101906020018083116102fc57829003601f168201915b50505050509250975097509750975097509750975097509091929394959697565b60006020828403121561034c57600080fd5b5035919050565b6000815180845260005b818110156103795760208185018101518683018201520161035d565b506000602082860101526020601f19601f83011685010191505092915050565b6020815260006103ac6020830184610353565b9392505050565b6001600160a01b038981168252610100602083018190526000916103d98483018c610353565b915089604085015280891660608501525086608084015282810360a08401526104028187610353565b60c0840195909552505060e001529695505050505050565b600181811c9082168061042e57607f821691505b60208210810361044e57634e487b7160e01b600052602260045260246000fd5b5091905056fea2646970667358221220320261f8f5166ef1488de58feac26e87e3ea99286fa920b6d456f1836c92357c64736f6c63430008100033",
  "immutableReferences": {},
  "source": "// SPDX-License-Identifier: MIT\npragma solidity ^0.8.0;\n\ncontract Bid{\n\n    address payable owner;\n    string serviceProvider;\n    uint256 price;\n    address productID;\n    uint256 quantity;\n    string localization;\n    uint256 startOfDelivery;\n    uint256 createdAt;\n    \n    constructor(address payable _owner, string memory _serviceProvider, uint256 _price, address _productID, uint256 _quantity, string memory _localization, uint256 _startOfDelivery, uint256 _createdAt) payable{\n        owner = _owner;\n        serviceProvider = _serviceProvider;\n        price = _price;\n        productID = _productID;\n        quantity = _quantity;\n        localization = _localization;\n        startOfDelivery = _startOfDelivery;\n        createdAt = _createdAt;\n    }\n\n    function getBidDetails() public view returns(address payable, string memory, uint256, address, uint256, string memory, uint256, uint256){\n        \n        return(owner, serviceProvider, price, productID, quantity, localization,  startOfDelivery, createdAt);\n    }\n\n    function getPrice() external view returns(uint256){\n        \n        return (price);\n    }\n\n    function getLocalization() external view returns(string memory){\n\n        return(localization);\n    }\n\n    function getQuantity() external view returns(uint){\n        \n        return(quantity);\n    }\n\n    function setQuantity(uint256 _qte) external returns(bool){\n        \n        quantity = _qte;\n\n        return true;\n    }\n\n    function getCreatedAt() external view returns(uint256){\n        \n        return createdAt;\n    }\n\n    function getStartOfDelivery() external view returns(uint256){\n        \n        return startOfDelivery;\n    }\n\n    function getOwner() external view returns(address payable){\n        return owner;\n    }\n\n}",
  "sourcePath": "/home/linna/Desktop/Flexibility/Flexibility-backend/contracts/Bid.sol",
  "compiler": {
    "name": "solc",
    "version": "0.8.16+commit.07a7930e.Emscripten.clang"
  },
  "schemaVersion": "3.4.8",
  "updatedAt": "2022-08-16T15:07:18.175Z",
  "devdoc": {
    "kind": "dev",
    "methods": {},
    "version": 1
  },
  "userdoc": {
    "kind": "user",
    "methods": {},
    "version": 1
  }
}