{
  "contractName": "CFT",
  "abi": [
    {
      "inputs": [
        {
          "internalType": "address payable",
          "name": "_owner",
          "type": "address"
        },
        {
          "internalType": "address",
          "name": "_productID",
          "type": "address"
        },
        {
          "internalType": "uint256",
          "name": "_totalPower",
          "type": "uint256"
        },
        {
          "internalType": "uint256",
          "name": "_openingDate",
          "type": "uint256"
        },
        {
          "internalType": "uint256",
          "name": "_closingDate",
          "type": "uint256"
        },
        {
          "internalType": "string",
          "name": "_localization",
          "type": "string"
        }
      ],
      "stateMutability": "payable",
      "type": "constructor"
    },
    {
      "inputs": [
        {
          "internalType": "uint256",
          "name": "",
          "type": "uint256"
        }
      ],
      "name": "DPs",
      "outputs": [
        {
          "internalType": "contract FlexibilityDP",
          "name": "",
          "type": "address"
        }
      ],
      "stateMutability": "view",
      "type": "function"
    },
    {
      "inputs": [
        {
          "internalType": "uint256",
          "name": "",
          "type": "uint256"
        }
      ],
      "name": "aRs",
      "outputs": [
        {
          "internalType": "contract ActivationRequest",
          "name": "",
          "type": "address"
        }
      ],
      "stateMutability": "view",
      "type": "function"
    },
    {
      "inputs": [
        {
          "internalType": "uint256",
          "name": "",
          "type": "uint256"
        }
      ],
      "name": "bids",
      "outputs": [
        {
          "internalType": "contract Bid",
          "name": "",
          "type": "address"
        }
      ],
      "stateMutability": "view",
      "type": "function"
    },
    {
      "inputs": [
        {
          "internalType": "uint256",
          "name": "",
          "type": "uint256"
        }
      ],
      "name": "unsortedBids",
      "outputs": [
        {
          "internalType": "contract Bid",
          "name": "",
          "type": "address"
        }
      ],
      "stateMutability": "view",
      "type": "function"
    },
    {
      "inputs": [
        {
          "internalType": "address payable",
          "name": "_owner",
          "type": "address"
        },
        {
          "internalType": "uint256",
          "name": "_quantity",
          "type": "uint256"
        },
        {
          "internalType": "uint256",
          "name": "_startOfDelivery",
          "type": "uint256"
        }
      ],
      "name": "createActivationRequest",
      "outputs": [],
      "stateMutability": "payable",
      "type": "function"
    },
    {
      "inputs": [
        {
          "internalType": "address payable",
          "name": "_owner",
          "type": "address"
        },
        {
          "internalType": "string",
          "name": "_serviceProvider",
          "type": "string"
        },
        {
          "internalType": "uint256",
          "name": "_price",
          "type": "uint256"
        },
        {
          "internalType": "uint256",
          "name": "_quantity",
          "type": "uint256"
        },
        {
          "internalType": "string",
          "name": "_localization",
          "type": "string"
        },
        {
          "internalType": "uint256",
          "name": "_startOfDelivery",
          "type": "uint256"
        }
      ],
      "name": "createBid",
      "outputs": [],
      "stateMutability": "payable",
      "type": "function"
    },
    {
      "inputs": [],
      "name": "getAllARs",
      "outputs": [
        {
          "internalType": "contract ActivationRequest[]",
          "name": "",
          "type": "address[]"
        }
      ],
      "stateMutability": "view",
      "type": "function"
    },
    {
      "inputs": [],
      "name": "getAllBids",
      "outputs": [
        {
          "internalType": "contract Bid[]",
          "name": "",
          "type": "address[]"
        }
      ],
      "stateMutability": "view",
      "type": "function"
    },
    {
      "inputs": [],
      "name": "getCFTDetails",
      "outputs": [
        {
          "internalType": "address payable",
          "name": "",
          "type": "address"
        },
        {
          "internalType": "address",
          "name": "",
          "type": "address"
        },
        {
          "internalType": "uint256",
          "name": "",
          "type": "uint256"
        },
        {
          "internalType": "uint256",
          "name": "",
          "type": "uint256"
        },
        {
          "internalType": "uint256",
          "name": "",
          "type": "uint256"
        },
        {
          "internalType": "string",
          "name": "",
          "type": "string"
        }
      ],
      "stateMutability": "view",
      "type": "function"
    },
    {
      "inputs": [
        {
          "internalType": "address",
          "name": "_productAddress",
          "type": "address"
        }
      ],
      "name": "getProductName",
      "outputs": [
        {
          "internalType": "string",
          "name": "",
          "type": "string"
        }
      ],
      "stateMutability": "view",
      "type": "function"
    },
    {
      "inputs": [],
      "name": "getAllDPs",
      "outputs": [
        {
          "internalType": "contract FlexibilityDP[]",
          "name": "",
          "type": "address[]"
        }
      ],
      "stateMutability": "view",
      "type": "function"
    },
    {
      "inputs": [
        {
          "internalType": "uint256",
          "name": "_startDP",
          "type": "uint256"
        },
        {
          "internalType": "uint256",
          "name": "_endDP",
          "type": "uint256"
        }
      ],
      "name": "setCurrentARL",
      "outputs": [],
      "stateMutability": "payable",
      "type": "function"
    },
    {
      "inputs": [
        {
          "internalType": "uint256",
          "name": "_startDP",
          "type": "uint256"
        },
        {
          "internalType": "uint256",
          "name": "_endDP",
          "type": "uint256"
        }
      ],
      "name": "setCurrentMOL",
      "outputs": [],
      "stateMutability": "payable",
      "type": "function"
    },
    {
      "inputs": [],
      "name": "filter",
      "outputs": [
        {
          "internalType": "bool",
          "name": "",
          "type": "bool"
        }
      ],
      "stateMutability": "payable",
      "type": "function"
    },
    {
      "inputs": [],
      "name": "getFiltered_ARL",
      "outputs": [
        {
          "internalType": "contract ActivationRequest[]",
          "name": "",
          "type": "address[]"
        }
      ],
      "stateMutability": "view",
      "type": "function"
    },
    {
      "inputs": [],
      "name": "getARL",
      "outputs": [
        {
          "internalType": "contract ActivationRequest[]",
          "name": "",
          "type": "address[]"
        }
      ],
      "stateMutability": "view",
      "type": "function"
    },
    {
      "inputs": [],
      "name": "getMOL",
      "outputs": [
        {
          "internalType": "contract Bid[]",
          "name": "",
          "type": "address[]"
        }
      ],
      "stateMutability": "view",
      "type": "function"
    },
    {
      "inputs": [],
      "name": "createFlexibilityDP",
      "outputs": [],
      "stateMutability": "payable",
      "type": "function"
    },
    {
      "inputs": [],
      "name": "getOpeningTime",
      "outputs": [
        {
          "internalType": "uint256",
          "name": "",
          "type": "uint256"
        }
      ],
      "stateMutability": "view",
      "type": "function"
    },
    {
      "inputs": [],
      "name": "getClosingTime",
      "outputs": [
        {
          "internalType": "uint256",
          "name": "",
          "type": "uint256"
        }
      ],
      "stateMutability": "view",
      "type": "function"
    }
  ],
  "bytecode": "0x6080604052604051620045c3380380620045c38339810160408190526200002691620000af565b600680546001600160a01b038089166001600160a01b031992831617909255600780549288169290911691909117905560088490556009839055600a829055600b62000073828262000265565b5050505050505062000331565b6001600160a01b03811681146200009657600080fd5b50565b634e487b7160e01b600052604160045260246000fd5b60008060008060008060c08789031215620000c957600080fd5b8651620000d68162000080565b80965050602080880151620000eb8162000080565b604089015160608a015160808b015160a08c0151939950919750955093506001600160401b03808211156200011f57600080fd5b818a0191508a601f8301126200013457600080fd5b81518181111562000149576200014962000099565b604051601f8201601f19908116603f0116810190838211818310171562000174576200017462000099565b816040528281528d868487010111156200018d57600080fd5b600093505b82841015620001b1578484018601518185018701529285019262000192565b82841115620001c35760008684830101525b8096505050505050509295509295509295565b600181811c90821680620001eb57607f821691505b6020821081036200020c57634e487b7160e01b600052602260045260246000fd5b50919050565b601f8211156200026057600081815260208120601f850160051c810160208610156200023b5750805b601f850160051c820191505b818110156200025c5782815560010162000247565b5050505b505050565b81516001600160401b0381111562000281576200028162000099565b6200029981620002928454620001d6565b8462000212565b602080601f831160018114620002d15760008415620002b85750858301515b600019600386901b1c1916600185901b1785556200025c565b600085815260208120601f198616915b828110156200030257888601518255948401946001909101908401620002e1565b5085821015620003215787850151600019600388901b60f8161c191681555b5050505050600190811b01905550565b61428280620003416000396000f3fe608060405260043610620001365760003560e01c80636bd450f511620000ad578063bb227902116200006c578063bb2279021462000321578063c99560021462000338578063cb831d6a1462000364578063d7463573146200037c578063ef501d38146200039357600080fd5b80636bd450f5146200028157806383793e2014620002b55780638d0f6da314620002da5780638f29743114620002f2578063ba95478d146200030957600080fd5b8063401245bf11620000fa578063401245bf14620001fa5780634423c5f1146200020457806356d9e23e14620002295780635fadcc1e146200024e578063623a81b8146200026957600080fd5b8062a48103146200013b57806313af3b2114620001545780632f9cb9aa1462000184578063323d822f14620001a55780633d76021114620001e3575b600080fd5b620001526200014c36600462001644565b620003ab565b005b3480156200016157600080fd5b506200016c62000561565b6040516200017b91906200167c565b60405180910390f35b3480156200019157600080fd5b50600a545b6040519081526020016200017b565b348015620001b257600080fd5b50620001ca620001c4366004620016cb565b620005c5565b6040516001600160a01b0390911681526020016200017b565b62000152620001f4366004620016e5565b620005f0565b6200015262000814565b3480156200021157600080fd5b50620001ca62000223366004620016cb565b620008a6565b3480156200023657600080fd5b50620001ca62000248366004620016cb565b620008b7565b62000258620008c8565b60405190151581526020016200017b565b3480156200027657600080fd5b506200016c62000b09565b3480156200028e57600080fd5b50620002a6620002a036600462001708565b62000b6b565b6040516200017b919062001790565b348015620002c257600080fd5b50620001ca620002d4366004620016cb565b62000bdc565b348015620002e757600080fd5b506200016c62000bed565b6200015262000303366004620016e5565b62000c4f565b3480156200031657600080fd5b506200016c62000df0565b6200015262000332366004620017f1565b62000e52565b3480156200034557600080fd5b5062000350620010e1565b6040516200017b9695949392919062001897565b3480156200037157600080fd5b506200016c620011ca565b3480156200038957600080fd5b5060095462000196565b348015620003a057600080fd5b506200016c6200122c565b60065483906001600160a01b03808316911614620004035760405162461bcd60e51b815260206004820152601060248201526f1b9bdd081bdddb995c881bd98810d19560821b60448201526064015b60405180910390fd5b8160095481118015620004175750600a5481105b620004565760405162461bcd60e51b815260206004820152600e60248201526d6e6f742076616c6964206461746560901b6044820152606401620003fa565b83600854620004646200128e565b620004709083620018f8565b1115620004b05760405162461bcd60e51b815260206004820152600d60248201526c6e6f742076616c69642071746560981b6044820152606401620003fa565b600086600760009054906101000a90046001600160a01b031687600b8842604051620004dc9062001580565b620004ed969594939291906200194f565b604051809103906000f0801580156200050a573d6000803e3d6000fd5b50600080546001810182559080527f290decd9548b62a8d60345a988386fc84ba6bc95484008f6362f93160ef3e5630180546001600160a01b0319166001600160a01b039290921691909117905550505050505050565b60606004805480602002602001604051908101604052809291908181526020018280548015620005bb57602002820191906000526020600020905b81546001600160a01b031681526001909101906020018083116200059c575b5050505050905090565b60008181548110620005d657600080fd5b6000918252602090912001546001600160a01b0316905081565b60005b6001548110156200079157826001828154811062000615576200061562001a17565b6000918252602091829020015460408051630567cf4d60e31b815290516001600160a01b0390921692632b3e7a68926004808401938290030181865afa15801562000664573d6000803e3d6000fd5b505050506040513d601f19601f820116820180604052508101906200068a919062001a2d565b101580156200072257508160018281548110620006ab57620006ab62001a17565b6000918252602091829020015460408051630567cf4d60e31b815290516001600160a01b0390921692632b3e7a68926004808401938290030181865afa158015620006fa573d6000803e3d6000fd5b505050506040513d601f19601f8201168201806040525081019062000720919062001a2d565b105b156200077c5760026001828154811062000740576200074062001a17565b60009182526020808320909101548354600181018555938352912090910180546001600160a01b0319166001600160a01b039092169190911790555b80620007888162001a47565b915050620005f3565b50620007f96002805480602002602001604051908101604052809291908181526020018280548015620007ee57602002820191906000526020600020905b81546001600160a01b03168152600190910190602001808311620007cf575b505050505062001362565b80516200080f916003916020909101906200158e565b505050565b6000600d60036040516200082890620015f8565b6200083592919062001a63565b604051809103906000f08015801562000852573d6000803e3d6000fd5b50600580546001810182556000919091527f036b6384b5eca791c62761152d0c79bb0604c104a5fb6f4eb0703f3154bb3db00180546001600160a01b0319166001600160a01b039290921691909117905550565b60018181548110620005d657600080fd5b60058181548110620005d657600080fd5b600080805b60045481101562000b00578160048281548110620008ef57620008ef62001a17565b60009182526020918290200154604080516245652760e21b815290516001600160a01b0390921692630115949c926004808401938290030181865afa1580156200093d573d6000803e3d6000fd5b505050506040513d601f19601f8201168201806040525081019062000963919062001a2d565b1115620009c357600d6004828154811062000982576200098262001a17565b60009182526020808320909101548354600181018555938352912090910180546001600160a01b0319166001600160a01b0390921691909117905562000a5f565b60048181548110620009d957620009d962001a17565b9060005260206000200160009054906101000a90046001600160a01b03166001600160a01b031663c03366296040518163ffffffff1660e01b81526004016020604051808303816000875af115801562000a37573d6000803e3d6000fd5b505050506040513d601f19601f8201168201806040525081019062000a5d919062001b07565b505b6004818154811062000a755762000a7562001a17565b60009182526020918290200154604080516245652760e21b815290516001600160a01b0390921692630115949c926004808401938290030181865afa15801562000ac3573d6000803e3d6000fd5b505050506040513d601f19601f8201168201806040525081019062000ae9919062001a2d565b91508062000af78162001a47565b915050620008cd565b50600191505090565b60606005805480602002602001604051908101604052809291908181526020018280548015620005bb576020028201919060005260206000209081546001600160a01b031681526001909101906020018083116200059c575050505050905090565b6060816001600160a01b031663dfaf02216040518163ffffffff1660e01b8152600401600060405180830381865afa15801562000bac573d6000803e3d6000fd5b505050506040513d6000823e601f3d908101601f1916820160405262000bd6919081019062001b41565b92915050565b60028181548110620005d657600080fd5b60606001805480602002602001604051908101604052809291908181526020018280548015620005bb576020028201919060005260206000209081546001600160a01b031681526001909101906020018083116200059c575050505050905090565b60005b6000548110156200080f57826000828154811062000c745762000c7462001a17565b6000918252602091829020015460408051630567cf4d60e31b815290516001600160a01b0390921692632b3e7a68926004808401938290030181865afa15801562000cc3573d6000803e3d6000fd5b505050506040513d601f19601f8201168201806040525081019062000ce9919062001a2d565b1015801562000d815750816000828154811062000d0a5762000d0a62001a17565b6000918252602091829020015460408051630567cf4d60e31b815290516001600160a01b0390921692632b3e7a68926004808401938290030181865afa15801562000d59573d6000803e3d6000fd5b505050506040513d601f19601f8201168201806040525081019062000d7f919062001a2d565b105b1562000ddb5760046000828154811062000d9f5762000d9f62001a17565b60009182526020808320909101548354600181018555938352912090910180546001600160a01b0319166001600160a01b039092169190911790555b8062000de78162001a47565b91505062000c52565b6060600d805480602002602001604051908101604052809291908181526020018280548015620005bb576020028201919060005260206000209081546001600160a01b031681526001909101906020018083116200059c575050505050905090565b60065488906001600160a01b039081169082160362000ea65760405162461bcd60e51b815260206004820152600f60248201526e1bdddb995c8818d85b89dd08189a59608a1b6044820152606401620003fa565b83838080601f0160208091040260200160405190810160405280939291908181526020018383808284376000920191909152505060405162000ef09250600b915060200162001bfa565b604051602081830303815290604052805190602001208160405160200162000f19919062001c78565b60405160208183030381529060405280519060200120148062000f885750604051601560f91b6020820152602101604051602081830303815290604052805190602001208160405160200162000f70919062001c78565b60405160208183030381529060405280519060200120145b62000fcf5760405162461bcd60e51b81526020600482015260166024820152753737ba103b30b634b2103637b1b0b634bd30ba34b7b760511b6044820152606401620003fa565b826009548111801562000fe35750600a5481105b620010225760405162461bcd60e51b815260206004820152600e60248201526d6e6f742076616c6964206461746560901b6044820152606401620003fa565b60008b8b8b8b600760009054906101000a90046001600160a01b03168c8c8c8c42604051620010519062001606565b620010669a9998979695949392919062001cbf565b604051809103906000f08015801562001083573d6000803e3d6000fd5b506001805480820182556000919091527fb10e2d527612073b26eecdfd717e6a320cf44b4afac2b0732d9fcbe2b7fa0cf60180546001600160a01b0319166001600160a01b0392909216919091179055505050505050505050505050565b60008060008060006060600660009054906101000a90046001600160a01b0316600760009054906101000a90046001600160a01b0316600854600954600a54600b808054620011309062001913565b80601f01602080910402602001604051908101604052809291908181526020018280546200115e9062001913565b8015620011af5780601f106200118357610100808354040283529160200191620011af565b820191906000526020600020905b8154815290600101906020018083116200119157829003601f168201915b50505050509050955095509550955095509550909192939495565b60606000805480602002602001604051908101604052809291908181526020018280548015620005bb576020028201919060005260206000209081546001600160a01b031681526001909101906020018083116200059c575050505050905090565b60606003805480602002602001604051908101604052809291908181526020018280548015620005bb576020028201919060005260206000209081546001600160a01b031681526001909101906020018083116200059c575050505050905090565b6000600c819055805b6000548110156200135a5760008181548110620012b857620012b862001a17565b60009182526020918290200154604080516245652760e21b815290516001600160a01b0390921692630115949c926004808401938290030181865afa15801562001306573d6000803e3d6000fd5b505050506040513d601f19601f820116820180604052508101906200132c919062001a2d565b600c60008282546200133f9190620018f8565b90915550819050620013518162001a47565b91505062001297565b5050600c5490565b60606000805b6001845162001378919062001d2e565b811015620015785760006200138f826001620018f8565b90505b84518110156200156257848181518110620013b157620013b162001a17565b60200260200101516001600160a01b03166398d5fdca6040518163ffffffff1660e01b8152600401602060405180830381865afa158015620013f7573d6000803e3d6000fd5b505050506040513d601f19601f820116820180604052508101906200141d919062001a2d565b85838151811062001432576200143262001a17565b60200260200101516001600160a01b03166398d5fdca6040518163ffffffff1660e01b8152600401602060405180830381865afa15801562001478573d6000803e3d6000fd5b505050506040513d601f19601f820116820180604052508101906200149e919062001a2d565b11156200154d57848281518110620014ba57620014ba62001a17565b60200260200101519250848181518110620014d957620014d962001a17565b6020026020010151858381518110620014f657620014f662001a17565b60200260200101906001600160a01b031690816001600160a01b031681525050828582815181106200152c576200152c62001a17565b60200260200101906001600160a01b031690816001600160a01b0316815250505b80620015598162001a47565b91505062001392565b50806200156f8162001a47565b91505062001368565b509192915050565b6107ae8062001d4983390190565b828054828255906000526020600020908101928215620015e6579160200282015b82811115620015e657825182546001600160a01b0319166001600160a01b03909116178255602090920191600190910190620015af565b50620015f492915062001614565b5090565b61155380620024f783390190565b6108038062003a4a83390190565b5b80821115620015f4576000815560010162001615565b6001600160a01b03811681146200164157600080fd5b50565b6000806000606084860312156200165a57600080fd5b833562001667816200162b565b95602085013595506040909401359392505050565b6020808252825182820181905260009190848201906040850190845b81811015620016bf5783516001600160a01b03168352928401929184019160010162001698565b50909695505050505050565b600060208284031215620016de57600080fd5b5035919050565b60008060408385031215620016f957600080fd5b50508035926020909101359150565b6000602082840312156200171b57600080fd5b813562001728816200162b565b9392505050565b60005b838110156200174c57818101518382015260200162001732565b838111156200175c576000848401525b50505050565b600081518084526200177c8160208601602086016200172f565b601f01601f19169290920160200192915050565b60208152600062001728602083018462001762565b60008083601f840112620017b857600080fd5b50813567ffffffffffffffff811115620017d157600080fd5b602083019150836020828501011115620017ea57600080fd5b9250929050565b60008060008060008060008060c0898b0312156200180e57600080fd5b88356200181b816200162b565b9750602089013567ffffffffffffffff808211156200183957600080fd5b620018478c838d01620017a5565b909950975060408b0135965060608b0135955060808b01359150808211156200186f57600080fd5b506200187e8b828c01620017a5565b999c989b50969995989497949560a00135949350505050565b600060018060a01b03808916835280881660208401525085604083015284606083015283608083015260c060a0830152620018d660c083018462001762565b98975050505050505050565b634e487b7160e01b600052601160045260246000fd5b600082198211156200190e576200190e620018e2565b500190565b600181811c908216806200192857607f821691505b6020821081036200194957634e487b7160e01b600052602260045260246000fd5b50919050565b6001600160a01b03878116825286166020808301919091526040820186905260c0606083015284546000918291620019878162001913565b8060c087015260e0600180841660008114620019ac5760018114620019c757620019f7565b60ff1985168984015283151560051b890183019650620019f7565b8b6000528560002060005b85811015620019ef5781548b8201860152908301908701620019d2565b8a0184019750505b5050505050608084019590955260a0909201929092529695505050505050565b634e487b7160e01b600052603260045260246000fd5b60006020828403121562001a4057600080fd5b5051919050565b60006001820162001a5c5762001a5c620018e2565b5060010190565b600060408201604083528085548083526060850191506000925086835260208320835b8281101562001aaf5781546001600160a01b031684526020840193506001918201910162001a86565b50505083810360208501528085548083526020830191508684526020842092505b8084101562001afc5782546001600160a01b031682526001938401939092019160209091019062001ad0565b509695505050505050565b60006020828403121562001b1a57600080fd5b815180151581146200172857600080fd5b634e487b7160e01b600052604160045260246000fd5b60006020828403121562001b5457600080fd5b815167ffffffffffffffff8082111562001b6d57600080fd5b818401915084601f83011262001b8257600080fd5b81518181111562001b975762001b9762001b2b565b604051601f8201601f19908116603f0116810190838211818310171562001bc25762001bc262001b2b565b8160405282815287602084870101111562001bdc57600080fd5b62001bef8360208301602088016200172f565b979650505050505050565b600080835462001c0a8162001913565b6001828116801562001c25576001811462001c3b5762001c6c565b60ff198416875282151583028701945062001c6c565b8760005260208060002060005b8581101562001c635781548a82015290840190820162001c48565b50505082870194505b50929695505050505050565b6000825162001c8c8184602087016200172f565b9190910192915050565b81835281816020850137506000828201602090810191909152601f909101601f19169091010190565b6001600160a01b038b811682526101006020830181905260009162001ce88483018d8f62001c96565b91508a6040850152808a1660608501525087608084015282810360a084015262001d1481878962001c96565b60c0840195909552505060e0015298975050505050505050565b60008282101562001d435762001d43620018e2565b50039056fe60806040526040516107ae3803806107ae833981016040819052610022916100af565b600080546001600160a01b038089166001600160a01b031992831617909255600180549288169290911691909117905560028490556003610063848261024d565b5060049190915560055550506006805460ff191690555061030c9050565b6001600160a01b038116811461009657600080fd5b50565b634e487b7160e01b600052604160045260246000fd5b60008060008060008060c087890312156100c857600080fd5b86516100d381610081565b809650506020808801516100e681610081565b604089015160608a015191975095506001600160401b038082111561010a57600080fd5b818a0191508a601f83011261011e57600080fd5b81518181111561013057610130610099565b604051601f8201601f19908116603f0116810190838211818310171561015857610158610099565b816040528281528d8684870101111561017057600080fd5b600093505b828410156101925784840186015181850187015292850192610175565b828411156101a35760008684830101525b8098505050505050506080870151915060a087015190509295509295509295565b600181811c908216806101d857607f821691505b6020821081036101f857634e487b7160e01b600052602260045260246000fd5b50919050565b601f82111561024857600081815260208120601f850160051c810160208610156102255750805b601f850160051c820191505b8181101561024457828155600101610231565b5050505b505050565b81516001600160401b0381111561026657610266610099565b61027a8161027484546101c4565b846101fe565b602080601f8311600181146102af57600084156102975750858301515b600019600386901b1c1916600185901b178555610244565b600085815260208120601f198616915b828110156102de578886015182559484019460019091019084016102bf565b50858210156102fc5787850151600019600388901b60f8161c191681555b5050505050600190811b01905550565b6104938061031b6000396000f3fe608060405234801561001057600080fd5b50600436106100935760003560e01c80634e69d560116100665780634e69d560146100f75780637debdde91461010c5780637e05f5a814610114578063893d20e81461011c578063c03366291461013757600080fd5b80630115949c146100985780630bf15326146100af57806311cdd1dd146100d55780632b3e7a68146100ef575b600080fd5b6002545b6040519081526020015b60405180910390f35b6100c56100bd366004610345565b600255600190565b60405190151581526020016100a6565b6100dd61014d565b6040516100a6969594939291906103ab565b60045461009c565b6100ff61022c565b6040516100a691906103f3565b6100ff6102b3565b60055461009c565b6000546040516001600160a01b0390911681526020016100a6565b6100c56006805460ff1916600190811790915590565b6000806000606060008060008054906101000a90046001600160a01b0316600160009054906101000a90046001600160a01b031660025460036004546005548280546101989061040d565b80601f01602080910402602001604051908101604052809291908181526020018280546101c49061040d565b80156102115780601f106101e657610100808354040283529160200191610211565b820191906000526020600020905b8154815290600101906020018083116101f457829003601f168201915b50505050509250955095509550955095509550909192939495565b60065460609060ff16600181111561024657610246610447565b60000361026f575060408051808201909152600781526650656e64696e6760c81b602082015290565b60065460ff16600181111561028657610286610447565b6001036102b0575060408051808201909152600881526714995a9958dd195960c21b602082015290565b90565b6060600380546102c29061040d565b80601f01602080910402602001604051908101604052809291908181526020018280546102ee9061040d565b801561033b5780601f106103105761010080835404028352916020019161033b565b820191906000526020600020905b81548152906001019060200180831161031e57829003601f168201915b5050505050905090565b60006020828403121561035757600080fd5b5035919050565b6000815180845260005b8181101561038457602081850181015186830182015201610368565b81811115610396576000602083870101525b50601f01601f19169290920160200192915050565b6001600160a01b038781168252861660208201526040810185905260c0606082018190526000906103de9083018661035e565b60808301949094525060a00152949350505050565b602081526000610406602083018461035e565b9392505050565b600181811c9082168061042157607f821691505b60208210810361044157634e487b7160e01b600052602260045260246000fd5b50919050565b634e487b7160e01b600052602160045260246000fdfea26469706673582212200e1a95c57374ef8446294d7d06f2b183ecd4edb41fd06a95f5889c05625a397864736f6c634300080f003360806040523480156200001157600080fd5b5060405162001553380380620015538339810160408190526200003491620001ef565b81516200004990600090602085019062000068565b5080516200005f90600190602084019062000068565b505050620002c1565b828054828255906000526020600020908101928215620000c0579160200282015b82811115620000c057825182546001600160a01b0319166001600160a01b0390911617825560209092019160019091019062000089565b50620000ce929150620000d2565b5090565b5b80821115620000ce5760008155600101620000d3565b634e487b7160e01b600052604160045260246000fd5b604051601f8201601f191681016001600160401b03811182821017156200012a576200012a620000e9565b604052919050565b60006001600160401b038211156200014e576200014e620000e9565b5060051b60200190565b6001600160a01b03811681146200016e57600080fd5b50565b600082601f8301126200018357600080fd5b815160206200019c620001968362000132565b620000ff565b82815260059290921b84018101918181019086841115620001bc57600080fd5b8286015b84811015620001e4578051620001d68162000158565b8352918301918301620001c0565b509695505050505050565b600080604083850312156200020357600080fd5b82516001600160401b03808211156200021b57600080fd5b818501915085601f8301126200023057600080fd5b8151602062000243620001968362000132565b82815260059290921b840181019181810190898411156200026357600080fd5b948201945b838610156200028e5785516200027e8162000158565b8252948201949082019062000268565b91880151919650909350505080821115620002a857600080fd5b50620002b78582860162000171565b9150509250929050565b61128280620002d16000396000f3fe60806040526004361061003f5760003560e01c806313af3b2114610044578063b7dec4e21461006f578063e9c4a3ac14610084578063ef501d381461009c575b600080fd5b34801561005057600080fd5b506100596100b1565b6040516100669190610d73565b60405180910390f35b34801561007b57600080fd5b50610059610113565b61008c610173565b6040519015158152602001610066565b3480156100a857600080fd5b50610059610782565b6060600080548060200260200160405190810160405280929190818152602001828054801561010957602002820191906000526020600020905b81546001600160a01b031681526001909101906020018083116100eb575b5050505050905090565b60606002805480602002602001604051908101604052809291908181526020018280548015610109576020028201919060005260206000209081546001600160a01b031681526001909101906020018083116100eb575050505050905090565b60005b60015415801590610188575060005415155b1561077c5761019760006107e2565b600380546001600160a01b0319166001600160a01b03929092169190911790556101c16000610924565b600480546001600160a01b0319166001600160a01b03928316178155600354604080516245652760e21b815290519190931692630115949c92818101926020929091908290030181865afa15801561021d573d6000803e3d6000fd5b505050506040513d601f19601f820116820180604052508101906102419190610dc0565b60048054604080516245652760e21b815290516001600160a01b0390921692630115949c9282820192602092908290030181865afa158015610287573d6000803e3d6000fd5b505050506040513d601f19601f820116820180604052508101906102ab9190610dc0565b1061060a5760048054600354604080516245652760e21b815290516001600160a01b0393841694630bf153269490931692630115949c928082019260209290918290030181865afa158015610304573d6000803e3d6000fd5b505050506040513d601f19601f820116820180604052508101906103289190610dc0565b60048054604080516245652760e21b815290516001600160a01b0390921692630115949c9282820192602092908290030181865afa15801561036e573d6000803e3d6000fd5b505050506040513d601f19601f820116820180604052508101906103929190610dc0565b61039c9190610def565b6040518263ffffffff1660e01b81526004016103ba91815260200190565b6020604051808303816000875af11580156103d9573d6000803e3d6000fd5b505050506040513d601f19601f820116820180604052508101906103fd9190610e06565b50600454610416906000906001600160a01b0316610a3b565b50600360009054906101000a90046001600160a01b03166001600160a01b031663893d20e86040518163ffffffff1660e01b8152600401602060405180830381865afa15801561046a573d6000803e3d6000fd5b505050506040513d601f19601f8201168201806040525081019061048e9190610e2f565b6004805460408051631127a41d60e31b815290516001600160a01b039092169263893d20e89282820192602092908290030181865afa1580156104d5573d6000803e3d6000fd5b505050506040513d601f19601f820116820180604052508101906104f99190610e2f565b60048054604080516245652760e21b815290516001600160a01b0390921692630115949c9282820192602092908290030181865afa15801561053f573d6000803e3d6000fd5b505050506040513d601f19601f820116820180604052508101906105639190610dc0565b60405161056f90610d66565b6001600160a01b0393841681529290911660208301526040820152606001604051809103906000f0801580156105a9573d6000803e3d6000fd5b50600580546001600160a01b03929092166001600160a01b03199283168117909155600280546001810182556000919091527f405787fa12a823e0f2b7631cc41b3ba8828b3321ca811111fa75cd3aa3bb5ace018054909216179055610176565b60035460048054604080516245652760e21b815290516001600160a01b0394851694630bf1532694931692630115949c928082019260209290918290030181865afa15801561065d573d6000803e3d6000fd5b505050506040513d601f19601f820116820180604052508101906106819190610dc0565b600360009054906101000a90046001600160a01b03166001600160a01b0316630115949c6040518163ffffffff1660e01b8152600401602060405180830381865afa1580156106d4573d6000803e3d6000fd5b505050506040513d601f19601f820116820180604052508101906106f89190610dc0565b6107029190610def565b6040518263ffffffff1660e01b815260040161072091815260200190565b6020604051808303816000875af115801561073f573d6000803e3d6000fd5b505050506040513d601f19601f820116820180604052508101906107639190610e06565b50600354610416906000906001600160a01b0316610bf4565b50600190565b60606001805480602002602001604051908101604052809291908181526020018280548015610109576020028201919060005260206000209081546001600160a01b031681526001909101906020018083116100eb575050505050905090565b6000805482106108255760405162461bcd60e51b81526020600482015260096024820152681b9bdd081d985b1a5960ba1b60448201526064015b60405180910390fd5b600080838154811061083957610839610e58565b6000918252602090912001546001600160a01b03169050825b60005461086190600190610def565b8110156108ea576000610875826001610e6e565b8154811061088557610885610e58565b600091825260208220015481546001600160a01b039091169190839081106108af576108af610e58565b600091825260209091200180546001600160a01b0319166001600160a01b0392909216919091179055806108e281610e86565b915050610852565b5060008054806108fc576108fc610e9f565b600082815260209020810160001990810180546001600160a01b031916905501905592915050565b600060015482106109635760405162461bcd60e51b81526020600482015260096024820152681b9bdd081d985b1a5960ba1b604482015260640161081c565b60006001838154811061097857610978610e58565b6000918252602090912001546001600160a01b03169050825b6001805461099f9190610def565b811015610a295760016109b28282610e6e565b815481106109c2576109c2610e58565b600091825260209091200154600180546001600160a01b0390921691839081106109ee576109ee610e58565b600091825260209091200180546001600160a01b0319166001600160a01b039290921691909117905580610a2181610e86565b915050610991565b5060018054806108fc576108fc610e9f565b60008060018481548110610a5157610a51610e58565b600091825260209091200154600180546001600160a01b039092169250849186908110610a8057610a80610e58565b600091825260209091200180546001600160a01b0319166001600160a01b0392909216919091179055600180548190610aba908290610def565b81548110610aca57610aca610e58565b600091825260208083209091015483546001818101865594845291832090910180546001600160a01b0319166001600160a01b0390921691909117905581549091610b1491610def565b90505b610b22856001610e6e565b8114610ba3576001610b348183610def565b81548110610b4457610b44610e58565b600091825260209091200154600180546001600160a01b039092169183908110610b7057610b70610e58565b9060005260206000200160006101000a8154816001600160a01b0302191690836001600160a01b03160217905550610b17565b816001610bb08782610e6e565b81548110610bc057610bc0610e58565b600091825260209091200180546001600160a01b0319166001600160a01b0392909216919091179055506001949350505050565b60008060008481548110610c0a57610c0a610e58565b600091825260208220015481546001600160a01b03909116925084919086908110610c3757610c37610e58565b6000918252602082200180546001600160a01b0319166001600160a01b03939093169290921790915580548190610c7090600190610def565b81548110610c8057610c80610e58565b600091825260208083209091015483546001818101865594845291832090910180546001600160a01b0319166001600160a01b0390921691909117905580549091610cca91610def565b90505b610cd8856001610e6e565b8114610d58576000610ceb600183610def565b81548110610cfb57610cfb610e58565b600091825260208220015481546001600160a01b03909116919083908110610d2557610d25610e58565b9060005260206000200160006101000a8154816001600160a01b0302191690836001600160a01b03160217905550610ccd565b816000610bb0876001610e6e565b61039780610eb683390190565b6020808252825182820181905260009190848201906040850190845b81811015610db45783516001600160a01b031683529284019291840191600101610d8f565b50909695505050505050565b600060208284031215610dd257600080fd5b5051919050565b634e487b7160e01b600052601160045260246000fd5b600082821015610e0157610e01610dd9565b500390565b600060208284031215610e1857600080fd5b81518015158114610e2857600080fd5b9392505050565b600060208284031215610e4157600080fd5b81516001600160a01b0381168114610e2857600080fd5b634e487b7160e01b600052603260045260246000fd5b60008219821115610e8157610e81610dd9565b500190565b600060018201610e9857610e98610dd9565b5060010190565b634e487b7160e01b600052603160045260246000fdfe608060405234801561001057600080fd5b5060405161039738038061039783398101604081905261002f91610083565b600080546001600160a01b039485166001600160a01b03199182161790915560018054939094169216919091179091556002556100bf565b80516001600160a01b038116811461007e57600080fd5b919050565b60008060006060848603121561009857600080fd5b6100a184610067565b92506100af60208501610067565b9150604084015190509250925092565b6102c9806100ce6000396000f3fe608060405234801561001057600080fd5b50600436106100415760003560e01c80634e69d5601461004657806369ba1a7514610064578063cb7b1c4414610087575b600080fd5b61004e6100b6565b60405161005b91906101ee565b60405180910390f35b610077610072366004610243565b610191565b604051901515815260200161005b565b600054600154600254604080516001600160a01b0394851681529390921660208401529082015260600161005b565b60035460609060ff1660028111156100d0576100d061025c565b6000036100f9575060408051808201909152600781526650656e64696e6760c81b602082015290565b60035460ff1660028111156101105761011061025c565b6001036101355760405180606001604052806021815260200161027360219139905090565b60035460ff16600281111561014c5761014c61025c565b60020361018e576040518060400160405280602081526020017f41637469766174696f6e206f726465722072656a656374656420627920465350815250905090565b90565b6000816000036101b557600380546000919060ff19166001835b02179055506101e6565b816001036101d057600380546001919060ff191682806101ab565b816002036101e6576003805460ff191660021790555b506001919050565b600060208083528351808285015260005b8181101561021b578581018301518582016040015282016101ff565b8181111561022d576000604083870101525b50601f01601f1916929092016040019392505050565b60006020828403121561025557600080fd5b5035919050565b634e487b7160e01b600052602160045260246000fdfe41637469766174696f6e206f7264657220636f6e6669726d656420627920465350a2646970667358221220373b6d4ceaf65c81413218847411a649327e2fe2d08a18efb5fc527ec525217c64736f6c634300080f0033a2646970667358221220476524c69d4a40094506f514e1cd14e5df0a7191b302f966110acbde86d95ec464736f6c634300080f003360806040526040516108033803806108038339810160408190526100229161016b565b600080546001600160a01b0319166001600160a01b038a16179055600161004988826102a4565b506002869055600380546001600160a01b0319166001600160a01b0387161790556004849055600561007b84826102a4565b5060069190915560075550610363945050505050565b6001600160a01b03811681146100a657600080fd5b50565b634e487b7160e01b600052604160045260246000fd5b600082601f8301126100d057600080fd5b81516001600160401b03808211156100ea576100ea6100a9565b604051601f8301601f19908116603f01168101908282118183101715610112576101126100a9565b8160405283815260209250868385880101111561012e57600080fd5b600091505b838210156101505785820183015181830184015290820190610133565b838211156101615760008385830101525b9695505050505050565b600080600080600080600080610100898b03121561018857600080fd5b885161019381610091565b60208a01519098506001600160401b03808211156101b057600080fd5b6101bc8c838d016100bf565b985060408b0151975060608b015191506101d582610091565b60808b015160a08c01519297509550808211156101f157600080fd5b506101fe8b828c016100bf565b60c08b015160e0909b0151999c989b509699959894979350505050565b600181811c9082168061022f57607f821691505b60208210810361024f57634e487b7160e01b600052602260045260246000fd5b50919050565b601f82111561029f57600081815260208120601f850160051c8101602086101561027c5750805b601f850160051c820191505b8181101561029b57828155600101610288565b5050505b505050565b81516001600160401b038111156102bd576102bd6100a9565b6102d1816102cb845461021b565b84610255565b602080601f83116001811461030657600084156102ee5750858301515b600019600386901b1c1916600185901b17855561029b565b600085815260208120601f198616915b8281101561033557888601518255948401946001909101908401610316565b50858210156103535787850151600019600388901b60f8161c191681555b5050505050600190811b01905550565b610491806103726000396000f3fe608060405234801561001057600080fd5b50600436106100885760003560e01c80637e05f5a81161005b5780637e05f5a8146100e7578063861d7799146100ef578063893d20e81461010b57806398d5fdca1461012657600080fd5b80630115949c1461008d5780630bf15326146100a45780632b3e7a68146100ca5780637debdde9146100d2575b600080fd5b6004545b6040519081526020015b60405180910390f35b6100ba6100b236600461033a565b600455600190565b604051901515815260200161009b565b600654610091565b6100da61012e565b60405161009b91906103a0565b600754610091565b6100f76101c0565b60405161009b9897969594939291906103ba565b6000546040516001600160a01b03909116815260200161009b565b600254610091565b60606005805461013d90610421565b80601f016020809104026020016040519081016040528092919081815260200182805461016990610421565b80156101b65780601f1061018b576101008083540402835291602001916101b6565b820191906000526020600020905b81548152906001019060200180831161019957829003601f168201915b5050505050905090565b600060606000806000606060008060008054906101000a90046001600160a01b03166001600254600360009054906101000a90046001600160a01b0316600454600560065460075486805461021490610421565b80601f016020809104026020016040519081016040528092919081815260200182805461024090610421565b801561028d5780601f106102625761010080835404028352916020019161028d565b820191906000526020600020905b81548152906001019060200180831161027057829003601f168201915b505050505096508280546102a090610421565b80601f01602080910402602001604051908101604052809291908181526020018280546102cc90610421565b80156103195780601f106102ee57610100808354040283529160200191610319565b820191906000526020600020905b8154815290600101906020018083116102fc57829003601f168201915b50505050509250975097509750975097509750975097509091929394959697565b60006020828403121561034c57600080fd5b5035919050565b6000815180845260005b818110156103795760208185018101518683018201520161035d565b8181111561038b576000602083870101525b50601f01601f19169290920160200192915050565b6020815260006103b36020830184610353565b9392505050565b6001600160a01b038981168252610100602083018190526000916103e08483018c610353565b915089604085015280891660608501525086608084015282810360a08401526104098187610353565b60c0840195909552505060e001529695505050505050565b600181811c9082168061043557607f821691505b60208210810361045557634e487b7160e01b600052602260045260246000fd5b5091905056fea26469706673582212205bee0819214516128631090dd97bfbe569af0b5180260474a0c7a5d21a49ca3a64736f6c634300080f0033a26469706673582212204edb197b2a74f3dbd072cd0e3c963438623b527b58ca378f138ac82dda300fc464736f6c634300080f0033",
  "immutableReferences": {},
  "source": "// SPDX-License-Identifier: MIT\npragma solidity ^0.8.0;\n\nimport \"./ActivationRequest.sol\";\nimport \"./Bid.sol\";\nimport \"./FlexibilityDP.sol\";\nimport \"./Product.sol\";\n\ncontract CFT {\n    ActivationRequest[] public aRs;\n    Bid[] public bids;\n    Bid[] public unsortedBids;\n    Bid[] MOL;\n    ActivationRequest[] ARL;\n    FlexibilityDP[] public DPs;\n    address payable owner;\n    address productID;\n    uint256 totalPower;\n    uint256 openingDate;\n    uint256 closingDate;\n    string localization;\n    uint256 sum;\n    ActivationRequest[] filtered_ARL;\n\n    constructor(\n        address payable _owner,\n        address _productID,\n        uint256 _totalPower,\n        uint256 _openingDate,\n        uint256 _closingDate,\n        string memory _localization\n    ) payable {\n        owner = _owner;\n        productID = _productID;\n        totalPower = _totalPower;\n        openingDate = _openingDate;\n        closingDate = _closingDate;\n        localization = _localization;\n    }\n\n    /*modifiers*/\n    modifier onlyOwner(address _owner) {\n        require(_owner == owner, \"not owner of CFT\");\n        _;\n    }\n\n    modifier validLocalization(string memory _localization) {\n        require(\n            (keccak256(abi.encodePacked(_localization))) ==\n                (keccak256(abi.encodePacked(localization))) ||\n                (keccak256(abi.encodePacked(_localization))) ==\n                (keccak256(abi.encodePacked(\"*\"))),\n            \"not valid localization\"\n        );\n        _;\n    }\n\n    modifier validDeliveryDate(uint256 _startOfDelivery) {\n        require(\n            _startOfDelivery > openingDate && _startOfDelivery < closingDate,\n            \"not valid date\"\n        );\n        _;\n    }\n\n    modifier validBid(address payable _owner) {\n        require(_owner != owner, \"owner can't bid\");\n        _;\n    }\n\n    modifier validQuantity(uint256 _quantity) {\n        require((_quantity + sumQte()) <= totalPower, \"not valid qte\");\n        _;\n    }\n\n    /*-------------------*/\n    function sumQte() internal returns(uint256){\n        sum = 0;\n        for(uint i = 0; i< aRs.length; i++){\n            sum += ActivationRequest(aRs[i]).getQuantity();  \n        }\n\n        return sum;\n    }\n\n    function createActivationRequest(\n        address payable _owner,\n        uint256 _quantity,\n        uint256 _startOfDelivery\n    ) external payable onlyOwner(_owner) validDeliveryDate(_startOfDelivery) validQuantity(_quantity){\n        ActivationRequest newActivationRequest = new ActivationRequest(\n            _owner,\n            productID,\n            _quantity,\n            localization,\n            _startOfDelivery,\n            block.timestamp\n        );\n        aRs.push(newActivationRequest);\n    }\n\n    function createBid(\n        address payable _owner,\n        string calldata _serviceProvider,\n        uint256 _price,\n        uint256 _quantity,\n        string calldata _localization,\n        uint256 _startOfDelivery\n    )\n        external\n        payable\n        validBid(_owner)\n        validLocalization(_localization)\n        validDeliveryDate(_startOfDelivery)\n    {\n        Bid newBid = new Bid(\n            _owner,\n            _serviceProvider,\n            _price,\n            productID,\n            _quantity,\n            _localization,\n            _startOfDelivery,\n            block.timestamp\n        );\n        bids.push(newBid);\n    }\n\n    function getAllARs() external view returns (ActivationRequest[] memory) {\n        return aRs;\n    }\n\n    function getAllBids() external view returns (Bid[] memory) {\n        return bids;\n    }\n\n    function getCFTDetails()\n        external\n        view\n        returns (\n            address payable,\n            address,\n            uint256,\n            uint256,\n            uint256,\n            string memory\n        )\n    {\n        return (\n            owner,\n            productID,\n            totalPower,\n            openingDate,\n            closingDate,\n            localization\n        );\n    }\n\n    function getProductName(address _productAddress) external view returns(string memory){\n        return Product(_productAddress).getProductName();\n    }\n\n    function getAllDPs() external view returns (FlexibilityDP[] memory) {\n        return DPs;\n    }\n\n    function setCurrentARL(uint256 _startDP, uint256 _endDP) external payable {\n        for (uint256 i = 0; i < aRs.length; i++) {\n            if ((ActivationRequest(aRs[i]).getStartOfDelivery() >= _startDP) && (ActivationRequest(aRs[i]).getStartOfDelivery() < _endDP)) {\n                ARL.push(aRs[i]);\n            }\n        }\n\n    }\n\n    function sortBids(Bid[] memory _bids) internal view returns (Bid[] memory) {\n        Bid temp;\n        for (uint256 k = 0; k < _bids.length - 1; k++) {\n            for (uint256 l = k + 1; l < _bids.length; l++) {\n                if (Bid(_bids[k]).getPrice() > Bid(_bids[l]).getPrice()) {\n                    temp = _bids[k];\n                    _bids[k] = _bids[l];\n                    _bids[l] = temp;\n                }\n            }\n        }\n\n        return _bids;\n    }\n\n    function setCurrentMOL(uint256 _startDP, uint256 _endDP) payable external {\n        for (uint256 i = 0; i < bids.length; i++) {\n            if ((Bid(bids[i]).getStartOfDelivery() >= _startDP) && (Bid(bids[i]).getStartOfDelivery()  < _endDP)) {\n                unsortedBids.push(bids[i]);\n            }\n        }\n        MOL = sortBids(unsortedBids);\n\n    }\n\n    function filter() external payable returns(bool){\n        uint256 quantity = 0;\n        for (uint i=0; i<ARL.length ; i++){\n            if (ActivationRequest(ARL[i]).getQuantity() > quantity){\n                filtered_ARL.push(ARL[i]);\n            }\n            else{\n                ActivationRequest(ARL[i]).setStatus();\n            }\n            quantity = ActivationRequest(ARL[i]).getQuantity();\n            \n        }\n\n        return true;\n\n    }\n\n    function getFiltered_ARL() external view returns(ActivationRequest[] memory){\n        return filtered_ARL;\n    }\n\n    function getARL() external view returns(ActivationRequest[] memory){\n\n        return ARL;\n    }\n\n    function getMOL() external view returns(Bid[] memory){\n\n        return MOL;\n    }\n\n    function createFlexibilityDP() payable external {\n\n        FlexibilityDP newFlexibilityDP = new FlexibilityDP( filtered_ARL, MOL);\n        DPs.push(newFlexibilityDP);\n\n    }\n\n    function getOpeningTime() external view returns(uint256){\n        return openingDate;\n    }\n\n    function getClosingTime() external view returns(uint256){\n        return closingDate;\n    }\n}\n",
  "sourcePath": "/home/linna/Desktop/Flexibility/Flexibility-backend/contracts/CFT.sol",
  "compiler": {
    "name": "solc",
    "version": "0.8.15+commit.e14f2714.Emscripten.clang"
  },
  "schemaVersion": "3.4.8",
  "updatedAt": "2022-08-02T13:29:00.866Z",
  "devdoc": {
    "kind": "dev",
    "methods": {},
    "version": 1
  },
  "userdoc": {
    "kind": "user",
    "methods": {},
    "version": 1
  }
}