{
  "contractName": "CFT",
  "abi": [
    {
      "inputs": [
        {
          "internalType": "address payable",
          "name": "_owner",
          "type": "address"
        },
        {
          "internalType": "address",
          "name": "_productID",
          "type": "address"
        },
        {
          "internalType": "uint256",
          "name": "_totalPower",
          "type": "uint256"
        },
        {
          "internalType": "uint256",
          "name": "_openingDate",
          "type": "uint256"
        },
        {
          "internalType": "uint256",
          "name": "_closingDate",
          "type": "uint256"
        },
        {
          "internalType": "string",
          "name": "_localization",
          "type": "string"
        }
      ],
      "stateMutability": "payable",
      "type": "constructor"
    },
    {
      "inputs": [
        {
          "internalType": "uint256",
          "name": "",
          "type": "uint256"
        }
      ],
      "name": "DPs",
      "outputs": [
        {
          "internalType": "contract FlexibilityDP",
          "name": "",
          "type": "address"
        }
      ],
      "stateMutability": "view",
      "type": "function"
    },
    {
      "inputs": [
        {
          "internalType": "uint256",
          "name": "",
          "type": "uint256"
        }
      ],
      "name": "aRs",
      "outputs": [
        {
          "internalType": "contract ActivationRequest",
          "name": "",
          "type": "address"
        }
      ],
      "stateMutability": "view",
      "type": "function"
    },
    {
      "inputs": [
        {
          "internalType": "uint256",
          "name": "",
          "type": "uint256"
        }
      ],
      "name": "bids",
      "outputs": [
        {
          "internalType": "contract Bid",
          "name": "",
          "type": "address"
        }
      ],
      "stateMutability": "view",
      "type": "function"
    },
    {
      "inputs": [
        {
          "internalType": "uint256",
          "name": "",
          "type": "uint256"
        }
      ],
      "name": "unsortedBids",
      "outputs": [
        {
          "internalType": "contract Bid",
          "name": "",
          "type": "address"
        }
      ],
      "stateMutability": "view",
      "type": "function"
    },
    {
      "inputs": [
        {
          "internalType": "address payable",
          "name": "_owner",
          "type": "address"
        },
        {
          "internalType": "uint256",
          "name": "_quantity",
          "type": "uint256"
        },
        {
          "internalType": "uint256",
          "name": "_startOfDelivery",
          "type": "uint256"
        }
      ],
      "name": "createActivationRequest",
      "outputs": [],
      "stateMutability": "payable",
      "type": "function"
    },
    {
      "inputs": [
        {
          "internalType": "address payable",
          "name": "_owner",
          "type": "address"
        },
        {
          "internalType": "string",
          "name": "_serviceProvider",
          "type": "string"
        },
        {
          "internalType": "uint256",
          "name": "_price",
          "type": "uint256"
        },
        {
          "internalType": "uint256",
          "name": "_quantity",
          "type": "uint256"
        },
        {
          "internalType": "string",
          "name": "_localization",
          "type": "string"
        },
        {
          "internalType": "uint256",
          "name": "_startOfDelivery",
          "type": "uint256"
        }
      ],
      "name": "createBid",
      "outputs": [],
      "stateMutability": "payable",
      "type": "function"
    },
    {
      "inputs": [],
      "name": "getAllARs",
      "outputs": [
        {
          "internalType": "contract ActivationRequest[]",
          "name": "",
          "type": "address[]"
        }
      ],
      "stateMutability": "view",
      "type": "function"
    },
    {
      "inputs": [],
      "name": "getAllBids",
      "outputs": [
        {
          "internalType": "contract Bid[]",
          "name": "",
          "type": "address[]"
        }
      ],
      "stateMutability": "view",
      "type": "function"
    },
    {
      "inputs": [],
      "name": "getCFTDetails",
      "outputs": [
        {
          "internalType": "address payable",
          "name": "",
          "type": "address"
        },
        {
          "internalType": "address",
          "name": "",
          "type": "address"
        },
        {
          "internalType": "uint256",
          "name": "",
          "type": "uint256"
        },
        {
          "internalType": "uint256",
          "name": "",
          "type": "uint256"
        },
        {
          "internalType": "uint256",
          "name": "",
          "type": "uint256"
        },
        {
          "internalType": "string",
          "name": "",
          "type": "string"
        }
      ],
      "stateMutability": "view",
      "type": "function"
    },
    {
      "inputs": [
        {
          "internalType": "address",
          "name": "_productAddress",
          "type": "address"
        }
      ],
      "name": "getProductName",
      "outputs": [
        {
          "internalType": "string",
          "name": "",
          "type": "string"
        }
      ],
      "stateMutability": "view",
      "type": "function"
    },
    {
      "inputs": [],
      "name": "getAllDPs",
      "outputs": [
        {
          "internalType": "contract FlexibilityDP[]",
          "name": "",
          "type": "address[]"
        }
      ],
      "stateMutability": "view",
      "type": "function"
    },
    {
      "inputs": [],
      "name": "getLatestDP",
      "outputs": [
        {
          "internalType": "contract FlexibilityDP",
          "name": "",
          "type": "address"
        }
      ],
      "stateMutability": "view",
      "type": "function"
    },
    {
      "inputs": [
        {
          "internalType": "uint256",
          "name": "_startDP",
          "type": "uint256"
        },
        {
          "internalType": "uint256",
          "name": "_endDP",
          "type": "uint256"
        }
      ],
      "name": "setCurrentARL",
      "outputs": [],
      "stateMutability": "payable",
      "type": "function"
    },
    {
      "inputs": [
        {
          "internalType": "uint256",
          "name": "_startDP",
          "type": "uint256"
        },
        {
          "internalType": "uint256",
          "name": "_endDP",
          "type": "uint256"
        }
      ],
      "name": "setCurrentMOL",
      "outputs": [],
      "stateMutability": "payable",
      "type": "function"
    },
    {
      "inputs": [],
      "name": "filter",
      "outputs": [
        {
          "internalType": "bool",
          "name": "",
          "type": "bool"
        }
      ],
      "stateMutability": "payable",
      "type": "function"
    },
    {
      "inputs": [],
      "name": "getFiltered_ARL",
      "outputs": [
        {
          "internalType": "contract ActivationRequest[]",
          "name": "",
          "type": "address[]"
        }
      ],
      "stateMutability": "view",
      "type": "function"
    },
    {
      "inputs": [],
      "name": "getARL",
      "outputs": [
        {
          "internalType": "contract ActivationRequest[]",
          "name": "",
          "type": "address[]"
        }
      ],
      "stateMutability": "view",
      "type": "function"
    },
    {
      "inputs": [],
      "name": "getMOL",
      "outputs": [
        {
          "internalType": "contract Bid[]",
          "name": "",
          "type": "address[]"
        }
      ],
      "stateMutability": "view",
      "type": "function"
    },
    {
      "inputs": [],
      "name": "createFlexibilityDP",
      "outputs": [],
      "stateMutability": "payable",
      "type": "function"
    }
  ],
  "bytecode": "0x608060405260405162004711380380620047118339810160408190526200002691620000af565b600680546001600160a01b038089166001600160a01b031992831617909255600780549288169290911691909117905560088490556009839055600a829055600b6200007382826200025b565b5050505050505062000327565b6001600160a01b03811681146200009657600080fd5b50565b634e487b7160e01b600052604160045260246000fd5b60008060008060008060c08789031215620000c957600080fd5b8651620000d68162000080565b80965050602080880151620000eb8162000080565b604089015160608a015160808b015160a08c0151939950919750955093506001600160401b03808211156200011f57600080fd5b818a0191508a601f8301126200013457600080fd5b81518181111562000149576200014962000099565b604051601f8201601f19908116603f0116810190838211818310171562000174576200017462000099565b816040528281528d868487010111156200018d57600080fd5b600093505b82841015620001b1578484018601518185018701529285019262000192565b60008684830101528096505050505050509295509295509295565b600181811c90821680620001e157607f821691505b6020821081036200020257634e487b7160e01b600052602260045260246000fd5b50919050565b601f8211156200025657600081815260208120601f850160051c81016020861015620002315750805b601f850160051c820191505b8181101562000252578281556001016200023d565b5050505b505050565b81516001600160401b0381111562000277576200027762000099565b6200028f81620002888454620001cc565b8462000208565b602080601f831160018114620002c75760008415620002ae5750858301515b600019600386901b1c1916600185901b17855562000252565b600085815260208120601f198616915b82811015620002f857888601518255948401946001909101908401620002d7565b5085821015620003175787850151600019600388901b60f8161c191681555b5050505050600190811b01905550565b6143da80620003376000396000f3fe6080604052600436106200012a5760003560e01c80636bd450f511620000ad578063bb227902116200006c578063bb22790214620002f4578063c9956002146200030b578063cb831d6a1462000337578063df8e5ae0146200034f578063ef501d38146200036757600080fd5b80636bd450f5146200025457806383793e2014620002885780638d0f6da314620002ad5780638f29743114620002c5578063ba95478d14620002dc57600080fd5b8063401245bf11620000fa578063401245bf14620001cd5780634423c5f114620001d757806356d9e23e14620001fc5780635fadcc1e1462000221578063623a81b8146200023c57600080fd5b8062a48103146200012f57806313af3b211462000148578063323d822f14620001785780633d76021114620001b6575b600080fd5b620001466200014036600462001842565b6200037f565b005b3480156200015557600080fd5b506200016062000542565b6040516200016f91906200187a565b60405180910390f35b3480156200018557600080fd5b506200019d62000197366004620018c9565b620005a6565b6040516001600160a01b0390911681526020016200016f565b62000146620001c7366004620018e3565b620005d1565b6200014662000879565b348015620001e457600080fd5b506200019d620001f6366004620018c9565b62000997565b3480156200020957600080fd5b506200019d6200021b366004620018c9565b620009a8565b6200022b620009b9565b60405190151581526020016200016f565b3480156200024957600080fd5b506200016062000c1e565b3480156200026157600080fd5b50620002796200027336600462001906565b62000c80565b6040516200016f919062001981565b3480156200029557600080fd5b506200019d620002a7366004620018c9565b62000cf1565b348015620002ba57600080fd5b506200016062000d02565b62000146620002d6366004620018e3565b62000d64565b348015620002e957600080fd5b506200016062000f67565b6200014662000305366004620019e2565b62000fc9565b3480156200031857600080fd5b50620003236200129c565b6040516200016f9695949392919062001a88565b3480156200034457600080fd5b506200016062001385565b3480156200035c57600080fd5b506200019d620013e7565b3480156200037457600080fd5b50620001606200142a565b60065483906001600160a01b03808316911614620003d75760405162461bcd60e51b815260206004820152601060248201526f1b9bdd081bdddb995c881bd98810d19560821b60448201526064015b60405180910390fd5b8160095481118015620003eb5750600a5481105b6200042a5760405162461bcd60e51b815260206004820152600e60248201526d6e6f742076616c6964206461746560901b6044820152606401620003ce565b83600854620004386200148c565b62000444908362001ae9565b11158015620004535750600081115b620004915760405162461bcd60e51b815260206004820152600d60248201526c6e6f742076616c69642071746560981b6044820152606401620003ce565b600086600760009054906101000a90046001600160a01b031687600b8842604051620004bd906200177e565b620004ce9695949392919062001b3b565b604051809103906000f080158015620004eb573d6000803e3d6000fd5b50600080546001810182559080527f290decd9548b62a8d60345a988386fc84ba6bc95484008f6362f93160ef3e5630180546001600160a01b0319166001600160a01b039290921691909117905550505050505050565b606060048054806020026020016040519081016040528092919081815260200182805480156200059c57602002820191906000526020600020905b81546001600160a01b031681526001909101906020018083116200057d575b5050505050905090565b60008181548110620005b757600080fd5b6000918252602090912001546001600160a01b0316905081565b8181808210620006135760405162461bcd60e51b815260206004820152600c60248201526b06e6f742076616c69642064760a41b6044820152606401620003ce565b604080516000815260208101918290525162000632916002916200178c565b50604080516000815260208101918290525162000652916003916200178c565b5060005b600154811015620007f457846001828154811062000678576200067862001c19565b6000918252602091829020015460408051630567cf4d60e31b815290516001600160a01b0390921692632b3e7a68926004808401938290030181865afa158015620006c7573d6000803e3d6000fd5b505050506040513d601f19601f82011682018060405250810190620006ed919062001c2f565b1015801562000785575083600182815481106200070e576200070e62001c19565b6000918252602091829020015460408051630567cf4d60e31b815290516001600160a01b0390921692632b3e7a68926004808401938290030181865afa1580156200075d573d6000803e3d6000fd5b505050506040513d601f19601f8201168201806040525081019062000783919062001c2f565b105b15620007df57600260018281548110620007a357620007a362001c19565b60009182526020808320909101548354600181018555938352912090910180546001600160a01b0319166001600160a01b039092169190911790555b80620007eb8162001c49565b91505062000656565b506200085c60028054806020026020016040519081016040528092919081815260200182805480156200085157602002820191906000526020600020905b81546001600160a01b0316815260019091019060200180831162000832575b505050505062001560565b805162000872916003916020909101906200178c565b5050505050565b600d54600003620008bf5760405162461bcd60e51b815260206004820152600f60248201526e1d1a195c99481a5cc81b9bc8105493608a1b6044820152606401620003ce565b600354600003620009055760405162461bcd60e51b815260206004820152600f60248201526e1d1a195c99481a5cc81b9bc81353d3608a1b6044820152606401620003ce565b6000600d60036040516200091990620017f6565b6200092692919062001c65565b604051809103906000f08015801562000943573d6000803e3d6000fd5b50600580546001810182556000919091527f036b6384b5eca791c62761152d0c79bb0604c104a5fb6f4eb0703f3154bb3db00180546001600160a01b0319166001600160a01b039290921691909117905550565b60018181548110620005b757600080fd5b60058181548110620005b757600080fd5b604080516000808252602082019283905290519091620009dd91600d91906200178c565b506000805b60045481101562000c1557816004828154811062000a045762000a0462001c19565b60009182526020918290200154604080516245652760e21b815290516001600160a01b0390921692630115949c926004808401938290030181865afa15801562000a52573d6000803e3d6000fd5b505050506040513d601f19601f8201168201806040525081019062000a78919062001c2f565b111562000ad857600d6004828154811062000a975762000a9762001c19565b60009182526020808320909101548354600181018555938352912090910180546001600160a01b0319166001600160a01b0390921691909117905562000b74565b6004818154811062000aee5762000aee62001c19565b9060005260206000200160009054906101000a90046001600160a01b03166001600160a01b031663c03366296040518163ffffffff1660e01b81526004016020604051808303816000875af115801562000b4c573d6000803e3d6000fd5b505050506040513d601f19601f8201168201806040525081019062000b72919062001d09565b505b6004818154811062000b8a5762000b8a62001c19565b60009182526020918290200154604080516245652760e21b815290516001600160a01b0390921692630115949c926004808401938290030181865afa15801562000bd8573d6000803e3d6000fd5b505050506040513d601f19601f8201168201806040525081019062000bfe919062001c2f565b91508062000c0c8162001c49565b915050620009e2565b50600191505090565b606060058054806020026020016040519081016040528092919081815260200182805480156200059c576020028201919060005260206000209081546001600160a01b031681526001909101906020018083116200057d575050505050905090565b6060816001600160a01b031663dfaf02216040518163ffffffff1660e01b8152600401600060405180830381865afa15801562000cc1573d6000803e3d6000fd5b505050506040513d6000823e601f3d908101601f1916820160405262000ceb919081019062001d2d565b92915050565b60028181548110620005b757600080fd5b606060018054806020026020016040519081016040528092919081815260200182805480156200059c576020028201919060005260206000209081546001600160a01b031681526001909101906020018083116200057d575050505050905090565b818180821062000da65760405162461bcd60e51b815260206004820152600c60248201526b06e6f742076616c69642064760a41b6044820152606401620003ce565b604080516000815260208101918290525162000dc5916004916200178c565b5060005b6000548110156200087257846000828154811062000deb5762000deb62001c19565b6000918252602091829020015460408051630567cf4d60e31b815290516001600160a01b0390921692632b3e7a68926004808401938290030181865afa15801562000e3a573d6000803e3d6000fd5b505050506040513d601f19601f8201168201806040525081019062000e60919062001c2f565b1015801562000ef85750836000828154811062000e815762000e8162001c19565b6000918252602091829020015460408051630567cf4d60e31b815290516001600160a01b0390921692632b3e7a68926004808401938290030181865afa15801562000ed0573d6000803e3d6000fd5b505050506040513d601f19601f8201168201806040525081019062000ef6919062001c2f565b105b1562000f525760046000828154811062000f165762000f1662001c19565b60009182526020808320909101548354600181018555938352912090910180546001600160a01b0319166001600160a01b039092169190911790555b8062000f5e8162001c49565b91505062000dc9565b6060600d8054806020026020016040519081016040528092919081815260200182805480156200059c576020028201919060005260206000209081546001600160a01b031681526001909101906020018083116200057d575050505050905090565b60065488906001600160a01b03908116908216036200101d5760405162461bcd60e51b815260206004820152600f60248201526e1bdddb995c8818d85b89dd08189a59608a1b6044820152606401620003ce565b83838080601f01602080910402602001604051908101604052809392919081815260200183838082843760009201919091525050604051620010679250600b915060200162001de6565b604051602081830303815290604052805190602001208160405160200162001090919062001e64565b604051602081830303815290604052805190602001201480620010ff5750604051601560f91b60208201526021016040516020818303038152906040528051906020012081604051602001620010e7919062001e64565b60405160208183030381529060405280519060200120145b620011465760405162461bcd60e51b81526020600482015260166024820152753737ba103b30b634b2103637b1b0b634bd30ba34b7b760511b6044820152606401620003ce565b82600954811180156200115a5750600a5481105b620011995760405162461bcd60e51b815260206004820152600e60248201526d6e6f742076616c6964206461746560901b6044820152606401620003ce565b8660008111620011dc5760405162461bcd60e51b815260206004820152600d60248201526c6e6f742076616c69642071746560981b6044820152606401620003ce565b60008c8c8c8c600760009054906101000a90046001600160a01b03168d8d8d8d426040516200120b9062001804565b620012209a9998979695949392919062001eab565b604051809103906000f0801580156200123d573d6000803e3d6000fd5b506001805480820182556000919091527fb10e2d527612073b26eecdfd717e6a320cf44b4afac2b0732d9fcbe2b7fa0cf60180546001600160a01b0319166001600160a01b039290921691909117905550505050505050505050505050565b60008060008060006060600660009054906101000a90046001600160a01b0316600760009054906101000a90046001600160a01b0316600854600954600a54600b808054620012eb9062001aff565b80601f0160208091040260200160405190810160405280929190818152602001828054620013199062001aff565b80156200136a5780601f106200133e576101008083540402835291602001916200136a565b820191906000526020600020905b8154815290600101906020018083116200134c57829003601f168201915b50505050509050955095509550955095509550909192939495565b606060008054806020026020016040519081016040528092919081815260200182805480156200059c576020028201919060005260206000209081546001600160a01b031681526001909101906020018083116200057d575050505050905090565b6005805460009190620013fd9060019062001f1a565b8154811062001410576200141062001c19565b6000918252602090912001546001600160a01b0316919050565b606060038054806020026020016040519081016040528092919081815260200182805480156200059c576020028201919060005260206000209081546001600160a01b031681526001909101906020018083116200057d575050505050905090565b6000600c819055805b600054811015620015585760008181548110620014b657620014b662001c19565b60009182526020918290200154604080516245652760e21b815290516001600160a01b0390921692630115949c926004808401938290030181865afa15801562001504573d6000803e3d6000fd5b505050506040513d601f19601f820116820180604052508101906200152a919062001c2f565b600c60008282546200153d919062001ae9565b909155508190506200154f8162001c49565b91505062001495565b5050600c5490565b60606000805b6001845162001576919062001f1a565b811015620017765760006200158d82600162001ae9565b90505b84518110156200176057848181518110620015af57620015af62001c19565b60200260200101516001600160a01b03166398d5fdca6040518163ffffffff1660e01b8152600401602060405180830381865afa158015620015f5573d6000803e3d6000fd5b505050506040513d601f19601f820116820180604052508101906200161b919062001c2f565b85838151811062001630576200163062001c19565b60200260200101516001600160a01b03166398d5fdca6040518163ffffffff1660e01b8152600401602060405180830381865afa15801562001676573d6000803e3d6000fd5b505050506040513d601f19601f820116820180604052508101906200169c919062001c2f565b11156200174b57848281518110620016b857620016b862001c19565b60200260200101519250848181518110620016d757620016d762001c19565b6020026020010151858381518110620016f457620016f462001c19565b60200260200101906001600160a01b031690816001600160a01b031681525050828582815181106200172a576200172a62001c19565b60200260200101906001600160a01b031690816001600160a01b0316815250505b80620017578162001c49565b91505062001590565b50806200176d8162001c49565b91505062001566565b509192915050565b6107348062001f3183390190565b828054828255906000526020600020908101928215620017e4579160200282015b82811115620017e457825182546001600160a01b0319166001600160a01b03909116178255602090920191600190910190620017ad565b50620017f292915062001812565b5090565b61154b806200266583390190565b6107f58062003bb083390190565b5b80821115620017f2576000815560010162001813565b6001600160a01b03811681146200183f57600080fd5b50565b6000806000606084860312156200185857600080fd5b8335620018658162001829565b95602085013595506040909401359392505050565b6020808252825182820181905260009190848201906040850190845b81811015620018bd5783516001600160a01b03168352928401929184019160010162001896565b50909695505050505050565b600060208284031215620018dc57600080fd5b5035919050565b60008060408385031215620018f757600080fd5b50508035926020909101359150565b6000602082840312156200191957600080fd5b8135620019268162001829565b9392505050565b60005b838110156200194a57818101518382015260200162001930565b50506000910152565b600081518084526200196d8160208601602086016200192d565b601f01601f19169290920160200192915050565b60208152600062001926602083018462001953565b60008083601f840112620019a957600080fd5b50813567ffffffffffffffff811115620019c257600080fd5b602083019150836020828501011115620019db57600080fd5b9250929050565b60008060008060008060008060c0898b031215620019ff57600080fd5b883562001a0c8162001829565b9750602089013567ffffffffffffffff8082111562001a2a57600080fd5b62001a388c838d0162001996565b909950975060408b0135965060608b0135955060808b013591508082111562001a6057600080fd5b5062001a6f8b828c0162001996565b999c989b50969995989497949560a00135949350505050565b600060018060a01b03808916835280881660208401525085604083015284606083015283608083015260c060a083015262001ac760c083018462001953565b98975050505050505050565b634e487b7160e01b600052601160045260246000fd5b8082018082111562000ceb5762000ceb62001ad3565b600181811c9082168062001b1457607f821691505b60208210810362001b3557634e487b7160e01b600052602260045260246000fd5b50919050565b6001600160a01b03878116825286166020808301919091526040820186905260c060608301528454600091829162001b738162001aff565b8060c087015260e060018084166000811462001b98576001811462001bb35762001be3565b60ff1985168984015283151560051b89018301965062001be3565b8b6000528560002060005b8581101562001bdb5781548b820186015290830190870162001bbe565b8a0184019750505b5050505050608084019590955260a0909201929092529695505050505050565b634e487b7160e01b600052604160045260246000fd5b634e487b7160e01b600052603260045260246000fd5b60006020828403121562001c4257600080fd5b5051919050565b60006001820162001c5e5762001c5e62001ad3565b5060010190565b600060408201604083528085548083526060850191506000925086835260208320835b8281101562001cb15781546001600160a01b031684526020840193506001918201910162001c88565b50505083810360208501528085548083526020830191508684526020842092505b8084101562001cfe5782546001600160a01b031682526001938401939092019160209091019062001cd2565b509695505050505050565b60006020828403121562001d1c57600080fd5b815180151581146200192657600080fd5b60006020828403121562001d4057600080fd5b815167ffffffffffffffff8082111562001d5957600080fd5b818401915084601f83011262001d6e57600080fd5b81518181111562001d835762001d8362001c03565b604051601f8201601f19908116603f0116810190838211818310171562001dae5762001dae62001c03565b8160405282815287602084870101111562001dc857600080fd5b62001ddb8360208301602088016200192d565b979650505050505050565b600080835462001df68162001aff565b6001828116801562001e11576001811462001e275762001e58565b60ff198416875282151583028701945062001e58565b8760005260208060002060005b8581101562001e4f5781548a82015290840190820162001e34565b50505082870194505b50929695505050505050565b6000825162001e788184602087016200192d565b9190910192915050565b81835281816020850137506000828201602090810191909152601f909101601f19169091010190565b6001600160a01b038b811682526101006020830181905260009162001ed48483018d8f62001e82565b91508a6040850152808a1660608501525087608084015282810360a084015262001f0081878962001e82565b60c0840195909552505060e0015298975050505050505050565b8181038181111562000ceb5762000ceb62001ad356fe6080604052604051610734380380610734833981016040819052610022916100af565b600080546001600160a01b038089166001600160a01b0319928316179092556001805492881692909116919091179055600284905560036100638482610244565b5060049190915560055550506006805460ff19169055506103039050565b6001600160a01b038116811461009657600080fd5b50565b634e487b7160e01b600052604160045260246000fd5b60008060008060008060c087890312156100c857600080fd5b86516100d381610081565b809650506020808801516100e681610081565b604089015160608a015191975095506001600160401b038082111561010a57600080fd5b818a0191508a601f83011261011e57600080fd5b81518181111561013057610130610099565b604051601f8201601f19908116603f0116810190838211818310171561015857610158610099565b816040528281528d8684870101111561017057600080fd5b600093505b828410156101925784840186015181850187015292850192610175565b60008684830101528098505050505050506080870151915060a087015190509295509295509295565b600181811c908216806101cf57607f821691505b6020821081036101ef57634e487b7160e01b600052602260045260246000fd5b50919050565b601f82111561023f57600081815260208120601f850160051c8101602086101561021c5750805b601f850160051c820191505b8181101561023b57828155600101610228565b5050505b505050565b81516001600160401b0381111561025d5761025d610099565b6102718161026b84546101bb565b846101f5565b602080601f8311600181146102a6576000841561028e5750858301515b600019600386901b1c1916600185901b17855561023b565b600085815260208120601f198616915b828110156102d5578886015182559484019460019091019084016102b6565b50858210156102f35787850151600019600388901b60f8161c191681555b5050505050600190811b01905550565b610422806103126000396000f3fe608060405234801561001057600080fd5b50600436106100935760003560e01c80634e69d560116100665780634e69d560146100f75780637debdde91461010a5780637e05f5a81461011f578063893d20e814610127578063c03366291461014257600080fd5b80630115949c146100985780630bf15326146100af57806311cdd1dd146100d55780632b3e7a68146100ef575b600080fd5b6002545b6040519081526020015b60405180910390f35b6100c56100bd3660046102c9565b600255600190565b60405190151581526020016100a6565b6100dd610158565b6040516100a696959493929190610328565b60045461009c565b60065460ff166040516100a69190610370565b610112610237565b6040516100a69190610398565b60055461009c565b6000546040516001600160a01b0390911681526020016100a6565b6100c56006805460ff1916600190811790915590565b6000806000606060008060008054906101000a90046001600160a01b0316600160009054906101000a90046001600160a01b031660025460036004546005548280546101a3906103b2565b80601f01602080910402602001604051908101604052809291908181526020018280546101cf906103b2565b801561021c5780601f106101f15761010080835404028352916020019161021c565b820191906000526020600020905b8154815290600101906020018083116101ff57829003601f168201915b50505050509250955095509550955095509550909192939495565b606060038054610246906103b2565b80601f0160208091040260200160405190810160405280929190818152602001828054610272906103b2565b80156102bf5780601f10610294576101008083540402835291602001916102bf565b820191906000526020600020905b8154815290600101906020018083116102a257829003601f168201915b5050505050905090565b6000602082840312156102db57600080fd5b5035919050565b6000815180845260005b81811015610308576020818501810151868301820152016102ec565b506000602082860101526020601f19601f83011685010191505092915050565b6001600160a01b038781168252861660208201526040810185905260c06060820181905260009061035b908301866102e2565b60808301949094525060a00152949350505050565b602081016002831061039257634e487b7160e01b600052602160045260246000fd5b91905290565b6020815260006103ab60208301846102e2565b9392505050565b600181811c908216806103c657607f821691505b6020821081036103e657634e487b7160e01b600052602260045260246000fd5b5091905056fea2646970667358221220825e443fd6f8d916a143994f036e54938966556fba734f01bcca2ca10a1917d864736f6c6343000810003360806040523480156200001157600080fd5b506040516200154b3803806200154b8339810160408190526200003491620001ef565b81516200004990600090602085019062000068565b5080516200005f90600190602084019062000068565b505050620002c1565b828054828255906000526020600020908101928215620000c0579160200282015b82811115620000c057825182546001600160a01b0319166001600160a01b0390911617825560209092019160019091019062000089565b50620000ce929150620000d2565b5090565b5b80821115620000ce5760008155600101620000d3565b634e487b7160e01b600052604160045260246000fd5b604051601f8201601f191681016001600160401b03811182821017156200012a576200012a620000e9565b604052919050565b60006001600160401b038211156200014e576200014e620000e9565b5060051b60200190565b6001600160a01b03811681146200016e57600080fd5b50565b600082601f8301126200018357600080fd5b815160206200019c620001968362000132565b620000ff565b82815260059290921b84018101918181019086841115620001bc57600080fd5b8286015b84811015620001e4578051620001d68162000158565b8352918301918301620001c0565b509695505050505050565b600080604083850312156200020357600080fd5b82516001600160401b03808211156200021b57600080fd5b818501915085601f8301126200023057600080fd5b8151602062000243620001968362000132565b82815260059290921b840181019181810190898411156200026357600080fd5b948201945b838610156200028e5785516200027e8162000158565b8252948201949082019062000268565b91880151919650909350505080821115620002a857600080fd5b50620002b78582860162000171565b9150509250929050565b61127a80620002d16000396000f3fe60806040526004361061004a5760003560e01c80630a3f36aa1461004f57806313af3b21146100a5578063b7dec4e2146100c7578063e9c4a3ac146100e9578063ef501d3814610101575b600080fd5b34801561005b57600080fd5b5060025460035460045461007a926001600160a01b0390811692169083565b604080516001600160a01b039485168152939092166020840152908201526060015b60405180910390f35b3480156100b157600080fd5b506100ba610116565b60405161009c91906110a6565b3480156100d357600080fd5b506100dc610178565b60405161009c91906110f3565b6100f16101ff565b604051901515815260200161009c565b34801561010d57600080fd5b506100ba6109f0565b6060600080548060200260200160405190810160405280929190818152602001828054801561016e57602002820191906000526020600020905b81546001600160a01b03168152600190910190602001808311610150575b5050505050905090565b60606005805480602002602001604051908101604052809291908181526020016000905b828210156101f6576000848152602090819020604080516060810182526003860290920180546001600160a01b0390811684526001808301549091168486015260029091015491830191909152908352909201910161019c565b50505050905090565b60005b60015415801590610214575060005415155b156109ea5760006102256000610a50565b905060006102336000610b98565b90506000826001600160a01b0316630115949c6040518163ffffffff1660e01b8152600401602060405180830381865afa158015610275573d6000803e3d6000fd5b505050506040513d601f19601f820116820180604052508101906102999190611158565b826001600160a01b0316630115949c6040518163ffffffff1660e01b8152600401602060405180830381865afa1580156102d7573d6000803e3d6000fd5b505050506040513d601f19601f820116820180604052508101906102fb9190611158565b11156104b457816001600160a01b0316630bf153266103dd856001600160a01b0316630115949c6040518163ffffffff1660e01b8152600401602060405180830381865afa158015610351573d6000803e3d6000fd5b505050506040513d601f19601f820116820180604052508101906103759190611158565b856001600160a01b0316630115949c6040518163ffffffff1660e01b8152600401602060405180830381865afa1580156103b3573d6000803e3d6000fd5b505050506040513d601f19601f820116820180604052508101906103d79190611158565b90610cb1565b6040518263ffffffff1660e01b81526004016103fb91815260200190565b6020604051808303816000875af115801561041a573d6000803e3d6000fd5b505050506040513d601f19601f8201168201806040525081019061043e9190611171565b5061044a600083610cc6565b50826001600160a01b0316630115949c6040518163ffffffff1660e01b8152600401602060405180830381865afa158015610489573d6000803e3d6000fd5b505050506040513d601f19601f820116820180604052508101906104ad9190611158565b9050610846565b826001600160a01b0316630115949c6040518163ffffffff1660e01b8152600401602060405180830381865afa1580156104f2573d6000803e3d6000fd5b505050506040513d601f19601f820116820180604052508101906105169190611158565b826001600160a01b0316630115949c6040518163ffffffff1660e01b8152600401602060405180830381865afa158015610554573d6000803e3d6000fd5b505050506040513d601f19601f820116820180604052508101906105789190611158565b101561077457826001600160a01b0316630bf15326610630846001600160a01b0316630115949c6040518163ffffffff1660e01b8152600401602060405180830381865afa1580156105ce573d6000803e3d6000fd5b505050506040513d601f19601f820116820180604052508101906105f29190611158565b866001600160a01b0316630115949c6040518163ffffffff1660e01b8152600401602060405180830381865afa1580156103b3573d6000803e3d6000fd5b6040518263ffffffff1660e01b815260040161064e91815260200190565b6020604051808303816000875af115801561066d573d6000803e3d6000fd5b505050506040513d601f19601f820116820180604052508101906106919190611171565b5061069d600084610ed7565b50816001600160a01b0316630115949c6040518163ffffffff1660e01b8152600401602060405180830381865afa1580156106dc573d6000803e3d6000fd5b505050506040513d601f19601f820116820180604052508101906107009190611158565b6040516305f8a99360e11b8152600060048201529091506001600160a01b03831690630bf15326906024016020604051808303816000875af115801561074a573d6000803e3d6000fd5b505050506040513d601f19601f8201168201806040525081019061076e9190611171565b50610846565b816001600160a01b0316630115949c6040518163ffffffff1660e01b8152600401602060405180830381865afa1580156107b2573d6000803e3d6000fd5b505050506040513d601f19601f820116820180604052508101906107d69190611158565b6040516305f8a99360e11b8152600060048201529091506001600160a01b03831690630bf15326906024016020604051808303816000875af1158015610820573d6000803e3d6000fd5b505050506040513d601f19601f820116820180604052508101906108449190611171565b505b6109e1826001600160a01b031663893d20e86040518163ffffffff1660e01b8152600401602060405180830381865afa158015610887573d6000803e3d6000fd5b505050506040513d601f19601f820116820180604052508101906108ab919061119a565b846001600160a01b031663893d20e86040518163ffffffff1660e01b8152600401602060405180830381865afa1580156108e9573d6000803e3d6000fd5b505050506040513d601f19601f8201168201806040525081019061090d919061119a565b600280546001600160a01b039384166001600160a01b03199182168117909255600380549385169382169390931783556004868155600580546001818101835560009290925285027f036b6384b5eca791c62761152d0c79bb0604c104a5fb6f4eb0703f3154bb3db081018054851690951790945593547f036b6384b5eca791c62761152d0c79bb0604c104a5fb6f4eb0703f3154bb3db184018054909316951694909417905591547f036b6384b5eca791c62761152d0c79bb0604c104a5fb6f4eb0703f3154bb3db29092019190915590565b50505050610202565b50600190565b6060600180548060200260200160405190810160405280929190818152602001828054801561016e576020028201919060005260206000209081546001600160a01b03168152600190910190602001808311610150575050505050905090565b60006001548210610a985760405162461bcd60e51b815260206004820152600d60248201526c1b9bdd081d985b1a59081353d3609a1b60448201526064015b60405180910390fd5b600060018381548110610aad57610aad6111c3565b6000918252602090912001546001600160a01b03169050825b60018054610ad491906111ef565b811015610b5e576001610ae78282611202565b81548110610af757610af76111c3565b600091825260209091200154600180546001600160a01b039092169183908110610b2357610b236111c3565b600091825260209091200180546001600160a01b0319166001600160a01b039290921691909117905580610b5681611215565b915050610ac6565b506001805480610b7057610b7061122e565b600082815260209020810160001990810180546001600160a01b031916905501905592915050565b600080548210610bda5760405162461bcd60e51b815260206004820152600d60248201526c1b9bdd081d985b1a5908105493609a1b6044820152606401610a8f565b6000808381548110610bee57610bee6111c3565b6000918252602090912001546001600160a01b03169050825b600054610c16906001906111ef565b811015610c9f576000610c2a826001611202565b81548110610c3a57610c3a6111c3565b600091825260208220015481546001600160a01b03909116919083908110610c6457610c646111c3565b600091825260209091200180546001600160a01b0319166001600160a01b039290921691909117905580610c9781611215565b915050610c07565b506000805480610b7057610b7061122e565b6000610cbd82846111ef565b90505b92915050565b600080548103610d1d57600080546001810182559080527f290decd9548b62a8d60345a988386fc84ba6bc95484008f6362f93160ef3e5630180546001600160a01b0319166001600160a01b038416179055610ece565b6000808481548110610d3157610d316111c3565b600091825260208220015481546001600160a01b03909116925084919086908110610d5e57610d5e6111c3565b6000918252602082200180546001600160a01b0319166001600160a01b03939093169290921790915580548190610d97906001906111ef565b81548110610da757610da76111c3565b600091825260208083209091015483546001818101865594845291832090910180546001600160a01b0319166001600160a01b0390921691909117905580549091610df1916111ef565b90505b610dff856001611202565b8114610e7f576000610e126001836111ef565b81548110610e2257610e226111c3565b600091825260208220015481546001600160a01b03909116919083908110610e4c57610e4c6111c3565b9060005260206000200160006101000a8154816001600160a01b0302191690836001600160a01b03160217905550610df4565b816000610e8d876001611202565b81548110610e9d57610e9d6111c3565b9060005260206000200160006101000a8154816001600160a01b0302191690836001600160a01b0316021790555050505b50600192915050565b6001546000908103610f32576001805480820182556000919091527fb10e2d527612073b26eecdfd717e6a320cf44b4afac2b0732d9fcbe2b7fa0cf60180546001600160a01b0319166001600160a01b038416179055610ece565b600060018481548110610f4757610f476111c3565b600091825260209091200154600180546001600160a01b039092169250849186908110610f7657610f766111c3565b600091825260209091200180546001600160a01b0319166001600160a01b0392909216919091179055600180548190610fb09082906111ef565b81548110610fc057610fc06111c3565b600091825260208083209091015483546001818101865594845291832090910180546001600160a01b0319166001600160a01b039092169190911790558154909161100a916111ef565b90505b611018856001611202565b811461109957600161102a81836111ef565b8154811061103a5761103a6111c3565b600091825260209091200154600180546001600160a01b039092169183908110611066576110666111c3565b9060005260206000200160006101000a8154816001600160a01b0302191690836001600160a01b0316021790555061100d565b816001610e8d8782611202565b6020808252825182820181905260009190848201906040850190845b818110156110e75783516001600160a01b0316835292840192918401916001016110c2565b50909695505050505050565b602080825282518282018190526000919060409081850190868401855b8281101561114b57815180516001600160a01b0390811686528782015116878601528501518585015260609093019290850190600101611110565b5091979650505050505050565b60006020828403121561116a57600080fd5b5051919050565b60006020828403121561118357600080fd5b8151801515811461119357600080fd5b9392505050565b6000602082840312156111ac57600080fd5b81516001600160a01b038116811461119357600080fd5b634e487b7160e01b600052603260045260246000fd5b634e487b7160e01b600052601160045260246000fd5b81810381811115610cc057610cc06111d9565b80820180821115610cc057610cc06111d9565b600060018201611227576112276111d9565b5060010190565b634e487b7160e01b600052603160045260246000fdfea2646970667358221220060d40aeafe240b01dea21628b2cdf5c5f4db9c0e2634c4743bfa8766cf77d0664736f6c6343000810003360806040526040516107f53803806107f583398101604081905261002291610164565b600080546001600160a01b0319166001600160a01b038a161790556001610049888261029d565b506002869055600380546001600160a01b0319166001600160a01b0387161790556004849055600561007b848261029d565b506006919091556007555061035c945050505050565b6001600160a01b03811681146100a657600080fd5b50565b634e487b7160e01b600052604160045260246000fd5b600082601f8301126100d057600080fd5b81516001600160401b03808211156100ea576100ea6100a9565b604051601f8301601f19908116603f01168101908282118183101715610112576101126100a9565b8160405283815260209250868385880101111561012e57600080fd5b600091505b838210156101505785820183015181830184015290820190610133565b600093810190920192909252949350505050565b600080600080600080600080610100898b03121561018157600080fd5b885161018c81610091565b60208a01519098506001600160401b03808211156101a957600080fd5b6101b58c838d016100bf565b985060408b0151975060608b015191506101ce82610091565b60808b015160a08c01519297509550808211156101ea57600080fd5b506101f78b828c016100bf565b60c08b015160e0909b0151999c989b509699959894979350505050565b600181811c9082168061022857607f821691505b60208210810361024857634e487b7160e01b600052602260045260246000fd5b50919050565b601f82111561029857600081815260208120601f850160051c810160208610156102755750805b601f850160051c820191505b8181101561029457828155600101610281565b5050505b505050565b81516001600160401b038111156102b6576102b66100a9565b6102ca816102c48454610214565b8461024e565b602080601f8311600181146102ff57600084156102e75750858301515b600019600386901b1c1916600185901b178555610294565b600085815260208120601f198616915b8281101561032e5788860151825594840194600190910190840161030f565b508582101561034c5787850151600019600388901b60f8161c191681555b5050505050600190811b01905550565b61048a8061036b6000396000f3fe608060405234801561001057600080fd5b50600436106100885760003560e01c80637e05f5a81161005b5780637e05f5a8146100e7578063861d7799146100ef578063893d20e81461010b57806398d5fdca1461012657600080fd5b80630115949c1461008d5780630bf15326146100a45780632b3e7a68146100ca5780637debdde9146100d2575b600080fd5b6004545b6040519081526020015b60405180910390f35b6100ba6100b236600461033a565b600455600190565b604051901515815260200161009b565b600654610091565b6100da61012e565b60405161009b9190610399565b600754610091565b6100f76101c0565b60405161009b9897969594939291906103b3565b6000546040516001600160a01b03909116815260200161009b565b600254610091565b60606005805461013d9061041a565b80601f01602080910402602001604051908101604052809291908181526020018280546101699061041a565b80156101b65780601f1061018b576101008083540402835291602001916101b6565b820191906000526020600020905b81548152906001019060200180831161019957829003601f168201915b5050505050905090565b600060606000806000606060008060008054906101000a90046001600160a01b03166001600254600360009054906101000a90046001600160a01b031660045460056006546007548680546102149061041a565b80601f01602080910402602001604051908101604052809291908181526020018280546102409061041a565b801561028d5780601f106102625761010080835404028352916020019161028d565b820191906000526020600020905b81548152906001019060200180831161027057829003601f168201915b505050505096508280546102a09061041a565b80601f01602080910402602001604051908101604052809291908181526020018280546102cc9061041a565b80156103195780601f106102ee57610100808354040283529160200191610319565b820191906000526020600020905b8154815290600101906020018083116102fc57829003601f168201915b50505050509250975097509750975097509750975097509091929394959697565b60006020828403121561034c57600080fd5b5035919050565b6000815180845260005b818110156103795760208185018101518683018201520161035d565b506000602082860101526020601f19601f83011685010191505092915050565b6020815260006103ac6020830184610353565b9392505050565b6001600160a01b038981168252610100602083018190526000916103d98483018c610353565b915089604085015280891660608501525086608084015282810360a08401526104028187610353565b60c0840195909552505060e001529695505050505050565b600181811c9082168061042e57607f821691505b60208210810361044e57634e487b7160e01b600052602260045260246000fd5b5091905056fea2646970667358221220320261f8f5166ef1488de58feac26e87e3ea99286fa920b6d456f1836c92357c64736f6c63430008100033a26469706673582212200c5df216729d0b8676b7b477154a2d620c3e41126dbcfdcbe1dd1e608738f7fc64736f6c63430008100033",
  "immutableReferences": {},
  "source": "// SPDX-License-Identifier: MIT\npragma solidity ^0.8.0;\n\nimport \"./ActivationRequest.sol\";\nimport \"./Bid.sol\";\nimport \"./FlexibilityDP.sol\";\nimport \"./Product.sol\";\n\ncontract CFT {\n    ActivationRequest[] public aRs;\n    Bid[] public bids;\n    Bid[] public unsortedBids;\n    Bid[] MOL;\n    ActivationRequest[] ARL;\n    FlexibilityDP[] public DPs;\n    address payable owner;\n    address productID;\n    uint256 totalPower;\n    uint256 openingDate;\n    uint256 closingDate;\n    string localization;\n    uint256 sum;\n    ActivationRequest[] filtered_ARL;\n\n    constructor(\n        address payable _owner,\n        address _productID,\n        uint256 _totalPower,\n        uint256 _openingDate,\n        uint256 _closingDate,\n        string memory _localization\n    ) payable {\n        owner = _owner;\n        productID = _productID;\n        totalPower = _totalPower;\n        openingDate = _openingDate;\n        closingDate = _closingDate;\n        localization = _localization;\n    }\n\n    /*modifiers*/\n    modifier onlyOwner(address _owner) {\n        require(_owner == owner, \"not owner of CFT\");\n        _;\n    }\n\n    modifier validLocalization(string memory _localization) {\n        require(\n            (keccak256(abi.encodePacked(_localization))) ==\n                (keccak256(abi.encodePacked(localization))) ||\n                (keccak256(abi.encodePacked(_localization))) ==\n                (keccak256(abi.encodePacked(\"*\"))),\n            \"not valid localization\"\n        );\n        _;\n    }\n\n    modifier validDeliveryDate(uint256 _startOfDelivery) {\n        require(\n            _startOfDelivery > openingDate && _startOfDelivery < closingDate,\n            \"not valid date\"\n        );\n        _;\n    }\n\n    modifier validBid(address payable _owner) {\n        require(_owner != owner, \"owner can't bid\");\n        _;\n    }\n\n    modifier validQuantity(uint256 _quantity) {\n        require(((_quantity + sumQte()) <= totalPower ) && (_quantity >0), \"not valid qte\");\n        _;\n    }\n\n    modifier positiveQte(uint256 _quantity) {\n        require((_quantity >0), \"not valid qte\");\n        _;\n    }\n\n    modifier validDP(uint256 _startDP, uint256 _endDP){\n        require((_startDP < _endDP), \"not valid dp\");\n        _;\n    }\n\n    /*-------------------*/\n    function sumQte() internal returns(uint256){\n        sum = 0;\n        for(uint i = 0; i< aRs.length; i++){\n            sum += ActivationRequest(aRs[i]).getQuantity();  \n        }\n\n        return sum;\n    }\n\n    function createActivationRequest(\n        address payable _owner,\n        uint256 _quantity,\n        uint256 _startOfDelivery\n    ) external payable onlyOwner(_owner) validDeliveryDate(_startOfDelivery) validQuantity(_quantity){\n        ActivationRequest newActivationRequest = new ActivationRequest(\n            _owner,\n            productID,\n            _quantity,\n            localization,\n            _startOfDelivery,\n            block.timestamp\n        );\n        aRs.push(newActivationRequest);\n    }\n\n    function createBid(\n        address payable _owner,\n        string calldata _serviceProvider,\n        uint256 _price,\n        uint256 _quantity,\n        string calldata _localization,\n        uint256 _startOfDelivery\n    )\n        external\n        payable\n        validBid(_owner)\n        validLocalization(_localization)\n        validDeliveryDate(_startOfDelivery)\n        positiveQte(_quantity)\n    {\n        Bid newBid = new Bid(\n            _owner,\n            _serviceProvider,\n            _price,\n            productID,\n            _quantity,\n            _localization,\n            _startOfDelivery,\n            block.timestamp\n        );\n        bids.push(newBid);\n    }\n\n    function getAllARs() external view returns (ActivationRequest[] memory) {\n        return aRs;\n    }\n\n    function getAllBids() external view returns (Bid[] memory) {\n        return bids;\n    }\n\n    function getCFTDetails()\n        external\n        view\n        returns (\n            address payable,\n            address,\n            uint256,\n            uint256,\n            uint256,\n            string memory\n        )\n    {\n        return (\n            owner,\n            productID,\n            totalPower,\n            openingDate,\n            closingDate,\n            localization\n        );\n    }\n\n    function getProductName(address _productAddress) external view returns(string memory){\n        return Product(_productAddress).getProductName();\n    }\n\n    function getAllDPs() external view returns (FlexibilityDP[] memory) {\n        return DPs;\n    }\n\n    function getLatestDP() external view returns(FlexibilityDP) {\n\n        return DPs[DPs.length - 1];\n    }\n\n    function setCurrentARL(uint256 _startDP, uint256 _endDP) external payable validDP(_startDP, _endDP){\n        ARL = new ActivationRequest[](0);\n        for (uint256 i = 0; i < aRs.length; i++) {\n            if ((ActivationRequest(aRs[i]).getStartOfDelivery() >= _startDP) && (ActivationRequest(aRs[i]).getStartOfDelivery() < _endDP)) {\n                ARL.push(aRs[i]);\n            }\n        }\n    }\n\n    function sortBids(Bid[] memory _bids) internal view returns (Bid[] memory) {\n        Bid temp;\n        for (uint256 k = 0; k < _bids.length - 1; k++) {\n            for (uint256 l = k + 1; l < _bids.length; l++) {\n                if (Bid(_bids[k]).getPrice() > Bid(_bids[l]).getPrice()) {\n                    temp = _bids[k];\n                    _bids[k] = _bids[l];\n                    _bids[l] = temp;\n                }\n            }\n        }\n\n        return _bids;\n    }\n\n    function setCurrentMOL(uint256 _startDP, uint256 _endDP) payable external validDP(_startDP, _endDP){\n        unsortedBids = new Bid[](0);\n        MOL = new Bid[](0);\n        for (uint256 i = 0; i < bids.length; i++) {\n            if ((Bid(bids[i]).getStartOfDelivery() >= _startDP) && (Bid(bids[i]).getStartOfDelivery()  < _endDP)) {\n                unsortedBids.push(bids[i]);\n            }\n        }\n        MOL = sortBids(unsortedBids);\n\n    }\n\n    function filter() external payable returns(bool){\n        filtered_ARL = new ActivationRequest[](0);\n        uint256 quantity = 0;\n        for (uint i=0; i<ARL.length ; i++){\n            if (ActivationRequest(ARL[i]).getQuantity() > quantity){\n                filtered_ARL.push(ARL[i]);\n            }\n            else{\n                ActivationRequest(ARL[i]).setStatus();\n            }\n            quantity = ActivationRequest(ARL[i]).getQuantity();\n            \n        }\n\n        return true;\n\n    }\n\n    function getFiltered_ARL() external view returns(ActivationRequest[] memory){\n        return filtered_ARL;\n    }\n\n    function getARL() external view returns(ActivationRequest[] memory){\n\n        return ARL;\n    }\n\n    function getMOL() external view returns(Bid[] memory){\n\n        return MOL;\n    }\n\n    function createFlexibilityDP() payable external {\n        \n        require(filtered_ARL.length != 0, \"there is no ARL\");\n        require(MOL.length != 0 , \"there is no MOL\");\n        FlexibilityDP newFlexibilityDP = new FlexibilityDP( filtered_ARL, MOL);\n        DPs.push(newFlexibilityDP);\n    }\n\n}\n",
  "sourcePath": "/home/linna/Desktop/Flexibility/Flexibility-backend/contracts/CFT.sol",
  "compiler": {
    "name": "solc",
    "version": "0.8.16+commit.07a7930e.Emscripten.clang"
  },
  "schemaVersion": "3.4.8",
  "updatedAt": "2022-08-18T12:00:09.094Z",
  "devdoc": {
    "kind": "dev",
    "methods": {},
    "version": 1
  },
  "userdoc": {
    "kind": "user",
    "methods": {},
    "version": 1
  }
}