{
  "contractName": "CFT",
  "abi": [
    {
      "inputs": [
        {
          "internalType": "address payable",
          "name": "_owner",
          "type": "address"
        },
        {
          "internalType": "address",
          "name": "_productID",
          "type": "address"
        },
        {
          "internalType": "uint256",
          "name": "_totalPower",
          "type": "uint256"
        },
        {
          "internalType": "uint256",
          "name": "_openingDate",
          "type": "uint256"
        },
        {
          "internalType": "uint256",
          "name": "_closingDate",
          "type": "uint256"
        },
        {
          "internalType": "string",
          "name": "_localization",
          "type": "string"
        }
      ],
      "stateMutability": "payable",
      "type": "constructor"
    },
    {
      "inputs": [
        {
          "internalType": "uint256",
          "name": "",
          "type": "uint256"
        }
      ],
      "name": "ARL",
      "outputs": [
        {
          "internalType": "contract ActivationRequest",
          "name": "",
          "type": "address"
        }
      ],
      "stateMutability": "view",
      "type": "function"
    },
    {
      "inputs": [
        {
          "internalType": "uint256",
          "name": "",
          "type": "uint256"
        }
      ],
      "name": "DPs",
      "outputs": [
        {
          "internalType": "contract FlexibilityDP",
          "name": "",
          "type": "address"
        }
      ],
      "stateMutability": "view",
      "type": "function"
    },
    {
      "inputs": [
        {
          "internalType": "uint256",
          "name": "",
          "type": "uint256"
        }
      ],
      "name": "MOL",
      "outputs": [
        {
          "internalType": "contract Bid",
          "name": "",
          "type": "address"
        }
      ],
      "stateMutability": "view",
      "type": "function"
    },
    {
      "inputs": [
        {
          "internalType": "uint256",
          "name": "",
          "type": "uint256"
        }
      ],
      "name": "aRs",
      "outputs": [
        {
          "internalType": "contract ActivationRequest",
          "name": "",
          "type": "address"
        }
      ],
      "stateMutability": "view",
      "type": "function"
    },
    {
      "inputs": [
        {
          "internalType": "uint256",
          "name": "",
          "type": "uint256"
        }
      ],
      "name": "bids",
      "outputs": [
        {
          "internalType": "contract Bid",
          "name": "",
          "type": "address"
        }
      ],
      "stateMutability": "view",
      "type": "function"
    },
    {
      "inputs": [
        {
          "internalType": "uint256",
          "name": "",
          "type": "uint256"
        }
      ],
      "name": "unsortedBids",
      "outputs": [
        {
          "internalType": "contract Bid",
          "name": "",
          "type": "address"
        }
      ],
      "stateMutability": "view",
      "type": "function"
    },
    {
      "inputs": [
        {
          "internalType": "address payable",
          "name": "_owner",
          "type": "address"
        },
        {
          "internalType": "uint256",
          "name": "_quantity",
          "type": "uint256"
        },
        {
          "internalType": "uint256",
          "name": "_startOfDelivery",
          "type": "uint256"
        }
      ],
      "name": "createActivationRequest",
      "outputs": [],
      "stateMutability": "payable",
      "type": "function"
    },
    {
      "inputs": [
        {
          "internalType": "address payable",
          "name": "_owner",
          "type": "address"
        },
        {
          "internalType": "string",
          "name": "_serviceProvider",
          "type": "string"
        },
        {
          "internalType": "uint256",
          "name": "_price",
          "type": "uint256"
        },
        {
          "internalType": "uint256",
          "name": "_quantity",
          "type": "uint256"
        },
        {
          "internalType": "string",
          "name": "_localization",
          "type": "string"
        },
        {
          "internalType": "uint256",
          "name": "_startOfDelivery",
          "type": "uint256"
        }
      ],
      "name": "createBid",
      "outputs": [],
      "stateMutability": "payable",
      "type": "function"
    },
    {
      "inputs": [],
      "name": "getAllARs",
      "outputs": [
        {
          "internalType": "contract ActivationRequest[]",
          "name": "",
          "type": "address[]"
        }
      ],
      "stateMutability": "view",
      "type": "function"
    },
    {
      "inputs": [],
      "name": "getAllBids",
      "outputs": [
        {
          "internalType": "contract Bid[]",
          "name": "",
          "type": "address[]"
        }
      ],
      "stateMutability": "view",
      "type": "function"
    },
    {
      "inputs": [],
      "name": "getCFTDetails",
      "outputs": [
        {
          "internalType": "address payable",
          "name": "",
          "type": "address"
        },
        {
          "internalType": "address",
          "name": "",
          "type": "address"
        },
        {
          "internalType": "uint256",
          "name": "",
          "type": "uint256"
        },
        {
          "internalType": "uint256",
          "name": "",
          "type": "uint256"
        },
        {
          "internalType": "uint256",
          "name": "",
          "type": "uint256"
        },
        {
          "internalType": "string",
          "name": "",
          "type": "string"
        }
      ],
      "stateMutability": "view",
      "type": "function"
    },
    {
      "inputs": [],
      "name": "getAllDPs",
      "outputs": [
        {
          "internalType": "contract FlexibilityDP[]",
          "name": "",
          "type": "address[]"
        }
      ],
      "stateMutability": "view",
      "type": "function"
    },
    {
      "inputs": [
        {
          "internalType": "uint256",
          "name": "_currentDP",
          "type": "uint256"
        }
      ],
      "name": "createFlexibilityDP",
      "outputs": [
        {
          "internalType": "bool",
          "name": "",
          "type": "bool"
        }
      ],
      "stateMutability": "nonpayable",
      "type": "function"
    },
    {
      "inputs": [],
      "name": "getARL",
      "outputs": [
        {
          "internalType": "contract ActivationRequest[]",
          "name": "",
          "type": "address[]"
        }
      ],
      "stateMutability": "view",
      "type": "function"
    },
    {
      "inputs": [],
      "name": "getMOL",
      "outputs": [
        {
          "internalType": "contract Bid[]",
          "name": "",
          "type": "address[]"
        }
      ],
      "stateMutability": "view",
      "type": "function"
    }
  ],
  "bytecode": "0x608060405260405162003dff38038062003dff8339810160408190526200002691620000af565b600680546001600160a01b038089166001600160a01b031992831617909255600780549288169290911691909117905560088490556009839055600a829055600b62000073828262000265565b5050505050505062000331565b6001600160a01b03811681146200009657600080fd5b50565b634e487b7160e01b600052604160045260246000fd5b60008060008060008060c08789031215620000c957600080fd5b8651620000d68162000080565b80965050602080880151620000eb8162000080565b604089015160608a015160808b015160a08c0151939950919750955093506001600160401b03808211156200011f57600080fd5b818a0191508a601f8301126200013457600080fd5b81518181111562000149576200014962000099565b604051601f8201601f19908116603f0116810190838211818310171562000174576200017462000099565b816040528281528d868487010111156200018d57600080fd5b600093505b82841015620001b1578484018601518185018701529285019262000192565b82841115620001c35760008684830101525b8096505050505050509295509295509295565b600181811c90821680620001eb57607f821691505b6020821081036200020c57634e487b7160e01b600052602260045260246000fd5b50919050565b601f8211156200026057600081815260208120601f850160051c810160208610156200023b5750805b601f850160051c820191505b818110156200025c5782815560010162000247565b5050505b505050565b81516001600160401b0381111562000281576200028162000099565b6200029981620002928454620001d6565b8462000212565b602080601f831160018114620002d15760008415620002b85750858301515b600019600386901b1c1916600185901b1785556200025c565b600085815260208120601f198616915b828110156200030257888601518255948401946001909101908401620002e1565b5085821015620003215787850151600019600388901b60f8161c191681555b5050505050600190811b01905550565b613abe80620003416000396000f3fe608060405260043610620000fa5760003560e01c8063605823371162000095578063bb2279021162000060578063bb22790214620002a5578063c995600214620002bc578063cb831d6a14620002e8578063ef501d38146200030057600080fd5b806360582337146200022b578063623a81b8146200025057806383793e2014620002685780638d0f6da3146200028d57600080fd5b8063323d822f11620000d6578063323d822f146200017e5780634423c5f114620001bc57806356d9e23e14620001e15780635e377e99146200020657600080fd5b8062a4810314620000ff57806313af3b2114620001185780632d08c0f31462000148575b600080fd5b62000116620001103660046200108d565b62000318565b005b3480156200012557600080fd5b506200013062000473565b6040516200013f9190620010c3565b60405180910390f35b3480156200015557600080fd5b506200016d6200016736600462001112565b620004d7565b60405190151581526020016200013f565b3480156200018b57600080fd5b50620001a36200019d36600462001112565b6200058b565b6040516001600160a01b0390911681526020016200013f565b348015620001c957600080fd5b50620001a3620001db36600462001112565b620005b6565b348015620001ee57600080fd5b50620001a36200020036600462001112565b620005c7565b3480156200021357600080fd5b50620001a36200022536600462001112565b620005d8565b3480156200023857600080fd5b50620001a36200024a36600462001112565b620005e9565b3480156200025d57600080fd5b5062000130620005fa565b3480156200027557600080fd5b50620001a36200028736600462001112565b6200065c565b3480156200029a57600080fd5b50620001306200066d565b62000116620002b636600462001178565b620006cf565b348015620002c957600080fd5b50620002d46200095e565b6040516200013f969594939291906200124f565b348015620002f557600080fd5b506200013062000a47565b3480156200030d57600080fd5b506200013062000aa9565b60065483906001600160a01b03808316911614620003705760405162461bcd60e51b815260206004820152601060248201526f1b9bdd081bdddb995c881bd98810d19560821b60448201526064015b60405180910390fd5b8160095481118015620003845750600a5481105b620003c35760405162461bcd60e51b815260206004820152600e60248201526d6e6f742076616c6964206461746560901b604482015260640162000367565b600085600760009054906101000a90046001600160a01b031686600b8742604051620003ef9062000fc5565b6200040096959493929190620012ef565b604051809103906000f0801580156200041d573d6000803e3d6000fd5b50600080546001810182559080527f290decd9548b62a8d60345a988386fc84ba6bc95484008f6362f93160ef3e5630180546001600160a01b0319166001600160a01b0392909216919091179055505050505050565b60606004805480602002602001604051908101604052809291908181526020018280548015620004cd57602002820191906000526020600020905b81546001600160a01b03168152600190910190602001808311620004ae575b5050505050905090565b6000620004e48262000b0b565b50620004f08262000c1e565b5060006004600384604051620005069062000fd3565b6200051493929190620013b7565b604051809103906000f08015801562000531573d6000803e3d6000fd5b5060058054600180820183556000929092527f036b6384b5eca791c62761152d0c79bb0604c104a5fb6f4eb0703f3154bb3db00180546001600160a01b0319166001600160a01b0393909316929092179091559392505050565b600081815481106200059c57600080fd5b6000918252602090912001546001600160a01b0316905081565b600181815481106200059c57600080fd5b600581815481106200059c57600080fd5b600381815481106200059c57600080fd5b600481815481106200059c57600080fd5b60606005805480602002602001604051908101604052809291908181526020018280548015620004cd576020028201919060005260206000209081546001600160a01b03168152600190910190602001808311620004ae575050505050905090565b600281815481106200059c57600080fd5b60606001805480602002602001604051908101604052809291908181526020018280548015620004cd576020028201919060005260206000209081546001600160a01b03168152600190910190602001808311620004ae575050505050905090565b60065488906001600160a01b0390811690821603620007235760405162461bcd60e51b815260206004820152600f60248201526e1bdddb995c8818d85b89dd08189a59608a1b604482015260640162000367565b83838080601f016020809104026020016040519081016040528093929190818152602001838380828437600092019190915250506040516200076d9250600b915060200162001465565b6040516020818303038152906040528051906020012081604051602001620007969190620014e3565b604051602081830303815290604052805190602001201480620008055750604051601560f91b60208201526021016040516020818303038152906040528051906020012081604051602001620007ed9190620014e3565b60405160208183030381529060405280519060200120145b6200084c5760405162461bcd60e51b81526020600482015260166024820152753737ba103b30b634b2103637b1b0b634bd30ba34b7b760511b604482015260640162000367565b8260095481118015620008605750600a5481105b6200089f5760405162461bcd60e51b815260206004820152600e60248201526d6e6f742076616c6964206461746560901b604482015260640162000367565b60008b8b8b8b600760009054906101000a90046001600160a01b03168c8c8c8c42604051620008ce9062000fe1565b620008e39a999897969594939291906200152a565b604051809103906000f08015801562000900573d6000803e3d6000fd5b506001805480820182556000919091527fb10e2d527612073b26eecdfd717e6a320cf44b4afac2b0732d9fcbe2b7fa0cf60180546001600160a01b0319166001600160a01b0392909216919091179055505050505050505050505050565b60008060008060006060600660009054906101000a90046001600160a01b0316600760009054906101000a90046001600160a01b0316600854600954600a54600b808054620009ad90620012b3565b80601f0160208091040260200160405190810160405280929190818152602001828054620009db90620012b3565b801562000a2c5780601f1062000a005761010080835404028352916020019162000a2c565b820191906000526020600020905b81548152906001019060200180831162000a0e57829003601f168201915b50505050509050955095509550955095509550909192939495565b60606000805480602002602001604051908101604052809291908181526020018280548015620004cd576020028201919060005260206000209081546001600160a01b03168152600190910190602001808311620004ae575050505050905090565b60606003805480602002602001604051908101604052809291908181526020018280548015620004cd576020028201919060005260206000209081546001600160a01b03168152600190910190602001808311620004ae575050505050905090565b6000805b60005481101562000c1557826000828154811062000b315762000b3162001599565b6000918252602091829020015460408051630fc0beb560e31b815290516001600160a01b0390921692637e05f5a8926004808401938290030181865afa15801562000b80573d6000803e3d6000fd5b505050506040513d601f19601f8201168201806040525081019062000ba69190620015af565b1062000c005760046000828154811062000bc45762000bc462001599565b60009182526020808320909101548354600181018555938352912090910180546001600160a01b0319166001600160a01b039092169190911790555b8062000c0c81620015df565b91505062000b0f565b50600192915050565b6000805b60015481101562000d2957826001828154811062000c445762000c4462001599565b6000918252602091829020015460408051630fc0beb560e31b815290516001600160a01b0390921692637e05f5a8926004808401938290030181865afa15801562000c93573d6000803e3d6000fd5b505050506040513d601f19601f8201168201806040525081019062000cb99190620015af565b111562000d145760026001828154811062000cd85762000cd862001599565b60009182526020808320909101548354600181018555938352912090910180546001600160a01b0319166001600160a01b039092169190911790555b8062000d2081620015df565b91505062000c22565b5062000d91600280548060200260200160405190810160405280929190818152602001828054801562000d8657602002820191906000526020600020905b81546001600160a01b0316815260019091019060200180831162000d67575b505050505062000da7565b805162000c159160039160209091019062000fef565b60606000805b6001845162000dbd9190620015fb565b81101562000fbd57600062000dd482600162001615565b90505b845181101562000fa75784818151811062000df65762000df662001599565b60200260200101516001600160a01b03166398d5fdca6040518163ffffffff1660e01b8152600401602060405180830381865afa15801562000e3c573d6000803e3d6000fd5b505050506040513d601f19601f8201168201806040525081019062000e629190620015af565b85838151811062000e775762000e7762001599565b60200260200101516001600160a01b03166398d5fdca6040518163ffffffff1660e01b8152600401602060405180830381865afa15801562000ebd573d6000803e3d6000fd5b505050506040513d601f19601f8201168201806040525081019062000ee39190620015af565b111562000f925784828151811062000eff5762000eff62001599565b6020026020010151925084818151811062000f1e5762000f1e62001599565b602002602001015185838151811062000f3b5762000f3b62001599565b60200260200101906001600160a01b031690816001600160a01b0316815250508285828151811062000f715762000f7162001599565b60200260200101906001600160a01b031690816001600160a01b0316815250505b8062000f9e81620015df565b91505062000dd7565b508062000fb481620015df565b91505062000dad565b509192915050565b6108f5806200163183390190565b6113868062001f2683390190565b6107dd80620032ac83390190565b82805482825590600052602060002090810192821562001047579160200282015b828111156200104757825182546001600160a01b0319166001600160a01b0390911617825560209092019160019091019062001010565b506200105592915062001059565b5090565b5b808211156200105557600081556001016200105a565b80356001600160a01b03811681146200108857600080fd5b919050565b600080600060608486031215620010a357600080fd5b620010ae8462001070565b95602085013595506040909401359392505050565b6020808252825182820181905260009190848201906040850190845b81811015620011065783516001600160a01b031683529284019291840191600101620010df565b50909695505050505050565b6000602082840312156200112557600080fd5b5035919050565b60008083601f8401126200113f57600080fd5b50813567ffffffffffffffff8111156200115857600080fd5b6020830191508360208285010111156200117157600080fd5b9250929050565b60008060008060008060008060c0898b0312156200119557600080fd5b620011a08962001070565b9750602089013567ffffffffffffffff80821115620011be57600080fd5b620011cc8c838d016200112c565b909950975060408b0135965060608b0135955060808b0135915080821115620011f457600080fd5b50620012038b828c016200112c565b999c989b50969995989497949560a00135949350505050565b60005b83811015620012395781810151838201526020016200121f565b8381111562001249576000848401525b50505050565b600060018060a01b03808916835280881660208401525085604083015284606083015283608083015260c060a083015282518060c08401526200129a8160e08501602087016200121c565b601f01601f19169190910160e001979650505050505050565b600181811c90821680620012c857607f821691505b602082108103620012e957634e487b7160e01b600052602260045260246000fd5b50919050565b6001600160a01b03878116825286166020808301919091526040820186905260c06060830152845460009182916200132781620012b3565b8060c087015260e06001808416600081146200134c5760018114620013675762001397565b60ff1985168984015283151560051b89018301965062001397565b8b6000528560002060005b858110156200138f5781548b820186015290830190870162001372565b8a0184019750505b5050505050608084019590955260a0909201929092529695505050505050565b600060608201606083528086548083526080850191506000925087835260208320835b82811015620014035781546001600160a01b0316845260208401935060019182019101620013da565b50505083810360208501528086548083526020830191508784526020842092505b80841015620014505782546001600160a01b031682526001938401939092019160209091019062001424565b50809350505050826040830152949350505050565b60008083546200147581620012b3565b60018281168015620014905760018114620014a657620014d7565b60ff1984168752821515830287019450620014d7565b8760005260208060002060005b85811015620014ce5781548a820152908401908201620014b3565b50505082870194505b50929695505050505050565b60008251620014f78184602087016200121c565b9190910192915050565b81835281816020850137506000828201602090810191909152601f909101601f19169091010190565b6001600160a01b038b8116825261010060208301819052600091620015538483018d8f62001501565b91508a6040850152808a1660608501525087608084015282810360a08401526200157f81878962001501565b60c0840195909552505060e0015298975050505050505050565b634e487b7160e01b600052603260045260246000fd5b600060208284031215620015c257600080fd5b5051919050565b634e487b7160e01b600052601160045260246000fd5b600060018201620015f457620015f4620015c9565b5060010190565b600082821015620016105762001610620015c9565b500390565b600082198211156200162b576200162b620015c9565b50019056fe60806040526040516108f53803806108f5833981016040819052610022916100af565b600080546001600160a01b038089166001600160a01b031992831617909255600180549288169290911691909117905560028490556003610063848261024d565b5060049190915560055550506006805460ff191690555061030c9050565b6001600160a01b038116811461009657600080fd5b50565b634e487b7160e01b600052604160045260246000fd5b60008060008060008060c087890312156100c857600080fd5b86516100d381610081565b809650506020808801516100e681610081565b604089015160608a015191975095506001600160401b038082111561010a57600080fd5b818a0191508a601f83011261011e57600080fd5b81518181111561013057610130610099565b604051601f8201601f19908116603f0116810190838211818310171561015857610158610099565b816040528281528d8684870101111561017057600080fd5b600093505b828410156101925784840186015181850187015292850192610175565b828411156101a35760008684830101525b8098505050505050506080870151915060a087015190509295509295509295565b600181811c908216806101d857607f821691505b6020821081036101f857634e487b7160e01b600052602260045260246000fd5b50919050565b601f82111561024857600081815260208120601f850160051c810160208610156102255750805b601f850160051c820191505b8181101561024457828155600101610231565b5050505b505050565b81516001600160401b0381111561026657610266610099565b61027a8161027484546101c4565b846101fe565b602080601f8311600181146102af57600084156102975750858301515b600019600386901b1c1916600185901b178555610244565b600085815260208120601f198616915b828110156102de578886015182559484019460019091019084016102bf565b50858210156102fc5787850151600019600388901b60f8161c191681555b5050505050600190811b01905550565b6105da8061031b6000396000f3fe608060405234801561001057600080fd5b50600436106100885760003560e01c806369ba1a751161005b57806369ba1a75146100f95780637debdde91461010c5780637e05f5a814610114578063893d20e81461011c57600080fd5b80630115949c1461008d5780630bf15326146100a457806311cdd1dd146100ca5780634e69d560146100e4575b600080fd5b6002545b6040519081526020015b60405180910390f35b6100ba6100b236600461046b565b600255600190565b604051901515815260200161009b565b6100d2610137565b60405161009b969594939291906104d1565b6100ec610216565b60405161009b9190610519565b6100ba61010736600461046b565b610368565b6100ec6103d9565b600554610091565b6000546040516001600160a01b03909116815260200161009b565b6000806000606060008060008054906101000a90046001600160a01b0316600160009054906101000a90046001600160a01b0316600254600360045460055482805461018290610533565b80601f01602080910402602001604051908101604052809291908181526020018280546101ae90610533565b80156101fb5780601f106101d0576101008083540402835291602001916101fb565b820191906000526020600020905b8154815290600101906020018083116101de57829003601f168201915b50505050509250955095509550955095509550909192939495565b60065460609060ff1660048111156102305761023061056d565b600003610259575060408051808201909152600781526650656e64696e6760c81b602082015290565b60065460ff1660048111156102705761027061056d565b6001036102a45750604080518082019091526012815271139bc8189a591cc81bdb881d1a19481353d360721b602082015290565b60065460ff1660048111156102bb576102bb61056d565b6002036102f1575060408051808201909152601481527304e6f20666565646261636b2066726f6d204653560641b602082015290565b60065460ff1660048111156103085761030861056d565b60030361032d5760405180606001604052806021815260200161058460219139905090565b6040518060400160405280602081526020017f41637469766174696f6e206f726465722072656a656374656420627920465350815250905090565b60008160010361038b57600680546001919060ff191682805b02179055506103d1565b816002036103a757600680546002919060ff1916600183610381565b816003036103c357600680546003919060ff1916600183610381565b6006805460ff191660041790555b506001919050565b6060600380546103e890610533565b80601f016020809104026020016040519081016040528092919081815260200182805461041490610533565b80156104615780601f1061043657610100808354040283529160200191610461565b820191906000526020600020905b81548152906001019060200180831161044457829003601f168201915b5050505050905090565b60006020828403121561047d57600080fd5b5035919050565b6000815180845260005b818110156104aa5760208185018101518683018201520161048e565b818111156104bc576000602083870101525b50601f01601f19169290920160200192915050565b6001600160a01b038781168252861660208201526040810185905260c06060820181905260009061050490830186610484565b60808301949094525060a00152949350505050565b60208152600061052c6020830184610484565b9392505050565b600181811c9082168061054757607f821691505b60208210810361056757634e487b7160e01b600052602260045260246000fd5b50919050565b634e487b7160e01b600052602160045260246000fdfe41637469766174696f6e206f7264657220636f6e6669726d656420627920465350a264697066735822122072a6ad83e7a287c675123e99f4a2fc844369f42c2156e5e772020ee826c05e6b64736f6c634300080f003360806040523480156200001157600080fd5b5060405162001386380380620013868339810160408190526200003491620001f3565b8251620000499060009060208601906200006c565b5081516200005f9060019060208501906200006c565b5060025550620002ce9050565b828054828255906000526020600020908101928215620000c4579160200282015b82811115620000c457825182546001600160a01b0319166001600160a01b039091161782556020909201916001909101906200008d565b50620000d2929150620000d6565b5090565b5b80821115620000d25760008155600101620000d7565b634e487b7160e01b600052604160045260246000fd5b604051601f8201601f191681016001600160401b03811182821017156200012e576200012e620000ed565b604052919050565b60006001600160401b03821115620001525762000152620000ed565b5060051b60200190565b6001600160a01b03811681146200017257600080fd5b50565b600082601f8301126200018757600080fd5b81516020620001a06200019a8362000136565b62000103565b82815260059290921b84018101918181019086841115620001c057600080fd5b8286015b84811015620001e8578051620001da816200015c565b8352918301918301620001c4565b509695505050505050565b6000806000606084860312156200020957600080fd5b83516001600160401b03808211156200022157600080fd5b818601915086601f8301126200023657600080fd5b81516020620002496200019a8362000136565b82815260059290921b8401810191818101908a8411156200026957600080fd5b948201945b838610156200029457855162000284816200015c565b825294820194908201906200026e565b91890151919750909350505080821115620002ae57600080fd5b50620002bd8682870162000175565b925050604084015190509250925092565b6110a880620002de6000396000f3fe608060405234801561001057600080fd5b506004361061004c5760003560e01c806313af3b2114610051578063b7dec4e21461006f578063e9c4a3ac14610077578063ef501d381461008f575b600080fd5b610059610097565b6040516100669190610ce5565b60405180910390f35b6100596100f9565b61007f610159565b6040519015158152602001610066565b6100596106f4565b606060008054806020026020016040519081016040528092919081815260200182805480156100ef57602002820191906000526020600020905b81546001600160a01b031681526001909101906020018083116100d1575b5050505050905090565b606060038054806020026020016040519081016040528092919081815260200182805480156100ef576020028201919060005260206000209081546001600160a01b031681526001909101906020018083116100d1575050505050905090565b600080808080808080805b60015415801590610176575060005415155b156106e5576101856000610754565b95506101916000610896565b9450856001600160a01b0316630115949c6040518163ffffffff1660e01b8152600401602060405180830381865afa1580156101d1573d6000803e3d6000fd5b505050506040513d601f19601f820116820180604052508101906101f59190610d32565b965086915087821015610274576040516369ba1a7560e01b8152600160048201526001600160a01b038716906369ba1a75906024015b6020604051808303816000875af115801561024a573d6000803e3d6000fd5b505050506040513d601f19601f8201168201806040525081019061026e9190610d4b565b506106dd565b81856001600160a01b0316630115949c6040518163ffffffff1660e01b8152600401602060405180830381865afa1580156102b3573d6000803e3d6000fd5b505050506040513d601f19601f820116820180604052508101906102d79190610d32565b106104945781856001600160a01b0316630115949c6040518163ffffffff1660e01b8152600401602060405180830381865afa15801561031b573d6000803e3d6000fd5b505050506040513d601f19601f8201168201806040525081019061033f9190610d32565b6103499190610d8a565b6040516305f8a99360e11b8152600481018290529094506001600160a01b03861690630bf15326906024016020604051808303816000875af1158015610393573d6000803e3d6000fd5b505050506040513d601f19601f820116820180604052508101906103b79190610d4b565b506103c36000866109ad565b508486836040516103d390610cd8565b6001600160a01b0393841681529290911660208301526040820152606001604051809103906000f08015801561040d573d6000803e3d6000fd5b506003805460018101825560009182527fc2575a0e9e593c00f959f8c92f12db2869c3395a3b0502d05e2516446f71f85b0180546001600160a01b0319166001600160a01b03841617905590915082900361048f576040516369ba1a7560e01b8152600260048201526001600160a01b038716906369ba1a759060240161022b565b6106dd565b81856001600160a01b0316630115949c6040518163ffffffff1660e01b8152600401602060405180830381865afa1580156104d3573d6000803e3d6000fd5b505050506040513d601f19601f820116820180604052508101906104f79190610d32565b10156106dd57846001600160a01b0316630115949c6040518163ffffffff1660e01b8152600401602060405180830381865afa15801561053b573d6000803e3d6000fd5b505050506040513d601f19601f8201168201806040525081019061055f9190610d32565b6105699083610d8a565b6040516305f8a99360e11b8152600481018290529093506001600160a01b03871690630bf15326906024016020604051808303816000875af11580156105b3573d6000803e3d6000fd5b505050506040513d601f19601f820116820180604052508101906105d79190610d4b565b506105e3600087610b66565b508486866001600160a01b0316630115949c6040518163ffffffff1660e01b8152600401602060405180830381865afa158015610624573d6000803e3d6000fd5b505050506040513d601f19601f820116820180604052508101906106489190610d32565b60405161065490610cd8565b6001600160a01b0393841681529290911660208301526040820152606001604051809103906000f08015801561068e573d6000803e3d6000fd5b50600380546001810182556000919091527fc2575a0e9e593c00f959f8c92f12db2869c3395a3b0502d05e2516446f71f85b0180546001600160a01b0319166001600160a01b03831617905590505b869750610164565b60019850505050505050505090565b606060018054806020026020016040519081016040528092919081815260200182805480156100ef576020028201919060005260206000209081546001600160a01b031681526001909101906020018083116100d1575050505050905090565b6000805482106107975760405162461bcd60e51b81526020600482015260096024820152681b9bdd081d985b1a5960ba1b60448201526064015b60405180910390fd5b60008083815481106107ab576107ab610da1565b6000918252602090912001546001600160a01b03169050825b6000546107d390600190610d8a565b81101561085c5760006107e7826001610db7565b815481106107f7576107f7610da1565b600091825260208220015481546001600160a01b0390911691908390811061082157610821610da1565b600091825260209091200180546001600160a01b0319166001600160a01b03929092169190911790558061085481610dcf565b9150506107c4565b50600080548061086e5761086e610de8565b600082815260209020810160001990810180546001600160a01b031916905501905592915050565b600060015482106108d55760405162461bcd60e51b81526020600482015260096024820152681b9bdd081d985b1a5960ba1b604482015260640161078e565b6000600183815481106108ea576108ea610da1565b6000918252602090912001546001600160a01b03169050825b600180546109119190610d8a565b81101561099b5760016109248282610db7565b8154811061093457610934610da1565b600091825260209091200154600180546001600160a01b03909216918390811061096057610960610da1565b600091825260209091200180546001600160a01b0319166001600160a01b03929092169190911790558061099381610dcf565b915050610903565b50600180548061086e5761086e610de8565b600080600184815481106109c3576109c3610da1565b600091825260209091200154600180546001600160a01b0390921692508491869081106109f2576109f2610da1565b600091825260209091200180546001600160a01b0319166001600160a01b0392909216919091179055600180548190610a2c908290610d8a565b81548110610a3c57610a3c610da1565b600091825260208083209091015483546001818101865594845291832090910180546001600160a01b0319166001600160a01b0390921691909117905581549091610a8691610d8a565b90505b610a94856001610db7565b8114610b15576001610aa68183610d8a565b81548110610ab657610ab6610da1565b600091825260209091200154600180546001600160a01b039092169183908110610ae257610ae2610da1565b9060005260206000200160006101000a8154816001600160a01b0302191690836001600160a01b03160217905550610a89565b816001610b228782610db7565b81548110610b3257610b32610da1565b600091825260209091200180546001600160a01b0319166001600160a01b0392909216919091179055506001949350505050565b60008060008481548110610b7c57610b7c610da1565b600091825260208220015481546001600160a01b03909116925084919086908110610ba957610ba9610da1565b6000918252602082200180546001600160a01b0319166001600160a01b03939093169290921790915580548190610be290600190610d8a565b81548110610bf257610bf2610da1565b600091825260208083209091015483546001818101865594845291832090910180546001600160a01b0319166001600160a01b0390921691909117905580549091610c3c91610d8a565b90505b610c4a856001610db7565b8114610cca576000610c5d600183610d8a565b81548110610c6d57610c6d610da1565b600091825260208220015481546001600160a01b03909116919083908110610c9757610c97610da1565b9060005260206000200160006101000a8154816001600160a01b0302191690836001600160a01b03160217905550610c3f565b816000610b22876001610db7565b61027480610dff83390190565b6020808252825182820181905260009190848201906040850190845b81811015610d265783516001600160a01b031683529284019291840191600101610d01565b50909695505050505050565b600060208284031215610d4457600080fd5b5051919050565b600060208284031215610d5d57600080fd5b81518015158114610d6d57600080fd5b9392505050565b634e487b7160e01b600052601160045260246000fd5b600082821015610d9c57610d9c610d74565b500390565b634e487b7160e01b600052603260045260246000fd5b60008219821115610dca57610dca610d74565b500190565b600060018201610de157610de1610d74565b5060010190565b634e487b7160e01b600052603160045260246000fdfe608060405234801561001057600080fd5b5060405161027438038061027483398101604081905261002f9161007f565b600080546001600160a01b039485166001600160a01b03199182161790915560018054939094169216919091179091556002556100c2565b6001600160a01b038116811461007c57600080fd5b50565b60008060006060848603121561009457600080fd5b835161009f81610067565b60208501519093506100b081610067565b80925050604084015190509250925092565b6101a3806100d16000396000f3fe608060405234801561001057600080fd5b50600436106100415760003560e01c806313fc80d3146100465780635f29a5ee14610063578063cb7b1c441461006b575b600080fd5b61004e61009a565b60405190151581526020015b60405180910390f35b61004e610113565b600054600154600254604080516001600160a01b0394851681529390921660208401529082015260600161005a565b6001546040516369ba1a7560e01b8152600360048201526000916001600160a01b0316906369ba1a75906024015b6020604051808303816000875af11580156100e7573d6000803e3d6000fd5b505050506040513d601f19601f8201168201806040525081019061010b9190610144565b506001905090565b6001546040516369ba1a7560e01b81526004808201526000916001600160a01b0316906369ba1a75906024016100c8565b60006020828403121561015657600080fd5b8151801515811461016657600080fd5b939250505056fea26469706673582212208d28818698035210b335b265a0691a06ad444e0f2786f966ca65fc90865168cd64736f6c634300080f0033a2646970667358221220baf5e4a5624150ca746b525020dde80f62cbeadd14b1156892cb56b9046ffde464736f6c634300080f003360806040526040516107dd3803806107dd8339810160408190526100229161016b565b600080546001600160a01b0319166001600160a01b038a16179055600161004988826102a4565b506002869055600380546001600160a01b0319166001600160a01b0387161790556004849055600561007b84826102a4565b5060069190915560075550610363945050505050565b6001600160a01b03811681146100a657600080fd5b50565b634e487b7160e01b600052604160045260246000fd5b600082601f8301126100d057600080fd5b81516001600160401b03808211156100ea576100ea6100a9565b604051601f8301601f19908116603f01168101908282118183101715610112576101126100a9565b8160405283815260209250868385880101111561012e57600080fd5b600091505b838210156101505785820183015181830184015290820190610133565b838211156101615760008385830101525b9695505050505050565b600080600080600080600080610100898b03121561018857600080fd5b885161019381610091565b60208a01519098506001600160401b03808211156101b057600080fd5b6101bc8c838d016100bf565b985060408b0151975060608b015191506101d582610091565b60808b015160a08c01519297509550808211156101f157600080fd5b506101fe8b828c016100bf565b60c08b015160e0909b0151999c989b509699959894979350505050565b600181811c9082168061022f57607f821691505b60208210810361024f57634e487b7160e01b600052602260045260246000fd5b50919050565b601f82111561029f57600081815260208120601f850160051c8101602086101561027c5750805b601f850160051c820191505b8181101561029b57828155600101610288565b5050505b505050565b81516001600160401b038111156102bd576102bd6100a9565b6102d1816102cb845461021b565b84610255565b602080601f83116001811461030657600084156102ee5750858301515b600019600386901b1c1916600185901b17855561029b565b600085815260208120601f198616915b8281101561033557888601518255948401946001909101908401610316565b50858210156103535787850151600019600388901b60f8161c191681555b5050505050600190811b01905550565b61046b806103726000396000f3fe608060405234801561001057600080fd5b506004361061007d5760003560e01c80637debdde91161005b5780637debdde9146100c75780637e05f5a8146100dc578063861d7799146100e457806398d5fdca1461010057600080fd5b80630115949c146100825780630bf15326146100995780632b3e7a68146100bf575b600080fd5b6004545b6040519081526020015b60405180910390f35b6100af6100a7366004610314565b600455600190565b6040519015158152602001610090565b600654610086565b6100cf610108565b604051610090919061037a565b600754610086565b6100ec61019a565b604051610090989796959493929190610394565b600254610086565b606060058054610117906103fb565b80601f0160208091040260200160405190810160405280929190818152602001828054610143906103fb565b80156101905780601f1061016557610100808354040283529160200191610190565b820191906000526020600020905b81548152906001019060200180831161017357829003601f168201915b5050505050905090565b600060606000806000606060008060008054906101000a90046001600160a01b03166001600254600360009054906101000a90046001600160a01b031660045460056006546007548680546101ee906103fb565b80601f016020809104026020016040519081016040528092919081815260200182805461021a906103fb565b80156102675780601f1061023c57610100808354040283529160200191610267565b820191906000526020600020905b81548152906001019060200180831161024a57829003601f168201915b5050505050965082805461027a906103fb565b80601f01602080910402602001604051908101604052809291908181526020018280546102a6906103fb565b80156102f35780601f106102c8576101008083540402835291602001916102f3565b820191906000526020600020905b8154815290600101906020018083116102d657829003601f168201915b50505050509250975097509750975097509750975097509091929394959697565b60006020828403121561032657600080fd5b5035919050565b6000815180845260005b8181101561035357602081850181015186830182015201610337565b81811115610365576000602083870101525b50601f01601f19169290920160200192915050565b60208152600061038d602083018461032d565b9392505050565b6001600160a01b038981168252610100602083018190526000916103ba8483018c61032d565b915089604085015280891660608501525086608084015282810360a08401526103e3818761032d565b60c0840195909552505060e001529695505050505050565b600181811c9082168061040f57607f821691505b60208210810361042f57634e487b7160e01b600052602260045260246000fd5b5091905056fea2646970667358221220fcdd1234e43b9adbb4628f8a11c7eb486291fb71704f3f44c8d99860fc2ad87a64736f6c634300080f0033a2646970667358221220299e6251ab57a00bc35e98f2c341d2d43c2d368a06ca7fb51a45f2bb6820166c64736f6c634300080f0033",
  "immutableReferences": {},
  "source": "// SPDX-License-Identifier: MIT\npragma solidity ^0.8.0;\n\nimport \"./ActivationRequest.sol\";\nimport \"./Bid.sol\";\nimport \"./FlexibilityDP.sol\";\n\ncontract CFT {\n    ActivationRequest[] public aRs;\n    Bid[] public bids;\n    Bid[] public unsortedBids;\n    Bid[] public MOL;\n    ActivationRequest[] public ARL;\n    FlexibilityDP[] public DPs;\n    address payable owner;\n    address productID;\n    uint256 totalPower;\n    uint256 openingDate;\n    uint256 closingDate;\n    string localization;\n\n    constructor(\n        address payable _owner,\n        address _productID,\n        uint256 _totalPower,\n        uint256 _openingDate,\n        uint256 _closingDate,\n        string memory _localization\n    ) payable {\n        owner = _owner;\n        productID = _productID;\n        totalPower = _totalPower;\n        openingDate = _openingDate;\n        closingDate = _closingDate;\n        localization = _localization;\n    }\n\n    /*modifiers*/\n    modifier onlyOwner(address _owner) {\n        require(_owner == owner, \"not owner of CFT\");\n        _;\n    }\n\n    modifier validLocalization(string memory _localization) {\n        require(\n            (keccak256(abi.encodePacked(_localization))) ==\n                (keccak256(abi.encodePacked(localization))) ||\n                (keccak256(abi.encodePacked(_localization))) ==\n                (keccak256(abi.encodePacked(\"*\"))),\n            \"not valid localization\"\n        );\n        _;\n    }\n\n    modifier validDeliveryDate(uint256 _startOfDelivery) {\n        require(\n            _startOfDelivery > openingDate && _startOfDelivery < closingDate,\n            \"not valid date\"\n        );\n        _;\n    }\n\n    modifier validBid(address payable _owner) {\n        require(_owner != owner, \"owner can't bid\");\n        _;\n    }\n\n    /*-------------------*/\n\n    function createActivationRequest(\n        address payable _owner,\n        uint256 _quantity,\n        uint256 _startOfDelivery\n    ) external payable onlyOwner(_owner) validDeliveryDate(_startOfDelivery) {\n        ActivationRequest newActivationRequest = new ActivationRequest(\n            _owner,\n            productID,\n            _quantity,\n            localization,\n            _startOfDelivery,\n            block.timestamp\n        );\n        aRs.push(newActivationRequest);\n    }\n\n    function createBid(\n        address payable _owner,\n        string calldata _serviceProvider,\n        uint256 _price,\n        uint256 _quantity,\n        string calldata _localization,\n        uint256 _startOfDelivery\n    )\n        external\n        payable\n        validBid(_owner)\n        validLocalization(_localization)\n        validDeliveryDate(_startOfDelivery)\n    {\n        Bid newBid = new Bid(\n            _owner,\n            _serviceProvider,\n            _price,\n            productID,\n            _quantity,\n            _localization,\n            _startOfDelivery,\n            block.timestamp\n        );\n        bids.push(newBid);\n    }\n\n    function getAllARs() external view returns (ActivationRequest[] memory) {\n        return aRs;\n    }\n\n    function getAllBids() external view returns (Bid[] memory) {\n        return bids;\n    }\n\n    function getCFTDetails()\n        external\n        view\n        returns (\n            address payable,\n            address,\n            uint256,\n            uint256,\n            uint256,\n            string memory\n        )\n    {\n        return (\n            owner,\n            productID,\n            totalPower,\n            openingDate,\n            closingDate,\n            localization\n        );\n    }\n\n    function getAllDPs() external view returns (FlexibilityDP[] memory) {\n        return DPs;\n    }\n\n    function setCurrentARL(uint256 _currentDP) internal returns (bool) {\n        for (uint256 i = 0; i < aRs.length; i++) {\n            if (ActivationRequest(aRs[i]).getCreatedAt() >= _currentDP) {\n                ARL.push(aRs[i]);\n            }\n        }\n\n        return true;\n    }\n\n    function sortBids(Bid[] memory _bids) internal view returns (Bid[] memory) {\n        Bid temp;\n        for (uint256 k = 0; k < _bids.length - 1; k++) {\n            for (uint256 l = k + 1; l < _bids.length; l++) {\n                if (Bid(_bids[k]).getPrice() > Bid(_bids[l]).getPrice()) {\n                    temp = _bids[k];\n                    _bids[k] = _bids[l];\n                    _bids[l] = temp;\n                }\n            }\n        }\n\n        return _bids;\n    }\n\n    function setCurrentMOL(uint256 _currentDP) internal returns (bool) {\n        for (uint256 i = 0; i < bids.length; i++) {\n            if (Bid(bids[i]).getCreatedAt() > _currentDP) {\n                unsortedBids.push(bids[i]);\n            }\n        }\n        MOL = sortBids(unsortedBids);\n\n        return true;\n    }\n\n    function createFlexibilityDP(uint256 _currentDP) external returns (bool) {\n        setCurrentARL(_currentDP);\n        setCurrentMOL(_currentDP);\n        FlexibilityDP newFlexibilityDP = new FlexibilityDP(\n            ARL,\n            MOL,\n            _currentDP\n        );\n        DPs.push(newFlexibilityDP);\n\n        return true;\n    }\n\n    function getARL() external view returns (ActivationRequest[] memory) {\n        return ARL;\n    }\n\n    function getMOL() external view returns (Bid[] memory) {\n        return MOL;\n    }\n}\n",
  "sourcePath": "/home/linna/Desktop/Flexibility/Flexibility-backend/contracts/CFT.sol",
  "compiler": {
    "name": "solc",
    "version": "0.8.15+commit.e14f2714.Emscripten.clang"
  },
  "schemaVersion": "3.4.8",
  "updatedAt": "2022-07-25T12:21:37.983Z",
  "devdoc": {
    "kind": "dev",
    "methods": {},
    "version": 1
  },
  "userdoc": {
    "kind": "user",
    "methods": {},
    "version": 1
  }
}