{
  "contractName": "FlexibilityDP",
  "abi": [
    {
      "inputs": [
        {
          "internalType": "contract ActivationRequest[]",
          "name": "_ARL",
          "type": "address[]"
        },
        {
          "internalType": "contract Bid[]",
          "name": "_MOL",
          "type": "address[]"
        },
        {
          "internalType": "uint256",
          "name": "_currentDP",
          "type": "uint256"
        }
      ],
      "stateMutability": "nonpayable",
      "type": "constructor"
    },
    {
      "inputs": [],
      "name": "getARL",
      "outputs": [
        {
          "internalType": "contract ActivationRequest[]",
          "name": "",
          "type": "address[]"
        }
      ],
      "stateMutability": "view",
      "type": "function"
    },
    {
      "inputs": [],
      "name": "getMOL",
      "outputs": [
        {
          "internalType": "contract Bid[]",
          "name": "",
          "type": "address[]"
        }
      ],
      "stateMutability": "view",
      "type": "function"
    },
    {
      "inputs": [],
      "name": "getAllActivationOrders",
      "outputs": [
        {
          "internalType": "contract ActivationOrder[]",
          "name": "",
          "type": "address[]"
        }
      ],
      "stateMutability": "view",
      "type": "function"
    },
    {
      "inputs": [],
      "name": "dispatch",
      "outputs": [
        {
          "internalType": "bool",
          "name": "",
          "type": "bool"
        }
      ],
      "stateMutability": "nonpayable",
      "type": "function"
    }
  ],
  "bytecode": "0x60806040523480156200001157600080fd5b5060405162001277380380620012778339810160408190526200003491620001f3565b8251620000499060009060208601906200006c565b5081516200005f9060019060208501906200006c565b5060025550620002ce9050565b828054828255906000526020600020908101928215620000c4579160200282015b82811115620000c457825182546001600160a01b0319166001600160a01b039091161782556020909201916001909101906200008d565b50620000d2929150620000d6565b5090565b5b80821115620000d25760008155600101620000d7565b634e487b7160e01b600052604160045260246000fd5b604051601f8201601f191681016001600160401b03811182821017156200012e576200012e620000ed565b604052919050565b60006001600160401b03821115620001525762000152620000ed565b5060051b60200190565b6001600160a01b03811681146200017257600080fd5b50565b600082601f8301126200018757600080fd5b81516020620001a06200019a8362000136565b62000103565b82815260059290921b84018101918181019086841115620001c057600080fd5b8286015b84811015620001e8578051620001da816200015c565b8352918301918301620001c4565b509695505050505050565b6000806000606084860312156200020957600080fd5b83516001600160401b03808211156200022157600080fd5b818601915086601f8301126200023657600080fd5b81516020620002496200019a8362000136565b82815260059290921b8401810191818101908a8411156200026957600080fd5b948201945b838610156200029457855162000284816200015c565b825294820194908201906200026e565b91890151919750909350505080821115620002ae57600080fd5b50620002bd8682870162000175565b925050604084015190509250925092565b610f9980620002de6000396000f3fe608060405234801561001057600080fd5b506004361061004c5760003560e01c806313af3b2114610051578063b7dec4e21461006f578063e9c4a3ac14610077578063ef501d381461008f575b600080fd5b610059610097565b6040516100669190610ce5565b60405180910390f35b6100596100f9565b61007f610159565b6040519015158152602001610066565b6100596106f4565b606060008054806020026020016040519081016040528092919081815260200182805480156100ef57602002820191906000526020600020905b81546001600160a01b031681526001909101906020018083116100d1575b5050505050905090565b606060038054806020026020016040519081016040528092919081815260200182805480156100ef576020028201919060005260206000209081546001600160a01b031681526001909101906020018083116100d1575050505050905090565b600080808080808080805b60015415801590610176575060005415155b156106e5576101856000610754565b95506101916000610896565b9450856001600160a01b0316630115949c6040518163ffffffff1660e01b8152600401602060405180830381865afa1580156101d1573d6000803e3d6000fd5b505050506040513d601f19601f820116820180604052508101906101f59190610d32565b965086915087821015610274576040516369ba1a7560e01b8152600160048201526001600160a01b038716906369ba1a75906024015b6020604051808303816000875af115801561024a573d6000803e3d6000fd5b505050506040513d601f19601f8201168201806040525081019061026e9190610d4b565b506106dd565b81856001600160a01b0316630115949c6040518163ffffffff1660e01b8152600401602060405180830381865afa1580156102b3573d6000803e3d6000fd5b505050506040513d601f19601f820116820180604052508101906102d79190610d32565b106104945781856001600160a01b0316630115949c6040518163ffffffff1660e01b8152600401602060405180830381865afa15801561031b573d6000803e3d6000fd5b505050506040513d601f19601f8201168201806040525081019061033f9190610d32565b6103499190610d8a565b6040516305f8a99360e11b8152600481018290529094506001600160a01b03861690630bf15326906024016020604051808303816000875af1158015610393573d6000803e3d6000fd5b505050506040513d601f19601f820116820180604052508101906103b79190610d4b565b506103c36000866109ad565b508486836040516103d390610cd8565b6001600160a01b0393841681529290911660208301526040820152606001604051809103906000f08015801561040d573d6000803e3d6000fd5b506003805460018101825560009182527fc2575a0e9e593c00f959f8c92f12db2869c3395a3b0502d05e2516446f71f85b0180546001600160a01b0319166001600160a01b03841617905590915082900361048f576040516369ba1a7560e01b8152600260048201526001600160a01b038716906369ba1a759060240161022b565b6106dd565b81856001600160a01b0316630115949c6040518163ffffffff1660e01b8152600401602060405180830381865afa1580156104d3573d6000803e3d6000fd5b505050506040513d601f19601f820116820180604052508101906104f79190610d32565b10156106dd57846001600160a01b0316630115949c6040518163ffffffff1660e01b8152600401602060405180830381865afa15801561053b573d6000803e3d6000fd5b505050506040513d601f19601f8201168201806040525081019061055f9190610d32565b6105699083610d8a565b6040516305f8a99360e11b8152600481018290529093506001600160a01b03871690630bf15326906024016020604051808303816000875af11580156105b3573d6000803e3d6000fd5b505050506040513d601f19601f820116820180604052508101906105d79190610d4b565b506105e3600087610b66565b508486866001600160a01b0316630115949c6040518163ffffffff1660e01b8152600401602060405180830381865afa158015610624573d6000803e3d6000fd5b505050506040513d601f19601f820116820180604052508101906106489190610d32565b60405161065490610cd8565b6001600160a01b0393841681529290911660208301526040820152606001604051809103906000f08015801561068e573d6000803e3d6000fd5b50600380546001810182556000919091527fc2575a0e9e593c00f959f8c92f12db2869c3395a3b0502d05e2516446f71f85b0180546001600160a01b0319166001600160a01b03831617905590505b869750610164565b60019850505050505050505090565b606060018054806020026020016040519081016040528092919081815260200182805480156100ef576020028201919060005260206000209081546001600160a01b031681526001909101906020018083116100d1575050505050905090565b6000805482106107975760405162461bcd60e51b81526020600482015260096024820152681b9bdd081d985b1a5960ba1b60448201526064015b60405180910390fd5b60008083815481106107ab576107ab610da1565b6000918252602090912001546001600160a01b03169050825b6000546107d390600190610d8a565b81101561085c5760006107e7826001610db7565b815481106107f7576107f7610da1565b600091825260208220015481546001600160a01b0390911691908390811061082157610821610da1565b600091825260209091200180546001600160a01b0319166001600160a01b03929092169190911790558061085481610dcf565b9150506107c4565b50600080548061086e5761086e610de8565b600082815260209020810160001990810180546001600160a01b031916905501905592915050565b600060015482106108d55760405162461bcd60e51b81526020600482015260096024820152681b9bdd081d985b1a5960ba1b604482015260640161078e565b6000600183815481106108ea576108ea610da1565b6000918252602090912001546001600160a01b03169050825b600180546109119190610d8a565b81101561099b5760016109248282610db7565b8154811061093457610934610da1565b600091825260209091200154600180546001600160a01b03909216918390811061096057610960610da1565b600091825260209091200180546001600160a01b0319166001600160a01b03929092169190911790558061099381610dcf565b915050610903565b50600180548061086e5761086e610de8565b600080600184815481106109c3576109c3610da1565b600091825260209091200154600180546001600160a01b0390921692508491869081106109f2576109f2610da1565b600091825260209091200180546001600160a01b0319166001600160a01b0392909216919091179055600180548190610a2c908290610d8a565b81548110610a3c57610a3c610da1565b600091825260208083209091015483546001818101865594845291832090910180546001600160a01b0319166001600160a01b0390921691909117905581549091610a8691610d8a565b90505b610a94856001610db7565b8114610b15576001610aa68183610d8a565b81548110610ab657610ab6610da1565b600091825260209091200154600180546001600160a01b039092169183908110610ae257610ae2610da1565b9060005260206000200160006101000a8154816001600160a01b0302191690836001600160a01b03160217905550610a89565b816001610b228782610db7565b81548110610b3257610b32610da1565b600091825260209091200180546001600160a01b0319166001600160a01b0392909216919091179055506001949350505050565b60008060008481548110610b7c57610b7c610da1565b600091825260208220015481546001600160a01b03909116925084919086908110610ba957610ba9610da1565b6000918252602082200180546001600160a01b0319166001600160a01b03939093169290921790915580548190610be290600190610d8a565b81548110610bf257610bf2610da1565b600091825260208083209091015483546001818101865594845291832090910180546001600160a01b0319166001600160a01b0390921691909117905580549091610c3c91610d8a565b90505b610c4a856001610db7565b8114610cca576000610c5d600183610d8a565b81548110610c6d57610c6d610da1565b600091825260208220015481546001600160a01b03909116919083908110610c9757610c97610da1565b9060005260206000200160006101000a8154816001600160a01b0302191690836001600160a01b03160217905550610c3f565b816000610b22876001610db7565b61016580610dff83390190565b6020808252825182820181905260009190848201906040850190845b81811015610d265783516001600160a01b031683529284019291840191600101610d01565b50909695505050505050565b600060208284031215610d4457600080fd5b5051919050565b600060208284031215610d5d57600080fd5b81518015158114610d6d57600080fd5b9392505050565b634e487b7160e01b600052601160045260246000fd5b600082821015610d9c57610d9c610d74565b500390565b634e487b7160e01b600052603260045260246000fd5b60008219821115610dca57610dca610d74565b500190565b600060018201610de157610de1610d74565b5060010190565b634e487b7160e01b600052603160045260246000fdfe608060405234801561001057600080fd5b5060405161016538038061016583398101604081905261002f9161007f565b600080546001600160a01b039485166001600160a01b03199182161790915560018054939094169216919091179091556002556100c2565b6001600160a01b038116811461007c57600080fd5b50565b60008060006060848603121561009457600080fd5b835161009f81610067565b60208501519093506100b081610067565b80925050604084015190509250925092565b6095806100d06000396000f3fe6080604052348015600f57600080fd5b506004361060285760003560e01c8063cb7b1c4414602d575b600080fd5b600054600154600254604080516001600160a01b03948516815293909216602084015282820152519081900360600190f3fea26469706673582212208fd9cb9892769548b74cc1019a871476ce23df08b40c75a05fef7340af5a2c6e64736f6c634300080f0033a26469706673582212209cddd553c42e249881de902551917e1982d1589cf1348a4add49461780bcb4fd64736f6c634300080f0033",
  "immutableReferences": {},
  "source": "// SPDX-License-Identifier: MIT\r\npragma solidity ^0.8.0;\r\n\r\nimport \"./Bid.sol\";\r\nimport \"./ActivationRequest.sol\";\r\nimport \"./ActivationOrder.sol\";\r\n\r\ncontract FlexibilityDP{\r\n    \r\n    ActivationRequest[] ARL;\r\n    Bid[] MOL;\r\n    uint256 currentDP;\r\n    ActivationOrder[] AOs;\r\n    \r\n    constructor(ActivationRequest[] memory _ARL, Bid[] memory _MOL, uint256 _currentDP) public{\r\n        ARL = _ARL;\r\n        MOL = _MOL;\r\n        currentDP = _currentDP;\r\n    }\r\n\r\n    function getARL() external view returns(ActivationRequest[] memory){\r\n        \r\n        return ARL;\r\n    }\r\n\r\n    function getMOL() external view returns(Bid[] memory){\r\n\r\n        return MOL;\r\n    }\r\n\r\n    function pop_ARL(uint _index) internal returns(ActivationRequest){\r\n        require((_index >= 0) &&( _index < ARL.length), \"not valid\");\r\n        ActivationRequest element = ARL[_index];\r\n        for (uint i=_index; i<ARL.length-1; i++){\r\n            ARL[i] = ARL[i+1];\r\n        }\r\n\r\n        ARL.pop(); \r\n\r\n        return element;\r\n    }\r\n\r\n    function pop_MOL(uint _index) internal returns(Bid){\r\n        require((_index >= 0) &&( _index < MOL.length), \"not valid\");\r\n        Bid element = MOL[_index];\r\n        for (uint i=_index; i<MOL.length -1; i++){\r\n            MOL[i] = MOL[i+1];\r\n        }\r\n        MOL.pop();\r\n\r\n        return element;\r\n    }\r\n\r\n    function insert_ARL(uint _index, ActivationRequest _AR) internal returns(bool){\r\n        ActivationRequest element = ARL[_index];\r\n        ARL[_index] = _AR;\r\n        ARL.push(ARL[ARL.length - 1]);\r\n        uint i = ARL.length-1;\r\n        while(i != _index +1){\r\n            ARL[i] = ARL[i-1];\r\n        }\r\n        ARL[_index+1] = element;\r\n        \r\n        return true;\r\n    }\r\n\r\n    function insert_MOL( uint _index, Bid _bid) internal returns(bool){\r\n        Bid element = MOL[_index];\r\n        MOL[_index] = _bid;\r\n        MOL.push(MOL[MOL.length - 1]);\r\n        uint i = MOL.length-1;\r\n        while(i != _index +1){\r\n            MOL[i] = MOL[i-1];\r\n        }\r\n        MOL[_index+1] = element;\r\n        \r\n        return true;\r\n    }\r\n\r\n    function createActivationOrder(Bid _bid, ActivationRequest _AR, uint256 _qte) internal{\r\n        ActivationOrder newAO = new ActivationOrder(_bid, _AR, _qte);\r\n        AOs.push(newAO);\r\n    }\r\n\r\n    function getAllActivationOrders() external view returns(ActivationOrder[] memory){\r\n        return AOs;\r\n    }\r\n\r\n    function dispatch() external returns(bool){\r\n        uint256 previousQte=0;\r\n        uint256 initialQte;\r\n        ActivationRequest currentAR;\r\n        Bid currentBid;\r\n        uint256 newBidQuantity;\r\n        uint256 newARQuantity;\r\n        uint256 currentAR_qte;\r\n        ActivationOrder newAO;\r\n        \r\n\r\n\r\n        while((MOL.length != 0) && (ARL.length != 0)){\r\n\r\n            currentAR = pop_ARL(0);\r\n            currentBid = pop_MOL(0);\r\n            currentAR_qte = ActivationRequest(currentAR).getQuantity();\r\n            initialQte = currentAR_qte;\r\n\r\n            if((previousQte >= 0) && (currentAR_qte < previousQte)) {\r\n                 ActivationRequest(currentAR).setStatus(1);\r\n            }\r\n\r\n            else if(Bid(currentBid).getQuantity() >= currentAR_qte){\r\n                newBidQuantity = Bid(currentBid).getQuantity() - currentAR_qte;\r\n                Bid(currentBid).setQuantity(newBidQuantity);\r\n                insert_MOL(0, currentBid);\r\n                //createActivationOrder(currentBid, currentAR , currentAR_qte);\r\n                newAO = new ActivationOrder(currentBid, currentAR, currentAR_qte);\r\n                AOs.push(newAO);\r\n                if(currentAR_qte == 0){\r\n                    ActivationRequest(currentAR).setStatus(2);\r\n\r\n                }\r\n            }\r\n            \r\n            else if (Bid(currentBid).getQuantity() < currentAR_qte) {\r\n                newARQuantity = currentAR_qte - Bid(currentBid).getQuantity();\r\n                ActivationRequest(currentAR).setQuantity(newARQuantity);\r\n                insert_ARL(0, currentAR);\r\n                //createActivationOrder(currentBid, currentAR, Bid(currentBid).getQuantity());\r\n                newAO = new ActivationOrder(currentBid, currentAR,Bid(currentBid).getQuantity());\r\n                AOs.push(newAO);\r\n            }\r\n\r\n            previousQte = initialQte;\r\n\r\n        }\r\n\r\n        return true;\r\n    }\r\n\r\n\r\n\r\n\r\n\r\n}\r\n",
  "sourcePath": "D:\\webdev projects\\flexibility\\fp-backend\\contracts\\FlexibilityDP.sol",
  "compiler": {
    "name": "solc",
    "version": "0.8.15+commit.e14f2714.Emscripten.clang"
  },
  "schemaVersion": "3.4.4",
  "updatedAt": "2022-07-20T12:14:25.807Z",
  "devdoc": {
    "kind": "dev",
    "methods": {},
    "version": 1
  },
  "userdoc": {
    "kind": "user",
    "methods": {},
    "version": 1
  }
}