{
  "contractName": "FlexibilityList",
  "abi": [
    {
      "inputs": [],
      "stateMutability": "nonpayable",
      "type": "constructor"
    },
    {
      "inputs": [
        {
          "internalType": "uint256",
          "name": "",
          "type": "uint256"
        }
      ],
      "name": "cfts",
      "outputs": [
        {
          "internalType": "contract CFT",
          "name": "",
          "type": "address"
        }
      ],
      "stateMutability": "view",
      "type": "function",
      "constant": true
    },
    {
      "inputs": [
        {
          "internalType": "uint256",
          "name": "",
          "type": "uint256"
        }
      ],
      "name": "products",
      "outputs": [
        {
          "internalType": "contract Product",
          "name": "",
          "type": "address"
        }
      ],
      "stateMutability": "view",
      "type": "function",
      "constant": true
    },
    {
      "inputs": [
        {
          "internalType": "address payable",
          "name": "_owner",
          "type": "address"
        },
        {
          "internalType": "address",
          "name": "_productID",
          "type": "address"
        },
        {
          "internalType": "uint256",
          "name": "_totalPower",
          "type": "uint256"
        },
        {
          "internalType": "uint256",
          "name": "_openingDate",
          "type": "uint256"
        },
        {
          "internalType": "uint256",
          "name": "_closingDate",
          "type": "uint256"
        },
        {
          "internalType": "string",
          "name": "_localization",
          "type": "string"
        }
      ],
      "name": "createCFT",
      "outputs": [],
      "stateMutability": "payable",
      "type": "function",
      "payable": true
    },
    {
      "inputs": [],
      "name": "getAllProducts",
      "outputs": [
        {
          "internalType": "contract Product[]",
          "name": "",
          "type": "address[]"
        }
      ],
      "stateMutability": "view",
      "type": "function",
      "constant": true
    },
    {
      "inputs": [],
      "name": "getAllCFTs",
      "outputs": [
        {
          "internalType": "contract CFT[]",
          "name": "",
          "type": "address[]"
        }
      ],
      "stateMutability": "view",
      "type": "function",
      "constant": true
    }
  ],
  "bytecode": "0x608060405234801561001057600080fd5b50603260405161001f9061010c565b6100299190610119565b604051809103906000f080158015610045573d6000803e3d6000fd5b50600180546001600160a01b03929092166001600160a01b0319928316811782556000805492830181558052600080516020614b9c8339815191529091018054909216179055604051600c9061009a9061010c565b6100a4919061019c565b604051809103906000f0801580156100c0573d6000803e3d6000fd5b50600280546001600160a01b03929092166001600160a01b0319928316811790915560008054600181018255908052600080516020614b9c83398151915201805490921617905561021f565b6107018061449b83390190565b60a08152600360a0820152620334a560ec1b60c082015260e06020820152600460e08201526336a3292960e11b6101008201526000610120806040840152610174818401600481526318d85c9960e21b602082015260400190565b838103606085015260018152602d60f81b602082015260809093019390935250604001919050565b60a08152600360a0820152620c92d360ea1b60c082015260e06020820152600460e08201526330a3292960e11b61010082015260006101208060408401526101f7818401600481526318d85c9960e21b602082015260400190565b838103606085015260018152602b60f81b602082015260809093019390935250604001919050565b61426d8061022e6000396000f3fe60806040526004361061004a5760003560e01c806302ee3a521461004f57806377144c201461007a5780637acc0b20146100b25780638c037100146100d2578063bf43a887146100e7575b600080fd5b34801561005b57600080fd5b506100646100fc565b60405161007191906102a1565b60405180910390f35b34801561008657600080fd5b5061009a6100953660046102ee565b61015e565b6040516001600160a01b039091168152602001610071565b3480156100be57600080fd5b5061009a6100cd3660046102ee565b610188565b6100e56100e036600461031f565b610198565b005b3480156100f357600080fd5b50610064610234565b6060600080548060200260200160405190810160405280929190818152602001828054801561015457602002820191906000526020600020905b81546001600160a01b03168152600190910190602001808311610136575b5050505050905090565b6003818154811061016e57600080fd5b6000918252602090912001546001600160a01b0316905081565b6000818154811061016e57600080fd5b6000878787878787876040516101ad90610294565b6101bd97969594939291906103d4565b604051809103906000f0801580156101d9573d6000803e3d6000fd5b50600380546001810182556000919091527fc2575a0e9e593c00f959f8c92f12db2869c3395a3b0502d05e2516446f71f85b0180546001600160a01b0319166001600160a01b03929092169190911790555050505050505050565b60606003805480602002602001604051908101604052809291908181526020018280548015610154576020028201919060005260206000209081546001600160a01b03168152600190910190602001808311610136575050505050905090565b613dff8061043983390190565b6020808252825182820181905260009190848201906040850190845b818110156102e25783516001600160a01b0316835292840192918401916001016102bd565b50909695505050505050565b60006020828403121561030057600080fd5b5035919050565b6001600160a01b038116811461031c57600080fd5b50565b600080600080600080600060c0888a03121561033a57600080fd5b873561034581610307565b9650602088013561035581610307565b955060408801359450606088013593506080880135925060a088013567ffffffffffffffff8082111561038757600080fd5b818a0191508a601f83011261039b57600080fd5b8135818111156103aa57600080fd5b8b60208285010111156103bc57600080fd5b60208301945080935050505092959891949750929550565b6001600160a01b0388811682528716602082015260408101869052606081018590526080810184905260c060a0820181905281018290526000828460e0840137600060e0848401015260e0601f19601f85011683010190509897505050505050505056fe608060405260405162003dff38038062003dff8339810160408190526200002691620000af565b600680546001600160a01b038089166001600160a01b031992831617909255600780549288169290911691909117905560088490556009839055600a829055600b62000073828262000265565b5050505050505062000331565b6001600160a01b03811681146200009657600080fd5b50565b634e487b7160e01b600052604160045260246000fd5b60008060008060008060c08789031215620000c957600080fd5b8651620000d68162000080565b80965050602080880151620000eb8162000080565b604089015160608a015160808b015160a08c0151939950919750955093506001600160401b03808211156200011f57600080fd5b818a0191508a601f8301126200013457600080fd5b81518181111562000149576200014962000099565b604051601f8201601f19908116603f0116810190838211818310171562000174576200017462000099565b816040528281528d868487010111156200018d57600080fd5b600093505b82841015620001b1578484018601518185018701529285019262000192565b82841115620001c35760008684830101525b8096505050505050509295509295509295565b600181811c90821680620001eb57607f821691505b6020821081036200020c57634e487b7160e01b600052602260045260246000fd5b50919050565b601f8211156200026057600081815260208120601f850160051c810160208610156200023b5750805b601f850160051c820191505b818110156200025c5782815560010162000247565b5050505b505050565b81516001600160401b0381111562000281576200028162000099565b6200029981620002928454620001d6565b8462000212565b602080601f831160018114620002d15760008415620002b85750858301515b600019600386901b1c1916600185901b1785556200025c565b600085815260208120601f198616915b828110156200030257888601518255948401946001909101908401620002e1565b5085821015620003215787850151600019600388901b60f8161c191681555b5050505050600190811b01905550565b613abe80620003416000396000f3fe608060405260043610620000fa5760003560e01c8063605823371162000095578063bb2279021162000060578063bb22790214620002a5578063c995600214620002bc578063cb831d6a14620002e8578063ef501d38146200030057600080fd5b806360582337146200022b578063623a81b8146200025057806383793e2014620002685780638d0f6da3146200028d57600080fd5b8063323d822f11620000d6578063323d822f146200017e5780634423c5f114620001bc57806356d9e23e14620001e15780635e377e99146200020657600080fd5b8062a4810314620000ff57806313af3b2114620001185780632d08c0f31462000148575b600080fd5b62000116620001103660046200108d565b62000318565b005b3480156200012557600080fd5b506200013062000473565b6040516200013f9190620010c3565b60405180910390f35b3480156200015557600080fd5b506200016d6200016736600462001112565b620004d7565b60405190151581526020016200013f565b3480156200018b57600080fd5b50620001a36200019d36600462001112565b6200058b565b6040516001600160a01b0390911681526020016200013f565b348015620001c957600080fd5b50620001a3620001db36600462001112565b620005b6565b348015620001ee57600080fd5b50620001a36200020036600462001112565b620005c7565b3480156200021357600080fd5b50620001a36200022536600462001112565b620005d8565b3480156200023857600080fd5b50620001a36200024a36600462001112565b620005e9565b3480156200025d57600080fd5b5062000130620005fa565b3480156200027557600080fd5b50620001a36200028736600462001112565b6200065c565b3480156200029a57600080fd5b50620001306200066d565b62000116620002b636600462001178565b620006cf565b348015620002c957600080fd5b50620002d46200095e565b6040516200013f969594939291906200124f565b348015620002f557600080fd5b506200013062000a47565b3480156200030d57600080fd5b506200013062000aa9565b60065483906001600160a01b03808316911614620003705760405162461bcd60e51b815260206004820152601060248201526f1b9bdd081bdddb995c881bd98810d19560821b60448201526064015b60405180910390fd5b8160095481118015620003845750600a5481105b620003c35760405162461bcd60e51b815260206004820152600e60248201526d6e6f742076616c6964206461746560901b604482015260640162000367565b600085600760009054906101000a90046001600160a01b031686600b8742604051620003ef9062000fc5565b6200040096959493929190620012ef565b604051809103906000f0801580156200041d573d6000803e3d6000fd5b50600080546001810182559080527f290decd9548b62a8d60345a988386fc84ba6bc95484008f6362f93160ef3e5630180546001600160a01b0319166001600160a01b0392909216919091179055505050505050565b60606004805480602002602001604051908101604052809291908181526020018280548015620004cd57602002820191906000526020600020905b81546001600160a01b03168152600190910190602001808311620004ae575b5050505050905090565b6000620004e48262000b0b565b50620004f08262000c1e565b5060006004600384604051620005069062000fd3565b6200051493929190620013b7565b604051809103906000f08015801562000531573d6000803e3d6000fd5b5060058054600180820183556000929092527f036b6384b5eca791c62761152d0c79bb0604c104a5fb6f4eb0703f3154bb3db00180546001600160a01b0319166001600160a01b0393909316929092179091559392505050565b600081815481106200059c57600080fd5b6000918252602090912001546001600160a01b0316905081565b600181815481106200059c57600080fd5b600581815481106200059c57600080fd5b600381815481106200059c57600080fd5b600481815481106200059c57600080fd5b60606005805480602002602001604051908101604052809291908181526020018280548015620004cd576020028201919060005260206000209081546001600160a01b03168152600190910190602001808311620004ae575050505050905090565b600281815481106200059c57600080fd5b60606001805480602002602001604051908101604052809291908181526020018280548015620004cd576020028201919060005260206000209081546001600160a01b03168152600190910190602001808311620004ae575050505050905090565b60065488906001600160a01b0390811690821603620007235760405162461bcd60e51b815260206004820152600f60248201526e1bdddb995c8818d85b89dd08189a59608a1b604482015260640162000367565b83838080601f016020809104026020016040519081016040528093929190818152602001838380828437600092019190915250506040516200076d9250600b915060200162001465565b6040516020818303038152906040528051906020012081604051602001620007969190620014e3565b604051602081830303815290604052805190602001201480620008055750604051601560f91b60208201526021016040516020818303038152906040528051906020012081604051602001620007ed9190620014e3565b60405160208183030381529060405280519060200120145b6200084c5760405162461bcd60e51b81526020600482015260166024820152753737ba103b30b634b2103637b1b0b634bd30ba34b7b760511b604482015260640162000367565b8260095481118015620008605750600a5481105b6200089f5760405162461bcd60e51b815260206004820152600e60248201526d6e6f742076616c6964206461746560901b604482015260640162000367565b60008b8b8b8b600760009054906101000a90046001600160a01b03168c8c8c8c42604051620008ce9062000fe1565b620008e39a999897969594939291906200152a565b604051809103906000f08015801562000900573d6000803e3d6000fd5b506001805480820182556000919091527fb10e2d527612073b26eecdfd717e6a320cf44b4afac2b0732d9fcbe2b7fa0cf60180546001600160a01b0319166001600160a01b0392909216919091179055505050505050505050505050565b60008060008060006060600660009054906101000a90046001600160a01b0316600760009054906101000a90046001600160a01b0316600854600954600a54600b808054620009ad90620012b3565b80601f0160208091040260200160405190810160405280929190818152602001828054620009db90620012b3565b801562000a2c5780601f1062000a005761010080835404028352916020019162000a2c565b820191906000526020600020905b81548152906001019060200180831162000a0e57829003601f168201915b50505050509050955095509550955095509550909192939495565b60606000805480602002602001604051908101604052809291908181526020018280548015620004cd576020028201919060005260206000209081546001600160a01b03168152600190910190602001808311620004ae575050505050905090565b60606003805480602002602001604051908101604052809291908181526020018280548015620004cd576020028201919060005260206000209081546001600160a01b03168152600190910190602001808311620004ae575050505050905090565b6000805b60005481101562000c1557826000828154811062000b315762000b3162001599565b6000918252602091829020015460408051630fc0beb560e31b815290516001600160a01b0390921692637e05f5a8926004808401938290030181865afa15801562000b80573d6000803e3d6000fd5b505050506040513d601f19601f8201168201806040525081019062000ba69190620015af565b1062000c005760046000828154811062000bc45762000bc462001599565b60009182526020808320909101548354600181018555938352912090910180546001600160a01b0319166001600160a01b039092169190911790555b8062000c0c81620015df565b91505062000b0f565b50600192915050565b6000805b60015481101562000d2957826001828154811062000c445762000c4462001599565b6000918252602091829020015460408051630fc0beb560e31b815290516001600160a01b0390921692637e05f5a8926004808401938290030181865afa15801562000c93573d6000803e3d6000fd5b505050506040513d601f19601f8201168201806040525081019062000cb99190620015af565b111562000d145760026001828154811062000cd85762000cd862001599565b60009182526020808320909101548354600181018555938352912090910180546001600160a01b0319166001600160a01b039092169190911790555b8062000d2081620015df565b91505062000c22565b5062000d91600280548060200260200160405190810160405280929190818152602001828054801562000d8657602002820191906000526020600020905b81546001600160a01b0316815260019091019060200180831162000d67575b505050505062000da7565b805162000c159160039160209091019062000fef565b60606000805b6001845162000dbd9190620015fb565b81101562000fbd57600062000dd482600162001615565b90505b845181101562000fa75784818151811062000df65762000df662001599565b60200260200101516001600160a01b03166398d5fdca6040518163ffffffff1660e01b8152600401602060405180830381865afa15801562000e3c573d6000803e3d6000fd5b505050506040513d601f19601f8201168201806040525081019062000e629190620015af565b85838151811062000e775762000e7762001599565b60200260200101516001600160a01b03166398d5fdca6040518163ffffffff1660e01b8152600401602060405180830381865afa15801562000ebd573d6000803e3d6000fd5b505050506040513d601f19601f8201168201806040525081019062000ee39190620015af565b111562000f925784828151811062000eff5762000eff62001599565b6020026020010151925084818151811062000f1e5762000f1e62001599565b602002602001015185838151811062000f3b5762000f3b62001599565b60200260200101906001600160a01b031690816001600160a01b0316815250508285828151811062000f715762000f7162001599565b60200260200101906001600160a01b031690816001600160a01b0316815250505b8062000f9e81620015df565b91505062000dd7565b508062000fb481620015df565b91505062000dad565b509192915050565b6108f5806200163183390190565b6113868062001f2683390190565b6107dd80620032ac83390190565b82805482825590600052602060002090810192821562001047579160200282015b828111156200104757825182546001600160a01b0319166001600160a01b0390911617825560209092019160019091019062001010565b506200105592915062001059565b5090565b5b808211156200105557600081556001016200105a565b80356001600160a01b03811681146200108857600080fd5b919050565b600080600060608486031215620010a357600080fd5b620010ae8462001070565b95602085013595506040909401359392505050565b6020808252825182820181905260009190848201906040850190845b81811015620011065783516001600160a01b031683529284019291840191600101620010df565b50909695505050505050565b6000602082840312156200112557600080fd5b5035919050565b60008083601f8401126200113f57600080fd5b50813567ffffffffffffffff8111156200115857600080fd5b6020830191508360208285010111156200117157600080fd5b9250929050565b60008060008060008060008060c0898b0312156200119557600080fd5b620011a08962001070565b9750602089013567ffffffffffffffff80821115620011be57600080fd5b620011cc8c838d016200112c565b909950975060408b0135965060608b0135955060808b0135915080821115620011f457600080fd5b50620012038b828c016200112c565b999c989b50969995989497949560a00135949350505050565b60005b83811015620012395781810151838201526020016200121f565b8381111562001249576000848401525b50505050565b600060018060a01b03808916835280881660208401525085604083015284606083015283608083015260c060a083015282518060c08401526200129a8160e08501602087016200121c565b601f01601f19169190910160e001979650505050505050565b600181811c90821680620012c857607f821691505b602082108103620012e957634e487b7160e01b600052602260045260246000fd5b50919050565b6001600160a01b03878116825286166020808301919091526040820186905260c06060830152845460009182916200132781620012b3565b8060c087015260e06001808416600081146200134c5760018114620013675762001397565b60ff1985168984015283151560051b89018301965062001397565b8b6000528560002060005b858110156200138f5781548b820186015290830190870162001372565b8a0184019750505b5050505050608084019590955260a0909201929092529695505050505050565b600060608201606083528086548083526080850191506000925087835260208320835b82811015620014035781546001600160a01b0316845260208401935060019182019101620013da565b50505083810360208501528086548083526020830191508784526020842092505b80841015620014505782546001600160a01b031682526001938401939092019160209091019062001424565b50809350505050826040830152949350505050565b60008083546200147581620012b3565b60018281168015620014905760018114620014a657620014d7565b60ff1984168752821515830287019450620014d7565b8760005260208060002060005b85811015620014ce5781548a820152908401908201620014b3565b50505082870194505b50929695505050505050565b60008251620014f78184602087016200121c565b9190910192915050565b81835281816020850137506000828201602090810191909152601f909101601f19169091010190565b6001600160a01b038b8116825261010060208301819052600091620015538483018d8f62001501565b91508a6040850152808a1660608501525087608084015282810360a08401526200157f81878962001501565b60c0840195909552505060e0015298975050505050505050565b634e487b7160e01b600052603260045260246000fd5b600060208284031215620015c257600080fd5b5051919050565b634e487b7160e01b600052601160045260246000fd5b600060018201620015f457620015f4620015c9565b5060010190565b600082821015620016105762001610620015c9565b500390565b600082198211156200162b576200162b620015c9565b50019056fe60806040526040516108f53803806108f5833981016040819052610022916100af565b600080546001600160a01b038089166001600160a01b031992831617909255600180549288169290911691909117905560028490556003610063848261024d565b5060049190915560055550506006805460ff191690555061030c9050565b6001600160a01b038116811461009657600080fd5b50565b634e487b7160e01b600052604160045260246000fd5b60008060008060008060c087890312156100c857600080fd5b86516100d381610081565b809650506020808801516100e681610081565b604089015160608a015191975095506001600160401b038082111561010a57600080fd5b818a0191508a601f83011261011e57600080fd5b81518181111561013057610130610099565b604051601f8201601f19908116603f0116810190838211818310171561015857610158610099565b816040528281528d8684870101111561017057600080fd5b600093505b828410156101925784840186015181850187015292850192610175565b828411156101a35760008684830101525b8098505050505050506080870151915060a087015190509295509295509295565b600181811c908216806101d857607f821691505b6020821081036101f857634e487b7160e01b600052602260045260246000fd5b50919050565b601f82111561024857600081815260208120601f850160051c810160208610156102255750805b601f850160051c820191505b8181101561024457828155600101610231565b5050505b505050565b81516001600160401b0381111561026657610266610099565b61027a8161027484546101c4565b846101fe565b602080601f8311600181146102af57600084156102975750858301515b600019600386901b1c1916600185901b178555610244565b600085815260208120601f198616915b828110156102de578886015182559484019460019091019084016102bf565b50858210156102fc5787850151600019600388901b60f8161c191681555b5050505050600190811b01905550565b6105da8061031b6000396000f3fe608060405234801561001057600080fd5b50600436106100885760003560e01c806369ba1a751161005b57806369ba1a75146100f95780637debdde91461010c5780637e05f5a814610114578063893d20e81461011c57600080fd5b80630115949c1461008d5780630bf15326146100a457806311cdd1dd146100ca5780634e69d560146100e4575b600080fd5b6002545b6040519081526020015b60405180910390f35b6100ba6100b236600461046b565b600255600190565b604051901515815260200161009b565b6100d2610137565b60405161009b969594939291906104d1565b6100ec610216565b60405161009b9190610519565b6100ba61010736600461046b565b610368565b6100ec6103d9565b600554610091565b6000546040516001600160a01b03909116815260200161009b565b6000806000606060008060008054906101000a90046001600160a01b0316600160009054906101000a90046001600160a01b0316600254600360045460055482805461018290610533565b80601f01602080910402602001604051908101604052809291908181526020018280546101ae90610533565b80156101fb5780601f106101d0576101008083540402835291602001916101fb565b820191906000526020600020905b8154815290600101906020018083116101de57829003601f168201915b50505050509250955095509550955095509550909192939495565b60065460609060ff1660048111156102305761023061056d565b600003610259575060408051808201909152600781526650656e64696e6760c81b602082015290565b60065460ff1660048111156102705761027061056d565b6001036102a45750604080518082019091526012815271139bc8189a591cc81bdb881d1a19481353d360721b602082015290565b60065460ff1660048111156102bb576102bb61056d565b6002036102f1575060408051808201909152601481527304e6f20666565646261636b2066726f6d204653560641b602082015290565b60065460ff1660048111156103085761030861056d565b60030361032d5760405180606001604052806021815260200161058460219139905090565b6040518060400160405280602081526020017f41637469766174696f6e206f726465722072656a656374656420627920465350815250905090565b60008160010361038b57600680546001919060ff191682805b02179055506103d1565b816002036103a757600680546002919060ff1916600183610381565b816003036103c357600680546003919060ff1916600183610381565b6006805460ff191660041790555b506001919050565b6060600380546103e890610533565b80601f016020809104026020016040519081016040528092919081815260200182805461041490610533565b80156104615780601f1061043657610100808354040283529160200191610461565b820191906000526020600020905b81548152906001019060200180831161044457829003601f168201915b5050505050905090565b60006020828403121561047d57600080fd5b5035919050565b6000815180845260005b818110156104aa5760208185018101518683018201520161048e565b818111156104bc576000602083870101525b50601f01601f19169290920160200192915050565b6001600160a01b038781168252861660208201526040810185905260c06060820181905260009061050490830186610484565b60808301949094525060a00152949350505050565b60208152600061052c6020830184610484565b9392505050565b600181811c9082168061054757607f821691505b60208210810361056757634e487b7160e01b600052602260045260246000fd5b50919050565b634e487b7160e01b600052602160045260246000fdfe41637469766174696f6e206f7264657220636f6e6669726d656420627920465350a264697066735822122072a6ad83e7a287c675123e99f4a2fc844369f42c2156e5e772020ee826c05e6b64736f6c634300080f003360806040523480156200001157600080fd5b5060405162001386380380620013868339810160408190526200003491620001f3565b8251620000499060009060208601906200006c565b5081516200005f9060019060208501906200006c565b5060025550620002ce9050565b828054828255906000526020600020908101928215620000c4579160200282015b82811115620000c457825182546001600160a01b0319166001600160a01b039091161782556020909201916001909101906200008d565b50620000d2929150620000d6565b5090565b5b80821115620000d25760008155600101620000d7565b634e487b7160e01b600052604160045260246000fd5b604051601f8201601f191681016001600160401b03811182821017156200012e576200012e620000ed565b604052919050565b60006001600160401b03821115620001525762000152620000ed565b5060051b60200190565b6001600160a01b03811681146200017257600080fd5b50565b600082601f8301126200018757600080fd5b81516020620001a06200019a8362000136565b62000103565b82815260059290921b84018101918181019086841115620001c057600080fd5b8286015b84811015620001e8578051620001da816200015c565b8352918301918301620001c4565b509695505050505050565b6000806000606084860312156200020957600080fd5b83516001600160401b03808211156200022157600080fd5b818601915086601f8301126200023657600080fd5b81516020620002496200019a8362000136565b82815260059290921b8401810191818101908a8411156200026957600080fd5b948201945b838610156200029457855162000284816200015c565b825294820194908201906200026e565b91890151919750909350505080821115620002ae57600080fd5b50620002bd8682870162000175565b925050604084015190509250925092565b6110a880620002de6000396000f3fe608060405234801561001057600080fd5b506004361061004c5760003560e01c806313af3b2114610051578063b7dec4e21461006f578063e9c4a3ac14610077578063ef501d381461008f575b600080fd5b610059610097565b6040516100669190610ce5565b60405180910390f35b6100596100f9565b61007f610159565b6040519015158152602001610066565b6100596106f4565b606060008054806020026020016040519081016040528092919081815260200182805480156100ef57602002820191906000526020600020905b81546001600160a01b031681526001909101906020018083116100d1575b5050505050905090565b606060038054806020026020016040519081016040528092919081815260200182805480156100ef576020028201919060005260206000209081546001600160a01b031681526001909101906020018083116100d1575050505050905090565b600080808080808080805b60015415801590610176575060005415155b156106e5576101856000610754565b95506101916000610896565b9450856001600160a01b0316630115949c6040518163ffffffff1660e01b8152600401602060405180830381865afa1580156101d1573d6000803e3d6000fd5b505050506040513d601f19601f820116820180604052508101906101f59190610d32565b965086915087821015610274576040516369ba1a7560e01b8152600160048201526001600160a01b038716906369ba1a75906024015b6020604051808303816000875af115801561024a573d6000803e3d6000fd5b505050506040513d601f19601f8201168201806040525081019061026e9190610d4b565b506106dd565b81856001600160a01b0316630115949c6040518163ffffffff1660e01b8152600401602060405180830381865afa1580156102b3573d6000803e3d6000fd5b505050506040513d601f19601f820116820180604052508101906102d79190610d32565b106104945781856001600160a01b0316630115949c6040518163ffffffff1660e01b8152600401602060405180830381865afa15801561031b573d6000803e3d6000fd5b505050506040513d601f19601f8201168201806040525081019061033f9190610d32565b6103499190610d8a565b6040516305f8a99360e11b8152600481018290529094506001600160a01b03861690630bf15326906024016020604051808303816000875af1158015610393573d6000803e3d6000fd5b505050506040513d601f19601f820116820180604052508101906103b79190610d4b565b506103c36000866109ad565b508486836040516103d390610cd8565b6001600160a01b0393841681529290911660208301526040820152606001604051809103906000f08015801561040d573d6000803e3d6000fd5b506003805460018101825560009182527fc2575a0e9e593c00f959f8c92f12db2869c3395a3b0502d05e2516446f71f85b0180546001600160a01b0319166001600160a01b03841617905590915082900361048f576040516369ba1a7560e01b8152600260048201526001600160a01b038716906369ba1a759060240161022b565b6106dd565b81856001600160a01b0316630115949c6040518163ffffffff1660e01b8152600401602060405180830381865afa1580156104d3573d6000803e3d6000fd5b505050506040513d601f19601f820116820180604052508101906104f79190610d32565b10156106dd57846001600160a01b0316630115949c6040518163ffffffff1660e01b8152600401602060405180830381865afa15801561053b573d6000803e3d6000fd5b505050506040513d601f19601f8201168201806040525081019061055f9190610d32565b6105699083610d8a565b6040516305f8a99360e11b8152600481018290529093506001600160a01b03871690630bf15326906024016020604051808303816000875af11580156105b3573d6000803e3d6000fd5b505050506040513d601f19601f820116820180604052508101906105d79190610d4b565b506105e3600087610b66565b508486866001600160a01b0316630115949c6040518163ffffffff1660e01b8152600401602060405180830381865afa158015610624573d6000803e3d6000fd5b505050506040513d601f19601f820116820180604052508101906106489190610d32565b60405161065490610cd8565b6001600160a01b0393841681529290911660208301526040820152606001604051809103906000f08015801561068e573d6000803e3d6000fd5b50600380546001810182556000919091527fc2575a0e9e593c00f959f8c92f12db2869c3395a3b0502d05e2516446f71f85b0180546001600160a01b0319166001600160a01b03831617905590505b869750610164565b60019850505050505050505090565b606060018054806020026020016040519081016040528092919081815260200182805480156100ef576020028201919060005260206000209081546001600160a01b031681526001909101906020018083116100d1575050505050905090565b6000805482106107975760405162461bcd60e51b81526020600482015260096024820152681b9bdd081d985b1a5960ba1b60448201526064015b60405180910390fd5b60008083815481106107ab576107ab610da1565b6000918252602090912001546001600160a01b03169050825b6000546107d390600190610d8a565b81101561085c5760006107e7826001610db7565b815481106107f7576107f7610da1565b600091825260208220015481546001600160a01b0390911691908390811061082157610821610da1565b600091825260209091200180546001600160a01b0319166001600160a01b03929092169190911790558061085481610dcf565b9150506107c4565b50600080548061086e5761086e610de8565b600082815260209020810160001990810180546001600160a01b031916905501905592915050565b600060015482106108d55760405162461bcd60e51b81526020600482015260096024820152681b9bdd081d985b1a5960ba1b604482015260640161078e565b6000600183815481106108ea576108ea610da1565b6000918252602090912001546001600160a01b03169050825b600180546109119190610d8a565b81101561099b5760016109248282610db7565b8154811061093457610934610da1565b600091825260209091200154600180546001600160a01b03909216918390811061096057610960610da1565b600091825260209091200180546001600160a01b0319166001600160a01b03929092169190911790558061099381610dcf565b915050610903565b50600180548061086e5761086e610de8565b600080600184815481106109c3576109c3610da1565b600091825260209091200154600180546001600160a01b0390921692508491869081106109f2576109f2610da1565b600091825260209091200180546001600160a01b0319166001600160a01b0392909216919091179055600180548190610a2c908290610d8a565b81548110610a3c57610a3c610da1565b600091825260208083209091015483546001818101865594845291832090910180546001600160a01b0319166001600160a01b0390921691909117905581549091610a8691610d8a565b90505b610a94856001610db7565b8114610b15576001610aa68183610d8a565b81548110610ab657610ab6610da1565b600091825260209091200154600180546001600160a01b039092169183908110610ae257610ae2610da1565b9060005260206000200160006101000a8154816001600160a01b0302191690836001600160a01b03160217905550610a89565b816001610b228782610db7565b81548110610b3257610b32610da1565b600091825260209091200180546001600160a01b0319166001600160a01b0392909216919091179055506001949350505050565b60008060008481548110610b7c57610b7c610da1565b600091825260208220015481546001600160a01b03909116925084919086908110610ba957610ba9610da1565b6000918252602082200180546001600160a01b0319166001600160a01b03939093169290921790915580548190610be290600190610d8a565b81548110610bf257610bf2610da1565b600091825260208083209091015483546001818101865594845291832090910180546001600160a01b0319166001600160a01b0390921691909117905580549091610c3c91610d8a565b90505b610c4a856001610db7565b8114610cca576000610c5d600183610d8a565b81548110610c6d57610c6d610da1565b600091825260208220015481546001600160a01b03909116919083908110610c9757610c97610da1565b9060005260206000200160006101000a8154816001600160a01b0302191690836001600160a01b03160217905550610c3f565b816000610b22876001610db7565b61027480610dff83390190565b6020808252825182820181905260009190848201906040850190845b81811015610d265783516001600160a01b031683529284019291840191600101610d01565b50909695505050505050565b600060208284031215610d4457600080fd5b5051919050565b600060208284031215610d5d57600080fd5b81518015158114610d6d57600080fd5b9392505050565b634e487b7160e01b600052601160045260246000fd5b600082821015610d9c57610d9c610d74565b500390565b634e487b7160e01b600052603260045260246000fd5b60008219821115610dca57610dca610d74565b500190565b600060018201610de157610de1610d74565b5060010190565b634e487b7160e01b600052603160045260246000fdfe608060405234801561001057600080fd5b5060405161027438038061027483398101604081905261002f9161007f565b600080546001600160a01b039485166001600160a01b03199182161790915560018054939094169216919091179091556002556100c2565b6001600160a01b038116811461007c57600080fd5b50565b60008060006060848603121561009457600080fd5b835161009f81610067565b60208501519093506100b081610067565b80925050604084015190509250925092565b6101a3806100d16000396000f3fe608060405234801561001057600080fd5b50600436106100415760003560e01c806313fc80d3146100465780635f29a5ee14610063578063cb7b1c441461006b575b600080fd5b61004e61009a565b60405190151581526020015b60405180910390f35b61004e610113565b600054600154600254604080516001600160a01b0394851681529390921660208401529082015260600161005a565b6001546040516369ba1a7560e01b8152600360048201526000916001600160a01b0316906369ba1a75906024015b6020604051808303816000875af11580156100e7573d6000803e3d6000fd5b505050506040513d601f19601f8201168201806040525081019061010b9190610144565b506001905090565b6001546040516369ba1a7560e01b81526004808201526000916001600160a01b0316906369ba1a75906024016100c8565b60006020828403121561015657600080fd5b8151801515811461016657600080fd5b939250505056fea26469706673582212208d28818698035210b335b265a0691a06ad444e0f2786f966ca65fc90865168cd64736f6c634300080f0033a2646970667358221220baf5e4a5624150ca746b525020dde80f62cbeadd14b1156892cb56b9046ffde464736f6c634300080f003360806040526040516107dd3803806107dd8339810160408190526100229161016b565b600080546001600160a01b0319166001600160a01b038a16179055600161004988826102a4565b506002869055600380546001600160a01b0319166001600160a01b0387161790556004849055600561007b84826102a4565b5060069190915560075550610363945050505050565b6001600160a01b03811681146100a657600080fd5b50565b634e487b7160e01b600052604160045260246000fd5b600082601f8301126100d057600080fd5b81516001600160401b03808211156100ea576100ea6100a9565b604051601f8301601f19908116603f01168101908282118183101715610112576101126100a9565b8160405283815260209250868385880101111561012e57600080fd5b600091505b838210156101505785820183015181830184015290820190610133565b838211156101615760008385830101525b9695505050505050565b600080600080600080600080610100898b03121561018857600080fd5b885161019381610091565b60208a01519098506001600160401b03808211156101b057600080fd5b6101bc8c838d016100bf565b985060408b0151975060608b015191506101d582610091565b60808b015160a08c01519297509550808211156101f157600080fd5b506101fe8b828c016100bf565b60c08b015160e0909b0151999c989b509699959894979350505050565b600181811c9082168061022f57607f821691505b60208210810361024f57634e487b7160e01b600052602260045260246000fd5b50919050565b601f82111561029f57600081815260208120601f850160051c8101602086101561027c5750805b601f850160051c820191505b8181101561029b57828155600101610288565b5050505b505050565b81516001600160401b038111156102bd576102bd6100a9565b6102d1816102cb845461021b565b84610255565b602080601f83116001811461030657600084156102ee5750858301515b600019600386901b1c1916600185901b17855561029b565b600085815260208120601f198616915b8281101561033557888601518255948401946001909101908401610316565b50858210156103535787850151600019600388901b60f8161c191681555b5050505050600190811b01905550565b61046b806103726000396000f3fe608060405234801561001057600080fd5b506004361061007d5760003560e01c80637debdde91161005b5780637debdde9146100c75780637e05f5a8146100dc578063861d7799146100e457806398d5fdca1461010057600080fd5b80630115949c146100825780630bf15326146100995780632b3e7a68146100bf575b600080fd5b6004545b6040519081526020015b60405180910390f35b6100af6100a7366004610314565b600455600190565b6040519015158152602001610090565b600654610086565b6100cf610108565b604051610090919061037a565b600754610086565b6100ec61019a565b604051610090989796959493929190610394565b600254610086565b606060058054610117906103fb565b80601f0160208091040260200160405190810160405280929190818152602001828054610143906103fb565b80156101905780601f1061016557610100808354040283529160200191610190565b820191906000526020600020905b81548152906001019060200180831161017357829003601f168201915b5050505050905090565b600060606000806000606060008060008054906101000a90046001600160a01b03166001600254600360009054906101000a90046001600160a01b031660045460056006546007548680546101ee906103fb565b80601f016020809104026020016040519081016040528092919081815260200182805461021a906103fb565b80156102675780601f1061023c57610100808354040283529160200191610267565b820191906000526020600020905b81548152906001019060200180831161024a57829003601f168201915b5050505050965082805461027a906103fb565b80601f01602080910402602001604051908101604052809291908181526020018280546102a6906103fb565b80156102f35780601f106102c8576101008083540402835291602001916102f3565b820191906000526020600020905b8154815290600101906020018083116102d657829003601f168201915b50505050509250975097509750975097509750975097509091929394959697565b60006020828403121561032657600080fd5b5035919050565b6000815180845260005b8181101561035357602081850181015186830182015201610337565b81811115610365576000602083870101525b50601f01601f19169290920160200192915050565b60208152600061038d602083018461032d565b9392505050565b6001600160a01b038981168252610100602083018190526000916103ba8483018c61032d565b915089604085015280891660608501525086608084015282810360a08401526103e3818761032d565b60c0840195909552505060e001529695505050505050565b600181811c9082168061040f57607f821691505b60208210810361042f57634e487b7160e01b600052602260045260246000fd5b5091905056fea2646970667358221220fcdd1234e43b9adbb4628f8a11c7eb486291fb71704f3f44c8d99860fc2ad87a64736f6c634300080f0033a2646970667358221220299e6251ab57a00bc35e98f2c341d2d43c2d368a06ca7fb51a45f2bb6820166c64736f6c634300080f0033a2646970667358221220966b52b89ca461f95867d9ae46431da37df6ee18cfffd07192ee97774fd5b2f964736f6c634300080f0033608060405234801561001057600080fd5b5060405161070138038061070183398101604081905261002f91610132565b600061003b8682610271565b5060016100488582610271565b5060026100558482610271565b5060036100628382610271565b506004555061033092505050565b634e487b7160e01b600052604160045260246000fd5b600082601f83011261009757600080fd5b81516001600160401b03808211156100b1576100b1610070565b604051601f8301601f19908116603f011681019082821181831017156100d9576100d9610070565b816040528381526020925086838588010111156100f557600080fd5b600091505b8382101561011757858201830151818301840152908201906100fa565b838211156101285760008385830101525b9695505050505050565b600080600080600060a0868803121561014a57600080fd5b85516001600160401b038082111561016157600080fd5b61016d89838a01610086565b9650602088015191508082111561018357600080fd5b61018f89838a01610086565b955060408801519150808211156101a557600080fd5b6101b189838a01610086565b945060608801519150808211156101c757600080fd5b506101d488828901610086565b925050608086015190509295509295909350565b600181811c908216806101fc57607f821691505b60208210810361021c57634e487b7160e01b600052602260045260246000fd5b50919050565b601f82111561026c57600081815260208120601f850160051c810160208610156102495750805b601f850160051c820191505b8181101561026857828155600101610255565b5050505b505050565b81516001600160401b0381111561028a5761028a610070565b61029e8161029884546101e8565b84610222565b602080601f8311600181146102d357600084156102bb5750858301515b600019600386901b1c1916600185901b178555610268565b600085815260208120601f198616915b82811015610302578886015182559484019460019091019084016102e3565b50858210156103205787850151600019600388901b60f8161c191681555b5050505050600190811b01905550565b6103c28061033f6000396000f3fe608060405234801561001057600080fd5b506004361061002b5760003560e01c806323bc839b14610030575b600080fd5b610038610052565b6040516100499594939291906102f2565b60405180910390f35b60608060608060008060016002600360045484805461007090610352565b80601f016020809104026020016040519081016040528092919081815260200182805461009c90610352565b80156100e95780601f106100be576101008083540402835291602001916100e9565b820191906000526020600020905b8154815290600101906020018083116100cc57829003601f168201915b505050505094508380546100fc90610352565b80601f016020809104026020016040519081016040528092919081815260200182805461012890610352565b80156101755780601f1061014a57610100808354040283529160200191610175565b820191906000526020600020905b81548152906001019060200180831161015857829003601f168201915b5050505050935082805461018890610352565b80601f01602080910402602001604051908101604052809291908181526020018280546101b490610352565b80156102015780601f106101d657610100808354040283529160200191610201565b820191906000526020600020905b8154815290600101906020018083116101e457829003601f168201915b5050505050925081805461021490610352565b80601f016020809104026020016040519081016040528092919081815260200182805461024090610352565b801561028d5780601f106102625761010080835404028352916020019161028d565b820191906000526020600020905b81548152906001019060200180831161027057829003601f168201915b50505050509150945094509450945094509091929394565b6000815180845260005b818110156102cb576020818501810151868301820152016102af565b818111156102dd576000602083870101525b50601f01601f19169290920160200192915050565b60a08152600061030560a08301886102a5565b828103602084015261031781886102a5565b9050828103604084015261032b81876102a5565b9050828103606084015261033f81866102a5565b9150508260808301529695505050505050565b600181811c9082168061036657607f821691505b60208210810361038657634e487b7160e01b600052602260045260246000fd5b5091905056fea26469706673582212200d116d741b7f26748b2916f8536ac0e82d94e0d4770d5ad1f578f50e288c52c164736f6c634300080f0033290decd9548b62a8d60345a988386fc84ba6bc95484008f6362f93160ef3e563",
  "immutableReferences": {},
  "source": "// SPDX-License-Identifier: MIT\npragma solidity ^0.8.0;\n\nimport \"./Product.sol\";\nimport \"./CFT.sol\";\n\ncontract FlexibilityList {\n    Product[] public products;\n    Product mFRR;\n    Product aFRR;\n    CFT[] public cfts;\n\n    constructor() {\n        mFRR = new Product(\"3JP\", \"mFRR\", \"card\", \"-\", 50);\n        products.push(mFRR);\n        aFRR = new Product(\"2KL\", \"aFRR\", \"card\", \"+\", 12);\n        products.push(aFRR);\n    }\n\n    function createCFT(\n        address payable _owner,\n        address _productID,\n        uint256 _totalPower,\n        uint256 _openingDate,\n        uint256 _closingDate,\n        string calldata _localization\n    ) external payable {\n        CFT newCFT = new CFT(\n            _owner,\n            _productID,\n            _totalPower,\n            _openingDate,\n            _closingDate,\n            _localization\n        );\n        cfts.push(newCFT);\n    }\n\n    function getAllProducts() external view returns (Product[] memory) {\n        return products;\n    }\n\n    function getAllCFTs() external view returns (CFT[] memory) {\n        return cfts;\n    }\n}\n",
  "sourcePath": "/home/linna/Desktop/Flexibility/Flexibility-backend/contracts/FlexibilityList.sol",
  "compiler": {
    "name": "solc",
    "version": "0.8.15+commit.e14f2714.Emscripten.clang"
  },
  "schemaVersion": "3.4.8",
  "updatedAt": "2022-07-25T12:21:39.606Z",
  "networkType": "ethereum",
  "devdoc": {
    "kind": "dev",
    "methods": {},
    "version": 1
  },
  "userdoc": {
    "kind": "user",
    "methods": {},
    "version": 1
  }
}