{
  "contractName": "FlexibilityList",
  "abi": [
    {
      "inputs": [],
      "stateMutability": "nonpayable",
      "type": "constructor"
    },
    {
      "inputs": [
        {
          "internalType": "uint256",
          "name": "",
          "type": "uint256"
        }
      ],
      "name": "cfts",
      "outputs": [
        {
          "internalType": "contract CFT",
          "name": "",
          "type": "address"
        }
      ],
      "stateMutability": "view",
      "type": "function",
      "constant": true
    },
    {
      "inputs": [
        {
          "internalType": "uint256",
          "name": "",
          "type": "uint256"
        }
      ],
      "name": "inprogressCFTs",
      "outputs": [
        {
          "internalType": "contract CFT",
          "name": "",
          "type": "address"
        }
      ],
      "stateMutability": "view",
      "type": "function",
      "constant": true
    },
    {
      "inputs": [
        {
          "internalType": "uint256",
          "name": "",
          "type": "uint256"
        }
      ],
      "name": "products",
      "outputs": [
        {
          "internalType": "contract Product",
          "name": "",
          "type": "address"
        }
      ],
      "stateMutability": "view",
      "type": "function",
      "constant": true
    },
    {
      "inputs": [
        {
          "internalType": "uint256",
          "name": "",
          "type": "uint256"
        }
      ],
      "name": "upcomingCFTs",
      "outputs": [
        {
          "internalType": "contract CFT",
          "name": "",
          "type": "address"
        }
      ],
      "stateMutability": "view",
      "type": "function",
      "constant": true
    },
    {
      "inputs": [
        {
          "internalType": "address payable",
          "name": "_owner",
          "type": "address"
        },
        {
          "internalType": "address",
          "name": "_productID",
          "type": "address"
        },
        {
          "internalType": "uint256",
          "name": "_totalPower",
          "type": "uint256"
        },
        {
          "internalType": "uint256",
          "name": "_openingDate",
          "type": "uint256"
        },
        {
          "internalType": "uint256",
          "name": "_closingDate",
          "type": "uint256"
        },
        {
          "internalType": "string",
          "name": "_localization",
          "type": "string"
        }
      ],
      "name": "createCFT",
      "outputs": [],
      "stateMutability": "payable",
      "type": "function",
      "payable": true
    },
    {
      "inputs": [],
      "name": "getAllProducts",
      "outputs": [
        {
          "internalType": "contract Product[]",
          "name": "",
          "type": "address[]"
        }
      ],
      "stateMutability": "view",
      "type": "function",
      "constant": true
    },
    {
      "inputs": [],
      "name": "getAllCFTs",
      "outputs": [
        {
          "internalType": "contract CFT[]",
          "name": "",
          "type": "address[]"
        }
      ],
      "stateMutability": "view",
      "type": "function",
      "constant": true
    }
  ],
  "bytecode": "0x608060405234801561001057600080fd5b50603260405161001f9061010c565b6100299190610119565b604051809103906000f080158015610045573d6000803e3d6000fd5b50600180546001600160a01b03929092166001600160a01b031992831681178255600080549283018155805260008051602061558b8339815191529091018054909216179055604051600c9061009a9061010c565b6100a4919061019c565b604051809103906000f0801580156100c0573d6000803e3d6000fd5b50600280546001600160a01b03929092166001600160a01b031992831681179091556000805460018101825590805260008051602061558b83398151915201805490921617905561021f565b6107bf80614dcc83390190565b60a08152600360a0820152620334a560ec1b60c082015260e06020820152600460e08201526336a3292960e11b6101008201526000610120806040840152610174818401600481526318d85c9960e21b602082015260400190565b838103606085015260018152602d60f81b602082015260809093019390935250604001919050565b60a08152600360a0820152620c92d360ea1b60c082015260e06020820152600460e08201526330a3292960e11b61010082015260006101208060408401526101f7818401600481526318d85c9960e21b602082015260400190565b838103606085015260018152602b60f81b602082015260809093019390935250604001919050565b614b9e8061022e6000396000f3fe6080604052600436106100705760003560e01c806377144c201161004e57806377144c20146100f85780637acc0b20146101185780638c03710014610138578063bf43a8871461014d57600080fd5b806302ee3a52146100755780631f1256f9146100a0578063281d9b38146100d8575b600080fd5b34801561008157600080fd5b5061008a610162565b6040516100979190610370565b60405180910390f35b3480156100ac57600080fd5b506100c06100bb3660046103bd565b6101c4565b6040516001600160a01b039091168152602001610097565b3480156100e457600080fd5b506100c06100f33660046103bd565b6101ee565b34801561010457600080fd5b506100c06101133660046103bd565b6101fe565b34801561012457600080fd5b506100c06101333660046103bd565b61020e565b61014b6101463660046103ee565b61021e565b005b34801561015957600080fd5b5061008a610302565b606060008054806020026020016040519081016040528092919081815260200182805480156101ba57602002820191906000526020600020905b81546001600160a01b0316815260019091019060200180831161019c575b5050505050905090565b600581815481106101d457600080fd5b6000918252602090912001546001600160a01b0316905081565b600481815481106101d457600080fd5b600381815481106101d457600080fd5b600081815481106101d457600080fd5b83838181116102645760405162461bcd60e51b815260206004820152600e60248201526d6e6f742076616c6964204461746560901b604482015260640160405180910390fd5b60008989898989898960405161027990610362565b61028997969594939291906104a3565b604051809103906000f0801580156102a5573d6000803e3d6000fd5b50600380546001810182556000919091527fc2575a0e9e593c00f959f8c92f12db2869c3395a3b0502d05e2516446f71f85b0180546001600160a01b0319166001600160a01b039290921691909117905550505050505050505050565b606060038054806020026020016040519081016040528092919081815260200182805480156101ba576020028201919060005260206000209081546001600160a01b0316815260019091019060200180831161019c575050505050905090565b614661806200050883390190565b6020808252825182820181905260009190848201906040850190845b818110156103b15783516001600160a01b03168352928401929184019160010161038c565b50909695505050505050565b6000602082840312156103cf57600080fd5b5035919050565b6001600160a01b03811681146103eb57600080fd5b50565b600080600080600080600060c0888a03121561040957600080fd5b8735610414816103d6565b96506020880135610424816103d6565b955060408801359450606088013593506080880135925060a088013567ffffffffffffffff8082111561045657600080fd5b818a0191508a601f83011261046a57600080fd5b81358181111561047957600080fd5b8b602082850101111561048b57600080fd5b60208301945080935050505092959891949750929550565b6001600160a01b0388811682528716602082015260408101869052606081018590526080810184905260c060a0820181905281018290526000828460e0840137600060e0848401015260e0601f19601f85011683010190509897505050505050505056fe608060405260405162004661380380620046618339810160408190526200002691620000af565b600680546001600160a01b038089166001600160a01b031992831617909255600780549288169290911691909117905560088490556009839055600a829055600b6200007382826200025b565b5050505050505062000327565b6001600160a01b03811681146200009657600080fd5b50565b634e487b7160e01b600052604160045260246000fd5b60008060008060008060c08789031215620000c957600080fd5b8651620000d68162000080565b80965050602080880151620000eb8162000080565b604089015160608a015160808b015160a08c0151939950919750955093506001600160401b03808211156200011f57600080fd5b818a0191508a601f8301126200013457600080fd5b81518181111562000149576200014962000099565b604051601f8201601f19908116603f0116810190838211818310171562000174576200017462000099565b816040528281528d868487010111156200018d57600080fd5b600093505b82841015620001b1578484018601518185018701529285019262000192565b60008684830101528096505050505050509295509295509295565b600181811c90821680620001e157607f821691505b6020821081036200020257634e487b7160e01b600052602260045260246000fd5b50919050565b601f8211156200025657600081815260208120601f850160051c81016020861015620002315750805b601f850160051c820191505b8181101562000252578281556001016200023d565b5050505b505050565b81516001600160401b0381111562000277576200027762000099565b6200028f81620002888454620001cc565b8462000208565b602080601f831160018114620002c75760008415620002ae5750858301515b600019600386901b1c1916600185901b17855562000252565b600085815260208120601f198616915b82811015620002f857888601518255948401946001909101908401620002d7565b5085821015620003175787850151600019600388901b60f8161c191681555b5050505050600190811b01905550565b61432a80620003376000396000f3fe6080604052600436106200012a5760003560e01c80636bd450f511620000ad578063bb227902116200006c578063bb22790214620002f4578063c9956002146200030b578063cb831d6a1462000337578063df8e5ae0146200034f578063ef501d38146200036757600080fd5b80636bd450f5146200025457806383793e2014620002885780638d0f6da314620002ad5780638f29743114620002c5578063ba95478d14620002dc57600080fd5b8063401245bf11620000fa578063401245bf14620001cd5780634423c5f114620001d757806356d9e23e14620001fc5780635fadcc1e1462000221578063623a81b8146200023c57600080fd5b8062a48103146200012f57806313af3b211462000148578063323d822f14620001785780633d76021114620001b6575b600080fd5b620001466200014036600462001792565b6200037f565b005b3480156200015557600080fd5b506200016062000542565b6040516200016f9190620017ca565b60405180910390f35b3480156200018557600080fd5b506200019d6200019736600462001819565b620005a6565b6040516001600160a01b0390911681526020016200016f565b62000146620001c736600462001833565b620005d1565b6200014662000879565b348015620001e457600080fd5b506200019d620001f636600462001819565b6200090b565b3480156200020957600080fd5b506200019d6200021b36600462001819565b6200091c565b6200022b6200092d565b60405190151581526020016200016f565b3480156200024957600080fd5b506200016062000b6e565b3480156200026157600080fd5b50620002796200027336600462001856565b62000bd0565b6040516200016f9190620018d1565b3480156200029557600080fd5b506200019d620002a736600462001819565b62000c41565b348015620002ba57600080fd5b506200016062000c52565b62000146620002d636600462001833565b62000cb4565b348015620002e957600080fd5b506200016062000eb7565b620001466200030536600462001932565b62000f19565b3480156200031857600080fd5b5062000323620011ec565b6040516200016f96959493929190620019d8565b3480156200034457600080fd5b5062000160620012d5565b3480156200035c57600080fd5b506200019d62001337565b3480156200037457600080fd5b50620001606200137a565b60065483906001600160a01b03808316911614620003d75760405162461bcd60e51b815260206004820152601060248201526f1b9bdd081bdddb995c881bd98810d19560821b60448201526064015b60405180910390fd5b8160095481118015620003eb5750600a5481105b6200042a5760405162461bcd60e51b815260206004820152600e60248201526d6e6f742076616c6964206461746560901b6044820152606401620003ce565b8360085462000438620013dc565b62000444908362001a39565b11158015620004535750600081115b620004915760405162461bcd60e51b815260206004820152600d60248201526c6e6f742076616c69642071746560981b6044820152606401620003ce565b600086600760009054906101000a90046001600160a01b031687600b8842604051620004bd90620016ce565b620004ce9695949392919062001a8b565b604051809103906000f080158015620004eb573d6000803e3d6000fd5b50600080546001810182559080527f290decd9548b62a8d60345a988386fc84ba6bc95484008f6362f93160ef3e5630180546001600160a01b0319166001600160a01b039290921691909117905550505050505050565b606060048054806020026020016040519081016040528092919081815260200182805480156200059c57602002820191906000526020600020905b81546001600160a01b031681526001909101906020018083116200057d575b5050505050905090565b60008181548110620005b757600080fd5b6000918252602090912001546001600160a01b0316905081565b8181808210620006135760405162461bcd60e51b815260206004820152600c60248201526b06e6f742076616c69642064760a41b6044820152606401620003ce565b60408051600081526020810191829052516200063291600291620016dc565b5060408051600081526020810191829052516200065291600391620016dc565b5060005b600154811015620007f457846001828154811062000678576200067862001b69565b6000918252602091829020015460408051630567cf4d60e31b815290516001600160a01b0390921692632b3e7a68926004808401938290030181865afa158015620006c7573d6000803e3d6000fd5b505050506040513d601f19601f82011682018060405250810190620006ed919062001b7f565b1015801562000785575083600182815481106200070e576200070e62001b69565b6000918252602091829020015460408051630567cf4d60e31b815290516001600160a01b0390921692632b3e7a68926004808401938290030181865afa1580156200075d573d6000803e3d6000fd5b505050506040513d601f19601f8201168201806040525081019062000783919062001b7f565b105b15620007df57600260018281548110620007a357620007a362001b69565b60009182526020808320909101548354600181018555938352912090910180546001600160a01b0319166001600160a01b039092169190911790555b80620007eb8162001b99565b91505062000656565b506200085c60028054806020026020016040519081016040528092919081815260200182805480156200085157602002820191906000526020600020905b81546001600160a01b0316815260019091019060200180831162000832575b5050505050620014b0565b80516200087291600391602090910190620016dc565b5050505050565b6000600d60036040516200088d9062001746565b6200089a92919062001bb5565b604051809103906000f080158015620008b7573d6000803e3d6000fd5b50600580546001810182556000919091527f036b6384b5eca791c62761152d0c79bb0604c104a5fb6f4eb0703f3154bb3db00180546001600160a01b0319166001600160a01b039290921691909117905550565b60018181548110620005b757600080fd5b60058181548110620005b757600080fd5b600080805b60045481101562000b6557816004828154811062000954576200095462001b69565b60009182526020918290200154604080516245652760e21b815290516001600160a01b0390921692630115949c926004808401938290030181865afa158015620009a2573d6000803e3d6000fd5b505050506040513d601f19601f82011682018060405250810190620009c8919062001b7f565b111562000a2857600d60048281548110620009e757620009e762001b69565b60009182526020808320909101548354600181018555938352912090910180546001600160a01b0319166001600160a01b0390921691909117905562000ac4565b6004818154811062000a3e5762000a3e62001b69565b9060005260206000200160009054906101000a90046001600160a01b03166001600160a01b031663c03366296040518163ffffffff1660e01b81526004016020604051808303816000875af115801562000a9c573d6000803e3d6000fd5b505050506040513d601f19601f8201168201806040525081019062000ac2919062001c59565b505b6004818154811062000ada5762000ada62001b69565b60009182526020918290200154604080516245652760e21b815290516001600160a01b0390921692630115949c926004808401938290030181865afa15801562000b28573d6000803e3d6000fd5b505050506040513d601f19601f8201168201806040525081019062000b4e919062001b7f565b91508062000b5c8162001b99565b91505062000932565b50600191505090565b606060058054806020026020016040519081016040528092919081815260200182805480156200059c576020028201919060005260206000209081546001600160a01b031681526001909101906020018083116200057d575050505050905090565b6060816001600160a01b031663dfaf02216040518163ffffffff1660e01b8152600401600060405180830381865afa15801562000c11573d6000803e3d6000fd5b505050506040513d6000823e601f3d908101601f1916820160405262000c3b919081019062001c7d565b92915050565b60028181548110620005b757600080fd5b606060018054806020026020016040519081016040528092919081815260200182805480156200059c576020028201919060005260206000209081546001600160a01b031681526001909101906020018083116200057d575050505050905090565b818180821062000cf65760405162461bcd60e51b815260206004820152600c60248201526b06e6f742076616c69642064760a41b6044820152606401620003ce565b604080516000815260208101918290525162000d1591600491620016dc565b5060005b6000548110156200087257846000828154811062000d3b5762000d3b62001b69565b6000918252602091829020015460408051630567cf4d60e31b815290516001600160a01b0390921692632b3e7a68926004808401938290030181865afa15801562000d8a573d6000803e3d6000fd5b505050506040513d601f19601f8201168201806040525081019062000db0919062001b7f565b1015801562000e485750836000828154811062000dd15762000dd162001b69565b6000918252602091829020015460408051630567cf4d60e31b815290516001600160a01b0390921692632b3e7a68926004808401938290030181865afa15801562000e20573d6000803e3d6000fd5b505050506040513d601f19601f8201168201806040525081019062000e46919062001b7f565b105b1562000ea25760046000828154811062000e665762000e6662001b69565b60009182526020808320909101548354600181018555938352912090910180546001600160a01b0319166001600160a01b039092169190911790555b8062000eae8162001b99565b91505062000d19565b6060600d8054806020026020016040519081016040528092919081815260200182805480156200059c576020028201919060005260206000209081546001600160a01b031681526001909101906020018083116200057d575050505050905090565b60065488906001600160a01b039081169082160362000f6d5760405162461bcd60e51b815260206004820152600f60248201526e1bdddb995c8818d85b89dd08189a59608a1b6044820152606401620003ce565b83838080601f0160208091040260200160405190810160405280939291908181526020018383808284376000920191909152505060405162000fb79250600b915060200162001d36565b604051602081830303815290604052805190602001208160405160200162000fe0919062001db4565b6040516020818303038152906040528051906020012014806200104f5750604051601560f91b6020820152602101604051602081830303815290604052805190602001208160405160200162001037919062001db4565b60405160208183030381529060405280519060200120145b620010965760405162461bcd60e51b81526020600482015260166024820152753737ba103b30b634b2103637b1b0b634bd30ba34b7b760511b6044820152606401620003ce565b8260095481118015620010aa5750600a5481105b620010e95760405162461bcd60e51b815260206004820152600e60248201526d6e6f742076616c6964206461746560901b6044820152606401620003ce565b86600081116200112c5760405162461bcd60e51b815260206004820152600d60248201526c6e6f742076616c69642071746560981b6044820152606401620003ce565b60008c8c8c8c600760009054906101000a90046001600160a01b03168d8d8d8d426040516200115b9062001754565b620011709a9998979695949392919062001dfb565b604051809103906000f0801580156200118d573d6000803e3d6000fd5b506001805480820182556000919091527fb10e2d527612073b26eecdfd717e6a320cf44b4afac2b0732d9fcbe2b7fa0cf60180546001600160a01b0319166001600160a01b039290921691909117905550505050505050505050505050565b60008060008060006060600660009054906101000a90046001600160a01b0316600760009054906101000a90046001600160a01b0316600854600954600a54600b8080546200123b9062001a4f565b80601f0160208091040260200160405190810160405280929190818152602001828054620012699062001a4f565b8015620012ba5780601f106200128e57610100808354040283529160200191620012ba565b820191906000526020600020905b8154815290600101906020018083116200129c57829003601f168201915b50505050509050955095509550955095509550909192939495565b606060008054806020026020016040519081016040528092919081815260200182805480156200059c576020028201919060005260206000209081546001600160a01b031681526001909101906020018083116200057d575050505050905090565b60058054600091906200134d9060019062001e6a565b8154811062001360576200136062001b69565b6000918252602090912001546001600160a01b0316919050565b606060038054806020026020016040519081016040528092919081815260200182805480156200059c576020028201919060005260206000209081546001600160a01b031681526001909101906020018083116200057d575050505050905090565b6000600c819055805b600054811015620014a8576000818154811062001406576200140662001b69565b60009182526020918290200154604080516245652760e21b815290516001600160a01b0390921692630115949c926004808401938290030181865afa15801562001454573d6000803e3d6000fd5b505050506040513d601f19601f820116820180604052508101906200147a919062001b7f565b600c60008282546200148d919062001a39565b909155508190506200149f8162001b99565b915050620013e5565b5050600c5490565b60606000805b60018451620014c6919062001e6a565b811015620016c6576000620014dd82600162001a39565b90505b8451811015620016b057848181518110620014ff57620014ff62001b69565b60200260200101516001600160a01b03166398d5fdca6040518163ffffffff1660e01b8152600401602060405180830381865afa15801562001545573d6000803e3d6000fd5b505050506040513d601f19601f820116820180604052508101906200156b919062001b7f565b85838151811062001580576200158062001b69565b60200260200101516001600160a01b03166398d5fdca6040518163ffffffff1660e01b8152600401602060405180830381865afa158015620015c6573d6000803e3d6000fd5b505050506040513d601f19601f82011682018060405250810190620015ec919062001b7f565b11156200169b5784828151811062001608576200160862001b69565b6020026020010151925084818151811062001627576200162762001b69565b602002602001015185838151811062001644576200164462001b69565b60200260200101906001600160a01b031690816001600160a01b031681525050828582815181106200167a576200167a62001b69565b60200260200101906001600160a01b031690816001600160a01b0316815250505b80620016a78162001b99565b915050620014e0565b5080620016bd8162001b99565b915050620014b6565b509192915050565b6107348062001e8183390190565b82805482825590600052602060002090810192821562001734579160200282015b828111156200173457825182546001600160a01b0319166001600160a01b03909116178255602090920191600190910190620016fd565b506200174292915062001762565b5090565b61154b80620025b583390190565b6107f58062003b0083390190565b5b8082111562001742576000815560010162001763565b6001600160a01b03811681146200178f57600080fd5b50565b600080600060608486031215620017a857600080fd5b8335620017b58162001779565b95602085013595506040909401359392505050565b6020808252825182820181905260009190848201906040850190845b818110156200180d5783516001600160a01b031683529284019291840191600101620017e6565b50909695505050505050565b6000602082840312156200182c57600080fd5b5035919050565b600080604083850312156200184757600080fd5b50508035926020909101359150565b6000602082840312156200186957600080fd5b8135620018768162001779565b9392505050565b60005b838110156200189a57818101518382015260200162001880565b50506000910152565b60008151808452620018bd8160208601602086016200187d565b601f01601f19169290920160200192915050565b602081526000620018766020830184620018a3565b60008083601f840112620018f957600080fd5b50813567ffffffffffffffff8111156200191257600080fd5b6020830191508360208285010111156200192b57600080fd5b9250929050565b60008060008060008060008060c0898b0312156200194f57600080fd5b88356200195c8162001779565b9750602089013567ffffffffffffffff808211156200197a57600080fd5b620019888c838d01620018e6565b909950975060408b0135965060608b0135955060808b0135915080821115620019b057600080fd5b50620019bf8b828c01620018e6565b999c989b50969995989497949560a00135949350505050565b600060018060a01b03808916835280881660208401525085604083015284606083015283608083015260c060a083015262001a1760c0830184620018a3565b98975050505050505050565b634e487b7160e01b600052601160045260246000fd5b8082018082111562000c3b5762000c3b62001a23565b600181811c9082168062001a6457607f821691505b60208210810362001a8557634e487b7160e01b600052602260045260246000fd5b50919050565b6001600160a01b03878116825286166020808301919091526040820186905260c060608301528454600091829162001ac38162001a4f565b8060c087015260e060018084166000811462001ae8576001811462001b035762001b33565b60ff1985168984015283151560051b89018301965062001b33565b8b6000528560002060005b8581101562001b2b5781548b820186015290830190870162001b0e565b8a0184019750505b5050505050608084019590955260a0909201929092529695505050505050565b634e487b7160e01b600052604160045260246000fd5b634e487b7160e01b600052603260045260246000fd5b60006020828403121562001b9257600080fd5b5051919050565b60006001820162001bae5762001bae62001a23565b5060010190565b600060408201604083528085548083526060850191506000925086835260208320835b8281101562001c015781546001600160a01b031684526020840193506001918201910162001bd8565b50505083810360208501528085548083526020830191508684526020842092505b8084101562001c4e5782546001600160a01b031682526001938401939092019160209091019062001c22565b509695505050505050565b60006020828403121562001c6c57600080fd5b815180151581146200187657600080fd5b60006020828403121562001c9057600080fd5b815167ffffffffffffffff8082111562001ca957600080fd5b818401915084601f83011262001cbe57600080fd5b81518181111562001cd35762001cd362001b53565b604051601f8201601f19908116603f0116810190838211818310171562001cfe5762001cfe62001b53565b8160405282815287602084870101111562001d1857600080fd5b62001d2b8360208301602088016200187d565b979650505050505050565b600080835462001d468162001a4f565b6001828116801562001d61576001811462001d775762001da8565b60ff198416875282151583028701945062001da8565b8760005260208060002060005b8581101562001d9f5781548a82015290840190820162001d84565b50505082870194505b50929695505050505050565b6000825162001dc88184602087016200187d565b9190910192915050565b81835281816020850137506000828201602090810191909152601f909101601f19169091010190565b6001600160a01b038b811682526101006020830181905260009162001e248483018d8f62001dd2565b91508a6040850152808a1660608501525087608084015282810360a084015262001e5081878962001dd2565b60c0840195909552505060e0015298975050505050505050565b8181038181111562000c3b5762000c3b62001a2356fe6080604052604051610734380380610734833981016040819052610022916100af565b600080546001600160a01b038089166001600160a01b0319928316179092556001805492881692909116919091179055600284905560036100638482610244565b5060049190915560055550506006805460ff19169055506103039050565b6001600160a01b038116811461009657600080fd5b50565b634e487b7160e01b600052604160045260246000fd5b60008060008060008060c087890312156100c857600080fd5b86516100d381610081565b809650506020808801516100e681610081565b604089015160608a015191975095506001600160401b038082111561010a57600080fd5b818a0191508a601f83011261011e57600080fd5b81518181111561013057610130610099565b604051601f8201601f19908116603f0116810190838211818310171561015857610158610099565b816040528281528d8684870101111561017057600080fd5b600093505b828410156101925784840186015181850187015292850192610175565b60008684830101528098505050505050506080870151915060a087015190509295509295509295565b600181811c908216806101cf57607f821691505b6020821081036101ef57634e487b7160e01b600052602260045260246000fd5b50919050565b601f82111561023f57600081815260208120601f850160051c8101602086101561021c5750805b601f850160051c820191505b8181101561023b57828155600101610228565b5050505b505050565b81516001600160401b0381111561025d5761025d610099565b6102718161026b84546101bb565b846101f5565b602080601f8311600181146102a6576000841561028e5750858301515b600019600386901b1c1916600185901b17855561023b565b600085815260208120601f198616915b828110156102d5578886015182559484019460019091019084016102b6565b50858210156102f35787850151600019600388901b60f8161c191681555b5050505050600190811b01905550565b610422806103126000396000f3fe608060405234801561001057600080fd5b50600436106100935760003560e01c80634e69d560116100665780634e69d560146100f75780637debdde91461010a5780637e05f5a81461011f578063893d20e814610127578063c03366291461014257600080fd5b80630115949c146100985780630bf15326146100af57806311cdd1dd146100d55780632b3e7a68146100ef575b600080fd5b6002545b6040519081526020015b60405180910390f35b6100c56100bd3660046102c9565b600255600190565b60405190151581526020016100a6565b6100dd610158565b6040516100a696959493929190610328565b60045461009c565b60065460ff166040516100a69190610370565b610112610237565b6040516100a69190610398565b60055461009c565b6000546040516001600160a01b0390911681526020016100a6565b6100c56006805460ff1916600190811790915590565b6000806000606060008060008054906101000a90046001600160a01b0316600160009054906101000a90046001600160a01b031660025460036004546005548280546101a3906103b2565b80601f01602080910402602001604051908101604052809291908181526020018280546101cf906103b2565b801561021c5780601f106101f15761010080835404028352916020019161021c565b820191906000526020600020905b8154815290600101906020018083116101ff57829003601f168201915b50505050509250955095509550955095509550909192939495565b606060038054610246906103b2565b80601f0160208091040260200160405190810160405280929190818152602001828054610272906103b2565b80156102bf5780601f10610294576101008083540402835291602001916102bf565b820191906000526020600020905b8154815290600101906020018083116102a257829003601f168201915b5050505050905090565b6000602082840312156102db57600080fd5b5035919050565b6000815180845260005b81811015610308576020818501810151868301820152016102ec565b506000602082860101526020601f19601f83011685010191505092915050565b6001600160a01b038781168252861660208201526040810185905260c06060820181905260009061035b908301866102e2565b60808301949094525060a00152949350505050565b602081016002831061039257634e487b7160e01b600052602160045260246000fd5b91905290565b6020815260006103ab60208301846102e2565b9392505050565b600181811c908216806103c657607f821691505b6020821081036103e657634e487b7160e01b600052602260045260246000fd5b5091905056fea2646970667358221220825e443fd6f8d916a143994f036e54938966556fba734f01bcca2ca10a1917d864736f6c6343000810003360806040523480156200001157600080fd5b506040516200154b3803806200154b8339810160408190526200003491620001ef565b81516200004990600090602085019062000068565b5080516200005f90600190602084019062000068565b505050620002c1565b828054828255906000526020600020908101928215620000c0579160200282015b82811115620000c057825182546001600160a01b0319166001600160a01b0390911617825560209092019160019091019062000089565b50620000ce929150620000d2565b5090565b5b80821115620000ce5760008155600101620000d3565b634e487b7160e01b600052604160045260246000fd5b604051601f8201601f191681016001600160401b03811182821017156200012a576200012a620000e9565b604052919050565b60006001600160401b038211156200014e576200014e620000e9565b5060051b60200190565b6001600160a01b03811681146200016e57600080fd5b50565b600082601f8301126200018357600080fd5b815160206200019c620001968362000132565b620000ff565b82815260059290921b84018101918181019086841115620001bc57600080fd5b8286015b84811015620001e4578051620001d68162000158565b8352918301918301620001c0565b509695505050505050565b600080604083850312156200020357600080fd5b82516001600160401b03808211156200021b57600080fd5b818501915085601f8301126200023057600080fd5b8151602062000243620001968362000132565b82815260059290921b840181019181810190898411156200026357600080fd5b948201945b838610156200028e5785516200027e8162000158565b8252948201949082019062000268565b91880151919650909350505080821115620002a857600080fd5b50620002b78582860162000171565b9150509250929050565b61127a80620002d16000396000f3fe60806040526004361061004a5760003560e01c80630a3f36aa1461004f57806313af3b21146100a5578063b7dec4e2146100c7578063e9c4a3ac146100e9578063ef501d3814610101575b600080fd5b34801561005b57600080fd5b5060025460035460045461007a926001600160a01b0390811692169083565b604080516001600160a01b039485168152939092166020840152908201526060015b60405180910390f35b3480156100b157600080fd5b506100ba610116565b60405161009c91906110a6565b3480156100d357600080fd5b506100dc610178565b60405161009c91906110f3565b6100f16101ff565b604051901515815260200161009c565b34801561010d57600080fd5b506100ba6109f0565b6060600080548060200260200160405190810160405280929190818152602001828054801561016e57602002820191906000526020600020905b81546001600160a01b03168152600190910190602001808311610150575b5050505050905090565b60606005805480602002602001604051908101604052809291908181526020016000905b828210156101f6576000848152602090819020604080516060810182526003860290920180546001600160a01b0390811684526001808301549091168486015260029091015491830191909152908352909201910161019c565b50505050905090565b60005b60015415801590610214575060005415155b156109ea5760006102256000610a50565b905060006102336000610b98565b90506000826001600160a01b0316630115949c6040518163ffffffff1660e01b8152600401602060405180830381865afa158015610275573d6000803e3d6000fd5b505050506040513d601f19601f820116820180604052508101906102999190611158565b826001600160a01b0316630115949c6040518163ffffffff1660e01b8152600401602060405180830381865afa1580156102d7573d6000803e3d6000fd5b505050506040513d601f19601f820116820180604052508101906102fb9190611158565b11156104b457816001600160a01b0316630bf153266103dd856001600160a01b0316630115949c6040518163ffffffff1660e01b8152600401602060405180830381865afa158015610351573d6000803e3d6000fd5b505050506040513d601f19601f820116820180604052508101906103759190611158565b856001600160a01b0316630115949c6040518163ffffffff1660e01b8152600401602060405180830381865afa1580156103b3573d6000803e3d6000fd5b505050506040513d601f19601f820116820180604052508101906103d79190611158565b90610cb1565b6040518263ffffffff1660e01b81526004016103fb91815260200190565b6020604051808303816000875af115801561041a573d6000803e3d6000fd5b505050506040513d601f19601f8201168201806040525081019061043e9190611171565b5061044a600083610cc6565b50826001600160a01b0316630115949c6040518163ffffffff1660e01b8152600401602060405180830381865afa158015610489573d6000803e3d6000fd5b505050506040513d601f19601f820116820180604052508101906104ad9190611158565b9050610846565b826001600160a01b0316630115949c6040518163ffffffff1660e01b8152600401602060405180830381865afa1580156104f2573d6000803e3d6000fd5b505050506040513d601f19601f820116820180604052508101906105169190611158565b826001600160a01b0316630115949c6040518163ffffffff1660e01b8152600401602060405180830381865afa158015610554573d6000803e3d6000fd5b505050506040513d601f19601f820116820180604052508101906105789190611158565b101561077457826001600160a01b0316630bf15326610630846001600160a01b0316630115949c6040518163ffffffff1660e01b8152600401602060405180830381865afa1580156105ce573d6000803e3d6000fd5b505050506040513d601f19601f820116820180604052508101906105f29190611158565b866001600160a01b0316630115949c6040518163ffffffff1660e01b8152600401602060405180830381865afa1580156103b3573d6000803e3d6000fd5b6040518263ffffffff1660e01b815260040161064e91815260200190565b6020604051808303816000875af115801561066d573d6000803e3d6000fd5b505050506040513d601f19601f820116820180604052508101906106919190611171565b5061069d600084610ed7565b50816001600160a01b0316630115949c6040518163ffffffff1660e01b8152600401602060405180830381865afa1580156106dc573d6000803e3d6000fd5b505050506040513d601f19601f820116820180604052508101906107009190611158565b6040516305f8a99360e11b8152600060048201529091506001600160a01b03831690630bf15326906024016020604051808303816000875af115801561074a573d6000803e3d6000fd5b505050506040513d601f19601f8201168201806040525081019061076e9190611171565b50610846565b816001600160a01b0316630115949c6040518163ffffffff1660e01b8152600401602060405180830381865afa1580156107b2573d6000803e3d6000fd5b505050506040513d601f19601f820116820180604052508101906107d69190611158565b6040516305f8a99360e11b8152600060048201529091506001600160a01b03831690630bf15326906024016020604051808303816000875af1158015610820573d6000803e3d6000fd5b505050506040513d601f19601f820116820180604052508101906108449190611171565b505b6109e1826001600160a01b031663893d20e86040518163ffffffff1660e01b8152600401602060405180830381865afa158015610887573d6000803e3d6000fd5b505050506040513d601f19601f820116820180604052508101906108ab919061119a565b846001600160a01b031663893d20e86040518163ffffffff1660e01b8152600401602060405180830381865afa1580156108e9573d6000803e3d6000fd5b505050506040513d601f19601f8201168201806040525081019061090d919061119a565b600280546001600160a01b039384166001600160a01b03199182168117909255600380549385169382169390931783556004868155600580546001818101835560009290925285027f036b6384b5eca791c62761152d0c79bb0604c104a5fb6f4eb0703f3154bb3db081018054851690951790945593547f036b6384b5eca791c62761152d0c79bb0604c104a5fb6f4eb0703f3154bb3db184018054909316951694909417905591547f036b6384b5eca791c62761152d0c79bb0604c104a5fb6f4eb0703f3154bb3db29092019190915590565b50505050610202565b50600190565b6060600180548060200260200160405190810160405280929190818152602001828054801561016e576020028201919060005260206000209081546001600160a01b03168152600190910190602001808311610150575050505050905090565b60006001548210610a985760405162461bcd60e51b815260206004820152600d60248201526c1b9bdd081d985b1a59081353d3609a1b60448201526064015b60405180910390fd5b600060018381548110610aad57610aad6111c3565b6000918252602090912001546001600160a01b03169050825b60018054610ad491906111ef565b811015610b5e576001610ae78282611202565b81548110610af757610af76111c3565b600091825260209091200154600180546001600160a01b039092169183908110610b2357610b236111c3565b600091825260209091200180546001600160a01b0319166001600160a01b039290921691909117905580610b5681611215565b915050610ac6565b506001805480610b7057610b7061122e565b600082815260209020810160001990810180546001600160a01b031916905501905592915050565b600080548210610bda5760405162461bcd60e51b815260206004820152600d60248201526c1b9bdd081d985b1a5908105493609a1b6044820152606401610a8f565b6000808381548110610bee57610bee6111c3565b6000918252602090912001546001600160a01b03169050825b600054610c16906001906111ef565b811015610c9f576000610c2a826001611202565b81548110610c3a57610c3a6111c3565b600091825260208220015481546001600160a01b03909116919083908110610c6457610c646111c3565b600091825260209091200180546001600160a01b0319166001600160a01b039290921691909117905580610c9781611215565b915050610c07565b506000805480610b7057610b7061122e565b6000610cbd82846111ef565b90505b92915050565b600080548103610d1d57600080546001810182559080527f290decd9548b62a8d60345a988386fc84ba6bc95484008f6362f93160ef3e5630180546001600160a01b0319166001600160a01b038416179055610ece565b6000808481548110610d3157610d316111c3565b600091825260208220015481546001600160a01b03909116925084919086908110610d5e57610d5e6111c3565b6000918252602082200180546001600160a01b0319166001600160a01b03939093169290921790915580548190610d97906001906111ef565b81548110610da757610da76111c3565b600091825260208083209091015483546001818101865594845291832090910180546001600160a01b0319166001600160a01b0390921691909117905580549091610df1916111ef565b90505b610dff856001611202565b8114610e7f576000610e126001836111ef565b81548110610e2257610e226111c3565b600091825260208220015481546001600160a01b03909116919083908110610e4c57610e4c6111c3565b9060005260206000200160006101000a8154816001600160a01b0302191690836001600160a01b03160217905550610df4565b816000610e8d876001611202565b81548110610e9d57610e9d6111c3565b9060005260206000200160006101000a8154816001600160a01b0302191690836001600160a01b0316021790555050505b50600192915050565b6001546000908103610f32576001805480820182556000919091527fb10e2d527612073b26eecdfd717e6a320cf44b4afac2b0732d9fcbe2b7fa0cf60180546001600160a01b0319166001600160a01b038416179055610ece565b600060018481548110610f4757610f476111c3565b600091825260209091200154600180546001600160a01b039092169250849186908110610f7657610f766111c3565b600091825260209091200180546001600160a01b0319166001600160a01b0392909216919091179055600180548190610fb09082906111ef565b81548110610fc057610fc06111c3565b600091825260208083209091015483546001818101865594845291832090910180546001600160a01b0319166001600160a01b039092169190911790558154909161100a916111ef565b90505b611018856001611202565b811461109957600161102a81836111ef565b8154811061103a5761103a6111c3565b600091825260209091200154600180546001600160a01b039092169183908110611066576110666111c3565b9060005260206000200160006101000a8154816001600160a01b0302191690836001600160a01b0316021790555061100d565b816001610e8d8782611202565b6020808252825182820181905260009190848201906040850190845b818110156110e75783516001600160a01b0316835292840192918401916001016110c2565b50909695505050505050565b602080825282518282018190526000919060409081850190868401855b8281101561114b57815180516001600160a01b0390811686528782015116878601528501518585015260609093019290850190600101611110565b5091979650505050505050565b60006020828403121561116a57600080fd5b5051919050565b60006020828403121561118357600080fd5b8151801515811461119357600080fd5b9392505050565b6000602082840312156111ac57600080fd5b81516001600160a01b038116811461119357600080fd5b634e487b7160e01b600052603260045260246000fd5b634e487b7160e01b600052601160045260246000fd5b81810381811115610cc057610cc06111d9565b80820180821115610cc057610cc06111d9565b600060018201611227576112276111d9565b5060010190565b634e487b7160e01b600052603160045260246000fdfea2646970667358221220060d40aeafe240b01dea21628b2cdf5c5f4db9c0e2634c4743bfa8766cf77d0664736f6c6343000810003360806040526040516107f53803806107f583398101604081905261002291610164565b600080546001600160a01b0319166001600160a01b038a161790556001610049888261029d565b506002869055600380546001600160a01b0319166001600160a01b0387161790556004849055600561007b848261029d565b506006919091556007555061035c945050505050565b6001600160a01b03811681146100a657600080fd5b50565b634e487b7160e01b600052604160045260246000fd5b600082601f8301126100d057600080fd5b81516001600160401b03808211156100ea576100ea6100a9565b604051601f8301601f19908116603f01168101908282118183101715610112576101126100a9565b8160405283815260209250868385880101111561012e57600080fd5b600091505b838210156101505785820183015181830184015290820190610133565b600093810190920192909252949350505050565b600080600080600080600080610100898b03121561018157600080fd5b885161018c81610091565b60208a01519098506001600160401b03808211156101a957600080fd5b6101b58c838d016100bf565b985060408b0151975060608b015191506101ce82610091565b60808b015160a08c01519297509550808211156101ea57600080fd5b506101f78b828c016100bf565b60c08b015160e0909b0151999c989b509699959894979350505050565b600181811c9082168061022857607f821691505b60208210810361024857634e487b7160e01b600052602260045260246000fd5b50919050565b601f82111561029857600081815260208120601f850160051c810160208610156102755750805b601f850160051c820191505b8181101561029457828155600101610281565b5050505b505050565b81516001600160401b038111156102b6576102b66100a9565b6102ca816102c48454610214565b8461024e565b602080601f8311600181146102ff57600084156102e75750858301515b600019600386901b1c1916600185901b178555610294565b600085815260208120601f198616915b8281101561032e5788860151825594840194600190910190840161030f565b508582101561034c5787850151600019600388901b60f8161c191681555b5050505050600190811b01905550565b61048a8061036b6000396000f3fe608060405234801561001057600080fd5b50600436106100885760003560e01c80637e05f5a81161005b5780637e05f5a8146100e7578063861d7799146100ef578063893d20e81461010b57806398d5fdca1461012657600080fd5b80630115949c1461008d5780630bf15326146100a45780632b3e7a68146100ca5780637debdde9146100d2575b600080fd5b6004545b6040519081526020015b60405180910390f35b6100ba6100b236600461033a565b600455600190565b604051901515815260200161009b565b600654610091565b6100da61012e565b60405161009b9190610399565b600754610091565b6100f76101c0565b60405161009b9897969594939291906103b3565b6000546040516001600160a01b03909116815260200161009b565b600254610091565b60606005805461013d9061041a565b80601f01602080910402602001604051908101604052809291908181526020018280546101699061041a565b80156101b65780601f1061018b576101008083540402835291602001916101b6565b820191906000526020600020905b81548152906001019060200180831161019957829003601f168201915b5050505050905090565b600060606000806000606060008060008054906101000a90046001600160a01b03166001600254600360009054906101000a90046001600160a01b031660045460056006546007548680546102149061041a565b80601f01602080910402602001604051908101604052809291908181526020018280546102409061041a565b801561028d5780601f106102625761010080835404028352916020019161028d565b820191906000526020600020905b81548152906001019060200180831161027057829003601f168201915b505050505096508280546102a09061041a565b80601f01602080910402602001604051908101604052809291908181526020018280546102cc9061041a565b80156103195780601f106102ee57610100808354040283529160200191610319565b820191906000526020600020905b8154815290600101906020018083116102fc57829003601f168201915b50505050509250975097509750975097509750975097509091929394959697565b60006020828403121561034c57600080fd5b5035919050565b6000815180845260005b818110156103795760208185018101518683018201520161035d565b506000602082860101526020601f19601f83011685010191505092915050565b6020815260006103ac6020830184610353565b9392505050565b6001600160a01b038981168252610100602083018190526000916103d98483018c610353565b915089604085015280891660608501525086608084015282810360a08401526104028187610353565b60c0840195909552505060e001529695505050505050565b600181811c9082168061042e57607f821691505b60208210810361044e57634e487b7160e01b600052602260045260246000fd5b5091905056fea2646970667358221220320261f8f5166ef1488de58feac26e87e3ea99286fa920b6d456f1836c92357c64736f6c63430008100033a264697066735822122011c6c50f497288ae16495e4301c0a5b03217e6b3f849dd0489560908177bb87e64736f6c63430008100033a26469706673582212207fddc0b55e096356955cf27f175bf9900f75381e73b841d3b16ea5a1c8108b2c64736f6c63430008100033608060405234801561001057600080fd5b506040516107bf3803806107bf83398101604081905261002f9161012b565b600061003b868261026a565b506001610048858261026a565b506002610055848261026a565b506003610062838261026a565b506004555061032992505050565b634e487b7160e01b600052604160045260246000fd5b600082601f83011261009757600080fd5b81516001600160401b03808211156100b1576100b1610070565b604051601f8301601f19908116603f011681019082821181831017156100d9576100d9610070565b816040528381526020925086838588010111156100f557600080fd5b600091505b8382101561011757858201830151818301840152908201906100fa565b600093810190920192909252949350505050565b600080600080600060a0868803121561014357600080fd5b85516001600160401b038082111561015a57600080fd5b61016689838a01610086565b9650602088015191508082111561017c57600080fd5b61018889838a01610086565b9550604088015191508082111561019e57600080fd5b6101aa89838a01610086565b945060608801519150808211156101c057600080fd5b506101cd88828901610086565b925050608086015190509295509295909350565b600181811c908216806101f557607f821691505b60208210810361021557634e487b7160e01b600052602260045260246000fd5b50919050565b601f82111561026557600081815260208120601f850160051c810160208610156102425750805b601f850160051c820191505b818110156102615782815560010161024e565b5050505b505050565b81516001600160401b0381111561028357610283610070565b6102978161029184546101e1565b8461021b565b602080601f8311600181146102cc57600084156102b45750858301515b600019600386901b1c1916600185901b178555610261565b600085815260208120601f198616915b828110156102fb578886015182559484019460019091019084016102dc565b50858210156103195787850151600019600388901b60f8161c191681555b5050505050600190811b01905550565b610487806103386000396000f3fe608060405234801561001057600080fd5b50600436106100365760003560e01c806323bc839b1461003b578063dfaf02211461005d575b600080fd5b610043610072565b60405161005495949392919061039d565b60405180910390f35b6100656102c5565b60405161005491906103fd565b60608060608060008060016002600360045484805461009090610417565b80601f01602080910402602001604051908101604052809291908181526020018280546100bc90610417565b80156101095780601f106100de57610100808354040283529160200191610109565b820191906000526020600020905b8154815290600101906020018083116100ec57829003601f168201915b5050505050945083805461011c90610417565b80601f016020809104026020016040519081016040528092919081815260200182805461014890610417565b80156101955780601f1061016a57610100808354040283529160200191610195565b820191906000526020600020905b81548152906001019060200180831161017857829003601f168201915b505050505093508280546101a890610417565b80601f01602080910402602001604051908101604052809291908181526020018280546101d490610417565b80156102215780601f106101f657610100808354040283529160200191610221565b820191906000526020600020905b81548152906001019060200180831161020457829003601f168201915b5050505050925081805461023490610417565b80601f016020809104026020016040519081016040528092919081815260200182805461026090610417565b80156102ad5780601f10610282576101008083540402835291602001916102ad565b820191906000526020600020905b81548152906001019060200180831161029057829003601f168201915b50505050509150945094509450945094509091929394565b6060600180546102d490610417565b80601f016020809104026020016040519081016040528092919081815260200182805461030090610417565b801561034d5780601f106103225761010080835404028352916020019161034d565b820191906000526020600020905b81548152906001019060200180831161033057829003601f168201915b5050505050905090565b6000815180845260005b8181101561037d57602081850181015186830182015201610361565b506000602082860101526020601f19601f83011685010191505092915050565b60a0815260006103b060a0830188610357565b82810360208401526103c28188610357565b905082810360408401526103d68187610357565b905082810360608401526103ea8186610357565b9150508260808301529695505050505050565b6020815260006104106020830184610357565b9392505050565b600181811c9082168061042b57607f821691505b60208210810361044b57634e487b7160e01b600052602260045260246000fd5b5091905056fea2646970667358221220bb4b3d8814dd036fe141edbc01a9180cd6807f3d3cef3faafc215f0846434a4664736f6c63430008100033290decd9548b62a8d60345a988386fc84ba6bc95484008f6362f93160ef3e563",
  "immutableReferences": {},
  "source": "// SPDX-License-Identifier: MIT\npragma solidity ^0.8.0;\n\nimport \"./Product.sol\";\nimport \"./CFT.sol\";\n\ncontract FlexibilityList {\n    Product[] public products;\n    Product mFRR;\n    Product aFRR;\n    CFT[] public cfts;\n    CFT[] public upcomingCFTs;\n    CFT[] public inprogressCFTs;\n\n    /* ----modifiers----*/\n    modifier validDate(uint256 _openingDate, uint256 _closingDate) {\n        require(_closingDate > _openingDate, \"not valid Date\");\n        _;\n    }\n    /*------------------*/\n\n\n    constructor() {\n        mFRR = new Product(\"3JP\", \"mFRR\", \"card\", \"-\", 50);\n        products.push(mFRR);\n        aFRR = new Product(\"2KL\", \"aFRR\", \"card\", \"+\", 12);\n        products.push(aFRR);\n    }\n\n    function createCFT(\n        address payable _owner,\n        address _productID,\n        uint256 _totalPower,\n        uint256 _openingDate,\n        uint256 _closingDate,\n        string calldata _localization\n    ) external payable validDate(_openingDate, _closingDate){\n        CFT newCFT = new CFT(\n            _owner,\n            _productID,\n            _totalPower,\n            _openingDate,\n            _closingDate,\n            _localization\n        );\n        cfts.push(newCFT);\n    }\n\n    function getAllProducts() external view returns (Product[] memory) {\n        \n        return products;\n    }\n\n    function getAllCFTs() external view returns(CFT[] memory){\n\n        return cfts;\n    }\n\n}\n",
  "sourcePath": "/home/linna/Desktop/Flexibility/Flexibility-backend/contracts/FlexibilityList.sol",
  "compiler": {
    "name": "solc",
    "version": "0.8.16+commit.07a7930e.Emscripten.clang"
  },
  "schemaVersion": "3.4.8",
  "updatedAt": "2022-08-16T15:07:21.413Z",
  "networkType": "ethereum",
  "devdoc": {
    "kind": "dev",
    "methods": {},
    "version": 1
  },
  "userdoc": {
    "kind": "user",
    "methods": {},
    "version": 1
  }
}