{
  "contractName": "FlexibilityList",
  "abi": [
    {
      "inputs": [
        {
          "internalType": "uint256",
          "name": "",
          "type": "uint256"
        }
      ],
      "name": "cfts",
      "outputs": [
        {
          "internalType": "contract CFT",
          "name": "",
          "type": "address"
        }
      ],
      "stateMutability": "view",
      "type": "function",
      "constant": true
    },
    {
      "inputs": [
        {
          "internalType": "uint256",
          "name": "",
          "type": "uint256"
        }
      ],
      "name": "products",
      "outputs": [
        {
          "internalType": "contract Product",
          "name": "",
          "type": "address"
        }
      ],
      "stateMutability": "view",
      "type": "function",
      "constant": true
    },
    {
      "inputs": [
        {
          "internalType": "address payable",
          "name": "_owner",
          "type": "address"
        },
        {
          "internalType": "string",
          "name": "_EIC_code",
          "type": "string"
        },
        {
          "internalType": "string",
          "name": "_productName",
          "type": "string"
        },
        {
          "internalType": "string",
          "name": "_priceConditions",
          "type": "string"
        },
        {
          "internalType": "string",
          "name": "_direction",
          "type": "string"
        },
        {
          "internalType": "uint256",
          "name": "_rampingPeriod",
          "type": "uint256"
        }
      ],
      "name": "createProduct",
      "outputs": [],
      "stateMutability": "payable",
      "type": "function",
      "payable": true
    },
    {
      "inputs": [
        {
          "internalType": "address payable",
          "name": "_owner",
          "type": "address"
        },
        {
          "internalType": "address",
          "name": "_productID",
          "type": "address"
        },
        {
          "internalType": "uint256",
          "name": "_totalPower",
          "type": "uint256"
        },
        {
          "internalType": "uint256",
          "name": "_openingDate",
          "type": "uint256"
        },
        {
          "internalType": "uint256",
          "name": "_closingDate",
          "type": "uint256"
        },
        {
          "internalType": "string",
          "name": "_localization",
          "type": "string"
        }
      ],
      "name": "createCFT",
      "outputs": [],
      "stateMutability": "payable",
      "type": "function",
      "payable": true
    },
    {
      "inputs": [],
      "name": "getAllProducts",
      "outputs": [
        {
          "internalType": "contract Product[]",
          "name": "",
          "type": "address[]"
        }
      ],
      "stateMutability": "view",
      "type": "function",
      "constant": true
    },
    {
      "inputs": [],
      "name": "getAllCFTs",
      "outputs": [
        {
          "internalType": "contract CFT[]",
          "name": "",
          "type": "address[]"
        }
      ],
      "stateMutability": "view",
      "type": "function",
      "constant": true
    }
  ],
  "bytecode": "0x608060405234801561001057600080fd5b50614b61806100206000396000f3fe6080604052600436106200005c5760003560e01c806302ee3a52146200006157806377144c2014620000915780637acc0b2014620000cf5780638c03710014620000f4578063b4a4f6f5146200010d578063bf43a8871462000124575b600080fd5b3480156200006e57600080fd5b50620000796200013c565b604051620000889190620003a1565b60405180910390f35b3480156200009e57600080fd5b50620000b6620000b0366004620003f0565b620001a0565b6040516001600160a01b03909116815260200162000088565b348015620000dc57600080fd5b50620000b6620000ee366004620003f0565b620001cb565b6200010b6200010536600462000481565b620001dc565b005b6200010b6200011e3660046200050f565b6200027c565b3480156200013157600080fd5b506200007962000323565b606060008054806020026020016040519081016040528092919081815260200182805480156200019657602002820191906000526020600020905b81546001600160a01b0316815260019091019060200180831162000177575b5050505050905090565b60018181548110620001b157600080fd5b6000918252602090912001546001600160a01b0316905081565b60008181548110620001b157600080fd5b600087878787878787604051620001f39062000385565b62000205979695949392919062000628565b604051809103906000f08015801562000222573d6000803e3d6000fd5b506001805480820182556000919091527fb10e2d527612073b26eecdfd717e6a320cf44b4afac2b0732d9fcbe2b7fa0cf60180546001600160a01b0319166001600160a01b03929092169190911790555050505050505050565b60008a8a8a8a8a8a8a8a8a8a604051620002969062000393565b620002ab9a9998979695949392919062000675565b604051809103906000f080158015620002c8573d6000803e3d6000fd5b50600080546001810182559080527f290decd9548b62a8d60345a988386fc84ba6bc95484008f6362f93160ef3e5630180546001600160a01b0319166001600160a01b03929092169190911790555050505050505050505050565b6060600180548060200260200160405190810160405280929190818152602001828054801562000196576020028201919060005260206000209081546001600160a01b0316815260019091019060200180831162000177575050505050905090565b613cca80620006f883390190565b61076a80620043c283390190565b6020808252825182820181905260009190848201906040850190845b81811015620003e45783516001600160a01b031683529284019291840191600101620003bd565b50909695505050505050565b6000602082840312156200040357600080fd5b5035919050565b6001600160a01b03811681146200042057600080fd5b50565b803562000430816200040a565b919050565b60008083601f8401126200044857600080fd5b50813567ffffffffffffffff8111156200046157600080fd5b6020830191508360208285010111156200047a57600080fd5b9250929050565b600080600080600080600060c0888a0312156200049d57600080fd5b8735620004aa816200040a565b96506020880135620004bc816200040a565b955060408801359450606088013593506080880135925060a088013567ffffffffffffffff811115620004ee57600080fd5b620004fc8a828b0162000435565b989b979a50959850939692959293505050565b60008060008060008060008060008060c08b8d0312156200052f57600080fd5b6200053a8b62000423565b995060208b013567ffffffffffffffff808211156200055857600080fd5b620005668e838f0162000435565b909b50995060408d01359150808211156200058057600080fd5b6200058e8e838f0162000435565b909950975060608d0135915080821115620005a857600080fd5b620005b68e838f0162000435565b909750955060808d0135915080821115620005d057600080fd5b50620005df8d828e0162000435565b9150809450508092505060a08b013590509295989b9194979a5092959850565b81835281816020850137506000828201602090810191909152601f909101601f19169091010190565b600060018060a01b03808a16835280891660208401525086604083015285606083015284608083015260c060a08301526200066860c083018486620005ff565b9998505050505050505050565b6001600160a01b038b16815260c0602082018190526000906200069c9083018b8d620005ff565b8281036040840152620006b1818a8c620005ff565b90508281036060840152620006c881888a620005ff565b90508281036080840152620006df818688620005ff565b9150508260a08301529b9a505050505050505050505056fe608060405260405162003cca38038062003cca8339810160408190526200002691620000af565b600680546001600160a01b038089166001600160a01b031992831617909255600780549288169290911691909117905560088490556009839055600a829055600b62000073828262000265565b5050505050505062000331565b6001600160a01b03811681146200009657600080fd5b50565b634e487b7160e01b600052604160045260246000fd5b60008060008060008060c08789031215620000c957600080fd5b8651620000d68162000080565b80965050602080880151620000eb8162000080565b604089015160608a015160808b015160a08c0151939950919750955093506001600160401b03808211156200011f57600080fd5b818a0191508a601f8301126200013457600080fd5b81518181111562000149576200014962000099565b604051601f8201601f19908116603f0116810190838211818310171562000174576200017462000099565b816040528281528d868487010111156200018d57600080fd5b600093505b82841015620001b1578484018601518185018701529285019262000192565b82841115620001c35760008684830101525b8096505050505050509295509295509295565b600181811c90821680620001eb57607f821691505b6020821081036200020c57634e487b7160e01b600052602260045260246000fd5b50919050565b601f8211156200026057600081815260208120601f850160051c810160208610156200023b5750805b601f850160051c820191505b818110156200025c5782815560010162000247565b5050505b505050565b81516001600160401b0381111562000281576200028162000099565b6200029981620002928454620001d6565b8462000212565b602080601f831160018114620002d15760008415620002b85750858301515b600019600386901b1c1916600185901b1785556200025c565b600085815260208120601f198616915b828110156200030257888601518255948401946001909101908401620002e1565b5085821015620003215787850151600019600388901b60f8161c191681555b5050505050600190811b01905550565b61398980620003416000396000f3fe608060405260043610620000fa5760003560e01c8063605823371162000095578063bb2279021162000060578063bb22790214620002a5578063c995600214620002bc578063cb831d6a14620002e8578063ef501d38146200030057600080fd5b806360582337146200022b578063623a81b8146200025057806383793e2014620002685780638d0f6da3146200028d57600080fd5b8063323d822f11620000d6578063323d822f146200017e5780634423c5f114620001bc57806356d9e23e14620001e15780635e377e99146200020657600080fd5b8062a4810314620000ff57806313af3b2114620001185780632d08c0f31462000148575b600080fd5b62000116620001103660046200108d565b62000318565b005b3480156200012557600080fd5b506200013062000473565b6040516200013f9190620010c3565b60405180910390f35b3480156200015557600080fd5b506200016d6200016736600462001112565b620004d7565b60405190151581526020016200013f565b3480156200018b57600080fd5b50620001a36200019d36600462001112565b6200058b565b6040516001600160a01b0390911681526020016200013f565b348015620001c957600080fd5b50620001a3620001db36600462001112565b620005b6565b348015620001ee57600080fd5b50620001a36200020036600462001112565b620005c7565b3480156200021357600080fd5b50620001a36200022536600462001112565b620005d8565b3480156200023857600080fd5b50620001a36200024a36600462001112565b620005e9565b3480156200025d57600080fd5b5062000130620005fa565b3480156200027557600080fd5b50620001a36200028736600462001112565b6200065c565b3480156200029a57600080fd5b50620001306200066d565b62000116620002b636600462001178565b620006cf565b348015620002c957600080fd5b50620002d46200095e565b6040516200013f969594939291906200124f565b348015620002f557600080fd5b506200013062000a47565b3480156200030d57600080fd5b506200013062000aa9565b60065483906001600160a01b03808316911614620003705760405162461bcd60e51b815260206004820152601060248201526f1b9bdd081bdddb995c881bd98810d19560821b60448201526064015b60405180910390fd5b8160095481118015620003845750600a5481105b620003c35760405162461bcd60e51b815260206004820152600e60248201526d6e6f742076616c6964206461746560901b604482015260640162000367565b600085600760009054906101000a90046001600160a01b031686600b8742604051620003ef9062000fc5565b6200040096959493929190620012ef565b604051809103906000f0801580156200041d573d6000803e3d6000fd5b50600080546001810182559080527f290decd9548b62a8d60345a988386fc84ba6bc95484008f6362f93160ef3e5630180546001600160a01b0319166001600160a01b0392909216919091179055505050505050565b60606004805480602002602001604051908101604052809291908181526020018280548015620004cd57602002820191906000526020600020905b81546001600160a01b03168152600190910190602001808311620004ae575b5050505050905090565b6000620004e48262000b0b565b50620004f08262000c1e565b5060006004600384604051620005069062000fd3565b6200051493929190620013b7565b604051809103906000f08015801562000531573d6000803e3d6000fd5b5060058054600180820183556000929092527f036b6384b5eca791c62761152d0c79bb0604c104a5fb6f4eb0703f3154bb3db00180546001600160a01b0319166001600160a01b0393909316929092179091559392505050565b600081815481106200059c57600080fd5b6000918252602090912001546001600160a01b0316905081565b600181815481106200059c57600080fd5b600581815481106200059c57600080fd5b600381815481106200059c57600080fd5b600481815481106200059c57600080fd5b60606005805480602002602001604051908101604052809291908181526020018280548015620004cd576020028201919060005260206000209081546001600160a01b03168152600190910190602001808311620004ae575050505050905090565b600281815481106200059c57600080fd5b60606001805480602002602001604051908101604052809291908181526020018280548015620004cd576020028201919060005260206000209081546001600160a01b03168152600190910190602001808311620004ae575050505050905090565b60065488906001600160a01b0390811690821603620007235760405162461bcd60e51b815260206004820152600f60248201526e1bdddb995c8818d85b89dd08189a59608a1b604482015260640162000367565b83838080601f016020809104026020016040519081016040528093929190818152602001838380828437600092019190915250506040516200076d9250600b915060200162001465565b6040516020818303038152906040528051906020012081604051602001620007969190620014e3565b604051602081830303815290604052805190602001201480620008055750604051601560f91b60208201526021016040516020818303038152906040528051906020012081604051602001620007ed9190620014e3565b60405160208183030381529060405280519060200120145b6200084c5760405162461bcd60e51b81526020600482015260166024820152753737ba103b30b634b2103637b1b0b634bd30ba34b7b760511b604482015260640162000367565b8260095481118015620008605750600a5481105b6200089f5760405162461bcd60e51b815260206004820152600e60248201526d6e6f742076616c6964206461746560901b604482015260640162000367565b60008b8b8b8b600760009054906101000a90046001600160a01b03168c8c8c8c42604051620008ce9062000fe1565b620008e39a999897969594939291906200152a565b604051809103906000f08015801562000900573d6000803e3d6000fd5b506001805480820182556000919091527fb10e2d527612073b26eecdfd717e6a320cf44b4afac2b0732d9fcbe2b7fa0cf60180546001600160a01b0319166001600160a01b0392909216919091179055505050505050505050505050565b60008060008060006060600660009054906101000a90046001600160a01b0316600760009054906101000a90046001600160a01b0316600854600954600a54600b808054620009ad90620012b3565b80601f0160208091040260200160405190810160405280929190818152602001828054620009db90620012b3565b801562000a2c5780601f1062000a005761010080835404028352916020019162000a2c565b820191906000526020600020905b81548152906001019060200180831162000a0e57829003601f168201915b50505050509050955095509550955095509550909192939495565b60606000805480602002602001604051908101604052809291908181526020018280548015620004cd576020028201919060005260206000209081546001600160a01b03168152600190910190602001808311620004ae575050505050905090565b60606003805480602002602001604051908101604052809291908181526020018280548015620004cd576020028201919060005260206000209081546001600160a01b03168152600190910190602001808311620004ae575050505050905090565b6000805b60005481101562000c1557826000828154811062000b315762000b3162001599565b6000918252602091829020015460408051630fc0beb560e31b815290516001600160a01b0390921692637e05f5a8926004808401938290030181865afa15801562000b80573d6000803e3d6000fd5b505050506040513d601f19601f8201168201806040525081019062000ba69190620015af565b1062000c005760046000828154811062000bc45762000bc462001599565b60009182526020808320909101548354600181018555938352912090910180546001600160a01b0319166001600160a01b039092169190911790555b8062000c0c81620015df565b91505062000b0f565b50600192915050565b6000805b60015481101562000d2957826001828154811062000c445762000c4462001599565b6000918252602091829020015460408051630fc0beb560e31b815290516001600160a01b0390921692637e05f5a8926004808401938290030181865afa15801562000c93573d6000803e3d6000fd5b505050506040513d601f19601f8201168201806040525081019062000cb99190620015af565b111562000d145760026001828154811062000cd85762000cd862001599565b60009182526020808320909101548354600181018555938352912090910180546001600160a01b0319166001600160a01b039092169190911790555b8062000d2081620015df565b91505062000c22565b5062000d91600280548060200260200160405190810160405280929190818152602001828054801562000d8657602002820191906000526020600020905b81546001600160a01b0316815260019091019060200180831162000d67575b505050505062000da7565b805162000c159160039160209091019062000fef565b60606000805b6001845162000dbd9190620015fb565b81101562000fbd57600062000dd482600162001615565b90505b845181101562000fa75784818151811062000df65762000df662001599565b60200260200101516001600160a01b03166398d5fdca6040518163ffffffff1660e01b8152600401602060405180830381865afa15801562000e3c573d6000803e3d6000fd5b505050506040513d601f19601f8201168201806040525081019062000e629190620015af565b85838151811062000e775762000e7762001599565b60200260200101516001600160a01b03166398d5fdca6040518163ffffffff1660e01b8152600401602060405180830381865afa15801562000ebd573d6000803e3d6000fd5b505050506040513d601f19601f8201168201806040525081019062000ee39190620015af565b111562000f925784828151811062000eff5762000eff62001599565b6020026020010151925084818151811062000f1e5762000f1e62001599565b602002602001015185838151811062000f3b5762000f3b62001599565b60200260200101906001600160a01b031690816001600160a01b0316815250508285828151811062000f715762000f7162001599565b60200260200101906001600160a01b031690816001600160a01b0316815250505b8062000f9e81620015df565b91505062000dd7565b508062000fb481620015df565b91505062000dad565b509192915050565b6108cf806200163183390190565b6112778062001f0083390190565b6107dd806200317783390190565b82805482825590600052602060002090810192821562001047579160200282015b828111156200104757825182546001600160a01b0319166001600160a01b0390911617825560209092019160019091019062001010565b506200105592915062001059565b5090565b5b808211156200105557600081556001016200105a565b80356001600160a01b03811681146200108857600080fd5b919050565b600080600060608486031215620010a357600080fd5b620010ae8462001070565b95602085013595506040909401359392505050565b6020808252825182820181905260009190848201906040850190845b81811015620011065783516001600160a01b031683529284019291840191600101620010df565b50909695505050505050565b6000602082840312156200112557600080fd5b5035919050565b60008083601f8401126200113f57600080fd5b50813567ffffffffffffffff8111156200115857600080fd5b6020830191508360208285010111156200117157600080fd5b9250929050565b60008060008060008060008060c0898b0312156200119557600080fd5b620011a08962001070565b9750602089013567ffffffffffffffff80821115620011be57600080fd5b620011cc8c838d016200112c565b909950975060408b0135965060608b0135955060808b0135915080821115620011f457600080fd5b50620012038b828c016200112c565b999c989b50969995989497949560a00135949350505050565b60005b83811015620012395781810151838201526020016200121f565b8381111562001249576000848401525b50505050565b600060018060a01b03808916835280881660208401525085604083015284606083015283608083015260c060a083015282518060c08401526200129a8160e08501602087016200121c565b601f01601f19169190910160e001979650505050505050565b600181811c90821680620012c857607f821691505b602082108103620012e957634e487b7160e01b600052602260045260246000fd5b50919050565b6001600160a01b03878116825286166020808301919091526040820186905260c06060830152845460009182916200132781620012b3565b8060c087015260e06001808416600081146200134c5760018114620013675762001397565b60ff1985168984015283151560051b89018301965062001397565b8b6000528560002060005b858110156200138f5781548b820186015290830190870162001372565b8a0184019750505b5050505050608084019590955260a0909201929092529695505050505050565b600060608201606083528086548083526080850191506000925087835260208320835b82811015620014035781546001600160a01b0316845260208401935060019182019101620013da565b50505083810360208501528086548083526020830191508784526020842092505b80841015620014505782546001600160a01b031682526001938401939092019160209091019062001424565b50809350505050826040830152949350505050565b60008083546200147581620012b3565b60018281168015620014905760018114620014a657620014d7565b60ff1984168752821515830287019450620014d7565b8760005260208060002060005b85811015620014ce5781548a820152908401908201620014b3565b50505082870194505b50929695505050505050565b60008251620014f78184602087016200121c565b9190910192915050565b81835281816020850137506000828201602090810191909152601f909101601f19169091010190565b6001600160a01b038b8116825261010060208301819052600091620015538483018d8f62001501565b91508a6040850152808a1660608501525087608084015282810360a08401526200157f81878962001501565b60c0840195909552505060e0015298975050505050505050565b634e487b7160e01b600052603260045260246000fd5b600060208284031215620015c257600080fd5b5051919050565b634e487b7160e01b600052601160045260246000fd5b600060018201620015f457620015f4620015c9565b5060010190565b600082821015620016105762001610620015c9565b500390565b600082198211156200162b576200162b620015c9565b50019056fe60806040526040516108cf3803806108cf833981016040819052610022916100af565b600080546001600160a01b038089166001600160a01b031992831617909255600180549288169290911691909117905560028490556003610063848261024d565b5060049190915560055550506006805460ff191690555061030c9050565b6001600160a01b038116811461009657600080fd5b50565b634e487b7160e01b600052604160045260246000fd5b60008060008060008060c087890312156100c857600080fd5b86516100d381610081565b809650506020808801516100e681610081565b604089015160608a015191975095506001600160401b038082111561010a57600080fd5b818a0191508a601f83011261011e57600080fd5b81518181111561013057610130610099565b604051601f8201601f19908116603f0116810190838211818310171561015857610158610099565b816040528281528d8684870101111561017057600080fd5b600093505b828410156101925784840186015181850187015292850192610175565b828411156101a35760008684830101525b8098505050505050506080870151915060a087015190509295509295509295565b600181811c908216806101d857607f821691505b6020821081036101f857634e487b7160e01b600052602260045260246000fd5b50919050565b601f82111561024857600081815260208120601f850160051c810160208610156102255750805b601f850160051c820191505b8181101561024457828155600101610231565b5050505b505050565b81516001600160401b0381111561026657610266610099565b61027a8161027484546101c4565b846101fe565b602080601f8311600181146102af57600084156102975750858301515b600019600386901b1c1916600185901b178555610244565b600085815260208120601f198616915b828110156102de578886015182559484019460019091019084016102bf565b50858210156102fc5787850151600019600388901b60f8161c191681555b5050505050600190811b01905550565b6105b48061031b6000396000f3fe608060405234801561001057600080fd5b506004361061007d5760003560e01c80634e69d5601161005b5780634e69d560146100d957806369ba1a75146100ee5780637debdde9146101015780637e05f5a81461010957600080fd5b80630115949c146100825780630bf153261461009957806311cdd1dd146100bf575b600080fd5b6002545b6040519081526020015b60405180910390f35b6100af6100a7366004610445565b600255600190565b6040519015158152602001610090565b6100c7610111565b604051610090969594939291906104ab565b6100e16101f0565b60405161009091906104f3565b6100af6100fc366004610445565b610342565b6100e16103b3565b600554610086565b6000806000606060008060008054906101000a90046001600160a01b0316600160009054906101000a90046001600160a01b0316600254600360045460055482805461015c9061050d565b80601f01602080910402602001604051908101604052809291908181526020018280546101889061050d565b80156101d55780601f106101aa576101008083540402835291602001916101d5565b820191906000526020600020905b8154815290600101906020018083116101b857829003601f168201915b50505050509250955095509550955095509550909192939495565b60065460609060ff16600481111561020a5761020a610547565b600003610233575060408051808201909152600781526650656e64696e6760c81b602082015290565b60065460ff16600481111561024a5761024a610547565b60010361027e5750604080518082019091526012815271139bc8189a591cc81bdb881d1a19481353d360721b602082015290565b60065460ff16600481111561029557610295610547565b6002036102cb575060408051808201909152601481527304e6f20666565646261636b2066726f6d204653560641b602082015290565b60065460ff1660048111156102e2576102e2610547565b6003036103075760405180606001604052806021815260200161055e60219139905090565b6040518060400160405280602081526020017f41637469766174696f6e206f726465722072656a656374656420627920465350815250905090565b60008160010361036557600680546001919060ff191682805b02179055506103ab565b8160020361038157600680546002919060ff191660018361035b565b8160030361039d57600680546003919060ff191660018361035b565b6006805460ff191660041790555b506001919050565b6060600380546103c29061050d565b80601f01602080910402602001604051908101604052809291908181526020018280546103ee9061050d565b801561043b5780601f106104105761010080835404028352916020019161043b565b820191906000526020600020905b81548152906001019060200180831161041e57829003601f168201915b5050505050905090565b60006020828403121561045757600080fd5b5035919050565b6000815180845260005b8181101561048457602081850181015186830182015201610468565b81811115610496576000602083870101525b50601f01601f19169290920160200192915050565b6001600160a01b038781168252861660208201526040810185905260c0606082018190526000906104de9083018661045e565b60808301949094525060a00152949350505050565b602081526000610506602083018461045e565b9392505050565b600181811c9082168061052157607f821691505b60208210810361054157634e487b7160e01b600052602260045260246000fd5b50919050565b634e487b7160e01b600052602160045260246000fdfe41637469766174696f6e206f7264657220636f6e6669726d656420627920465350a264697066735822122064d8c27df2b2264e199f0a58a062800067c9a03d0834f244b18a6e979118c2d464736f6c634300080f003360806040523480156200001157600080fd5b5060405162001277380380620012778339810160408190526200003491620001f3565b8251620000499060009060208601906200006c565b5081516200005f9060019060208501906200006c565b5060025550620002ce9050565b828054828255906000526020600020908101928215620000c4579160200282015b82811115620000c457825182546001600160a01b0319166001600160a01b039091161782556020909201916001909101906200008d565b50620000d2929150620000d6565b5090565b5b80821115620000d25760008155600101620000d7565b634e487b7160e01b600052604160045260246000fd5b604051601f8201601f191681016001600160401b03811182821017156200012e576200012e620000ed565b604052919050565b60006001600160401b03821115620001525762000152620000ed565b5060051b60200190565b6001600160a01b03811681146200017257600080fd5b50565b600082601f8301126200018757600080fd5b81516020620001a06200019a8362000136565b62000103565b82815260059290921b84018101918181019086841115620001c057600080fd5b8286015b84811015620001e8578051620001da816200015c565b8352918301918301620001c4565b509695505050505050565b6000806000606084860312156200020957600080fd5b83516001600160401b03808211156200022157600080fd5b818601915086601f8301126200023657600080fd5b81516020620002496200019a8362000136565b82815260059290921b8401810191818101908a8411156200026957600080fd5b948201945b838610156200029457855162000284816200015c565b825294820194908201906200026e565b91890151919750909350505080821115620002ae57600080fd5b50620002bd8682870162000175565b925050604084015190509250925092565b610f9980620002de6000396000f3fe608060405234801561001057600080fd5b506004361061004c5760003560e01c806313af3b2114610051578063b7dec4e21461006f578063e9c4a3ac14610077578063ef501d381461008f575b600080fd5b610059610097565b6040516100669190610ce5565b60405180910390f35b6100596100f9565b61007f610159565b6040519015158152602001610066565b6100596106f4565b606060008054806020026020016040519081016040528092919081815260200182805480156100ef57602002820191906000526020600020905b81546001600160a01b031681526001909101906020018083116100d1575b5050505050905090565b606060038054806020026020016040519081016040528092919081815260200182805480156100ef576020028201919060005260206000209081546001600160a01b031681526001909101906020018083116100d1575050505050905090565b600080808080808080805b60015415801590610176575060005415155b156106e5576101856000610754565b95506101916000610896565b9450856001600160a01b0316630115949c6040518163ffffffff1660e01b8152600401602060405180830381865afa1580156101d1573d6000803e3d6000fd5b505050506040513d601f19601f820116820180604052508101906101f59190610d32565b965086915087821015610274576040516369ba1a7560e01b8152600160048201526001600160a01b038716906369ba1a75906024015b6020604051808303816000875af115801561024a573d6000803e3d6000fd5b505050506040513d601f19601f8201168201806040525081019061026e9190610d4b565b506106dd565b81856001600160a01b0316630115949c6040518163ffffffff1660e01b8152600401602060405180830381865afa1580156102b3573d6000803e3d6000fd5b505050506040513d601f19601f820116820180604052508101906102d79190610d32565b106104945781856001600160a01b0316630115949c6040518163ffffffff1660e01b8152600401602060405180830381865afa15801561031b573d6000803e3d6000fd5b505050506040513d601f19601f8201168201806040525081019061033f9190610d32565b6103499190610d8a565b6040516305f8a99360e11b8152600481018290529094506001600160a01b03861690630bf15326906024016020604051808303816000875af1158015610393573d6000803e3d6000fd5b505050506040513d601f19601f820116820180604052508101906103b79190610d4b565b506103c36000866109ad565b508486836040516103d390610cd8565b6001600160a01b0393841681529290911660208301526040820152606001604051809103906000f08015801561040d573d6000803e3d6000fd5b506003805460018101825560009182527fc2575a0e9e593c00f959f8c92f12db2869c3395a3b0502d05e2516446f71f85b0180546001600160a01b0319166001600160a01b03841617905590915082900361048f576040516369ba1a7560e01b8152600260048201526001600160a01b038716906369ba1a759060240161022b565b6106dd565b81856001600160a01b0316630115949c6040518163ffffffff1660e01b8152600401602060405180830381865afa1580156104d3573d6000803e3d6000fd5b505050506040513d601f19601f820116820180604052508101906104f79190610d32565b10156106dd57846001600160a01b0316630115949c6040518163ffffffff1660e01b8152600401602060405180830381865afa15801561053b573d6000803e3d6000fd5b505050506040513d601f19601f8201168201806040525081019061055f9190610d32565b6105699083610d8a565b6040516305f8a99360e11b8152600481018290529093506001600160a01b03871690630bf15326906024016020604051808303816000875af11580156105b3573d6000803e3d6000fd5b505050506040513d601f19601f820116820180604052508101906105d79190610d4b565b506105e3600087610b66565b508486866001600160a01b0316630115949c6040518163ffffffff1660e01b8152600401602060405180830381865afa158015610624573d6000803e3d6000fd5b505050506040513d601f19601f820116820180604052508101906106489190610d32565b60405161065490610cd8565b6001600160a01b0393841681529290911660208301526040820152606001604051809103906000f08015801561068e573d6000803e3d6000fd5b50600380546001810182556000919091527fc2575a0e9e593c00f959f8c92f12db2869c3395a3b0502d05e2516446f71f85b0180546001600160a01b0319166001600160a01b03831617905590505b869750610164565b60019850505050505050505090565b606060018054806020026020016040519081016040528092919081815260200182805480156100ef576020028201919060005260206000209081546001600160a01b031681526001909101906020018083116100d1575050505050905090565b6000805482106107975760405162461bcd60e51b81526020600482015260096024820152681b9bdd081d985b1a5960ba1b60448201526064015b60405180910390fd5b60008083815481106107ab576107ab610da1565b6000918252602090912001546001600160a01b03169050825b6000546107d390600190610d8a565b81101561085c5760006107e7826001610db7565b815481106107f7576107f7610da1565b600091825260208220015481546001600160a01b0390911691908390811061082157610821610da1565b600091825260209091200180546001600160a01b0319166001600160a01b03929092169190911790558061085481610dcf565b9150506107c4565b50600080548061086e5761086e610de8565b600082815260209020810160001990810180546001600160a01b031916905501905592915050565b600060015482106108d55760405162461bcd60e51b81526020600482015260096024820152681b9bdd081d985b1a5960ba1b604482015260640161078e565b6000600183815481106108ea576108ea610da1565b6000918252602090912001546001600160a01b03169050825b600180546109119190610d8a565b81101561099b5760016109248282610db7565b8154811061093457610934610da1565b600091825260209091200154600180546001600160a01b03909216918390811061096057610960610da1565b600091825260209091200180546001600160a01b0319166001600160a01b03929092169190911790558061099381610dcf565b915050610903565b50600180548061086e5761086e610de8565b600080600184815481106109c3576109c3610da1565b600091825260209091200154600180546001600160a01b0390921692508491869081106109f2576109f2610da1565b600091825260209091200180546001600160a01b0319166001600160a01b0392909216919091179055600180548190610a2c908290610d8a565b81548110610a3c57610a3c610da1565b600091825260208083209091015483546001818101865594845291832090910180546001600160a01b0319166001600160a01b0390921691909117905581549091610a8691610d8a565b90505b610a94856001610db7565b8114610b15576001610aa68183610d8a565b81548110610ab657610ab6610da1565b600091825260209091200154600180546001600160a01b039092169183908110610ae257610ae2610da1565b9060005260206000200160006101000a8154816001600160a01b0302191690836001600160a01b03160217905550610a89565b816001610b228782610db7565b81548110610b3257610b32610da1565b600091825260209091200180546001600160a01b0319166001600160a01b0392909216919091179055506001949350505050565b60008060008481548110610b7c57610b7c610da1565b600091825260208220015481546001600160a01b03909116925084919086908110610ba957610ba9610da1565b6000918252602082200180546001600160a01b0319166001600160a01b03939093169290921790915580548190610be290600190610d8a565b81548110610bf257610bf2610da1565b600091825260208083209091015483546001818101865594845291832090910180546001600160a01b0319166001600160a01b0390921691909117905580549091610c3c91610d8a565b90505b610c4a856001610db7565b8114610cca576000610c5d600183610d8a565b81548110610c6d57610c6d610da1565b600091825260208220015481546001600160a01b03909116919083908110610c9757610c97610da1565b9060005260206000200160006101000a8154816001600160a01b0302191690836001600160a01b03160217905550610c3f565b816000610b22876001610db7565b61016580610dff83390190565b6020808252825182820181905260009190848201906040850190845b81811015610d265783516001600160a01b031683529284019291840191600101610d01565b50909695505050505050565b600060208284031215610d4457600080fd5b5051919050565b600060208284031215610d5d57600080fd5b81518015158114610d6d57600080fd5b9392505050565b634e487b7160e01b600052601160045260246000fd5b600082821015610d9c57610d9c610d74565b500390565b634e487b7160e01b600052603260045260246000fd5b60008219821115610dca57610dca610d74565b500190565b600060018201610de157610de1610d74565b5060010190565b634e487b7160e01b600052603160045260246000fdfe608060405234801561001057600080fd5b5060405161016538038061016583398101604081905261002f9161007f565b600080546001600160a01b039485166001600160a01b03199182161790915560018054939094169216919091179091556002556100c2565b6001600160a01b038116811461007c57600080fd5b50565b60008060006060848603121561009457600080fd5b835161009f81610067565b60208501519093506100b081610067565b80925050604084015190509250925092565b6095806100d06000396000f3fe6080604052348015600f57600080fd5b506004361060285760003560e01c8063cb7b1c4414602d575b600080fd5b600054600154600254604080516001600160a01b03948516815293909216602084015282820152519081900360600190f3fea26469706673582212208fd9cb9892769548b74cc1019a871476ce23df08b40c75a05fef7340af5a2c6e64736f6c634300080f0033a26469706673582212209cddd553c42e249881de902551917e1982d1589cf1348a4add49461780bcb4fd64736f6c634300080f003360806040526040516107dd3803806107dd8339810160408190526100229161016b565b600080546001600160a01b0319166001600160a01b038a16179055600161004988826102a4565b506002869055600380546001600160a01b0319166001600160a01b0387161790556004849055600561007b84826102a4565b5060069190915560075550610363945050505050565b6001600160a01b03811681146100a657600080fd5b50565b634e487b7160e01b600052604160045260246000fd5b600082601f8301126100d057600080fd5b81516001600160401b03808211156100ea576100ea6100a9565b604051601f8301601f19908116603f01168101908282118183101715610112576101126100a9565b8160405283815260209250868385880101111561012e57600080fd5b600091505b838210156101505785820183015181830184015290820190610133565b838211156101615760008385830101525b9695505050505050565b600080600080600080600080610100898b03121561018857600080fd5b885161019381610091565b60208a01519098506001600160401b03808211156101b057600080fd5b6101bc8c838d016100bf565b985060408b0151975060608b015191506101d582610091565b60808b015160a08c01519297509550808211156101f157600080fd5b506101fe8b828c016100bf565b60c08b015160e0909b0151999c989b509699959894979350505050565b600181811c9082168061022f57607f821691505b60208210810361024f57634e487b7160e01b600052602260045260246000fd5b50919050565b601f82111561029f57600081815260208120601f850160051c8101602086101561027c5750805b601f850160051c820191505b8181101561029b57828155600101610288565b5050505b505050565b81516001600160401b038111156102bd576102bd6100a9565b6102d1816102cb845461021b565b84610255565b602080601f83116001811461030657600084156102ee5750858301515b600019600386901b1c1916600185901b17855561029b565b600085815260208120601f198616915b8281101561033557888601518255948401946001909101908401610316565b50858210156103535787850151600019600388901b60f8161c191681555b5050505050600190811b01905550565b61046b806103726000396000f3fe608060405234801561001057600080fd5b506004361061007d5760003560e01c80637debdde91161005b5780637debdde9146100c75780637e05f5a8146100dc578063861d7799146100e457806398d5fdca1461010057600080fd5b80630115949c146100825780630bf15326146100995780632b3e7a68146100bf575b600080fd5b6004545b6040519081526020015b60405180910390f35b6100af6100a7366004610314565b600455600190565b6040519015158152602001610090565b600654610086565b6100cf610108565b604051610090919061037a565b600754610086565b6100ec61019a565b604051610090989796959493929190610394565b600254610086565b606060058054610117906103fb565b80601f0160208091040260200160405190810160405280929190818152602001828054610143906103fb565b80156101905780601f1061016557610100808354040283529160200191610190565b820191906000526020600020905b81548152906001019060200180831161017357829003601f168201915b5050505050905090565b600060606000806000606060008060008054906101000a90046001600160a01b03166001600254600360009054906101000a90046001600160a01b031660045460056006546007548680546101ee906103fb565b80601f016020809104026020016040519081016040528092919081815260200182805461021a906103fb565b80156102675780601f1061023c57610100808354040283529160200191610267565b820191906000526020600020905b81548152906001019060200180831161024a57829003601f168201915b5050505050965082805461027a906103fb565b80601f01602080910402602001604051908101604052809291908181526020018280546102a6906103fb565b80156102f35780601f106102c8576101008083540402835291602001916102f3565b820191906000526020600020905b8154815290600101906020018083116102d657829003601f168201915b50505050509250975097509750975097509750975097509091929394959697565b60006020828403121561032657600080fd5b5035919050565b6000815180845260005b8181101561035357602081850181015186830182015201610337565b81811115610365576000602083870101525b50601f01601f19169290920160200192915050565b60208152600061038d602083018461032d565b9392505050565b6001600160a01b038981168252610100602083018190526000916103ba8483018c61032d565b915089604085015280891660608501525086608084015282810360a08401526103e3818761032d565b60c0840195909552505060e001529695505050505050565b600181811c9082168061040f57607f821691505b60208210810361042f57634e487b7160e01b600052602260045260246000fd5b5091905056fea264697066735822122068234dc646a271b6397aaae7adc3de9ada8e8d9496390a745b989e38f708314964736f6c634300080f0033a264697066735822122011cfdfee4867805f63a1a6b7ab88a19c62f9aa10e2618e03a51c0479111d773664736f6c634300080f0033608060405260405161076a38038061076a8339810160408190526100229161015d565b600080546001600160a01b0319166001600160a01b038816179055600161004986826102ac565b50600261005685826102ac565b50600361006384826102ac565b50600461007083826102ac565b506005555061036b9350505050565b80516001600160a01b038116811461009657600080fd5b919050565b634e487b7160e01b600052604160045260246000fd5b600082601f8301126100c257600080fd5b81516001600160401b03808211156100dc576100dc61009b565b604051601f8301601f19908116603f011681019082821181831017156101045761010461009b565b8160405283815260209250868385880101111561012057600080fd5b600091505b838210156101425785820183015181830184015290820190610125565b838211156101535760008385830101525b9695505050505050565b60008060008060008060c0878903121561017657600080fd5b61017f8761007f565b60208801519096506001600160401b038082111561019c57600080fd5b6101a88a838b016100b1565b965060408901519150808211156101be57600080fd5b6101ca8a838b016100b1565b955060608901519150808211156101e057600080fd5b6101ec8a838b016100b1565b9450608089015191508082111561020257600080fd5b5061020f89828a016100b1565b92505060a087015190509295509295509295565b600181811c9082168061023757607f821691505b60208210810361025757634e487b7160e01b600052602260045260246000fd5b50919050565b601f8211156102a757600081815260208120601f850160051c810160208610156102845750805b601f850160051c820191505b818110156102a357828155600101610290565b5050505b505050565b81516001600160401b038111156102c5576102c561009b565b6102d9816102d38454610223565b8461025d565b602080601f83116001811461030e57600084156102f65750858301515b600019600386901b1c1916600185901b1785556102a3565b600085815260208120601f198616915b8281101561033d5788860151825594840194600190910190840161031e565b508582101561035b5787850151600019600388901b60f8161c191681555b5050505050600190811b01905550565b6103f08061037a6000396000f3fe608060405234801561001057600080fd5b506004361061002b5760003560e01c806323bc839b14610030575b600080fd5b610038610053565b60405161004a9695949392919061030e565b60405180910390f35b600060608060608060008060009054906101000a90046001600160a01b0316600160026003600460055484805461008990610380565b80601f01602080910402602001604051908101604052809291908181526020018280546100b590610380565b80156101025780601f106100d757610100808354040283529160200191610102565b820191906000526020600020905b8154815290600101906020018083116100e557829003601f168201915b5050505050945083805461011590610380565b80601f016020809104026020016040519081016040528092919081815260200182805461014190610380565b801561018e5780601f106101635761010080835404028352916020019161018e565b820191906000526020600020905b81548152906001019060200180831161017157829003601f168201915b505050505093508280546101a190610380565b80601f01602080910402602001604051908101604052809291908181526020018280546101cd90610380565b801561021a5780601f106101ef5761010080835404028352916020019161021a565b820191906000526020600020905b8154815290600101906020018083116101fd57829003601f168201915b5050505050925081805461022d90610380565b80601f016020809104026020016040519081016040528092919081815260200182805461025990610380565b80156102a65780601f1061027b576101008083540402835291602001916102a6565b820191906000526020600020905b81548152906001019060200180831161028957829003601f168201915b50505050509150955095509550955095509550909192939495565b6000815180845260005b818110156102e7576020818501810151868301820152016102cb565b818111156102f9576000602083870101525b50601f01601f19169290920160200192915050565b6001600160a01b038716815260c060208201819052600090610332908301886102c1565b828103604084015261034481886102c1565b9050828103606084015261035881876102c1565b9050828103608084015261036c81866102c1565b9150508260a0830152979650505050505050565b600181811c9082168061039457607f821691505b6020821081036103b457634e487b7160e01b600052602260045260246000fd5b5091905056fea264697066735822122034d0611c2b3a44b250a9b7fd245451318ed6e4ecf5826fd5a9bb21146aa99f4664736f6c634300080f0033a26469706673582212204a29f128afb27d904b795a0fe71e4e51e0ac43e67f1852cfbd1385db5095200664736f6c634300080f0033",
  "immutableReferences": {},
  "source": "// SPDX-License-Identifier: MIT\r\npragma solidity ^0.8.0;\r\n\r\nimport \"./Product.sol\";\r\nimport \"./CFT.sol\";\r\n\r\ncontract FlexibilityList{\r\n    \r\n    Product[] public products;\r\n    CFT[] public cfts;\r\n    \r\n    function createProduct(address payable _owner, string calldata _EIC_code, string calldata _productName, string calldata _priceConditions, string calldata _direction, uint256 _rampingPeriod) external payable{\r\n        Product myNewProduct= new Product(_owner, _EIC_code,  _productName, _priceConditions, _direction, _rampingPeriod);\r\n        products.push(myNewProduct);\r\n    }\r\n\r\n    function createCFT(address payable _owner, address _productID, uint256 _totalPower, uint256 _openingDate, uint256 _closingDate, string calldata _localization) external payable {\r\n        \r\n        CFT newCFT= new CFT(_owner, _productID, _totalPower, _openingDate, _closingDate, _localization);\r\n        cfts.push(newCFT);\r\n    }\r\n\r\n    function getAllProducts() external view returns(Product[] memory) {\r\n        \r\n        return products;\r\n    }\r\n\r\n    function getAllCFTs() external view returns(CFT[] memory) {\r\n        \r\n        return cfts;\r\n    }\r\n\r\n\r\n}",
  "sourcePath": "D:\\webdev projects\\flexibility\\fp-backend\\contracts\\FlexibilityList.sol",
  "compiler": {
    "name": "solc",
    "version": "0.8.15+commit.e14f2714.Emscripten.clang"
  },
  "schemaVersion": "3.4.4",
  "updatedAt": "2022-07-20T12:14:35.423Z",
  "networkType": "ethereum",
  "devdoc": {
    "kind": "dev",
    "methods": {},
    "version": 1
  },
  "userdoc": {
    "kind": "user",
    "methods": {},
    "version": 1
  }
}