{
  "contractName": "FlexibilityDP",
  "abi": [
    {
      "inputs": [
        {
          "internalType": "contract ActivationRequest[]",
          "name": "_ARL",
          "type": "address[]"
        },
        {
          "internalType": "contract Bid[]",
          "name": "_MOL",
          "type": "address[]"
        }
      ],
      "stateMutability": "nonpayable",
      "type": "constructor"
    },
    {
      "inputs": [],
      "name": "getARL",
      "outputs": [
        {
          "internalType": "contract ActivationRequest[]",
          "name": "",
          "type": "address[]"
        }
      ],
      "stateMutability": "view",
      "type": "function"
    },
    {
      "inputs": [],
      "name": "getMOL",
      "outputs": [
        {
          "internalType": "contract Bid[]",
          "name": "",
          "type": "address[]"
        }
      ],
      "stateMutability": "view",
      "type": "function"
    },
    {
      "inputs": [],
      "name": "getAllActivationOrders",
      "outputs": [
        {
          "internalType": "contract ActivationOrder[]",
          "name": "",
          "type": "address[]"
        }
      ],
      "stateMutability": "view",
      "type": "function"
    },
    {
      "inputs": [],
      "name": "dispatch",
      "outputs": [
        {
          "internalType": "bool",
          "name": "",
          "type": "bool"
        }
      ],
      "stateMutability": "payable",
      "type": "function"
    }
  ],
  "bytecode": "0x60806040523480156200001157600080fd5b5060405162001553380380620015538339810160408190526200003491620001ef565b81516200004990600090602085019062000068565b5080516200005f90600190602084019062000068565b505050620002c1565b828054828255906000526020600020908101928215620000c0579160200282015b82811115620000c057825182546001600160a01b0319166001600160a01b0390911617825560209092019160019091019062000089565b50620000ce929150620000d2565b5090565b5b80821115620000ce5760008155600101620000d3565b634e487b7160e01b600052604160045260246000fd5b604051601f8201601f191681016001600160401b03811182821017156200012a576200012a620000e9565b604052919050565b60006001600160401b038211156200014e576200014e620000e9565b5060051b60200190565b6001600160a01b03811681146200016e57600080fd5b50565b600082601f8301126200018357600080fd5b815160206200019c620001968362000132565b620000ff565b82815260059290921b84018101918181019086841115620001bc57600080fd5b8286015b84811015620001e4578051620001d68162000158565b8352918301918301620001c0565b509695505050505050565b600080604083850312156200020357600080fd5b82516001600160401b03808211156200021b57600080fd5b818501915085601f8301126200023057600080fd5b8151602062000243620001968362000132565b82815260059290921b840181019181810190898411156200026357600080fd5b948201945b838610156200028e5785516200027e8162000158565b8252948201949082019062000268565b91880151919650909350505080821115620002a857600080fd5b50620002b78582860162000171565b9150509250929050565b61128280620002d16000396000f3fe60806040526004361061003f5760003560e01c806313af3b2114610044578063b7dec4e21461006f578063e9c4a3ac14610084578063ef501d381461009c575b600080fd5b34801561005057600080fd5b506100596100b1565b6040516100669190610d73565b60405180910390f35b34801561007b57600080fd5b50610059610113565b61008c610173565b6040519015158152602001610066565b3480156100a857600080fd5b50610059610782565b6060600080548060200260200160405190810160405280929190818152602001828054801561010957602002820191906000526020600020905b81546001600160a01b031681526001909101906020018083116100eb575b5050505050905090565b60606002805480602002602001604051908101604052809291908181526020018280548015610109576020028201919060005260206000209081546001600160a01b031681526001909101906020018083116100eb575050505050905090565b60005b60015415801590610188575060005415155b1561077c5761019760006107e2565b600380546001600160a01b0319166001600160a01b03929092169190911790556101c16000610924565b600480546001600160a01b0319166001600160a01b03928316178155600354604080516245652760e21b815290519190931692630115949c92818101926020929091908290030181865afa15801561021d573d6000803e3d6000fd5b505050506040513d601f19601f820116820180604052508101906102419190610dc0565b60048054604080516245652760e21b815290516001600160a01b0390921692630115949c9282820192602092908290030181865afa158015610287573d6000803e3d6000fd5b505050506040513d601f19601f820116820180604052508101906102ab9190610dc0565b1061060a5760048054600354604080516245652760e21b815290516001600160a01b0393841694630bf153269490931692630115949c928082019260209290918290030181865afa158015610304573d6000803e3d6000fd5b505050506040513d601f19601f820116820180604052508101906103289190610dc0565b60048054604080516245652760e21b815290516001600160a01b0390921692630115949c9282820192602092908290030181865afa15801561036e573d6000803e3d6000fd5b505050506040513d601f19601f820116820180604052508101906103929190610dc0565b61039c9190610def565b6040518263ffffffff1660e01b81526004016103ba91815260200190565b6020604051808303816000875af11580156103d9573d6000803e3d6000fd5b505050506040513d601f19601f820116820180604052508101906103fd9190610e06565b50600454610416906000906001600160a01b0316610a3b565b50600360009054906101000a90046001600160a01b03166001600160a01b031663893d20e86040518163ffffffff1660e01b8152600401602060405180830381865afa15801561046a573d6000803e3d6000fd5b505050506040513d601f19601f8201168201806040525081019061048e9190610e2f565b6004805460408051631127a41d60e31b815290516001600160a01b039092169263893d20e89282820192602092908290030181865afa1580156104d5573d6000803e3d6000fd5b505050506040513d601f19601f820116820180604052508101906104f99190610e2f565b60048054604080516245652760e21b815290516001600160a01b0390921692630115949c9282820192602092908290030181865afa15801561053f573d6000803e3d6000fd5b505050506040513d601f19601f820116820180604052508101906105639190610dc0565b60405161056f90610d66565b6001600160a01b0393841681529290911660208301526040820152606001604051809103906000f0801580156105a9573d6000803e3d6000fd5b50600580546001600160a01b03929092166001600160a01b03199283168117909155600280546001810182556000919091527f405787fa12a823e0f2b7631cc41b3ba8828b3321ca811111fa75cd3aa3bb5ace018054909216179055610176565b60035460048054604080516245652760e21b815290516001600160a01b0394851694630bf1532694931692630115949c928082019260209290918290030181865afa15801561065d573d6000803e3d6000fd5b505050506040513d601f19601f820116820180604052508101906106819190610dc0565b600360009054906101000a90046001600160a01b03166001600160a01b0316630115949c6040518163ffffffff1660e01b8152600401602060405180830381865afa1580156106d4573d6000803e3d6000fd5b505050506040513d601f19601f820116820180604052508101906106f89190610dc0565b6107029190610def565b6040518263ffffffff1660e01b815260040161072091815260200190565b6020604051808303816000875af115801561073f573d6000803e3d6000fd5b505050506040513d601f19601f820116820180604052508101906107639190610e06565b50600354610416906000906001600160a01b0316610bf4565b50600190565b60606001805480602002602001604051908101604052809291908181526020018280548015610109576020028201919060005260206000209081546001600160a01b031681526001909101906020018083116100eb575050505050905090565b6000805482106108255760405162461bcd60e51b81526020600482015260096024820152681b9bdd081d985b1a5960ba1b60448201526064015b60405180910390fd5b600080838154811061083957610839610e58565b6000918252602090912001546001600160a01b03169050825b60005461086190600190610def565b8110156108ea576000610875826001610e6e565b8154811061088557610885610e58565b600091825260208220015481546001600160a01b039091169190839081106108af576108af610e58565b600091825260209091200180546001600160a01b0319166001600160a01b0392909216919091179055806108e281610e86565b915050610852565b5060008054806108fc576108fc610e9f565b600082815260209020810160001990810180546001600160a01b031916905501905592915050565b600060015482106109635760405162461bcd60e51b81526020600482015260096024820152681b9bdd081d985b1a5960ba1b604482015260640161081c565b60006001838154811061097857610978610e58565b6000918252602090912001546001600160a01b03169050825b6001805461099f9190610def565b811015610a295760016109b28282610e6e565b815481106109c2576109c2610e58565b600091825260209091200154600180546001600160a01b0390921691839081106109ee576109ee610e58565b600091825260209091200180546001600160a01b0319166001600160a01b039290921691909117905580610a2181610e86565b915050610991565b5060018054806108fc576108fc610e9f565b60008060018481548110610a5157610a51610e58565b600091825260209091200154600180546001600160a01b039092169250849186908110610a8057610a80610e58565b600091825260209091200180546001600160a01b0319166001600160a01b0392909216919091179055600180548190610aba908290610def565b81548110610aca57610aca610e58565b600091825260208083209091015483546001818101865594845291832090910180546001600160a01b0319166001600160a01b0390921691909117905581549091610b1491610def565b90505b610b22856001610e6e565b8114610ba3576001610b348183610def565b81548110610b4457610b44610e58565b600091825260209091200154600180546001600160a01b039092169183908110610b7057610b70610e58565b9060005260206000200160006101000a8154816001600160a01b0302191690836001600160a01b03160217905550610b17565b816001610bb08782610e6e565b81548110610bc057610bc0610e58565b600091825260209091200180546001600160a01b0319166001600160a01b0392909216919091179055506001949350505050565b60008060008481548110610c0a57610c0a610e58565b600091825260208220015481546001600160a01b03909116925084919086908110610c3757610c37610e58565b6000918252602082200180546001600160a01b0319166001600160a01b03939093169290921790915580548190610c7090600190610def565b81548110610c8057610c80610e58565b600091825260208083209091015483546001818101865594845291832090910180546001600160a01b0319166001600160a01b0390921691909117905580549091610cca91610def565b90505b610cd8856001610e6e565b8114610d58576000610ceb600183610def565b81548110610cfb57610cfb610e58565b600091825260208220015481546001600160a01b03909116919083908110610d2557610d25610e58565b9060005260206000200160006101000a8154816001600160a01b0302191690836001600160a01b03160217905550610ccd565b816000610bb0876001610e6e565b61039780610eb683390190565b6020808252825182820181905260009190848201906040850190845b81811015610db45783516001600160a01b031683529284019291840191600101610d8f565b50909695505050505050565b600060208284031215610dd257600080fd5b5051919050565b634e487b7160e01b600052601160045260246000fd5b600082821015610e0157610e01610dd9565b500390565b600060208284031215610e1857600080fd5b81518015158114610e2857600080fd5b9392505050565b600060208284031215610e4157600080fd5b81516001600160a01b0381168114610e2857600080fd5b634e487b7160e01b600052603260045260246000fd5b60008219821115610e8157610e81610dd9565b500190565b600060018201610e9857610e98610dd9565b5060010190565b634e487b7160e01b600052603160045260246000fdfe608060405234801561001057600080fd5b5060405161039738038061039783398101604081905261002f91610083565b600080546001600160a01b039485166001600160a01b03199182161790915560018054939094169216919091179091556002556100bf565b80516001600160a01b038116811461007e57600080fd5b919050565b60008060006060848603121561009857600080fd5b6100a184610067565b92506100af60208501610067565b9150604084015190509250925092565b6102c9806100ce6000396000f3fe608060405234801561001057600080fd5b50600436106100415760003560e01c80634e69d5601461004657806369ba1a7514610064578063cb7b1c4414610087575b600080fd5b61004e6100b6565b60405161005b91906101ee565b60405180910390f35b610077610072366004610243565b610191565b604051901515815260200161005b565b600054600154600254604080516001600160a01b0394851681529390921660208401529082015260600161005b565b60035460609060ff1660028111156100d0576100d061025c565b6000036100f9575060408051808201909152600781526650656e64696e6760c81b602082015290565b60035460ff1660028111156101105761011061025c565b6001036101355760405180606001604052806021815260200161027360219139905090565b60035460ff16600281111561014c5761014c61025c565b60020361018e576040518060400160405280602081526020017f41637469766174696f6e206f726465722072656a656374656420627920465350815250905090565b90565b6000816000036101b557600380546000919060ff19166001835b02179055506101e6565b816001036101d057600380546001919060ff191682806101ab565b816002036101e6576003805460ff191660021790555b506001919050565b600060208083528351808285015260005b8181101561021b578581018301518582016040015282016101ff565b8181111561022d576000604083870101525b50601f01601f1916929092016040019392505050565b60006020828403121561025557600080fd5b5035919050565b634e487b7160e01b600052602160045260246000fdfe41637469766174696f6e206f7264657220636f6e6669726d656420627920465350a2646970667358221220373b6d4ceaf65c81413218847411a649327e2fe2d08a18efb5fc527ec525217c64736f6c634300080f0033a2646970667358221220476524c69d4a40094506f514e1cd14e5df0a7191b302f966110acbde86d95ec464736f6c634300080f0033",
  "immutableReferences": {},
  "source": "// SPDX-License-Identifier: MIT\npragma solidity ^0.8.0;\n\nimport \"./Bid.sol\";\nimport \"./ActivationRequest.sol\";\nimport \"./ActivationOrder.sol\";\n\ncontract FlexibilityDP {\n    ActivationRequest[] ARL;\n    Bid[] MOL;\n    ActivationOrder[] AOs;\n\n    ActivationRequest currentAR;\n    Bid currentBid;\n    ActivationOrder newAO;\n\n    constructor(\n        ActivationRequest[] memory _ARL,\n        Bid[] memory _MOL\n    ) {\n        ARL = _ARL;\n        MOL = _MOL;\n    }\n\n    function getARL() external view returns (ActivationRequest[] memory) {\n        return ARL;\n    }\n\n    function getMOL() external view returns (Bid[] memory) {\n        return MOL;\n    }\n\n    function pop_ARL(uint256 _index) internal returns (ActivationRequest) {\n        require((_index >= 0) && (_index < ARL.length), \"not valid\");\n        ActivationRequest element = ARL[_index];\n        for (uint256 i = _index; i < ARL.length - 1; i++) {\n            ARL[i] = ARL[i + 1];\n        }\n\n        ARL.pop();\n\n        return element;\n    }\n\n    function pop_MOL(uint256 _index) internal returns (Bid) {\n        require((_index >= 0) && (_index < MOL.length), \"not valid\");\n        Bid element = MOL[_index];\n        for (uint256 i = _index; i < MOL.length - 1; i++) {\n            MOL[i] = MOL[i + 1];\n        }\n        MOL.pop();\n\n        return element;\n    }\n\n    function insert_ARL(uint256 _index, ActivationRequest _AR)\n        internal\n        returns (bool)\n    {\n        ActivationRequest element = ARL[_index];\n        ARL[_index] = _AR;\n        ARL.push(ARL[ARL.length - 1]);\n        uint256 i = ARL.length - 1;\n        while (i != _index + 1) {\n            ARL[i] = ARL[i - 1];\n        }\n        ARL[_index + 1] = element;\n\n        return true;\n    }\n\n    function insert_MOL(uint256 _index, Bid _bid) internal returns (bool) {\n        Bid element = MOL[_index];\n        MOL[_index] = _bid;\n        MOL.push(MOL[MOL.length - 1]);\n        uint256 i = MOL.length - 1;\n        while (i != _index + 1) {\n            MOL[i] = MOL[i - 1];\n        }\n        MOL[_index + 1] = element;\n\n        return true;\n    }\n\n    function getAllActivationOrders()\n        external\n        view\n        returns (ActivationOrder[] memory)\n    {\n        return AOs;\n    }\n\n    function dispatch() external payable returns (bool) {\n\n        while ((MOL.length != 0) && (ARL.length != 0)) {\n            currentAR = pop_ARL(0);\n            currentBid = pop_MOL(0);\n            \n            if (Bid(currentBid).getQuantity() >= ActivationRequest(currentAR).getQuantity()) {\n\n                Bid(currentBid).setQuantity(Bid(currentBid).getQuantity() - ActivationRequest(currentAR).getQuantity());\n                insert_MOL(0, currentBid);\n                newAO = new ActivationOrder(ActivationRequest(currentAR).getOwner(), Bid(currentBid).getOwner(), Bid(currentBid).getQuantity());\n                AOs.push(newAO);\n\n            } \n            else{\n                ActivationRequest(currentAR).setQuantity(ActivationRequest(currentAR).getQuantity() - Bid(currentBid).getQuantity());\n                insert_ARL(0, currentAR);\n                newAO = new ActivationOrder(ActivationRequest(currentAR).getOwner(), Bid(currentBid).getOwner(), Bid(currentBid).getQuantity());\n                AOs.push(newAO);\n\n            }\n\n        }\n\n        return true;\n    }\n}\n",
  "sourcePath": "/home/linna/Desktop/Flexibility/Flexibility-backend/contracts/FlexibilityDP.sol",
  "compiler": {
    "name": "solc",
    "version": "0.8.15+commit.e14f2714.Emscripten.clang"
  },
  "schemaVersion": "3.4.8",
  "updatedAt": "2022-08-02T13:29:00.876Z",
  "devdoc": {
    "kind": "dev",
    "methods": {},
    "version": 1
  },
  "userdoc": {
    "kind": "user",
    "methods": {},
    "version": 1
  }
}