{
  "contractName": "FlexibilityDP",
  "abi": [
    {
      "inputs": [
        {
          "internalType": "contract ActivationRequest[]",
          "name": "_ARL",
          "type": "address[]"
        },
        {
          "internalType": "contract Bid[]",
          "name": "_MOL",
          "type": "address[]"
        }
      ],
      "stateMutability": "nonpayable",
      "type": "constructor"
    },
    {
      "inputs": [],
      "name": "newAO",
      "outputs": [
        {
          "internalType": "address",
          "name": "AR_owner",
          "type": "address"
        },
        {
          "internalType": "address",
          "name": "bid_owner",
          "type": "address"
        },
        {
          "internalType": "uint256",
          "name": "qte",
          "type": "uint256"
        }
      ],
      "stateMutability": "view",
      "type": "function"
    },
    {
      "inputs": [],
      "name": "getARL",
      "outputs": [
        {
          "internalType": "contract ActivationRequest[]",
          "name": "",
          "type": "address[]"
        }
      ],
      "stateMutability": "view",
      "type": "function"
    },
    {
      "inputs": [],
      "name": "getMOL",
      "outputs": [
        {
          "internalType": "contract Bid[]",
          "name": "",
          "type": "address[]"
        }
      ],
      "stateMutability": "view",
      "type": "function"
    },
    {
      "inputs": [],
      "name": "getAllActivationOrders",
      "outputs": [
        {
          "components": [
            {
              "internalType": "address",
              "name": "AR_owner",
              "type": "address"
            },
            {
              "internalType": "address",
              "name": "bid_owner",
              "type": "address"
            },
            {
              "internalType": "uint256",
              "name": "qte",
              "type": "uint256"
            }
          ],
          "internalType": "struct FlexibilityDP.ao[]",
          "name": "",
          "type": "tuple[]"
        }
      ],
      "stateMutability": "view",
      "type": "function"
    },
    {
      "inputs": [],
      "name": "dispatch",
      "outputs": [
        {
          "internalType": "bool",
          "name": "",
          "type": "bool"
        }
      ],
      "stateMutability": "payable",
      "type": "function"
    }
  ],
  "bytecode": "0x60806040523480156200001157600080fd5b506040516200154b3803806200154b8339810160408190526200003491620001ef565b81516200004990600090602085019062000068565b5080516200005f90600190602084019062000068565b505050620002c1565b828054828255906000526020600020908101928215620000c0579160200282015b82811115620000c057825182546001600160a01b0319166001600160a01b0390911617825560209092019160019091019062000089565b50620000ce929150620000d2565b5090565b5b80821115620000ce5760008155600101620000d3565b634e487b7160e01b600052604160045260246000fd5b604051601f8201601f191681016001600160401b03811182821017156200012a576200012a620000e9565b604052919050565b60006001600160401b038211156200014e576200014e620000e9565b5060051b60200190565b6001600160a01b03811681146200016e57600080fd5b50565b600082601f8301126200018357600080fd5b815160206200019c620001968362000132565b620000ff565b82815260059290921b84018101918181019086841115620001bc57600080fd5b8286015b84811015620001e4578051620001d68162000158565b8352918301918301620001c0565b509695505050505050565b600080604083850312156200020357600080fd5b82516001600160401b03808211156200021b57600080fd5b818501915085601f8301126200023057600080fd5b8151602062000243620001968362000132565b82815260059290921b840181019181810190898411156200026357600080fd5b948201945b838610156200028e5785516200027e8162000158565b8252948201949082019062000268565b91880151919650909350505080821115620002a857600080fd5b50620002b78582860162000171565b9150509250929050565b61127a80620002d16000396000f3fe60806040526004361061004a5760003560e01c80630a3f36aa1461004f57806313af3b21146100a5578063b7dec4e2146100c7578063e9c4a3ac146100e9578063ef501d3814610101575b600080fd5b34801561005b57600080fd5b5060025460035460045461007a926001600160a01b0390811692169083565b604080516001600160a01b039485168152939092166020840152908201526060015b60405180910390f35b3480156100b157600080fd5b506100ba610116565b60405161009c91906110a6565b3480156100d357600080fd5b506100dc610178565b60405161009c91906110f3565b6100f16101ff565b604051901515815260200161009c565b34801561010d57600080fd5b506100ba6109f0565b6060600080548060200260200160405190810160405280929190818152602001828054801561016e57602002820191906000526020600020905b81546001600160a01b03168152600190910190602001808311610150575b5050505050905090565b60606005805480602002602001604051908101604052809291908181526020016000905b828210156101f6576000848152602090819020604080516060810182526003860290920180546001600160a01b0390811684526001808301549091168486015260029091015491830191909152908352909201910161019c565b50505050905090565b60005b60015415801590610214575060005415155b156109ea5760006102256000610a50565b905060006102336000610b98565b90506000826001600160a01b0316630115949c6040518163ffffffff1660e01b8152600401602060405180830381865afa158015610275573d6000803e3d6000fd5b505050506040513d601f19601f820116820180604052508101906102999190611158565b826001600160a01b0316630115949c6040518163ffffffff1660e01b8152600401602060405180830381865afa1580156102d7573d6000803e3d6000fd5b505050506040513d601f19601f820116820180604052508101906102fb9190611158565b11156104b457816001600160a01b0316630bf153266103dd856001600160a01b0316630115949c6040518163ffffffff1660e01b8152600401602060405180830381865afa158015610351573d6000803e3d6000fd5b505050506040513d601f19601f820116820180604052508101906103759190611158565b856001600160a01b0316630115949c6040518163ffffffff1660e01b8152600401602060405180830381865afa1580156103b3573d6000803e3d6000fd5b505050506040513d601f19601f820116820180604052508101906103d79190611158565b90610cb1565b6040518263ffffffff1660e01b81526004016103fb91815260200190565b6020604051808303816000875af115801561041a573d6000803e3d6000fd5b505050506040513d601f19601f8201168201806040525081019061043e9190611171565b5061044a600083610cc6565b50826001600160a01b0316630115949c6040518163ffffffff1660e01b8152600401602060405180830381865afa158015610489573d6000803e3d6000fd5b505050506040513d601f19601f820116820180604052508101906104ad9190611158565b9050610846565b826001600160a01b0316630115949c6040518163ffffffff1660e01b8152600401602060405180830381865afa1580156104f2573d6000803e3d6000fd5b505050506040513d601f19601f820116820180604052508101906105169190611158565b826001600160a01b0316630115949c6040518163ffffffff1660e01b8152600401602060405180830381865afa158015610554573d6000803e3d6000fd5b505050506040513d601f19601f820116820180604052508101906105789190611158565b101561077457826001600160a01b0316630bf15326610630846001600160a01b0316630115949c6040518163ffffffff1660e01b8152600401602060405180830381865afa1580156105ce573d6000803e3d6000fd5b505050506040513d601f19601f820116820180604052508101906105f29190611158565b866001600160a01b0316630115949c6040518163ffffffff1660e01b8152600401602060405180830381865afa1580156103b3573d6000803e3d6000fd5b6040518263ffffffff1660e01b815260040161064e91815260200190565b6020604051808303816000875af115801561066d573d6000803e3d6000fd5b505050506040513d601f19601f820116820180604052508101906106919190611171565b5061069d600084610ed7565b50816001600160a01b0316630115949c6040518163ffffffff1660e01b8152600401602060405180830381865afa1580156106dc573d6000803e3d6000fd5b505050506040513d601f19601f820116820180604052508101906107009190611158565b6040516305f8a99360e11b8152600060048201529091506001600160a01b03831690630bf15326906024016020604051808303816000875af115801561074a573d6000803e3d6000fd5b505050506040513d601f19601f8201168201806040525081019061076e9190611171565b50610846565b816001600160a01b0316630115949c6040518163ffffffff1660e01b8152600401602060405180830381865afa1580156107b2573d6000803e3d6000fd5b505050506040513d601f19601f820116820180604052508101906107d69190611158565b6040516305f8a99360e11b8152600060048201529091506001600160a01b03831690630bf15326906024016020604051808303816000875af1158015610820573d6000803e3d6000fd5b505050506040513d601f19601f820116820180604052508101906108449190611171565b505b6109e1826001600160a01b031663893d20e86040518163ffffffff1660e01b8152600401602060405180830381865afa158015610887573d6000803e3d6000fd5b505050506040513d601f19601f820116820180604052508101906108ab919061119a565b846001600160a01b031663893d20e86040518163ffffffff1660e01b8152600401602060405180830381865afa1580156108e9573d6000803e3d6000fd5b505050506040513d601f19601f8201168201806040525081019061090d919061119a565b600280546001600160a01b039384166001600160a01b03199182168117909255600380549385169382169390931783556004868155600580546001818101835560009290925285027f036b6384b5eca791c62761152d0c79bb0604c104a5fb6f4eb0703f3154bb3db081018054851690951790945593547f036b6384b5eca791c62761152d0c79bb0604c104a5fb6f4eb0703f3154bb3db184018054909316951694909417905591547f036b6384b5eca791c62761152d0c79bb0604c104a5fb6f4eb0703f3154bb3db29092019190915590565b50505050610202565b50600190565b6060600180548060200260200160405190810160405280929190818152602001828054801561016e576020028201919060005260206000209081546001600160a01b03168152600190910190602001808311610150575050505050905090565b60006001548210610a985760405162461bcd60e51b815260206004820152600d60248201526c1b9bdd081d985b1a59081353d3609a1b60448201526064015b60405180910390fd5b600060018381548110610aad57610aad6111c3565b6000918252602090912001546001600160a01b03169050825b60018054610ad491906111ef565b811015610b5e576001610ae78282611202565b81548110610af757610af76111c3565b600091825260209091200154600180546001600160a01b039092169183908110610b2357610b236111c3565b600091825260209091200180546001600160a01b0319166001600160a01b039290921691909117905580610b5681611215565b915050610ac6565b506001805480610b7057610b7061122e565b600082815260209020810160001990810180546001600160a01b031916905501905592915050565b600080548210610bda5760405162461bcd60e51b815260206004820152600d60248201526c1b9bdd081d985b1a5908105493609a1b6044820152606401610a8f565b6000808381548110610bee57610bee6111c3565b6000918252602090912001546001600160a01b03169050825b600054610c16906001906111ef565b811015610c9f576000610c2a826001611202565b81548110610c3a57610c3a6111c3565b600091825260208220015481546001600160a01b03909116919083908110610c6457610c646111c3565b600091825260209091200180546001600160a01b0319166001600160a01b039290921691909117905580610c9781611215565b915050610c07565b506000805480610b7057610b7061122e565b6000610cbd82846111ef565b90505b92915050565b600080548103610d1d57600080546001810182559080527f290decd9548b62a8d60345a988386fc84ba6bc95484008f6362f93160ef3e5630180546001600160a01b0319166001600160a01b038416179055610ece565b6000808481548110610d3157610d316111c3565b600091825260208220015481546001600160a01b03909116925084919086908110610d5e57610d5e6111c3565b6000918252602082200180546001600160a01b0319166001600160a01b03939093169290921790915580548190610d97906001906111ef565b81548110610da757610da76111c3565b600091825260208083209091015483546001818101865594845291832090910180546001600160a01b0319166001600160a01b0390921691909117905580549091610df1916111ef565b90505b610dff856001611202565b8114610e7f576000610e126001836111ef565b81548110610e2257610e226111c3565b600091825260208220015481546001600160a01b03909116919083908110610e4c57610e4c6111c3565b9060005260206000200160006101000a8154816001600160a01b0302191690836001600160a01b03160217905550610df4565b816000610e8d876001611202565b81548110610e9d57610e9d6111c3565b9060005260206000200160006101000a8154816001600160a01b0302191690836001600160a01b0316021790555050505b50600192915050565b6001546000908103610f32576001805480820182556000919091527fb10e2d527612073b26eecdfd717e6a320cf44b4afac2b0732d9fcbe2b7fa0cf60180546001600160a01b0319166001600160a01b038416179055610ece565b600060018481548110610f4757610f476111c3565b600091825260209091200154600180546001600160a01b039092169250849186908110610f7657610f766111c3565b600091825260209091200180546001600160a01b0319166001600160a01b0392909216919091179055600180548190610fb09082906111ef565b81548110610fc057610fc06111c3565b600091825260208083209091015483546001818101865594845291832090910180546001600160a01b0319166001600160a01b039092169190911790558154909161100a916111ef565b90505b611018856001611202565b811461109957600161102a81836111ef565b8154811061103a5761103a6111c3565b600091825260209091200154600180546001600160a01b039092169183908110611066576110666111c3565b9060005260206000200160006101000a8154816001600160a01b0302191690836001600160a01b0316021790555061100d565b816001610e8d8782611202565b6020808252825182820181905260009190848201906040850190845b818110156110e75783516001600160a01b0316835292840192918401916001016110c2565b50909695505050505050565b602080825282518282018190526000919060409081850190868401855b8281101561114b57815180516001600160a01b0390811686528782015116878601528501518585015260609093019290850190600101611110565b5091979650505050505050565b60006020828403121561116a57600080fd5b5051919050565b60006020828403121561118357600080fd5b8151801515811461119357600080fd5b9392505050565b6000602082840312156111ac57600080fd5b81516001600160a01b038116811461119357600080fd5b634e487b7160e01b600052603260045260246000fd5b634e487b7160e01b600052601160045260246000fd5b81810381811115610cc057610cc06111d9565b80820180821115610cc057610cc06111d9565b600060018201611227576112276111d9565b5060010190565b634e487b7160e01b600052603160045260246000fdfea2646970667358221220060d40aeafe240b01dea21628b2cdf5c5f4db9c0e2634c4743bfa8766cf77d0664736f6c63430008100033",
  "immutableReferences": {},
  "source": "// SPDX-License-Identifier: MIT\npragma solidity ^0.8.0;\nimport \"@openzeppelin/contracts/utils/math/SafeMath.sol\";\nimport \"./Bid.sol\";\nimport \"./ActivationRequest.sol\";\n\ncontract FlexibilityDP {\n    using SafeMath for uint256;\n    ActivationRequest[] ARL;\n    Bid[] MOL;\n    \n    struct ao{\n        address AR_owner;\n        address bid_owner;\n        uint256 qte;\n    }\n\n    ao public newAO;\n    ao[] AOs;\n\n    constructor(\n        ActivationRequest[] memory _ARL,\n        Bid[] memory _MOL\n    ) {\n        ARL = _ARL;\n        MOL = _MOL;\n    }\n\n    function getARL() external view returns (ActivationRequest[] memory) {\n        return ARL;\n    }\n\n    function getMOL() external view returns (Bid[] memory) {\n        return MOL;\n    }\n\n    function pop_ARL(uint256 _index) internal returns (ActivationRequest) {\n        require((_index >= 0) && (_index < ARL.length), \"not valid ARL\");\n        ActivationRequest element = ARL[_index];\n        for (uint256 i = _index; i < ARL.length - 1; i++) {\n            ARL[i] = ARL[i + 1];\n        }\n\n        ARL.pop();\n\n        return element;\n    }\n\n    function pop_MOL(uint256 _index) internal returns (Bid) {\n        require((_index >= 0) && (_index < MOL.length), \"not valid MOL\");\n        Bid element = MOL[_index];\n        for (uint256 i = _index; i < MOL.length - 1; i++) {\n            MOL[i] = MOL[i + 1];\n        }\n        MOL.pop();\n\n        return element;\n    }\n\n    function insert_ARL(uint256 _index, ActivationRequest _AR)\n        internal\n        returns (bool)\n    {\n        if (ARL.length == 0)\n            ARL.push(_AR);\n        else{\n        ActivationRequest element = ARL[_index];\n        ARL[_index] = _AR;\n        ARL.push(ARL[ARL.length - 1]);\n        uint256 i = ARL.length - 1;\n        while (i != _index + 1) {\n            ARL[i] = ARL[i - 1];\n        }\n        ARL[_index + 1] = element;\n        }\n        return true;\n    }\n\n    function insert_MOL(uint256 _index, Bid _bid) internal returns (bool) {\n        if (MOL.length == 0)\n            MOL.push(_bid);\n        else{\n        Bid element = MOL[_index];\n        MOL[_index] = _bid;\n        MOL.push(MOL[MOL.length - 1]);\n        uint256 i = MOL.length - 1;\n        while (i != _index + 1) {\n            MOL[i] = MOL[i - 1];\n        }\n        MOL[_index + 1] = element;\n        }\n\n        return true;\n    }\n\n    function createAO(address _AROwner, address _BidOwner, uint256 qte) internal returns(bool){\n        newAO.AR_owner = _AROwner;\n        newAO.bid_owner = _BidOwner;\n        newAO.qte = qte;\n\n        AOs.push(newAO);\n\n        return true;\n    }\n\n    function getAllActivationOrders()\n        external\n        view\n        returns (ao[] memory)\n    {\n        return AOs;\n    }\n\n    function dispatch() external payable returns(bool){\n        \n        while( ( MOL.length != 0 ) && ( ARL.length != 0 ) ){\n            Bid currentBid = pop_MOL(0);\n            ActivationRequest currentAR = pop_ARL(0);\n            uint256 q;\n\n            if ( (ActivationRequest(currentAR).getQuantity()) > (Bid(currentBid).getQuantity()) ){\n\n                ActivationRequest(currentAR).setQuantity( (ActivationRequest(currentAR).getQuantity()).sub(Bid(currentBid).getQuantity()) );\n                insert_ARL(0, currentAR);\n                q = Bid(currentBid).getQuantity();\n            \n            }\n            else if ( (ActivationRequest(currentAR).getQuantity()) < (Bid(currentBid).getQuantity()) ){\n\n                Bid(currentBid).setQuantity( (Bid(currentBid).getQuantity()).sub(ActivationRequest(currentAR).getQuantity()) );\n                insert_MOL(0, currentBid);\n                q = ActivationRequest(currentAR).getQuantity();\n                ActivationRequest(currentAR).setQuantity(0);\n\n            }\n            else{\n\n                q = ActivationRequest(currentAR).getQuantity();\n                ActivationRequest(currentAR).setQuantity(0);\n\n            }\n\n            createAO( ActivationRequest(currentAR).getOwner() , Bid(currentBid).getOwner() , q );\n            \n        }\n\n        return true;\n        \n    }\n\n}\n",
  "sourcePath": "/home/linna/Desktop/Flexibility/Flexibility-backend/contracts/FlexibilityDP.sol",
  "compiler": {
    "name": "solc",
    "version": "0.8.16+commit.07a7930e.Emscripten.clang"
  },
  "schemaVersion": "3.4.8",
  "updatedAt": "2022-08-18T10:10:09.208Z",
  "devdoc": {
    "kind": "dev",
    "methods": {},
    "version": 1
  },
  "userdoc": {
    "kind": "user",
    "methods": {},
    "version": 1
  }
}