{
  "contractName": "NFT",
  "abi": [
    {
      "anonymous": false,
      "inputs": [
        {
          "indexed": true,
          "internalType": "address",
          "name": "owner",
          "type": "address"
        },
        {
          "indexed": true,
          "internalType": "address",
          "name": "approved",
          "type": "address"
        },
        {
          "indexed": true,
          "internalType": "uint256",
          "name": "tokenId",
          "type": "uint256"
        }
      ],
      "name": "Approval",
      "type": "event"
    },
    {
      "anonymous": false,
      "inputs": [
        {
          "indexed": true,
          "internalType": "address",
          "name": "owner",
          "type": "address"
        },
        {
          "indexed": true,
          "internalType": "address",
          "name": "operator",
          "type": "address"
        },
        {
          "indexed": false,
          "internalType": "bool",
          "name": "approved",
          "type": "bool"
        }
      ],
      "name": "ApprovalForAll",
      "type": "event"
    },
    {
      "anonymous": false,
      "inputs": [
        {
          "indexed": true,
          "internalType": "address",
          "name": "previousOwner",
          "type": "address"
        },
        {
          "indexed": true,
          "internalType": "address",
          "name": "newOwner",
          "type": "address"
        }
      ],
      "name": "OwnershipTransferred",
      "type": "event"
    },
    {
      "anonymous": false,
      "inputs": [
        {
          "indexed": true,
          "internalType": "address",
          "name": "from",
          "type": "address"
        },
        {
          "indexed": true,
          "internalType": "address",
          "name": "to",
          "type": "address"
        },
        {
          "indexed": true,
          "internalType": "uint256",
          "name": "tokenId",
          "type": "uint256"
        }
      ],
      "name": "Transfer",
      "type": "event"
    },
    {
      "inputs": [
        {
          "internalType": "address",
          "name": "to",
          "type": "address"
        },
        {
          "internalType": "uint256",
          "name": "tokenId",
          "type": "uint256"
        }
      ],
      "name": "approve",
      "outputs": [],
      "stateMutability": "nonpayable",
      "type": "function"
    },
    {
      "inputs": [
        {
          "internalType": "address",
          "name": "owner",
          "type": "address"
        }
      ],
      "name": "balanceOf",
      "outputs": [
        {
          "internalType": "uint256",
          "name": "",
          "type": "uint256"
        }
      ],
      "stateMutability": "view",
      "type": "function"
    },
    {
      "inputs": [
        {
          "internalType": "uint256",
          "name": "tokenId",
          "type": "uint256"
        }
      ],
      "name": "getApproved",
      "outputs": [
        {
          "internalType": "address",
          "name": "",
          "type": "address"
        }
      ],
      "stateMutability": "view",
      "type": "function"
    },
    {
      "inputs": [
        {
          "internalType": "address",
          "name": "owner",
          "type": "address"
        },
        {
          "internalType": "address",
          "name": "operator",
          "type": "address"
        }
      ],
      "name": "isApprovedForAll",
      "outputs": [
        {
          "internalType": "bool",
          "name": "",
          "type": "bool"
        }
      ],
      "stateMutability": "view",
      "type": "function"
    },
    {
      "inputs": [],
      "name": "name",
      "outputs": [
        {
          "internalType": "string",
          "name": "",
          "type": "string"
        }
      ],
      "stateMutability": "view",
      "type": "function"
    },
    {
      "inputs": [],
      "name": "owner",
      "outputs": [
        {
          "internalType": "address",
          "name": "",
          "type": "address"
        }
      ],
      "stateMutability": "view",
      "type": "function"
    },
    {
      "inputs": [
        {
          "internalType": "uint256",
          "name": "tokenId",
          "type": "uint256"
        }
      ],
      "name": "ownerOf",
      "outputs": [
        {
          "internalType": "address",
          "name": "",
          "type": "address"
        }
      ],
      "stateMutability": "view",
      "type": "function"
    },
    {
      "inputs": [
        {
          "internalType": "address",
          "name": "",
          "type": "address"
        },
        {
          "internalType": "uint256",
          "name": "",
          "type": "uint256"
        }
      ],
      "name": "ownershipRecord",
      "outputs": [
        {
          "internalType": "uint256",
          "name": "tokenId",
          "type": "uint256"
        },
        {
          "internalType": "uint256",
          "name": "timestamp",
          "type": "uint256"
        },
        {
          "internalType": "address",
          "name": "tokenURI",
          "type": "address"
        }
      ],
      "stateMutability": "view",
      "type": "function"
    },
    {
      "inputs": [],
      "name": "renounceOwnership",
      "outputs": [],
      "stateMutability": "nonpayable",
      "type": "function"
    },
    {
      "inputs": [
        {
          "internalType": "address",
          "name": "from",
          "type": "address"
        },
        {
          "internalType": "address",
          "name": "to",
          "type": "address"
        },
        {
          "internalType": "uint256",
          "name": "tokenId",
          "type": "uint256"
        }
      ],
      "name": "safeTransferFrom",
      "outputs": [],
      "stateMutability": "nonpayable",
      "type": "function"
    },
    {
      "inputs": [
        {
          "internalType": "address",
          "name": "from",
          "type": "address"
        },
        {
          "internalType": "address",
          "name": "to",
          "type": "address"
        },
        {
          "internalType": "uint256",
          "name": "tokenId",
          "type": "uint256"
        },
        {
          "internalType": "bytes",
          "name": "data",
          "type": "bytes"
        }
      ],
      "name": "safeTransferFrom",
      "outputs": [],
      "stateMutability": "nonpayable",
      "type": "function"
    },
    {
      "inputs": [
        {
          "internalType": "address",
          "name": "operator",
          "type": "address"
        },
        {
          "internalType": "bool",
          "name": "approved",
          "type": "bool"
        }
      ],
      "name": "setApprovalForAll",
      "outputs": [],
      "stateMutability": "nonpayable",
      "type": "function"
    },
    {
      "inputs": [
        {
          "internalType": "bytes4",
          "name": "interfaceId",
          "type": "bytes4"
        }
      ],
      "name": "supportsInterface",
      "outputs": [
        {
          "internalType": "bool",
          "name": "",
          "type": "bool"
        }
      ],
      "stateMutability": "view",
      "type": "function"
    },
    {
      "inputs": [],
      "name": "symbol",
      "outputs": [
        {
          "internalType": "string",
          "name": "",
          "type": "string"
        }
      ],
      "stateMutability": "view",
      "type": "function"
    },
    {
      "inputs": [
        {
          "internalType": "uint256",
          "name": "tokenId",
          "type": "uint256"
        }
      ],
      "name": "tokenURI",
      "outputs": [
        {
          "internalType": "string",
          "name": "",
          "type": "string"
        }
      ],
      "stateMutability": "view",
      "type": "function"
    },
    {
      "inputs": [
        {
          "internalType": "address",
          "name": "from",
          "type": "address"
        },
        {
          "internalType": "address",
          "name": "to",
          "type": "address"
        },
        {
          "internalType": "uint256",
          "name": "tokenId",
          "type": "uint256"
        }
      ],
      "name": "transferFrom",
      "outputs": [],
      "stateMutability": "nonpayable",
      "type": "function"
    },
    {
      "inputs": [
        {
          "internalType": "address",
          "name": "newOwner",
          "type": "address"
        }
      ],
      "name": "transferOwnership",
      "outputs": [],
      "stateMutability": "nonpayable",
      "type": "function"
    },
    {
      "inputs": [
        {
          "internalType": "address",
          "name": "recipient",
          "type": "address"
        },
        {
          "internalType": "address",
          "name": "bidAddress",
          "type": "address"
        }
      ],
      "name": "mintToken",
      "outputs": [],
      "stateMutability": "nonpayable",
      "type": "function"
    }
  ],
  "bytecode": "0x60806040523480156200001157600080fd5b5060405180604001604052806007815260200166109a590813919560ca1b815250604051806040016040528060048152602001631093919560e21b81525062000069620000636200008f60201b60201c565b62000093565b600162000077838262000188565b50600262000086828262000188565b50505062000254565b3390565b600080546001600160a01b038381166001600160a01b0319831681178455604051919092169283917f8be0079c531659141344cd1fd0a4f28419497f9722a3daafe3b4186f6b6457e09190a35050565b634e487b7160e01b600052604160045260246000fd5b600181811c908216806200010e57607f821691505b6020821081036200012f57634e487b7160e01b600052602260045260246000fd5b50919050565b601f8211156200018357600081815260208120601f850160051c810160208610156200015e5750805b601f850160051c820191505b818110156200017f578281556001016200016a565b5050505b505050565b81516001600160401b03811115620001a457620001a4620000e3565b620001bc81620001b58454620000f9565b8462000135565b602080601f831160018114620001f45760008415620001db5750858301515b600019600386901b1c1916600185901b1785556200017f565b600085815260208120601f198616915b82811015620002255788860151825594840194600190910190840162000204565b5085821015620002445787850151600019600388901b60f8161c191681555b5050505050600190811b01905550565b61159a80620002646000396000f3fe608060405234801561001057600080fd5b50600436106101165760003560e01c8063715018a6116100a2578063b88d4fde11610071578063b88d4fde1461025d578063c87b56dd14610270578063e985e9c514610283578063edcd14ef146102bf578063f2fde38b146102d257600080fd5b8063715018a6146102295780638da5cb5b1461023157806395d89b4114610242578063a22cb4651461024a57600080fd5b806323b872dd116100e957806323b872dd1461019857806337746cc5146101ab57806342842e0e146101e25780636352211e146101f557806370a082311461020857600080fd5b806301ffc9a71461011b57806306fdde0314610143578063081812fc14610158578063095ea7b314610183575b600080fd5b61012e6101293660046110b0565b6102e5565b60405190151581526020015b60405180910390f35b61014b610337565b60405161013a9190611125565b61016b610166366004611138565b6103c9565b6040516001600160a01b03909116815260200161013a565b61019661019136600461116d565b6103f0565b005b6101966101a6366004611197565b61050a565b6101be6101b936600461116d565b61053b565b6040805193845260208401929092526001600160a01b03169082015260600161013a565b6101966101f0366004611197565b610586565b61016b610203366004611138565b6105a1565b61021b6102163660046111d3565b610601565b60405190815260200161013a565b610196610687565b6000546001600160a01b031661016b565b61014b61069b565b6101966102583660046111ee565b6106aa565b61019661026b366004611240565b6106b9565b61014b61027e366004611138565b6106f1565b61012e61029136600461131c565b6001600160a01b03918216600090815260066020908152604080832093909416825291909152205460ff1690565b6101966102cd36600461131c565b610765565b6101966102e03660046111d3565b6107fd565b60006001600160e01b031982166380ac58cd60e01b148061031657506001600160e01b03198216635b5e139f60e01b145b8061033157506301ffc9a760e01b6001600160e01b03198316145b92915050565b6060600180546103469061134f565b80601f01602080910402602001604051908101604052809291908181526020018280546103729061134f565b80156103bf5780601f10610394576101008083540402835291602001916103bf565b820191906000526020600020905b8154815290600101906020018083116103a257829003601f168201915b5050505050905090565b60006103d482610876565b506000908152600560205260409020546001600160a01b031690565b60006103fb826105a1565b9050806001600160a01b0316836001600160a01b03160361046d5760405162461bcd60e51b815260206004820152602160248201527f4552433732313a20617070726f76616c20746f2063757272656e74206f776e656044820152603960f91b60648201526084015b60405180910390fd5b336001600160a01b038216148061048957506104898133610291565b6104fb5760405162461bcd60e51b815260206004820152603e60248201527f4552433732313a20617070726f76652063616c6c6572206973206e6f7420746f60448201527f6b656e206f776e6572206e6f7220617070726f76656420666f7220616c6c00006064820152608401610464565b61050583836108d5565b505050565b6105143382610943565b6105305760405162461bcd60e51b815260040161046490611389565b6105058383836109c2565b6008602052816000526040600020818154811061055757600080fd5b60009182526020909120600390910201805460018201546002909201549093509091506001600160a01b031683565b610505838383604051806020016040528060008152506106b9565b6000818152600360205260408120546001600160a01b0316806103315760405162461bcd60e51b8152602060048201526018602482015277115490cdcc8c4e881a5b9d985b1a59081d1bdad95b88125160421b6044820152606401610464565b60006001600160a01b03821661066b5760405162461bcd60e51b815260206004820152602960248201527f4552433732313a2061646472657373207a65726f206973206e6f7420612076616044820152683634b21037bbb732b960b91b6064820152608401610464565b506001600160a01b031660009081526004602052604090205490565b61068f610b5e565b6106996000610bb8565b565b6060600280546103469061134f565b6106b5338383610c08565b5050565b6106c33383610943565b6106df5760405162461bcd60e51b815260040161046490611389565b6106eb84848484610cd6565b50505050565b60606106fc82610876565b600061071360408051602081019091526000815290565b90506000815111610733576040518060200160405280600081525061075e565b8061073d84610d09565b60405160200161074e9291906113d7565b6040516020818303038152906040525b9392505050565b61077182600754610e0a565b6001600160a01b03828116600090815260086020908152604080832081516060810183526007805482524282860190815288881694830194855283546001808201865594885295909620915160039095029091019384559351838201559051600290920180546001600160a01b0319169290941691909117909255546107f69161141c565b6007555050565b610805610b5e565b6001600160a01b03811661086a5760405162461bcd60e51b815260206004820152602660248201527f4f776e61626c653a206e6577206f776e657220697320746865207a65726f206160448201526564647265737360d01b6064820152608401610464565b61087381610bb8565b50565b6000818152600360205260409020546001600160a01b03166108735760405162461bcd60e51b8152602060048201526018602482015277115490cdcc8c4e881a5b9d985b1a59081d1bdad95b88125160421b6044820152606401610464565b600081815260056020526040902080546001600160a01b0319166001600160a01b038416908117909155819061090a826105a1565b6001600160a01b03167f8c5be1e5ebec7d5bd14f71427d1e84f3dd0314c0f7b2291e5b200ac8c7c3b92560405160405180910390a45050565b60008061094f836105a1565b9050806001600160a01b0316846001600160a01b0316148061099657506001600160a01b0380821660009081526006602090815260408083209388168352929052205460ff165b806109ba5750836001600160a01b03166109af846103c9565b6001600160a01b0316145b949350505050565b826001600160a01b03166109d5826105a1565b6001600160a01b031614610a395760405162461bcd60e51b815260206004820152602560248201527f4552433732313a207472616e736665722066726f6d20696e636f72726563742060448201526437bbb732b960d91b6064820152608401610464565b6001600160a01b038216610a9b5760405162461bcd60e51b8152602060048201526024808201527f4552433732313a207472616e7366657220746f20746865207a65726f206164646044820152637265737360e01b6064820152608401610464565b610aa66000826108d5565b6001600160a01b0383166000908152600460205260408120805460019290610acf908490611434565b90915550506001600160a01b0382166000908152600460205260408120805460019290610afd90849061141c565b909155505060008181526003602052604080822080546001600160a01b0319166001600160a01b0386811691821790925591518493918716917fddf252ad1be2c89b69c2b068fc378daa952ba7f163c4a11628f55a4df523b3ef91a4505050565b6000546001600160a01b031633146106995760405162461bcd60e51b815260206004820181905260248201527f4f776e61626c653a2063616c6c6572206973206e6f7420746865206f776e65726044820152606401610464565b600080546001600160a01b038381166001600160a01b0319831681178455604051919092169283917f8be0079c531659141344cd1fd0a4f28419497f9722a3daafe3b4186f6b6457e09190a35050565b816001600160a01b0316836001600160a01b031603610c695760405162461bcd60e51b815260206004820152601960248201527f4552433732313a20617070726f766520746f2063616c6c6572000000000000006044820152606401610464565b6001600160a01b03838116600081815260066020908152604080832094871680845294825291829020805460ff191686151590811790915591519182527f17307eab39ab6107e8899845ad3d59bd9653f200f220920489ca2b5937696c31910160405180910390a3505050565b610ce18484846109c2565b610ced84848484610e24565b6106eb5760405162461bcd60e51b81526004016104649061144b565b606081600003610d305750506040805180820190915260018152600360fc1b602082015290565b8160005b8115610d5a5780610d448161149d565b9150610d539050600a836114cc565b9150610d34565b60008167ffffffffffffffff811115610d7557610d7561122a565b6040519080825280601f01601f191660200182016040528015610d9f576020820181803683370190505b5090505b84156109ba57610db4600183611434565b9150610dc1600a866114e0565b610dcc90603061141c565b60f81b818381518110610de157610de16114f4565b60200101906001600160f81b031916908160001a905350610e03600a866114cc565b9450610da3565b6106b5828260405180602001604052806000815250610f25565b60006001600160a01b0384163b15610f1a57604051630a85bd0160e11b81526001600160a01b0385169063150b7a0290610e6890339089908890889060040161150a565b6020604051808303816000875af1925050508015610ea3575060408051601f3d908101601f19168201909252610ea091810190611547565b60015b610f00573d808015610ed1576040519150601f19603f3d011682016040523d82523d6000602084013e610ed6565b606091505b508051600003610ef85760405162461bcd60e51b81526004016104649061144b565b805181602001fd5b6001600160e01b031916630a85bd0160e11b1490506109ba565b506001949350505050565b610f2f8383610f58565b610f3c6000848484610e24565b6105055760405162461bcd60e51b81526004016104649061144b565b6001600160a01b038216610fae5760405162461bcd60e51b815260206004820181905260248201527f4552433732313a206d696e7420746f20746865207a65726f20616464726573736044820152606401610464565b6000818152600360205260409020546001600160a01b0316156110135760405162461bcd60e51b815260206004820152601c60248201527f4552433732313a20746f6b656e20616c7265616479206d696e746564000000006044820152606401610464565b6001600160a01b038216600090815260046020526040812080546001929061103c90849061141c565b909155505060008181526003602052604080822080546001600160a01b0319166001600160a01b03861690811790915590518392907fddf252ad1be2c89b69c2b068fc378daa952ba7f163c4a11628f55a4df523b3ef908290a45050565b6001600160e01b03198116811461087357600080fd5b6000602082840312156110c257600080fd5b813561075e8161109a565b60005b838110156110e85781810151838201526020016110d0565b838111156106eb5750506000910152565b600081518084526111118160208601602086016110cd565b601f01601f19169290920160200192915050565b60208152600061075e60208301846110f9565b60006020828403121561114a57600080fd5b5035919050565b80356001600160a01b038116811461116857600080fd5b919050565b6000806040838503121561118057600080fd5b61118983611151565b946020939093013593505050565b6000806000606084860312156111ac57600080fd5b6111b584611151565b92506111c360208501611151565b9150604084013590509250925092565b6000602082840312156111e557600080fd5b61075e82611151565b6000806040838503121561120157600080fd5b61120a83611151565b91506020830135801515811461121f57600080fd5b809150509250929050565b634e487b7160e01b600052604160045260246000fd5b6000806000806080858703121561125657600080fd5b61125f85611151565b935061126d60208601611151565b925060408501359150606085013567ffffffffffffffff8082111561129157600080fd5b818701915087601f8301126112a557600080fd5b8135818111156112b7576112b761122a565b604051601f8201601f19908116603f011681019083821181831017156112df576112df61122a565b816040528281528a60208487010111156112f857600080fd5b82602086016020830137600060208483010152809550505050505092959194509250565b6000806040838503121561132f57600080fd5b61133883611151565b915061134660208401611151565b90509250929050565b600181811c9082168061136357607f821691505b60208210810361138357634e487b7160e01b600052602260045260246000fd5b50919050565b6020808252602e908201527f4552433732313a2063616c6c6572206973206e6f7420746f6b656e206f776e6560408201526d1c881b9bdc88185c1c1c9bdd995960921b606082015260800190565b600083516113e98184602088016110cd565b8351908301906113fd8183602088016110cd565b01949350505050565b634e487b7160e01b600052601160045260246000fd5b6000821982111561142f5761142f611406565b500190565b60008282101561144657611446611406565b500390565b60208082526032908201527f4552433732313a207472616e7366657220746f206e6f6e20455243373231526560408201527131b2b4bb32b91034b6b83632b6b2b73a32b960711b606082015260800190565b6000600182016114af576114af611406565b5060010190565b634e487b7160e01b600052601260045260246000fd5b6000826114db576114db6114b6565b500490565b6000826114ef576114ef6114b6565b500690565b634e487b7160e01b600052603260045260246000fd5b6001600160a01b038581168252841660208201526040810183905260806060820181905260009061153d908301846110f9565b9695505050505050565b60006020828403121561155957600080fd5b815161075e8161109a56fea26469706673582212202e76cffec9d90c64c915385ccb3f6dd496c2048364a34f56c22a1b054ad5b36e64736f6c634300080f0033",
  "immutableReferences": {},
  "source": "// SPDX-License-Identifier: MIT\r\npragma solidity ^0.8.0;\r\n\r\nimport \"@openzeppelin/contracts/token/ERC721/ERC721.sol\";\r\nimport \"@openzeppelin/contracts/access/Ownable.sol\";\r\n\r\ncontract NFT is Ownable, ERC721(\"Bid NFT\",\"BNFT\"){\r\n\r\n    uint tokenId;\r\n\r\n    mapping (address => tokenMetadata[]) public ownershipRecord;\r\n\r\n    struct tokenMetadata {\r\n        uint256 tokenId;\r\n        uint256 timestamp;\r\n        address tokenURI;\r\n    }\r\n\r\n    function mintToken(address recipient, address bidAddress) public {\r\n        _safeMint(recipient, tokenId);\r\n        ownershipRecord[recipient].push(tokenMetadata(tokenId, block.timestamp, bidAddress));\r\n\r\n        tokenId = tokenId + 1;\r\n    }\r\n}    \r\n",
  "sourcePath": "D:\\webdev projects\\flexibility\\fp-backend\\contracts\\NFT.sol",
  "compiler": {
    "name": "solc",
    "version": "0.8.15+commit.e14f2714.Emscripten.clang"
  },
  "schemaVersion": "3.4.4",
  "updatedAt": "2022-07-20T12:14:25.826Z",
  "devdoc": {
    "kind": "dev",
    "methods": {
      "approve(address,uint256)": {
        "details": "See {IERC721-approve}."
      },
      "balanceOf(address)": {
        "details": "See {IERC721-balanceOf}."
      },
      "getApproved(uint256)": {
        "details": "See {IERC721-getApproved}."
      },
      "isApprovedForAll(address,address)": {
        "details": "See {IERC721-isApprovedForAll}."
      },
      "name()": {
        "details": "See {IERC721Metadata-name}."
      },
      "owner()": {
        "details": "Returns the address of the current owner."
      },
      "ownerOf(uint256)": {
        "details": "See {IERC721-ownerOf}."
      },
      "renounceOwnership()": {
        "details": "Leaves the contract without owner. It will not be possible to call `onlyOwner` functions anymore. Can only be called by the current owner. NOTE: Renouncing ownership will leave the contract without an owner, thereby removing any functionality that is only available to the owner."
      },
      "safeTransferFrom(address,address,uint256)": {
        "details": "See {IERC721-safeTransferFrom}."
      },
      "safeTransferFrom(address,address,uint256,bytes)": {
        "details": "See {IERC721-safeTransferFrom}."
      },
      "setApprovalForAll(address,bool)": {
        "details": "See {IERC721-setApprovalForAll}."
      },
      "supportsInterface(bytes4)": {
        "details": "See {IERC165-supportsInterface}."
      },
      "symbol()": {
        "details": "See {IERC721Metadata-symbol}."
      },
      "tokenURI(uint256)": {
        "details": "See {IERC721Metadata-tokenURI}."
      },
      "transferFrom(address,address,uint256)": {
        "details": "See {IERC721-transferFrom}."
      },
      "transferOwnership(address)": {
        "details": "Transfers ownership of the contract to a new account (`newOwner`). Can only be called by the current owner."
      }
    },
    "version": 1
  },
  "userdoc": {
    "kind": "user",
    "methods": {},
    "version": 1
  }
}