{
  "contractName": "NFT",
  "abi": [
    {
      "anonymous": false,
      "inputs": [
        {
          "indexed": true,
          "internalType": "address",
          "name": "owner",
          "type": "address"
        },
        {
          "indexed": true,
          "internalType": "address",
          "name": "approved",
          "type": "address"
        },
        {
          "indexed": true,
          "internalType": "uint256",
          "name": "tokenId",
          "type": "uint256"
        }
      ],
      "name": "Approval",
      "type": "event"
    },
    {
      "anonymous": false,
      "inputs": [
        {
          "indexed": true,
          "internalType": "address",
          "name": "owner",
          "type": "address"
        },
        {
          "indexed": true,
          "internalType": "address",
          "name": "operator",
          "type": "address"
        },
        {
          "indexed": false,
          "internalType": "bool",
          "name": "approved",
          "type": "bool"
        }
      ],
      "name": "ApprovalForAll",
      "type": "event"
    },
    {
      "anonymous": false,
      "inputs": [
        {
          "indexed": true,
          "internalType": "address",
          "name": "previousOwner",
          "type": "address"
        },
        {
          "indexed": true,
          "internalType": "address",
          "name": "newOwner",
          "type": "address"
        }
      ],
      "name": "OwnershipTransferred",
      "type": "event"
    },
    {
      "anonymous": false,
      "inputs": [
        {
          "indexed": true,
          "internalType": "address",
          "name": "from",
          "type": "address"
        },
        {
          "indexed": true,
          "internalType": "address",
          "name": "to",
          "type": "address"
        },
        {
          "indexed": true,
          "internalType": "uint256",
          "name": "tokenId",
          "type": "uint256"
        }
      ],
      "name": "Transfer",
      "type": "event"
    },
    {
      "inputs": [
        {
          "internalType": "address",
          "name": "to",
          "type": "address"
        },
        {
          "internalType": "uint256",
          "name": "tokenId",
          "type": "uint256"
        }
      ],
      "name": "approve",
      "outputs": [],
      "stateMutability": "nonpayable",
      "type": "function"
    },
    {
      "inputs": [
        {
          "internalType": "address",
          "name": "owner",
          "type": "address"
        }
      ],
      "name": "balanceOf",
      "outputs": [
        {
          "internalType": "uint256",
          "name": "",
          "type": "uint256"
        }
      ],
      "stateMutability": "view",
      "type": "function",
      "constant": true
    },
    {
      "inputs": [
        {
          "internalType": "uint256",
          "name": "tokenId",
          "type": "uint256"
        }
      ],
      "name": "getApproved",
      "outputs": [
        {
          "internalType": "address",
          "name": "",
          "type": "address"
        }
      ],
      "stateMutability": "view",
      "type": "function",
      "constant": true
    },
    {
      "inputs": [
        {
          "internalType": "address",
          "name": "owner",
          "type": "address"
        },
        {
          "internalType": "address",
          "name": "operator",
          "type": "address"
        }
      ],
      "name": "isApprovedForAll",
      "outputs": [
        {
          "internalType": "bool",
          "name": "",
          "type": "bool"
        }
      ],
      "stateMutability": "view",
      "type": "function",
      "constant": true
    },
    {
      "inputs": [],
      "name": "name",
      "outputs": [
        {
          "internalType": "string",
          "name": "",
          "type": "string"
        }
      ],
      "stateMutability": "view",
      "type": "function",
      "constant": true
    },
    {
      "inputs": [],
      "name": "owner",
      "outputs": [
        {
          "internalType": "address",
          "name": "",
          "type": "address"
        }
      ],
      "stateMutability": "view",
      "type": "function",
      "constant": true
    },
    {
      "inputs": [
        {
          "internalType": "uint256",
          "name": "tokenId",
          "type": "uint256"
        }
      ],
      "name": "ownerOf",
      "outputs": [
        {
          "internalType": "address",
          "name": "",
          "type": "address"
        }
      ],
      "stateMutability": "view",
      "type": "function",
      "constant": true
    },
    {
      "inputs": [
        {
          "internalType": "address",
          "name": "",
          "type": "address"
        },
        {
          "internalType": "uint256",
          "name": "",
          "type": "uint256"
        }
      ],
      "name": "ownershipRecord",
      "outputs": [
        {
          "internalType": "uint256",
          "name": "tokenId",
          "type": "uint256"
        },
        {
          "internalType": "uint256",
          "name": "timestamp",
          "type": "uint256"
        },
        {
          "internalType": "string",
          "name": "tokenURI",
          "type": "string"
        }
      ],
      "stateMutability": "view",
      "type": "function",
      "constant": true
    },
    {
      "inputs": [],
      "name": "renounceOwnership",
      "outputs": [],
      "stateMutability": "nonpayable",
      "type": "function"
    },
    {
      "inputs": [
        {
          "internalType": "address",
          "name": "from",
          "type": "address"
        },
        {
          "internalType": "address",
          "name": "to",
          "type": "address"
        },
        {
          "internalType": "uint256",
          "name": "tokenId",
          "type": "uint256"
        }
      ],
      "name": "safeTransferFrom",
      "outputs": [],
      "stateMutability": "nonpayable",
      "type": "function"
    },
    {
      "inputs": [
        {
          "internalType": "address",
          "name": "from",
          "type": "address"
        },
        {
          "internalType": "address",
          "name": "to",
          "type": "address"
        },
        {
          "internalType": "uint256",
          "name": "tokenId",
          "type": "uint256"
        },
        {
          "internalType": "bytes",
          "name": "data",
          "type": "bytes"
        }
      ],
      "name": "safeTransferFrom",
      "outputs": [],
      "stateMutability": "nonpayable",
      "type": "function"
    },
    {
      "inputs": [
        {
          "internalType": "address",
          "name": "operator",
          "type": "address"
        },
        {
          "internalType": "bool",
          "name": "approved",
          "type": "bool"
        }
      ],
      "name": "setApprovalForAll",
      "outputs": [],
      "stateMutability": "nonpayable",
      "type": "function"
    },
    {
      "inputs": [
        {
          "internalType": "bytes4",
          "name": "interfaceId",
          "type": "bytes4"
        }
      ],
      "name": "supportsInterface",
      "outputs": [
        {
          "internalType": "bool",
          "name": "",
          "type": "bool"
        }
      ],
      "stateMutability": "view",
      "type": "function",
      "constant": true
    },
    {
      "inputs": [],
      "name": "symbol",
      "outputs": [
        {
          "internalType": "string",
          "name": "",
          "type": "string"
        }
      ],
      "stateMutability": "view",
      "type": "function",
      "constant": true
    },
    {
      "inputs": [
        {
          "internalType": "uint256",
          "name": "tokenId",
          "type": "uint256"
        }
      ],
      "name": "tokenURI",
      "outputs": [
        {
          "internalType": "string",
          "name": "",
          "type": "string"
        }
      ],
      "stateMutability": "view",
      "type": "function",
      "constant": true
    },
    {
      "inputs": [
        {
          "internalType": "address",
          "name": "from",
          "type": "address"
        },
        {
          "internalType": "address",
          "name": "to",
          "type": "address"
        },
        {
          "internalType": "uint256",
          "name": "tokenId",
          "type": "uint256"
        }
      ],
      "name": "transferFrom",
      "outputs": [],
      "stateMutability": "nonpayable",
      "type": "function"
    },
    {
      "inputs": [
        {
          "internalType": "address",
          "name": "newOwner",
          "type": "address"
        }
      ],
      "name": "transferOwnership",
      "outputs": [],
      "stateMutability": "nonpayable",
      "type": "function"
    },
    {
      "inputs": [
        {
          "internalType": "address",
          "name": "recipient",
          "type": "address"
        },
        {
          "internalType": "string",
          "name": "tokenURI",
          "type": "string"
        }
      ],
      "name": "mintToken",
      "outputs": [],
      "stateMutability": "nonpayable",
      "type": "function"
    }
  ],
  "bytecode": "0x60806040523480156200001157600080fd5b5060405180604001604052806007815260200166109a590813919560ca1b815250604051806040016040528060048152602001631093919560e21b81525062000069620000636200008f60201b60201c565b62000093565b600162000077838262000188565b50600262000086828262000188565b50505062000254565b3390565b600080546001600160a01b038381166001600160a01b0319831681178455604051919092169283917f8be0079c531659141344cd1fd0a4f28419497f9722a3daafe3b4186f6b6457e09190a35050565b634e487b7160e01b600052604160045260246000fd5b600181811c908216806200010e57607f821691505b6020821081036200012f57634e487b7160e01b600052602260045260246000fd5b50919050565b601f8211156200018357600081815260208120601f850160051c810160208610156200015e5750805b601f850160051c820191505b818110156200017f578281556001016200016a565b5050505b505050565b81516001600160401b03811115620001a457620001a4620000e3565b620001bc81620001b58454620000f9565b8462000135565b602080601f831160018114620001f45760008415620001db5750858301515b600019600386901b1c1916600185901b1785556200017f565b600085815260208120601f198616915b82811015620002255788860151825594840194600190910190840162000204565b5085821015620002445787850151600019600388901b60f8161c191681555b5050505050600190811b01905550565b61177e80620002646000396000f3fe608060405234801561001057600080fd5b50600436106101165760003560e01c806370a08231116100a2578063a22cb46511610071578063a22cb46514610248578063b88d4fde1461025b578063c87b56dd1461026e578063e985e9c514610281578063f2fde38b1461029457600080fd5b806370a0823114610206578063715018a6146102275780638da5cb5b1461022f57806395d89b411461024057600080fd5b806323b872dd116100e957806323b872dd1461019857806337746cc5146101ab5780633d02d0c9146101cd57806342842e0e146101e05780636352211e146101f357600080fd5b806301ffc9a71461011b57806306fdde0314610143578063081812fc14610158578063095ea7b314610183575b600080fd5b61012e6101293660046110f7565b6102a7565b60405190151581526020015b60405180910390f35b61014b6102f9565b60405161013a9190611164565b61016b610166366004611177565b61038b565b6040516001600160a01b03909116815260200161013a565b6101966101913660046111ac565b6103b2565b005b6101966101a63660046111d6565b6104cc565b6101be6101b93660046111ac565b6104fd565b60405161013a93929190611212565b6101966101db3660046112c6565b6105cc565b6101966101ee3660046111d6565b610657565b61016b610201366004611177565b610672565b610219610214366004611328565b6106d2565b60405190815260200161013a565b610196610758565b6000546001600160a01b031661016b565b61014b61076c565b610196610256366004611343565b61077b565b61019661026936600461137f565b61078a565b61014b61027c366004611177565b6107c2565b61012e61028f3660046113fb565b610836565b6101966102a2366004611328565b610864565b60006001600160e01b031982166380ac58cd60e01b14806102d857506001600160e01b03198216635b5e139f60e01b145b806102f357506301ffc9a760e01b6001600160e01b03198316145b92915050565b6060600180546103089061142e565b80601f01602080910402602001604051908101604052809291908181526020018280546103349061142e565b80156103815780601f1061035657610100808354040283529160200191610381565b820191906000526020600020905b81548152906001019060200180831161036457829003601f168201915b5050505050905090565b6000610396826108dd565b506000908152600560205260409020546001600160a01b031690565b60006103bd82610672565b9050806001600160a01b0316836001600160a01b03160361042f5760405162461bcd60e51b815260206004820152602160248201527f4552433732313a20617070726f76616c20746f2063757272656e74206f776e656044820152603960f91b60648201526084015b60405180910390fd5b336001600160a01b038216148061044b575061044b8133610836565b6104bd5760405162461bcd60e51b815260206004820152603e60248201527f4552433732313a20617070726f76652063616c6c6572206973206e6f7420746f60448201527f6b656e206f776e6572206e6f7220617070726f76656420666f7220616c6c00006064820152608401610426565b6104c7838361093c565b505050565b6104d633826109aa565b6104f25760405162461bcd60e51b815260040161042690611468565b6104c7838383610a09565b6008602052816000526040600020818154811061051957600080fd5b9060005260206000209060030201600091509150508060000154908060010154908060020180546105499061142e565b80601f01602080910402602001604051908101604052809291908181526020018280546105759061142e565b80156105c25780601f10610597576101008083540402835291602001916105c2565b820191906000526020600020905b8154815290600101906020018083116105a557829003601f168201915b5050505050905083565b6105d882600754610ba5565b6001600160a01b038216600090815260086020908152604080832081516060810183526007548152428185019081529281018681528254600181810185559387529490952081516003909502019384559151908301559151600282019061063f9082611504565b5050600754610650915060016115da565b6007555050565b6104c78383836040518060200160405280600081525061078a565b6000818152600360205260408120546001600160a01b0316806102f35760405162461bcd60e51b8152602060048201526018602482015277115490cdcc8c4e881a5b9d985b1a59081d1bdad95b88125160421b6044820152606401610426565b60006001600160a01b03821661073c5760405162461bcd60e51b815260206004820152602960248201527f4552433732313a2061646472657373207a65726f206973206e6f7420612076616044820152683634b21037bbb732b960b91b6064820152608401610426565b506001600160a01b031660009081526004602052604090205490565b610760610bbf565b61076a6000610c19565b565b6060600280546103089061142e565b610786338383610c69565b5050565b61079433836109aa565b6107b05760405162461bcd60e51b815260040161042690611468565b6107bc84848484610d37565b50505050565b60606107cd826108dd565b60006107e460408051602081019091526000815290565b90506000815111610804576040518060200160405280600081525061082f565b8061080e84610d6a565b60405160200161081f9291906115ed565b6040516020818303038152906040525b9392505050565b6001600160a01b03918216600090815260066020908152604080832093909416825291909152205460ff1690565b61086c610bbf565b6001600160a01b0381166108d15760405162461bcd60e51b815260206004820152602660248201527f4f776e61626c653a206e6577206f776e657220697320746865207a65726f206160448201526564647265737360d01b6064820152608401610426565b6108da81610c19565b50565b6000818152600360205260409020546001600160a01b03166108da5760405162461bcd60e51b8152602060048201526018602482015277115490cdcc8c4e881a5b9d985b1a59081d1bdad95b88125160421b6044820152606401610426565b600081815260056020526040902080546001600160a01b0319166001600160a01b038416908117909155819061097182610672565b6001600160a01b03167f8c5be1e5ebec7d5bd14f71427d1e84f3dd0314c0f7b2291e5b200ac8c7c3b92560405160405180910390a45050565b6000806109b683610672565b9050806001600160a01b0316846001600160a01b031614806109dd57506109dd8185610836565b80610a015750836001600160a01b03166109f68461038b565b6001600160a01b0316145b949350505050565b826001600160a01b0316610a1c82610672565b6001600160a01b031614610a805760405162461bcd60e51b815260206004820152602560248201527f4552433732313a207472616e736665722066726f6d20696e636f72726563742060448201526437bbb732b960d91b6064820152608401610426565b6001600160a01b038216610ae25760405162461bcd60e51b8152602060048201526024808201527f4552433732313a207472616e7366657220746f20746865207a65726f206164646044820152637265737360e01b6064820152608401610426565b610aed60008261093c565b6001600160a01b0383166000908152600460205260408120805460019290610b1690849061161c565b90915550506001600160a01b0382166000908152600460205260408120805460019290610b449084906115da565b909155505060008181526003602052604080822080546001600160a01b0319166001600160a01b0386811691821790925591518493918716917fddf252ad1be2c89b69c2b068fc378daa952ba7f163c4a11628f55a4df523b3ef91a4505050565b610786828260405180602001604052806000815250610e6b565b6000546001600160a01b0316331461076a5760405162461bcd60e51b815260206004820181905260248201527f4f776e61626c653a2063616c6c6572206973206e6f7420746865206f776e65726044820152606401610426565b600080546001600160a01b038381166001600160a01b0319831681178455604051919092169283917f8be0079c531659141344cd1fd0a4f28419497f9722a3daafe3b4186f6b6457e09190a35050565b816001600160a01b0316836001600160a01b031603610cca5760405162461bcd60e51b815260206004820152601960248201527f4552433732313a20617070726f766520746f2063616c6c6572000000000000006044820152606401610426565b6001600160a01b03838116600081815260066020908152604080832094871680845294825291829020805460ff191686151590811790915591519182527f17307eab39ab6107e8899845ad3d59bd9653f200f220920489ca2b5937696c31910160405180910390a3505050565b610d42848484610a09565b610d4e84848484610e9e565b6107bc5760405162461bcd60e51b81526004016104269061162f565b606081600003610d915750506040805180820190915260018152600360fc1b602082015290565b8160005b8115610dbb5780610da581611681565b9150610db49050600a836116b0565b9150610d95565b60008167ffffffffffffffff811115610dd657610dd661123a565b6040519080825280601f01601f191660200182016040528015610e00576020820181803683370190505b5090505b8415610a0157610e1560018361161c565b9150610e22600a866116c4565b610e2d9060306115da565b60f81b818381518110610e4257610e426116d8565b60200101906001600160f81b031916908160001a905350610e64600a866116b0565b9450610e04565b610e758383610f9f565b610e826000848484610e9e565b6104c75760405162461bcd60e51b81526004016104269061162f565b60006001600160a01b0384163b15610f9457604051630a85bd0160e11b81526001600160a01b0385169063150b7a0290610ee29033908990889088906004016116ee565b6020604051808303816000875af1925050508015610f1d575060408051601f3d908101601f19168201909252610f1a9181019061172b565b60015b610f7a573d808015610f4b576040519150601f19603f3d011682016040523d82523d6000602084013e610f50565b606091505b508051600003610f725760405162461bcd60e51b81526004016104269061162f565b805181602001fd5b6001600160e01b031916630a85bd0160e11b149050610a01565b506001949350505050565b6001600160a01b038216610ff55760405162461bcd60e51b815260206004820181905260248201527f4552433732313a206d696e7420746f20746865207a65726f20616464726573736044820152606401610426565b6000818152600360205260409020546001600160a01b03161561105a5760405162461bcd60e51b815260206004820152601c60248201527f4552433732313a20746f6b656e20616c7265616479206d696e746564000000006044820152606401610426565b6001600160a01b03821660009081526004602052604081208054600192906110839084906115da565b909155505060008181526003602052604080822080546001600160a01b0319166001600160a01b03861690811790915590518392907fddf252ad1be2c89b69c2b068fc378daa952ba7f163c4a11628f55a4df523b3ef908290a45050565b6001600160e01b0319811681146108da57600080fd5b60006020828403121561110957600080fd5b813561082f816110e1565b60005b8381101561112f578181015183820152602001611117565b50506000910152565b60008151808452611150816020860160208601611114565b601f01601f19169290920160200192915050565b60208152600061082f6020830184611138565b60006020828403121561118957600080fd5b5035919050565b80356001600160a01b03811681146111a757600080fd5b919050565b600080604083850312156111bf57600080fd5b6111c883611190565b946020939093013593505050565b6000806000606084860312156111eb57600080fd5b6111f484611190565b925061120260208501611190565b9150604084013590509250925092565b8381528260208201526060604082015260006112316060830184611138565b95945050505050565b634e487b7160e01b600052604160045260246000fd5b600067ffffffffffffffff8084111561126b5761126b61123a565b604051601f8501601f19908116603f011681019082821181831017156112935761129361123a565b816040528093508581528686860111156112ac57600080fd5b858560208301376000602087830101525050509392505050565b600080604083850312156112d957600080fd5b6112e283611190565b9150602083013567ffffffffffffffff8111156112fe57600080fd5b8301601f8101851361130f57600080fd5b61131e85823560208401611250565b9150509250929050565b60006020828403121561133a57600080fd5b61082f82611190565b6000806040838503121561135657600080fd5b61135f83611190565b91506020830135801515811461137457600080fd5b809150509250929050565b6000806000806080858703121561139557600080fd5b61139e85611190565b93506113ac60208601611190565b925060408501359150606085013567ffffffffffffffff8111156113cf57600080fd5b8501601f810187136113e057600080fd5b6113ef87823560208401611250565b91505092959194509250565b6000806040838503121561140e57600080fd5b61141783611190565b915061142560208401611190565b90509250929050565b600181811c9082168061144257607f821691505b60208210810361146257634e487b7160e01b600052602260045260246000fd5b50919050565b6020808252602e908201527f4552433732313a2063616c6c6572206973206e6f7420746f6b656e206f776e6560408201526d1c881b9bdc88185c1c1c9bdd995960921b606082015260800190565b601f8211156104c757600081815260208120601f850160051c810160208610156114dd5750805b601f850160051c820191505b818110156114fc578281556001016114e9565b505050505050565b815167ffffffffffffffff81111561151e5761151e61123a565b6115328161152c845461142e565b846114b6565b602080601f831160018114611567576000841561154f5750858301515b600019600386901b1c1916600185901b1785556114fc565b600085815260208120601f198616915b8281101561159657888601518255948401946001909101908401611577565b50858210156115b45787850151600019600388901b60f8161c191681555b5050505050600190811b01905550565b634e487b7160e01b600052601160045260246000fd5b808201808211156102f3576102f36115c4565b600083516115ff818460208801611114565b835190830190611613818360208801611114565b01949350505050565b818103818111156102f3576102f36115c4565b60208082526032908201527f4552433732313a207472616e7366657220746f206e6f6e20455243373231526560408201527131b2b4bb32b91034b6b83632b6b2b73a32b960711b606082015260800190565b600060018201611693576116936115c4565b5060010190565b634e487b7160e01b600052601260045260246000fd5b6000826116bf576116bf61169a565b500490565b6000826116d3576116d361169a565b500690565b634e487b7160e01b600052603260045260246000fd5b6001600160a01b038581168252841660208201526040810183905260806060820181905260009061172190830184611138565b9695505050505050565b60006020828403121561173d57600080fd5b815161082f816110e156fea26469706673582212200ed9e1a18764f50001b9fd40918c2f677b937b89ea9c1a104a4dd741ec1051c364736f6c63430008100033",
  "immutableReferences": {},
  "source": "// SPDX-License-Identifier: MIT\npragma solidity ^0.8.0;\n\nimport \"@openzeppelin/contracts/token/ERC721/ERC721.sol\";\nimport \"@openzeppelin/contracts/access/Ownable.sol\";\n\ncontract NFT is Ownable, ERC721(\"Bid NFT\",\"BNFT\"){\n\n    uint tokenId;\n\n    mapping (address => tokenMetadata[]) public ownershipRecord;\n\n    struct tokenMetadata {\n        uint256 tokenId;\n        uint256 timestamp;\n        string tokenURI;\n    }\n\n    function mintToken(address recipient, string memory tokenURI) public {\n        _safeMint(recipient, tokenId);\n        ownershipRecord[recipient].push(tokenMetadata(tokenId, block.timestamp, tokenURI));\n\n        tokenId = tokenId + 1;\n    }\n}    \n",
  "sourcePath": "/home/linna/Desktop/Flexibility/Flexibility-backend/contracts/NFT.sol",
  "compiler": {
    "name": "solc",
    "version": "0.8.16+commit.07a7930e.Emscripten.clang"
  },
  "schemaVersion": "3.4.8",
  "updatedAt": "2022-08-23T09:15:47.627Z",
  "networkType": "ethereum",
  "devdoc": {
    "kind": "dev",
    "methods": {
      "approve(address,uint256)": {
        "details": "See {IERC721-approve}."
      },
      "balanceOf(address)": {
        "details": "See {IERC721-balanceOf}."
      },
      "getApproved(uint256)": {
        "details": "See {IERC721-getApproved}."
      },
      "isApprovedForAll(address,address)": {
        "details": "See {IERC721-isApprovedForAll}."
      },
      "name()": {
        "details": "See {IERC721Metadata-name}."
      },
      "owner()": {
        "details": "Returns the address of the current owner."
      },
      "ownerOf(uint256)": {
        "details": "See {IERC721-ownerOf}."
      },
      "renounceOwnership()": {
        "details": "Leaves the contract without owner. It will not be possible to call `onlyOwner` functions anymore. Can only be called by the current owner. NOTE: Renouncing ownership will leave the contract without an owner, thereby removing any functionality that is only available to the owner."
      },
      "safeTransferFrom(address,address,uint256)": {
        "details": "See {IERC721-safeTransferFrom}."
      },
      "safeTransferFrom(address,address,uint256,bytes)": {
        "details": "See {IERC721-safeTransferFrom}."
      },
      "setApprovalForAll(address,bool)": {
        "details": "See {IERC721-setApprovalForAll}."
      },
      "supportsInterface(bytes4)": {
        "details": "See {IERC165-supportsInterface}."
      },
      "symbol()": {
        "details": "See {IERC721Metadata-symbol}."
      },
      "tokenURI(uint256)": {
        "details": "See {IERC721Metadata-tokenURI}."
      },
      "transferFrom(address,address,uint256)": {
        "details": "See {IERC721-transferFrom}."
      },
      "transferOwnership(address)": {
        "details": "Transfers ownership of the contract to a new account (`newOwner`). Can only be called by the current owner."
      }
    },
    "version": 1
  },
  "userdoc": {
    "kind": "user",
    "methods": {},
    "version": 1
  }
}