{
  "contractName": "Product",
  "abi": [
    {
      "inputs": [
        {
          "internalType": "string",
          "name": "_EIC_code",
          "type": "string"
        },
        {
          "internalType": "string",
          "name": "_productName",
          "type": "string"
        },
        {
          "internalType": "string",
          "name": "_priceConditions",
          "type": "string"
        },
        {
          "internalType": "string",
          "name": "_direction",
          "type": "string"
        },
        {
          "internalType": "uint256",
          "name": "_rampingPeriod",
          "type": "uint256"
        }
      ],
      "stateMutability": "nonpayable",
      "type": "constructor"
    },
    {
      "inputs": [],
      "name": "getProductDetails",
      "outputs": [
        {
          "internalType": "string",
          "name": "",
          "type": "string"
        },
        {
          "internalType": "string",
          "name": "",
          "type": "string"
        },
        {
          "internalType": "string",
          "name": "",
          "type": "string"
        },
        {
          "internalType": "string",
          "name": "",
          "type": "string"
        },
        {
          "internalType": "uint256",
          "name": "",
          "type": "uint256"
        }
      ],
      "stateMutability": "view",
      "type": "function"
    }
  ],
  "bytecode": "0x608060405234801561001057600080fd5b5060405161070138038061070183398101604081905261002f91610132565b600061003b8682610271565b5060016100488582610271565b5060026100558482610271565b5060036100628382610271565b506004555061033092505050565b634e487b7160e01b600052604160045260246000fd5b600082601f83011261009757600080fd5b81516001600160401b03808211156100b1576100b1610070565b604051601f8301601f19908116603f011681019082821181831017156100d9576100d9610070565b816040528381526020925086838588010111156100f557600080fd5b600091505b8382101561011757858201830151818301840152908201906100fa565b838211156101285760008385830101525b9695505050505050565b600080600080600060a0868803121561014a57600080fd5b85516001600160401b038082111561016157600080fd5b61016d89838a01610086565b9650602088015191508082111561018357600080fd5b61018f89838a01610086565b955060408801519150808211156101a557600080fd5b6101b189838a01610086565b945060608801519150808211156101c757600080fd5b506101d488828901610086565b925050608086015190509295509295909350565b600181811c908216806101fc57607f821691505b60208210810361021c57634e487b7160e01b600052602260045260246000fd5b50919050565b601f82111561026c57600081815260208120601f850160051c810160208610156102495750805b601f850160051c820191505b8181101561026857828155600101610255565b5050505b505050565b81516001600160401b0381111561028a5761028a610070565b61029e8161029884546101e8565b84610222565b602080601f8311600181146102d357600084156102bb5750858301515b600019600386901b1c1916600185901b178555610268565b600085815260208120601f198616915b82811015610302578886015182559484019460019091019084016102e3565b50858210156103205787850151600019600388901b60f8161c191681555b5050505050600190811b01905550565b6103c28061033f6000396000f3fe608060405234801561001057600080fd5b506004361061002b5760003560e01c806323bc839b14610030575b600080fd5b610038610052565b6040516100499594939291906102f2565b60405180910390f35b60608060608060008060016002600360045484805461007090610352565b80601f016020809104026020016040519081016040528092919081815260200182805461009c90610352565b80156100e95780601f106100be576101008083540402835291602001916100e9565b820191906000526020600020905b8154815290600101906020018083116100cc57829003601f168201915b505050505094508380546100fc90610352565b80601f016020809104026020016040519081016040528092919081815260200182805461012890610352565b80156101755780601f1061014a57610100808354040283529160200191610175565b820191906000526020600020905b81548152906001019060200180831161015857829003601f168201915b5050505050935082805461018890610352565b80601f01602080910402602001604051908101604052809291908181526020018280546101b490610352565b80156102015780601f106101d657610100808354040283529160200191610201565b820191906000526020600020905b8154815290600101906020018083116101e457829003601f168201915b5050505050925081805461021490610352565b80601f016020809104026020016040519081016040528092919081815260200182805461024090610352565b801561028d5780601f106102625761010080835404028352916020019161028d565b820191906000526020600020905b81548152906001019060200180831161027057829003601f168201915b50505050509150945094509450945094509091929394565b6000815180845260005b818110156102cb576020818501810151868301820152016102af565b818111156102dd576000602083870101525b50601f01601f19169290920160200192915050565b60a08152600061030560a08301886102a5565b828103602084015261031781886102a5565b9050828103604084015261032b81876102a5565b9050828103606084015261033f81866102a5565b9150508260808301529695505050505050565b600181811c9082168061036657607f821691505b60208210810361038657634e487b7160e01b600052602260045260246000fd5b5091905056fea26469706673582212200d116d741b7f26748b2916f8536ac0e82d94e0d4770d5ad1f578f50e288c52c164736f6c634300080f0033",
  "immutableReferences": {},
  "source": "// SPDX-License-Identifier: MIT\npragma solidity ^0.8.0;\n\ncontract Product {\n    string EIC_code;\n    string productName;\n    string priceConditions;\n    string direction;\n    uint256 rampingPeriod;\n\n    constructor(\n        string memory _EIC_code,\n        string memory _productName,\n        string memory _priceConditions,\n        string memory _direction,\n        uint256 _rampingPeriod\n    ) {\n        EIC_code = _EIC_code;\n        productName = _productName;\n        priceConditions = _priceConditions;\n        direction = _direction;\n        rampingPeriod = _rampingPeriod;\n    }\n\n    function getProductDetails()\n        external\n        view\n        returns (\n            string memory,\n            string memory,\n            string memory,\n            string memory,\n            uint256\n        )\n    {\n        return (\n            EIC_code,\n            productName,\n            priceConditions,\n            direction,\n            rampingPeriod\n        );\n    }\n}\n",
  "sourcePath": "/home/linna/Desktop/Flexibility/Flexibility-backend/contracts/Product.sol",
  "compiler": {
    "name": "solc",
    "version": "0.8.15+commit.e14f2714.Emscripten.clang"
  },
  "schemaVersion": "3.4.8",
  "updatedAt": "2022-07-24T14:36:27.815Z",
  "devdoc": {
    "kind": "dev",
    "methods": {},
    "version": 1
  },
  "userdoc": {
    "kind": "user",
    "methods": {},
    "version": 1
  }
}