{
  "contractName": "Product",
  "abi": [
    {
      "inputs": [
        {
          "internalType": "string",
          "name": "_EIC_code",
          "type": "string"
        },
        {
          "internalType": "string",
          "name": "_productName",
          "type": "string"
        },
        {
          "internalType": "string",
          "name": "_priceConditions",
          "type": "string"
        },
        {
          "internalType": "string",
          "name": "_direction",
          "type": "string"
        },
        {
          "internalType": "uint256",
          "name": "_rampingPeriod",
          "type": "uint256"
        }
      ],
      "stateMutability": "nonpayable",
      "type": "constructor"
    },
    {
      "inputs": [],
      "name": "getProductDetails",
      "outputs": [
        {
          "internalType": "string",
          "name": "",
          "type": "string"
        },
        {
          "internalType": "string",
          "name": "",
          "type": "string"
        },
        {
          "internalType": "string",
          "name": "",
          "type": "string"
        },
        {
          "internalType": "string",
          "name": "",
          "type": "string"
        },
        {
          "internalType": "uint256",
          "name": "",
          "type": "uint256"
        }
      ],
      "stateMutability": "view",
      "type": "function"
    },
    {
      "inputs": [],
      "name": "getProductName",
      "outputs": [
        {
          "internalType": "string",
          "name": "",
          "type": "string"
        }
      ],
      "stateMutability": "view",
      "type": "function"
    }
  ],
  "bytecode": "0x608060405234801561001057600080fd5b506040516107bf3803806107bf83398101604081905261002f9161012b565b600061003b868261026a565b506001610048858261026a565b506002610055848261026a565b506003610062838261026a565b506004555061032992505050565b634e487b7160e01b600052604160045260246000fd5b600082601f83011261009757600080fd5b81516001600160401b03808211156100b1576100b1610070565b604051601f8301601f19908116603f011681019082821181831017156100d9576100d9610070565b816040528381526020925086838588010111156100f557600080fd5b600091505b8382101561011757858201830151818301840152908201906100fa565b600093810190920192909252949350505050565b600080600080600060a0868803121561014357600080fd5b85516001600160401b038082111561015a57600080fd5b61016689838a01610086565b9650602088015191508082111561017c57600080fd5b61018889838a01610086565b9550604088015191508082111561019e57600080fd5b6101aa89838a01610086565b945060608801519150808211156101c057600080fd5b506101cd88828901610086565b925050608086015190509295509295909350565b600181811c908216806101f557607f821691505b60208210810361021557634e487b7160e01b600052602260045260246000fd5b50919050565b601f82111561026557600081815260208120601f850160051c810160208610156102425750805b601f850160051c820191505b818110156102615782815560010161024e565b5050505b505050565b81516001600160401b0381111561028357610283610070565b6102978161029184546101e1565b8461021b565b602080601f8311600181146102cc57600084156102b45750858301515b600019600386901b1c1916600185901b178555610261565b600085815260208120601f198616915b828110156102fb578886015182559484019460019091019084016102dc565b50858210156103195787850151600019600388901b60f8161c191681555b5050505050600190811b01905550565b610487806103386000396000f3fe608060405234801561001057600080fd5b50600436106100365760003560e01c806323bc839b1461003b578063dfaf02211461005d575b600080fd5b610043610072565b60405161005495949392919061039d565b60405180910390f35b6100656102c5565b60405161005491906103fd565b60608060608060008060016002600360045484805461009090610417565b80601f01602080910402602001604051908101604052809291908181526020018280546100bc90610417565b80156101095780601f106100de57610100808354040283529160200191610109565b820191906000526020600020905b8154815290600101906020018083116100ec57829003601f168201915b5050505050945083805461011c90610417565b80601f016020809104026020016040519081016040528092919081815260200182805461014890610417565b80156101955780601f1061016a57610100808354040283529160200191610195565b820191906000526020600020905b81548152906001019060200180831161017857829003601f168201915b505050505093508280546101a890610417565b80601f01602080910402602001604051908101604052809291908181526020018280546101d490610417565b80156102215780601f106101f657610100808354040283529160200191610221565b820191906000526020600020905b81548152906001019060200180831161020457829003601f168201915b5050505050925081805461023490610417565b80601f016020809104026020016040519081016040528092919081815260200182805461026090610417565b80156102ad5780601f10610282576101008083540402835291602001916102ad565b820191906000526020600020905b81548152906001019060200180831161029057829003601f168201915b50505050509150945094509450945094509091929394565b6060600180546102d490610417565b80601f016020809104026020016040519081016040528092919081815260200182805461030090610417565b801561034d5780601f106103225761010080835404028352916020019161034d565b820191906000526020600020905b81548152906001019060200180831161033057829003601f168201915b5050505050905090565b6000815180845260005b8181101561037d57602081850181015186830182015201610361565b506000602082860101526020601f19601f83011685010191505092915050565b60a0815260006103b060a0830188610357565b82810360208401526103c28188610357565b905082810360408401526103d68187610357565b905082810360608401526103ea8186610357565b9150508260808301529695505050505050565b6020815260006104106020830184610357565b9392505050565b600181811c9082168061042b57607f821691505b60208210810361044b57634e487b7160e01b600052602260045260246000fd5b5091905056fea2646970667358221220bb4b3d8814dd036fe141edbc01a9180cd6807f3d3cef3faafc215f0846434a4664736f6c63430008100033",
  "immutableReferences": {},
  "source": "// SPDX-License-Identifier: MIT\npragma solidity ^0.8.0;\n\ncontract Product {\n    string EIC_code;\n    string productName;\n    string priceConditions;\n    string direction;\n    uint256 rampingPeriod;\n\n    constructor(\n        string memory _EIC_code,\n        string memory _productName,\n        string memory _priceConditions,\n        string memory _direction,\n        uint256 _rampingPeriod\n    ) {\n        EIC_code = _EIC_code;\n        productName = _productName;\n        priceConditions = _priceConditions;\n        direction = _direction;\n        rampingPeriod = _rampingPeriod;\n    }\n\n    function getProductDetails()\n        external\n        view\n        returns (\n            string memory,\n            string memory,\n            string memory,\n            string memory,\n            uint256\n        )\n    {\n        return (\n            EIC_code,\n            productName,\n            priceConditions,\n            direction,\n            rampingPeriod\n        );\n    }\n\n    function getProductName() external view returns(string memory){\n        return productName;\n    }\n}\n",
  "sourcePath": "/home/linna/Desktop/Flexibility/Flexibility-backend/contracts/Product.sol",
  "compiler": {
    "name": "solc",
    "version": "0.8.16+commit.07a7930e.Emscripten.clang"
  },
  "schemaVersion": "3.4.8",
  "updatedAt": "2022-08-16T15:07:18.253Z",
  "devdoc": {
    "kind": "dev",
    "methods": {},
    "version": 1
  },
  "userdoc": {
    "kind": "user",
    "methods": {},
    "version": 1
  }
}