{
  "contractName": "Product",
  "abi": [
    {
      "inputs": [
        {
          "internalType": "string",
          "name": "_EIC_code",
          "type": "string"
        },
        {
          "internalType": "string",
          "name": "_productName",
          "type": "string"
        },
        {
          "internalType": "string",
          "name": "_priceConditions",
          "type": "string"
        },
        {
          "internalType": "string",
          "name": "_direction",
          "type": "string"
        },
        {
          "internalType": "uint256",
          "name": "_rampingPeriod",
          "type": "uint256"
        }
      ],
      "stateMutability": "nonpayable",
      "type": "constructor"
    },
    {
      "inputs": [],
      "name": "getProductDetails",
      "outputs": [
        {
          "internalType": "string",
          "name": "",
          "type": "string"
        },
        {
          "internalType": "string",
          "name": "",
          "type": "string"
        },
        {
          "internalType": "string",
          "name": "",
          "type": "string"
        },
        {
          "internalType": "string",
          "name": "",
          "type": "string"
        },
        {
          "internalType": "uint256",
          "name": "",
          "type": "uint256"
        }
      ],
      "stateMutability": "view",
      "type": "function"
    },
    {
      "inputs": [],
      "name": "getProductName",
      "outputs": [
        {
          "internalType": "string",
          "name": "",
          "type": "string"
        }
      ],
      "stateMutability": "view",
      "type": "function"
    }
  ],
  "bytecode": "0x608060405234801561001057600080fd5b506040516107cd3803806107cd83398101604081905261002f91610132565b600061003b8682610271565b5060016100488582610271565b5060026100558482610271565b5060036100628382610271565b506004555061033092505050565b634e487b7160e01b600052604160045260246000fd5b600082601f83011261009757600080fd5b81516001600160401b03808211156100b1576100b1610070565b604051601f8301601f19908116603f011681019082821181831017156100d9576100d9610070565b816040528381526020925086838588010111156100f557600080fd5b600091505b8382101561011757858201830151818301840152908201906100fa565b838211156101285760008385830101525b9695505050505050565b600080600080600060a0868803121561014a57600080fd5b85516001600160401b038082111561016157600080fd5b61016d89838a01610086565b9650602088015191508082111561018357600080fd5b61018f89838a01610086565b955060408801519150808211156101a557600080fd5b6101b189838a01610086565b945060608801519150808211156101c757600080fd5b506101d488828901610086565b925050608086015190509295509295909350565b600181811c908216806101fc57607f821691505b60208210810361021c57634e487b7160e01b600052602260045260246000fd5b50919050565b601f82111561026c57600081815260208120601f850160051c810160208610156102495750805b601f850160051c820191505b8181101561026857828155600101610255565b5050505b505050565b81516001600160401b0381111561028a5761028a610070565b61029e8161029884546101e8565b84610222565b602080601f8311600181146102d357600084156102bb5750858301515b600019600386901b1c1916600185901b178555610268565b600085815260208120601f198616915b82811015610302578886015182559484019460019091019084016102e3565b50858210156103205787850151600019600388901b60f8161c191681555b5050505050600190811b01905550565b61048e8061033f6000396000f3fe608060405234801561001057600080fd5b50600436106100365760003560e01c806323bc839b1461003b578063dfaf02211461005d575b600080fd5b610043610072565b6040516100549594939291906103a4565b60405180910390f35b6100656102c5565b6040516100549190610404565b6060806060806000806001600260036004548480546100909061041e565b80601f01602080910402602001604051908101604052809291908181526020018280546100bc9061041e565b80156101095780601f106100de57610100808354040283529160200191610109565b820191906000526020600020905b8154815290600101906020018083116100ec57829003601f168201915b5050505050945083805461011c9061041e565b80601f01602080910402602001604051908101604052809291908181526020018280546101489061041e565b80156101955780601f1061016a57610100808354040283529160200191610195565b820191906000526020600020905b81548152906001019060200180831161017857829003601f168201915b505050505093508280546101a89061041e565b80601f01602080910402602001604051908101604052809291908181526020018280546101d49061041e565b80156102215780601f106101f657610100808354040283529160200191610221565b820191906000526020600020905b81548152906001019060200180831161020457829003601f168201915b505050505092508180546102349061041e565b80601f01602080910402602001604051908101604052809291908181526020018280546102609061041e565b80156102ad5780601f10610282576101008083540402835291602001916102ad565b820191906000526020600020905b81548152906001019060200180831161029057829003601f168201915b50505050509150945094509450945094509091929394565b6060600180546102d49061041e565b80601f01602080910402602001604051908101604052809291908181526020018280546103009061041e565b801561034d5780601f106103225761010080835404028352916020019161034d565b820191906000526020600020905b81548152906001019060200180831161033057829003601f168201915b5050505050905090565b6000815180845260005b8181101561037d57602081850181015186830182015201610361565b8181111561038f576000602083870101525b50601f01601f19169290920160200192915050565b60a0815260006103b760a0830188610357565b82810360208401526103c98188610357565b905082810360408401526103dd8187610357565b905082810360608401526103f18186610357565b9150508260808301529695505050505050565b6020815260006104176020830184610357565b9392505050565b600181811c9082168061043257607f821691505b60208210810361045257634e487b7160e01b600052602260045260246000fd5b5091905056fea264697066735822122061ba39adf423e3b21c89c1626760e55bd25d2186f2fa8a48b3fa60d8a862028c64736f6c634300080f0033",
  "immutableReferences": {},
  "source": "// SPDX-License-Identifier: MIT\npragma solidity ^0.8.0;\n\ncontract Product {\n    string EIC_code;\n    string productName;\n    string priceConditions;\n    string direction;\n    uint256 rampingPeriod;\n\n    constructor(\n        string memory _EIC_code,\n        string memory _productName,\n        string memory _priceConditions,\n        string memory _direction,\n        uint256 _rampingPeriod\n    ) {\n        EIC_code = _EIC_code;\n        productName = _productName;\n        priceConditions = _priceConditions;\n        direction = _direction;\n        rampingPeriod = _rampingPeriod;\n    }\n\n    function getProductDetails()\n        external\n        view\n        returns (\n            string memory,\n            string memory,\n            string memory,\n            string memory,\n            uint256\n        )\n    {\n        return (\n            EIC_code,\n            productName,\n            priceConditions,\n            direction,\n            rampingPeriod\n        );\n    }\n\n    function getProductName() external view returns(string memory){\n        return productName;\n    }\n}\n",
  "sourcePath": "/home/linna/Desktop/Flexibility/Flexibility-backend/contracts/Product.sol",
  "compiler": {
    "name": "solc",
    "version": "0.8.15+commit.e14f2714.Emscripten.clang"
  },
  "schemaVersion": "3.4.8",
  "updatedAt": "2022-07-25T20:14:42.778Z",
  "devdoc": {
    "kind": "dev",
    "methods": {},
    "version": 1
  },
  "userdoc": {
    "kind": "user",
    "methods": {},
    "version": 1
  }
}