{
  "contractName": "Product",
  "abi": [
    {
      "inputs": [
        {
          "internalType": "address payable",
          "name": "_owner",
          "type": "address"
        },
        {
          "internalType": "string",
          "name": "_EIC_code",
          "type": "string"
        },
        {
          "internalType": "string",
          "name": "_productName",
          "type": "string"
        },
        {
          "internalType": "string",
          "name": "_priceConditions",
          "type": "string"
        },
        {
          "internalType": "string",
          "name": "_direction",
          "type": "string"
        },
        {
          "internalType": "uint256",
          "name": "_rampingPeriod",
          "type": "uint256"
        }
      ],
      "stateMutability": "payable",
      "type": "constructor"
    },
    {
      "inputs": [],
      "name": "getProductDetails",
      "outputs": [
        {
          "internalType": "address payable",
          "name": "",
          "type": "address"
        },
        {
          "internalType": "string",
          "name": "",
          "type": "string"
        },
        {
          "internalType": "string",
          "name": "",
          "type": "string"
        },
        {
          "internalType": "string",
          "name": "",
          "type": "string"
        },
        {
          "internalType": "string",
          "name": "",
          "type": "string"
        },
        {
          "internalType": "uint256",
          "name": "",
          "type": "uint256"
        }
      ],
      "stateMutability": "view",
      "type": "function"
    }
  ],
  "bytecode": "0x608060405260405161076a38038061076a8339810160408190526100229161015d565b600080546001600160a01b0319166001600160a01b038816179055600161004986826102ac565b50600261005685826102ac565b50600361006384826102ac565b50600461007083826102ac565b506005555061036b9350505050565b80516001600160a01b038116811461009657600080fd5b919050565b634e487b7160e01b600052604160045260246000fd5b600082601f8301126100c257600080fd5b81516001600160401b03808211156100dc576100dc61009b565b604051601f8301601f19908116603f011681019082821181831017156101045761010461009b565b8160405283815260209250868385880101111561012057600080fd5b600091505b838210156101425785820183015181830184015290820190610125565b838211156101535760008385830101525b9695505050505050565b60008060008060008060c0878903121561017657600080fd5b61017f8761007f565b60208801519096506001600160401b038082111561019c57600080fd5b6101a88a838b016100b1565b965060408901519150808211156101be57600080fd5b6101ca8a838b016100b1565b955060608901519150808211156101e057600080fd5b6101ec8a838b016100b1565b9450608089015191508082111561020257600080fd5b5061020f89828a016100b1565b92505060a087015190509295509295509295565b600181811c9082168061023757607f821691505b60208210810361025757634e487b7160e01b600052602260045260246000fd5b50919050565b601f8211156102a757600081815260208120601f850160051c810160208610156102845750805b601f850160051c820191505b818110156102a357828155600101610290565b5050505b505050565b81516001600160401b038111156102c5576102c561009b565b6102d9816102d38454610223565b8461025d565b602080601f83116001811461030e57600084156102f65750858301515b600019600386901b1c1916600185901b1785556102a3565b600085815260208120601f198616915b8281101561033d5788860151825594840194600190910190840161031e565b508582101561035b5787850151600019600388901b60f8161c191681555b5050505050600190811b01905550565b6103f08061037a6000396000f3fe608060405234801561001057600080fd5b506004361061002b5760003560e01c806323bc839b14610030575b600080fd5b610038610053565b60405161004a9695949392919061030e565b60405180910390f35b600060608060608060008060009054906101000a90046001600160a01b0316600160026003600460055484805461008990610380565b80601f01602080910402602001604051908101604052809291908181526020018280546100b590610380565b80156101025780601f106100d757610100808354040283529160200191610102565b820191906000526020600020905b8154815290600101906020018083116100e557829003601f168201915b5050505050945083805461011590610380565b80601f016020809104026020016040519081016040528092919081815260200182805461014190610380565b801561018e5780601f106101635761010080835404028352916020019161018e565b820191906000526020600020905b81548152906001019060200180831161017157829003601f168201915b505050505093508280546101a190610380565b80601f01602080910402602001604051908101604052809291908181526020018280546101cd90610380565b801561021a5780601f106101ef5761010080835404028352916020019161021a565b820191906000526020600020905b8154815290600101906020018083116101fd57829003601f168201915b5050505050925081805461022d90610380565b80601f016020809104026020016040519081016040528092919081815260200182805461025990610380565b80156102a65780601f1061027b576101008083540402835291602001916102a6565b820191906000526020600020905b81548152906001019060200180831161028957829003601f168201915b50505050509150955095509550955095509550909192939495565b6000815180845260005b818110156102e7576020818501810151868301820152016102cb565b818111156102f9576000602083870101525b50601f01601f19169290920160200192915050565b6001600160a01b038716815260c060208201819052600090610332908301886102c1565b828103604084015261034481886102c1565b9050828103606084015261035881876102c1565b9050828103608084015261036c81866102c1565b9150508260a0830152979650505050505050565b600181811c9082168061039457607f821691505b6020821081036103b457634e487b7160e01b600052602260045260246000fd5b5091905056fea264697066735822122034d0611c2b3a44b250a9b7fd245451318ed6e4ecf5826fd5a9bb21146aa99f4664736f6c634300080f0033",
  "immutableReferences": {},
  "source": "// SPDX-License-Identifier: MIT\r\npragma solidity ^0.8.0;\r\n\r\ncontract Product{\r\n    \r\n    address payable owner;\r\n    string EIC_code;\r\n    string productName;\r\n    string priceConditions;\r\n    string direction;\r\n    uint256 rampingPeriod;\r\n\r\n    constructor(address payable _owner, string memory _EIC_code, string memory _productName, string memory _priceConditions, string memory _direction, uint256 _rampingPeriod) public payable{\r\n        owner = _owner;\r\n        EIC_code = _EIC_code;\r\n        productName = _productName;\r\n        priceConditions = _priceConditions;\r\n        direction = _direction;\r\n        rampingPeriod = _rampingPeriod;\r\n    }\r\n\r\n    function getProductDetails() external view returns(address payable, string memory, string memory, string memory, string memory, uint256){\r\n        return(owner, EIC_code, productName, priceConditions, direction, rampingPeriod);\r\n    }\r\n\r\n}",
  "sourcePath": "D:\\webdev projects\\flexibility\\fp-backend\\contracts\\Product.sol",
  "compiler": {
    "name": "solc",
    "version": "0.8.15+commit.e14f2714.Emscripten.clang"
  },
  "schemaVersion": "3.4.4",
  "updatedAt": "2022-07-20T12:14:25.834Z",
  "devdoc": {
    "kind": "dev",
    "methods": {},
    "version": 1
  },
  "userdoc": {
    "kind": "user",
    "methods": {},
    "version": 1
  }
}